{
	"contracts/organic.sol": {
		"CertificationContract": {
			"abi": [
				{
					"inputs": [
						{
							"internalType": "address",
							"name": "_pgcApprover",
							"type": "address"
						},
						{
							"internalType": "address",
							"name": "_thirdPartyApprover",
							"type": "address"
						}
					],
					"stateMutability": "nonpayable",
					"type": "constructor"
				},
				{
					"anonymous": false,
					"inputs": [
						{
							"indexed": false,
							"internalType": "uint256",
							"name": "certificateId",
							"type": "uint256"
						},
						{
							"indexed": false,
							"internalType": "bytes32",
							"name": "productHash",
							"type": "bytes32"
						}
					],
					"name": "CertificateIssued",
					"type": "event"
				},
				{
					"anonymous": false,
					"inputs": [
						{
							"indexed": false,
							"internalType": "bytes32",
							"name": "productHash",
							"type": "bytes32"
						}
					],
					"name": "PGCApproved",
					"type": "event"
				},
				{
					"anonymous": false,
					"inputs": [
						{
							"indexed": false,
							"internalType": "bytes32",
							"name": "productHash",
							"type": "bytes32"
						},
						{
							"indexed": false,
							"internalType": "string",
							"name": "name",
							"type": "string"
						}
					],
					"name": "ProductSubmitted",
					"type": "event"
				},
				{
					"anonymous": false,
					"inputs": [
						{
							"indexed": false,
							"internalType": "bytes32",
							"name": "productHash",
							"type": "bytes32"
						}
					],
					"name": "ThirdPartyApproved",
					"type": "event"
				},
				{
					"inputs": [
						{
							"internalType": "bytes32",
							"name": "productHash",
							"type": "bytes32"
						}
					],
					"name": "approveByPGC",
					"outputs": [],
					"stateMutability": "nonpayable",
					"type": "function"
				},
				{
					"inputs": [
						{
							"internalType": "bytes32",
							"name": "productHash",
							"type": "bytes32"
						}
					],
					"name": "approveByThirdParty",
					"outputs": [],
					"stateMutability": "nonpayable",
					"type": "function"
				},
				{
					"inputs": [],
					"name": "certIssuer",
					"outputs": [
						{
							"internalType": "address",
							"name": "",
							"type": "address"
						}
					],
					"stateMutability": "view",
					"type": "function"
				},
				{
					"inputs": [],
					"name": "certificateCounter",
					"outputs": [
						{
							"internalType": "uint256",
							"name": "",
							"type": "uint256"
						}
					],
					"stateMutability": "view",
					"type": "function"
				},
				{
					"inputs": [
						{
							"internalType": "uint256",
							"name": "",
							"type": "uint256"
						}
					],
					"name": "certificates",
					"outputs": [
						{
							"internalType": "string",
							"name": "name",
							"type": "string"
						},
						{
							"internalType": "string",
							"name": "origin",
							"type": "string"
						},
						{
							"internalType": "string",
							"name": "produceDate",
							"type": "string"
						},
						{
							"internalType": "string",
							"name": "farmerName",
							"type": "string"
						},
						{
							"internalType": "bool",
							"name": "pgcApproved",
							"type": "bool"
						},
						{
							"internalType": "bool",
							"name": "thirdPartyApproved",
							"type": "bool"
						},
						{
							"internalType": "bool",
							"name": "certified",
							"type": "bool"
						},
						{
							"internalType": "uint256",
							"name": "certificateId",
							"type": "uint256"
						}
					],
					"stateMutability": "view",
					"type": "function"
				},
				{
					"inputs": [
						{
							"internalType": "uint256",
							"name": "_id",
							"type": "uint256"
						}
					],
					"name": "getCertificate",
					"outputs": [
						{
							"internalType": "string",
							"name": "name",
							"type": "string"
						},
						{
							"internalType": "string",
							"name": "origin",
							"type": "string"
						},
						{
							"internalType": "string",
							"name": "produceDate",
							"type": "string"
						},
						{
							"internalType": "string",
							"name": "farmerName",
							"type": "string"
						},
						{
							"internalType": "bool",
							"name": "pgcApproved",
							"type": "bool"
						},
						{
							"internalType": "bool",
							"name": "thirdPartyApproved",
							"type": "bool"
						}
					],
					"stateMutability": "view",
					"type": "function"
				},
				{
					"inputs": [],
					"name": "pgcApprover",
					"outputs": [
						{
							"internalType": "address",
							"name": "",
							"type": "address"
						}
					],
					"stateMutability": "view",
					"type": "function"
				},
				{
					"inputs": [
						{
							"internalType": "bytes32",
							"name": "",
							"type": "bytes32"
						}
					],
					"name": "productRequests",
					"outputs": [
						{
							"internalType": "string",
							"name": "name",
							"type": "string"
						},
						{
							"internalType": "string",
							"name": "origin",
							"type": "string"
						},
						{
							"internalType": "string",
							"name": "produceDate",
							"type": "string"
						},
						{
							"internalType": "string",
							"name": "farmerName",
							"type": "string"
						},
						{
							"internalType": "bool",
							"name": "pgcApproved",
							"type": "bool"
						},
						{
							"internalType": "bool",
							"name": "thirdPartyApproved",
							"type": "bool"
						},
						{
							"internalType": "bool",
							"name": "certified",
							"type": "bool"
						},
						{
							"internalType": "uint256",
							"name": "certificateId",
							"type": "uint256"
						}
					],
					"stateMutability": "view",
					"type": "function"
				},
				{
					"inputs": [
						{
							"internalType": "string",
							"name": "_name",
							"type": "string"
						},
						{
							"internalType": "string",
							"name": "_origin",
							"type": "string"
						},
						{
							"internalType": "string",
							"name": "_produceDate",
							"type": "string"
						},
						{
							"internalType": "string",
							"name": "_farmerName",
							"type": "string"
						}
					],
					"name": "submitProduct",
					"outputs": [],
					"stateMutability": "nonpayable",
					"type": "function"
				},
				{
					"inputs": [],
					"name": "thirdPartyApprover",
					"outputs": [
						{
							"internalType": "address",
							"name": "",
							"type": "address"
						}
					],
					"stateMutability": "view",
					"type": "function"
				}
			],
			"devdoc": {
				"kind": "dev",
				"methods": {},
				"version": 1
			},
			"evm": {
				"assembly": "    /* \"contracts/organic.sol\":60:3940  contract CertificationContract {... */\n  mstore(0x40, 0x80)\n    /* \"contracts/organic.sol\":1224:1417  constructor(address _pgcApprover, address _thirdPartyApprover) {... */\n  callvalue\n  dup1\n  iszero\n  tag_1\n  jumpi\n  0x00\n  dup1\n  revert\ntag_1:\n  pop\n  mload(0x40)\n  sub(codesize, bytecodeSize)\n  dup1\n  bytecodeSize\n  dup4\n  codecopy\n  dup2\n  dup2\n  add\n  0x40\n  mstore\n  dup2\n  add\n  swap1\n  tag_2\n  swap2\n  swap1\n  tag_3\n  jump\t// in\ntag_2:\n    /* \"contracts/organic.sol\":1311:1321  msg.sender */\n  caller\n    /* \"contracts/organic.sol\":1298:1308  certIssuer */\n  0x00\n  dup1\n    /* \"contracts/organic.sol\":1298:1321  certIssuer = msg.sender */\n  0x0100\n  exp\n  dup2\n  sload\n  dup2\n  0xffffffffffffffffffffffffffffffffffffffff\n  mul\n  not\n  and\n  swap1\n  dup4\n  0xffffffffffffffffffffffffffffffffffffffff\n  and\n  mul\n  or\n  swap1\n  sstore\n  pop\n    /* \"contracts/organic.sol\":1346:1358  _pgcApprover */\n  dup2\n    /* \"contracts/organic.sol\":1332:1343  pgcApprover */\n  0x01\n  0x00\n    /* \"contracts/organic.sol\":1332:1358  pgcApprover = _pgcApprover */\n  0x0100\n  exp\n  dup2\n  sload\n  dup2\n  0xffffffffffffffffffffffffffffffffffffffff\n  mul\n  not\n  and\n  swap1\n  dup4\n  0xffffffffffffffffffffffffffffffffffffffff\n  and\n  mul\n  or\n  swap1\n  sstore\n  pop\n    /* \"contracts/organic.sol\":1390:1409  _thirdPartyApprover */\n  dup1\n    /* \"contracts/organic.sol\":1369:1387  thirdPartyApprover */\n  0x02\n  0x00\n    /* \"contracts/organic.sol\":1369:1409  thirdPartyApprover = _thirdPartyApprover */\n  0x0100\n  exp\n  dup2\n  sload\n  dup2\n  0xffffffffffffffffffffffffffffffffffffffff\n  mul\n  not\n  and\n  swap1\n  dup4\n  0xffffffffffffffffffffffffffffffffffffffff\n  and\n  mul\n  or\n  swap1\n  sstore\n  pop\n    /* \"contracts/organic.sol\":1224:1417  constructor(address _pgcApprover, address _thirdPartyApprover) {... */\n  pop\n  pop\n    /* \"contracts/organic.sol\":60:3940  contract CertificationContract {... */\n  jump(tag_6)\n    /* \"#utility.yul\":88:205   */\ntag_8:\n    /* \"#utility.yul\":197:198   */\n  0x00\n    /* \"#utility.yul\":194:195   */\n  dup1\n    /* \"#utility.yul\":187:199   */\n  revert\n    /* \"#utility.yul\":334:460   */\ntag_10:\n    /* \"#utility.yul\":371:378   */\n  0x00\n    /* \"#utility.yul\":411:453   */\n  0xffffffffffffffffffffffffffffffffffffffff\n    /* \"#utility.yul\":404:409   */\n  dup3\n    /* \"#utility.yul\":400:454   */\n  and\n    /* \"#utility.yul\":389:454   */\n  swap1\n  pop\n    /* \"#utility.yul\":334:460   */\n  swap2\n  swap1\n  pop\n  jump\t// out\n    /* \"#utility.yul\":466:562   */\ntag_11:\n    /* \"#utility.yul\":503:510   */\n  0x00\n    /* \"#utility.yul\":532:556   */\n  tag_20\n    /* \"#utility.yul\":550:555   */\n  dup3\n    /* \"#utility.yul\":532:556   */\n  tag_10\n  jump\t// in\ntag_20:\n    /* \"#utility.yul\":521:556   */\n  swap1\n  pop\n    /* \"#utility.yul\":466:562   */\n  swap2\n  swap1\n  pop\n  jump\t// out\n    /* \"#utility.yul\":568:690   */\ntag_12:\n    /* \"#utility.yul\":641:665   */\n  tag_22\n    /* \"#utility.yul\":659:664   */\n  dup2\n    /* \"#utility.yul\":641:665   */\n  tag_11\n  jump\t// in\ntag_22:\n    /* \"#utility.yul\":634:639   */\n  dup2\n    /* \"#utility.yul\":631:666   */\n  eq\n    /* \"#utility.yul\":621:684   */\n  tag_23\n  jumpi\n    /* \"#utility.yul\":680:681   */\n  0x00\n    /* \"#utility.yul\":677:678   */\n  dup1\n    /* \"#utility.yul\":670:682   */\n  revert\n    /* \"#utility.yul\":621:684   */\ntag_23:\n    /* \"#utility.yul\":568:690   */\n  pop\n  jump\t// out\n    /* \"#utility.yul\":696:839   */\ntag_13:\n    /* \"#utility.yul\":753:758   */\n  0x00\n    /* \"#utility.yul\":784:790   */\n  dup2\n    /* \"#utility.yul\":778:791   */\n  mload\n    /* \"#utility.yul\":769:791   */\n  swap1\n  pop\n    /* \"#utility.yul\":800:833   */\n  tag_25\n    /* \"#utility.yul\":827:832   */\n  dup2\n    /* \"#utility.yul\":800:833   */\n  tag_12\n  jump\t// in\ntag_25:\n    /* \"#utility.yul\":696:839   */\n  swap3\n  swap2\n  pop\n  pop\n  jump\t// out\n    /* \"#utility.yul\":845:1352   */\ntag_3:\n    /* \"#utility.yul\":924:930   */\n  0x00\n    /* \"#utility.yul\":932:938   */\n  dup1\n    /* \"#utility.yul\":981:983   */\n  0x40\n    /* \"#utility.yul\":969:978   */\n  dup4\n    /* \"#utility.yul\":960:967   */\n  dup6\n    /* \"#utility.yul\":956:979   */\n  sub\n    /* \"#utility.yul\":952:984   */\n  slt\n    /* \"#utility.yul\":949:1068   */\n  iszero\n  tag_27\n  jumpi\n    /* \"#utility.yul\":987:1066   */\n  tag_28\n  tag_8\n  jump\t// in\ntag_28:\n    /* \"#utility.yul\":949:1068   */\ntag_27:\n    /* \"#utility.yul\":1107:1108   */\n  0x00\n    /* \"#utility.yul\":1132:1196   */\n  tag_29\n    /* \"#utility.yul\":1188:1195   */\n  dup6\n    /* \"#utility.yul\":1179:1185   */\n  dup3\n    /* \"#utility.yul\":1168:1177   */\n  dup7\n    /* \"#utility.yul\":1164:1186   */\n  add\n    /* \"#utility.yul\":1132:1196   */\n  tag_13\n  jump\t// in\ntag_29:\n    /* \"#utility.yul\":1122:1196   */\n  swap3\n  pop\n    /* \"#utility.yul\":1078:1206   */\n  pop\n    /* \"#utility.yul\":1245:1247   */\n  0x20\n    /* \"#utility.yul\":1271:1335   */\n  tag_30\n    /* \"#utility.yul\":1327:1334   */\n  dup6\n    /* \"#utility.yul\":1318:1324   */\n  dup3\n    /* \"#utility.yul\":1307:1316   */\n  dup7\n    /* \"#utility.yul\":1303:1325   */\n  add\n    /* \"#utility.yul\":1271:1335   */\n  tag_13\n  jump\t// in\ntag_30:\n    /* \"#utility.yul\":1261:1335   */\n  swap2\n  pop\n    /* \"#utility.yul\":1216:1345   */\n  pop\n    /* \"#utility.yul\":845:1352   */\n  swap3\n  pop\n  swap3\n  swap1\n  pop\n  jump\t// out\n    /* \"contracts/organic.sol\":60:3940  contract CertificationContract {... */\ntag_6:\n  dataSize(sub_0)\n  dup1\n  dataOffset(sub_0)\n  0x00\n  codecopy\n  0x00\n  return\nstop\n\nsub_0: assembly {\n        /* \"contracts/organic.sol\":60:3940  contract CertificationContract {... */\n      mstore(0x40, 0x80)\n      callvalue\n      dup1\n      iszero\n      tag_1\n      jumpi\n      0x00\n      dup1\n      revert\n    tag_1:\n      pop\n      jumpi(tag_2, lt(calldatasize, 0x04))\n      shr(0xe0, calldataload(0x00))\n      dup1\n      0x8f6414e3\n      gt\n      tag_13\n      jumpi\n      dup1\n      0x8f6414e3\n      eq\n      tag_8\n      jumpi\n      dup1\n      0xb7b577ed\n      eq\n      tag_9\n      jumpi\n      dup1\n      0xd139d7e8\n      eq\n      tag_10\n      jumpi\n      dup1\n      0xd3a2157e\n      eq\n      tag_11\n      jumpi\n      dup1\n      0xdf4e214f\n      eq\n      tag_12\n      jumpi\n      jump(tag_2)\n    tag_13:\n      dup1\n      0x51640fee\n      eq\n      tag_3\n      jumpi\n      dup1\n      0x663b3e22\n      eq\n      tag_4\n      jumpi\n      dup1\n      0x67764b26\n      eq\n      tag_5\n      jumpi\n      dup1\n      0x6ad1b9fe\n      eq\n      tag_6\n      jumpi\n      dup1\n      0x86a658ff\n      eq\n      tag_7\n      jumpi\n    tag_2:\n      0x00\n      dup1\n      revert\n        /* \"contracts/organic.sol\":3413:3937  function getCertificate(uint256 _id) public view returns (... */\n    tag_3:\n      tag_14\n      0x04\n      dup1\n      calldatasize\n      sub\n      dup2\n      add\n      swap1\n      tag_15\n      swap2\n      swap1\n      tag_16\n      jump\t// in\n    tag_15:\n      tag_17\n      jump\t// in\n    tag_14:\n      mload(0x40)\n      tag_18\n      swap7\n      swap6\n      swap5\n      swap4\n      swap3\n      swap2\n      swap1\n      tag_19\n      jump\t// in\n    tag_18:\n      mload(0x40)\n      dup1\n      swap2\n      sub\n      swap1\n      return\n        /* \"contracts/organic.sol\":499:546  mapping(uint256 => Product) public certificates */\n    tag_4:\n      tag_20\n      0x04\n      dup1\n      calldatasize\n      sub\n      dup2\n      add\n      swap1\n      tag_21\n      swap2\n      swap1\n      tag_16\n      jump\t// in\n    tag_21:\n      tag_22\n      jump\t// in\n    tag_20:\n      mload(0x40)\n      tag_23\n      swap9\n      swap8\n      swap7\n      swap6\n      swap5\n      swap4\n      swap3\n      swap2\n      swap1\n      tag_24\n      jump\t// in\n    tag_23:\n      mload(0x40)\n      dup1\n      swap2\n      sub\n      swap1\n      return\n        /* \"contracts/organic.sol\":459:492  uint256 public certificateCounter */\n    tag_5:\n      tag_25\n      tag_26\n      jump\t// in\n    tag_25:\n      mload(0x40)\n      tag_27\n      swap2\n      swap1\n      tag_28\n      jump\t// in\n    tag_27:\n      mload(0x40)\n      dup1\n      swap2\n      sub\n      swap1\n      return\n        /* \"contracts/organic.sol\":2239:2494  function approveByPGC(bytes32 productHash) public onlyPGC {... */\n    tag_6:\n      tag_29\n      0x04\n      dup1\n      calldatasize\n      sub\n      dup2\n      add\n      swap1\n      tag_30\n      swap2\n      swap1\n      tag_31\n      jump\t// in\n    tag_30:\n      tag_32\n      jump\t// in\n    tag_29:\n      stop\n        /* \"contracts/organic.sol\":352:377  address public certIssuer */\n    tag_7:\n      tag_33\n      tag_34\n      jump\t// in\n    tag_33:\n      mload(0x40)\n      tag_35\n      swap2\n      swap1\n      tag_36\n      jump\t// in\n    tag_35:\n      mload(0x40)\n      dup1\n      swap2\n      sub\n      swap1\n      return\n        /* \"contracts/organic.sol\":1425:2231  function submitProduct(... */\n    tag_8:\n      tag_37\n      0x04\n      dup1\n      calldatasize\n      sub\n      dup2\n      add\n      swap1\n      tag_38\n      swap2\n      swap1\n      tag_39\n      jump\t// in\n    tag_38:\n      tag_40\n      jump\t// in\n    tag_37:\n      stop\n        /* \"contracts/organic.sol\":417:450  address public thirdPartyApprover */\n    tag_9:\n      tag_41\n      tag_42\n      jump\t// in\n    tag_41:\n      mload(0x40)\n      tag_43\n      swap2\n      swap1\n      tag_36\n      jump\t// in\n    tag_43:\n      mload(0x40)\n      dup1\n      swap2\n      sub\n      swap1\n      return\n        /* \"contracts/organic.sol\":384:410  address public pgcApprover */\n    tag_10:\n      tag_44\n      tag_45\n      jump\t// in\n    tag_44:\n      mload(0x40)\n      tag_46\n      swap2\n      swap1\n      tag_36\n      jump\t// in\n    tag_46:\n      mload(0x40)\n      dup1\n      swap2\n      sub\n      swap1\n      return\n        /* \"contracts/organic.sol\":2502:2868  function approveByThirdParty(bytes32 productHash) public onlyThirdParty {... */\n    tag_11:\n      tag_47\n      0x04\n      dup1\n      calldatasize\n      sub\n      dup2\n      add\n      swap1\n      tag_48\n      swap2\n      swap1\n      tag_31\n      jump\t// in\n    tag_48:\n      tag_49\n      jump\t// in\n    tag_47:\n      stop\n        /* \"contracts/organic.sol\":553:603  mapping(bytes32 => Product) public productRequests */\n    tag_12:\n      tag_50\n      0x04\n      dup1\n      calldatasize\n      sub\n      dup2\n      add\n      swap1\n      tag_51\n      swap2\n      swap1\n      tag_31\n      jump\t// in\n    tag_51:\n      tag_52\n      jump\t// in\n    tag_50:\n      mload(0x40)\n      tag_53\n      swap9\n      swap8\n      swap7\n      swap6\n      swap5\n      swap4\n      swap3\n      swap2\n      swap1\n      tag_24\n      jump\t// in\n    tag_53:\n      mload(0x40)\n      dup1\n      swap2\n      sub\n      swap1\n      return\n        /* \"contracts/organic.sol\":3413:3937  function getCertificate(uint256 _id) public view returns (... */\n    tag_17:\n        /* \"contracts/organic.sol\":3481:3499  string memory name */\n      0x60\n        /* \"contracts/organic.sol\":3510:3530  string memory origin */\n      dup1\n        /* \"contracts/organic.sol\":3541:3566  string memory produceDate */\n      0x60\n        /* \"contracts/organic.sol\":3577:3601  string memory farmerName */\n      dup1\n        /* \"contracts/organic.sol\":3612:3628  bool pgcApproved */\n      0x00\n        /* \"contracts/organic.sol\":3639:3662  bool thirdPartyApproved */\n      dup1\n        /* \"contracts/organic.sol\":3681:3700  Product memory cert */\n      0x00\n        /* \"contracts/organic.sol\":3703:3715  certificates */\n      0x04\n        /* \"contracts/organic.sol\":3703:3720  certificates[_id] */\n      0x00\n        /* \"contracts/organic.sol\":3716:3719  _id */\n      dup10\n        /* \"contracts/organic.sol\":3703:3720  certificates[_id] */\n      dup2\n      mstore\n      0x20\n      add\n      swap1\n      dup2\n      mstore\n      0x20\n      add\n      0x00\n      keccak256\n        /* \"contracts/organic.sol\":3681:3720  Product memory cert = certificates[_id] */\n      mload(0x40)\n      dup1\n      0x0100\n      add\n      0x40\n      mstore\n      swap1\n      dup2\n      0x00\n      dup3\n      add\n      dup1\n      sload\n      tag_55\n      swap1\n      tag_56\n      jump\t// in\n    tag_55:\n      dup1\n      0x1f\n      add\n      0x20\n      dup1\n      swap2\n      div\n      mul\n      0x20\n      add\n      mload(0x40)\n      swap1\n      dup2\n      add\n      0x40\n      mstore\n      dup1\n      swap3\n      swap2\n      swap1\n      dup2\n      dup2\n      mstore\n      0x20\n      add\n      dup3\n      dup1\n      sload\n      tag_57\n      swap1\n      tag_56\n      jump\t// in\n    tag_57:\n      dup1\n      iszero\n      tag_58\n      jumpi\n      dup1\n      0x1f\n      lt\n      tag_59\n      jumpi\n      0x0100\n      dup1\n      dup4\n      sload\n      div\n      mul\n      dup4\n      mstore\n      swap2\n      0x20\n      add\n      swap2\n      jump(tag_58)\n    tag_59:\n      dup3\n      add\n      swap2\n      swap1\n      0x00\n      mstore\n      keccak256(0x00, 0x20)\n      swap1\n    tag_60:\n      dup2\n      sload\n      dup2\n      mstore\n      swap1\n      0x01\n      add\n      swap1\n      0x20\n      add\n      dup1\n      dup4\n      gt\n      tag_60\n      jumpi\n      dup3\n      swap1\n      sub\n      0x1f\n      and\n      dup3\n      add\n      swap2\n    tag_58:\n      pop\n      pop\n      pop\n      pop\n      pop\n      dup2\n      mstore\n      0x20\n      add\n      0x01\n      dup3\n      add\n      dup1\n      sload\n      tag_61\n      swap1\n      tag_56\n      jump\t// in\n    tag_61:\n      dup1\n      0x1f\n      add\n      0x20\n      dup1\n      swap2\n      div\n      mul\n      0x20\n      add\n      mload(0x40)\n      swap1\n      dup2\n      add\n      0x40\n      mstore\n      dup1\n      swap3\n      swap2\n      swap1\n      dup2\n      dup2\n      mstore\n      0x20\n      add\n      dup3\n      dup1\n      sload\n      tag_62\n      swap1\n      tag_56\n      jump\t// in\n    tag_62:\n      dup1\n      iszero\n      tag_63\n      jumpi\n      dup1\n      0x1f\n      lt\n      tag_64\n      jumpi\n      0x0100\n      dup1\n      dup4\n      sload\n      div\n      mul\n      dup4\n      mstore\n      swap2\n      0x20\n      add\n      swap2\n      jump(tag_63)\n    tag_64:\n      dup3\n      add\n      swap2\n      swap1\n      0x00\n      mstore\n      keccak256(0x00, 0x20)\n      swap1\n    tag_65:\n      dup2\n      sload\n      dup2\n      mstore\n      swap1\n      0x01\n      add\n      swap1\n      0x20\n      add\n      dup1\n      dup4\n      gt\n      tag_65\n      jumpi\n      dup3\n      swap1\n      sub\n      0x1f\n      and\n      dup3\n      add\n      swap2\n    tag_63:\n      pop\n      pop\n      pop\n      pop\n      pop\n      dup2\n      mstore\n      0x20\n      add\n      0x02\n      dup3\n      add\n      dup1\n      sload\n      tag_66\n      swap1\n      tag_56\n      jump\t// in\n    tag_66:\n      dup1\n      0x1f\n      add\n      0x20\n      dup1\n      swap2\n      div\n      mul\n      0x20\n      add\n      mload(0x40)\n      swap1\n      dup2\n      add\n      0x40\n      mstore\n      dup1\n      swap3\n      swap2\n      swap1\n      dup2\n      dup2\n      mstore\n      0x20\n      add\n      dup3\n      dup1\n      sload\n      tag_67\n      swap1\n      tag_56\n      jump\t// in\n    tag_67:\n      dup1\n      iszero\n      tag_68\n      jumpi\n      dup1\n      0x1f\n      lt\n      tag_69\n      jumpi\n      0x0100\n      dup1\n      dup4\n      sload\n      div\n      mul\n      dup4\n      mstore\n      swap2\n      0x20\n      add\n      swap2\n      jump(tag_68)\n    tag_69:\n      dup3\n      add\n      swap2\n      swap1\n      0x00\n      mstore\n      keccak256(0x00, 0x20)\n      swap1\n    tag_70:\n      dup2\n      sload\n      dup2\n      mstore\n      swap1\n      0x01\n      add\n      swap1\n      0x20\n      add\n      dup1\n      dup4\n      gt\n      tag_70\n      jumpi\n      dup3\n      swap1\n      sub\n      0x1f\n      and\n      dup3\n      add\n      swap2\n    tag_68:\n      pop\n      pop\n      pop\n      pop\n      pop\n      dup2\n      mstore\n      0x20\n      add\n      0x03\n      dup3\n      add\n      dup1\n      sload\n      tag_71\n      swap1\n      tag_56\n      jump\t// in\n    tag_71:\n      dup1\n      0x1f\n      add\n      0x20\n      dup1\n      swap2\n      div\n      mul\n      0x20\n      add\n      mload(0x40)\n      swap1\n      dup2\n      add\n      0x40\n      mstore\n      dup1\n      swap3\n      swap2\n      swap1\n      dup2\n      dup2\n      mstore\n      0x20\n      add\n      dup3\n      dup1\n      sload\n      tag_72\n      swap1\n      tag_56\n      jump\t// in\n    tag_72:\n      dup1\n      iszero\n      tag_73\n      jumpi\n      dup1\n      0x1f\n      lt\n      tag_74\n      jumpi\n      0x0100\n      dup1\n      dup4\n      sload\n      div\n      mul\n      dup4\n      mstore\n      swap2\n      0x20\n      add\n      swap2\n      jump(tag_73)\n    tag_74:\n      dup3\n      add\n      swap2\n      swap1\n      0x00\n      mstore\n      keccak256(0x00, 0x20)\n      swap1\n    tag_75:\n      dup2\n      sload\n      dup2\n      mstore\n      swap1\n      0x01\n      add\n      swap1\n      0x20\n      add\n      dup1\n      dup4\n      gt\n      tag_75\n      jumpi\n      dup3\n      swap1\n      sub\n      0x1f\n      and\n      dup3\n      add\n      swap2\n    tag_73:\n      pop\n      pop\n      pop\n      pop\n      pop\n      dup2\n      mstore\n      0x20\n      add\n      0x04\n      dup3\n      add\n      0x00\n      swap1\n      sload\n      swap1\n      0x0100\n      exp\n      swap1\n      div\n      0xff\n      and\n      iszero\n      iszero\n      iszero\n      iszero\n      dup2\n      mstore\n      0x20\n      add\n      0x04\n      dup3\n      add\n      0x01\n      swap1\n      sload\n      swap1\n      0x0100\n      exp\n      swap1\n      div\n      0xff\n      and\n      iszero\n      iszero\n      iszero\n      iszero\n      dup2\n      mstore\n      0x20\n      add\n      0x04\n      dup3\n      add\n      0x02\n      swap1\n      sload\n      swap1\n      0x0100\n      exp\n      swap1\n      div\n      0xff\n      and\n      iszero\n      iszero\n      iszero\n      iszero\n      dup2\n      mstore\n      0x20\n      add\n      0x05\n      dup3\n      add\n      sload\n      dup2\n      mstore\n      pop\n      pop\n      swap1\n      pop\n        /* \"contracts/organic.sol\":3753:3757  cert */\n      dup1\n        /* \"contracts/organic.sol\":3753:3762  cert.name */\n      0x00\n      add\n      mload\n        /* \"contracts/organic.sol\":3777:3781  cert */\n      dup2\n        /* \"contracts/organic.sol\":3777:3788  cert.origin */\n      0x20\n      add\n      mload\n        /* \"contracts/organic.sol\":3803:3807  cert */\n      dup3\n        /* \"contracts/organic.sol\":3803:3819  cert.produceDate */\n      0x40\n      add\n      mload\n        /* \"contracts/organic.sol\":3834:3838  cert */\n      dup4\n        /* \"contracts/organic.sol\":3834:3849  cert.farmerName */\n      0x60\n      add\n      mload\n        /* \"contracts/organic.sol\":3864:3868  cert */\n      dup5\n        /* \"contracts/organic.sol\":3864:3880  cert.pgcApproved */\n      0x80\n      add\n      mload\n        /* \"contracts/organic.sol\":3895:3899  cert */\n      dup6\n        /* \"contracts/organic.sol\":3895:3918  cert.thirdPartyApproved */\n      0xa0\n      add\n      mload\n        /* \"contracts/organic.sol\":3731:3929  return (... */\n      swap7\n      pop\n      swap7\n      pop\n      swap7\n      pop\n      swap7\n      pop\n      swap7\n      pop\n      swap7\n      pop\n      pop\n        /* \"contracts/organic.sol\":3413:3937  function getCertificate(uint256 _id) public view returns (... */\n      swap2\n      swap4\n      swap6\n      pop\n      swap2\n      swap4\n      swap6\n      jump\t// out\n        /* \"contracts/organic.sol\":499:546  mapping(uint256 => Product) public certificates */\n    tag_22:\n      mstore(0x20, 0x04)\n      dup1\n      0x00\n      mstore\n      keccak256(0x00, 0x40)\n      0x00\n      swap2\n      pop\n      swap1\n      pop\n      dup1\n      0x00\n      add\n      dup1\n      sload\n      tag_76\n      swap1\n      tag_56\n      jump\t// in\n    tag_76:\n      dup1\n      0x1f\n      add\n      0x20\n      dup1\n      swap2\n      div\n      mul\n      0x20\n      add\n      mload(0x40)\n      swap1\n      dup2\n      add\n      0x40\n      mstore\n      dup1\n      swap3\n      swap2\n      swap1\n      dup2\n      dup2\n      mstore\n      0x20\n      add\n      dup3\n      dup1\n      sload\n      tag_77\n      swap1\n      tag_56\n      jump\t// in\n    tag_77:\n      dup1\n      iszero\n      tag_78\n      jumpi\n      dup1\n      0x1f\n      lt\n      tag_79\n      jumpi\n      0x0100\n      dup1\n      dup4\n      sload\n      div\n      mul\n      dup4\n      mstore\n      swap2\n      0x20\n      add\n      swap2\n      jump(tag_78)\n    tag_79:\n      dup3\n      add\n      swap2\n      swap1\n      0x00\n      mstore\n      keccak256(0x00, 0x20)\n      swap1\n    tag_80:\n      dup2\n      sload\n      dup2\n      mstore\n      swap1\n      0x01\n      add\n      swap1\n      0x20\n      add\n      dup1\n      dup4\n      gt\n      tag_80\n      jumpi\n      dup3\n      swap1\n      sub\n      0x1f\n      and\n      dup3\n      add\n      swap2\n    tag_78:\n      pop\n      pop\n      pop\n      pop\n      pop\n      swap1\n      dup1\n      0x01\n      add\n      dup1\n      sload\n      tag_81\n      swap1\n      tag_56\n      jump\t// in\n    tag_81:\n      dup1\n      0x1f\n      add\n      0x20\n      dup1\n      swap2\n      div\n      mul\n      0x20\n      add\n      mload(0x40)\n      swap1\n      dup2\n      add\n      0x40\n      mstore\n      dup1\n      swap3\n      swap2\n      swap1\n      dup2\n      dup2\n      mstore\n      0x20\n      add\n      dup3\n      dup1\n      sload\n      tag_82\n      swap1\n      tag_56\n      jump\t// in\n    tag_82:\n      dup1\n      iszero\n      tag_83\n      jumpi\n      dup1\n      0x1f\n      lt\n      tag_84\n      jumpi\n      0x0100\n      dup1\n      dup4\n      sload\n      div\n      mul\n      dup4\n      mstore\n      swap2\n      0x20\n      add\n      swap2\n      jump(tag_83)\n    tag_84:\n      dup3\n      add\n      swap2\n      swap1\n      0x00\n      mstore\n      keccak256(0x00, 0x20)\n      swap1\n    tag_85:\n      dup2\n      sload\n      dup2\n      mstore\n      swap1\n      0x01\n      add\n      swap1\n      0x20\n      add\n      dup1\n      dup4\n      gt\n      tag_85\n      jumpi\n      dup3\n      swap1\n      sub\n      0x1f\n      and\n      dup3\n      add\n      swap2\n    tag_83:\n      pop\n      pop\n      pop\n      pop\n      pop\n      swap1\n      dup1\n      0x02\n      add\n      dup1\n      sload\n      tag_86\n      swap1\n      tag_56\n      jump\t// in\n    tag_86:\n      dup1\n      0x1f\n      add\n      0x20\n      dup1\n      swap2\n      div\n      mul\n      0x20\n      add\n      mload(0x40)\n      swap1\n      dup2\n      add\n      0x40\n      mstore\n      dup1\n      swap3\n      swap2\n      swap1\n      dup2\n      dup2\n      mstore\n      0x20\n      add\n      dup3\n      dup1\n      sload\n      tag_87\n      swap1\n      tag_56\n      jump\t// in\n    tag_87:\n      dup1\n      iszero\n      tag_88\n      jumpi\n      dup1\n      0x1f\n      lt\n      tag_89\n      jumpi\n      0x0100\n      dup1\n      dup4\n      sload\n      div\n      mul\n      dup4\n      mstore\n      swap2\n      0x20\n      add\n      swap2\n      jump(tag_88)\n    tag_89:\n      dup3\n      add\n      swap2\n      swap1\n      0x00\n      mstore\n      keccak256(0x00, 0x20)\n      swap1\n    tag_90:\n      dup2\n      sload\n      dup2\n      mstore\n      swap1\n      0x01\n      add\n      swap1\n      0x20\n      add\n      dup1\n      dup4\n      gt\n      tag_90\n      jumpi\n      dup3\n      swap1\n      sub\n      0x1f\n      and\n      dup3\n      add\n      swap2\n    tag_88:\n      pop\n      pop\n      pop\n      pop\n      pop\n      swap1\n      dup1\n      0x03\n      add\n      dup1\n      sload\n      tag_91\n      swap1\n      tag_56\n      jump\t// in\n    tag_91:\n      dup1\n      0x1f\n      add\n      0x20\n      dup1\n      swap2\n      div\n      mul\n      0x20\n      add\n      mload(0x40)\n      swap1\n      dup2\n      add\n      0x40\n      mstore\n      dup1\n      swap3\n      swap2\n      swap1\n      dup2\n      dup2\n      mstore\n      0x20\n      add\n      dup3\n      dup1\n      sload\n      tag_92\n      swap1\n      tag_56\n      jump\t// in\n    tag_92:\n      dup1\n      iszero\n      tag_93\n      jumpi\n      dup1\n      0x1f\n      lt\n      tag_94\n      jumpi\n      0x0100\n      dup1\n      dup4\n      sload\n      div\n      mul\n      dup4\n      mstore\n      swap2\n      0x20\n      add\n      swap2\n      jump(tag_93)\n    tag_94:\n      dup3\n      add\n      swap2\n      swap1\n      0x00\n      mstore\n      keccak256(0x00, 0x20)\n      swap1\n    tag_95:\n      dup2\n      sload\n      dup2\n      mstore\n      swap1\n      0x01\n      add\n      swap1\n      0x20\n      add\n      dup1\n      dup4\n      gt\n      tag_95\n      jumpi\n      dup3\n      swap1\n      sub\n      0x1f\n      and\n      dup3\n      add\n      swap2\n    tag_93:\n      pop\n      pop\n      pop\n      pop\n      pop\n      swap1\n      dup1\n      0x04\n      add\n      0x00\n      swap1\n      sload\n      swap1\n      0x0100\n      exp\n      swap1\n      div\n      0xff\n      and\n      swap1\n      dup1\n      0x04\n      add\n      0x01\n      swap1\n      sload\n      swap1\n      0x0100\n      exp\n      swap1\n      div\n      0xff\n      and\n      swap1\n      dup1\n      0x04\n      add\n      0x02\n      swap1\n      sload\n      swap1\n      0x0100\n      exp\n      swap1\n      div\n      0xff\n      and\n      swap1\n      dup1\n      0x05\n      add\n      sload\n      swap1\n      pop\n      dup9\n      jump\t// out\n        /* \"contracts/organic.sol\":459:492  uint256 public certificateCounter */\n    tag_26:\n      sload(0x03)\n      dup2\n      jump\t// out\n        /* \"contracts/organic.sol\":2239:2494  function approveByPGC(bytes32 productHash) public onlyPGC {... */\n    tag_32:\n        /* \"contracts/organic.sol\":1022:1033  pgcApprover */\n      0x01\n      0x00\n      swap1\n      sload\n      swap1\n      0x0100\n      exp\n      swap1\n      div\n      0xffffffffffffffffffffffffffffffffffffffff\n      and\n        /* \"contracts/organic.sol\":1008:1033  msg.sender == pgcApprover */\n      0xffffffffffffffffffffffffffffffffffffffff\n      and\n        /* \"contracts/organic.sol\":1008:1018  msg.sender */\n      caller\n        /* \"contracts/organic.sol\":1008:1033  msg.sender == pgcApprover */\n      0xffffffffffffffffffffffffffffffffffffffff\n      and\n      eq\n        /* \"contracts/organic.sol\":1000:1058  require(msg.sender == pgcApprover, \"Only PGC can approve\") */\n      tag_97\n      jumpi\n      mload(0x40)\n      0x08c379a000000000000000000000000000000000000000000000000000000000\n      dup2\n      mstore\n      0x04\n      add\n      tag_98\n      swap1\n      tag_99\n      jump\t// in\n    tag_98:\n      mload(0x40)\n      dup1\n      swap2\n      sub\n      swap1\n      revert\n    tag_97:\n        /* \"contracts/organic.sol\":2367:2368  0 */\n      0x00\n        /* \"contracts/organic.sol\":2322:2337  productRequests */\n      0x05\n        /* \"contracts/organic.sol\":2322:2350  productRequests[productHash] */\n      0x00\n        /* \"contracts/organic.sol\":2338:2349  productHash */\n      dup4\n        /* \"contracts/organic.sol\":2322:2350  productRequests[productHash] */\n      dup2\n      mstore\n      0x20\n      add\n      swap1\n      dup2\n      mstore\n      0x20\n      add\n      0x00\n      keccak256\n        /* \"contracts/organic.sol\":2322:2355  productRequests[productHash].name */\n      0x00\n      add\n        /* \"contracts/organic.sol\":2316:2363  bytes(productRequests[productHash].name).length */\n      dup1\n      sload\n      tag_101\n      swap1\n      tag_56\n      jump\t// in\n    tag_101:\n      swap1\n      pop\n        /* \"contracts/organic.sol\":2316:2368  bytes(productRequests[productHash].name).length != 0 */\n      sub\n        /* \"contracts/organic.sol\":2308:2388  require(bytes(productRequests[productHash].name).length != 0, \"Invalid product\") */\n      tag_102\n      jumpi\n      mload(0x40)\n      0x08c379a000000000000000000000000000000000000000000000000000000000\n      dup2\n      mstore\n      0x04\n      add\n      tag_103\n      swap1\n      tag_104\n      jump\t// in\n    tag_103:\n      mload(0x40)\n      dup1\n      swap2\n      sub\n      swap1\n      revert\n    tag_102:\n        /* \"contracts/organic.sol\":2442:2446  true */\n      0x01\n        /* \"contracts/organic.sol\":2399:2414  productRequests */\n      0x05\n        /* \"contracts/organic.sol\":2399:2427  productRequests[productHash] */\n      0x00\n        /* \"contracts/organic.sol\":2415:2426  productHash */\n      dup4\n        /* \"contracts/organic.sol\":2399:2427  productRequests[productHash] */\n      dup2\n      mstore\n      0x20\n      add\n      swap1\n      dup2\n      mstore\n      0x20\n      add\n      0x00\n      keccak256\n        /* \"contracts/organic.sol\":2399:2439  productRequests[productHash].pgcApproved */\n      0x04\n      add\n      0x00\n        /* \"contracts/organic.sol\":2399:2446  productRequests[productHash].pgcApproved = true */\n      0x0100\n      exp\n      dup2\n      sload\n      dup2\n      0xff\n      mul\n      not\n      and\n      swap1\n      dup4\n      iszero\n      iszero\n      mul\n      or\n      swap1\n      sstore\n      pop\n        /* \"contracts/organic.sol\":2462:2486  PGCApproved(productHash) */\n      0x6aeeed011c43f0d62737327740f49cd0cef5c3096f9e72dfe97c337c605e0c02\n        /* \"contracts/organic.sol\":2474:2485  productHash */\n      dup2\n        /* \"contracts/organic.sol\":2462:2486  PGCApproved(productHash) */\n      mload(0x40)\n      tag_105\n      swap2\n      swap1\n      tag_106\n      jump\t// in\n    tag_105:\n      mload(0x40)\n      dup1\n      swap2\n      sub\n      swap1\n      log1\n        /* \"contracts/organic.sol\":2239:2494  function approveByPGC(bytes32 productHash) public onlyPGC {... */\n      pop\n      jump\t// out\n        /* \"contracts/organic.sol\":352:377  address public certIssuer */\n    tag_34:\n      0x00\n      dup1\n      sload\n      swap1\n      0x0100\n      exp\n      swap1\n      div\n      0xffffffffffffffffffffffffffffffffffffffff\n      and\n      dup2\n      jump\t// out\n        /* \"contracts/organic.sol\":1425:2231  function submitProduct(... */\n    tag_40:\n        /* \"contracts/organic.sol\":903:913  certIssuer */\n      0x00\n      dup1\n      sload\n      swap1\n      0x0100\n      exp\n      swap1\n      div\n      0xffffffffffffffffffffffffffffffffffffffff\n      and\n        /* \"contracts/organic.sol\":889:913  msg.sender == certIssuer */\n      0xffffffffffffffffffffffffffffffffffffffff\n      and\n        /* \"contracts/organic.sol\":889:899  msg.sender */\n      caller\n        /* \"contracts/organic.sol\":889:913  msg.sender == certIssuer */\n      0xffffffffffffffffffffffffffffffffffffffff\n      and\n      eq\n        /* \"contracts/organic.sol\":881:942  require(msg.sender == certIssuer, \"Only Cert Issuer allowed\") */\n      tag_108\n      jumpi\n      mload(0x40)\n      0x08c379a000000000000000000000000000000000000000000000000000000000\n      dup2\n      mstore\n      0x04\n      add\n      tag_109\n      swap1\n      tag_110\n      jump\t// in\n    tag_109:\n      mload(0x40)\n      dup1\n      swap2\n      sub\n      swap1\n      revert\n    tag_108:\n        /* \"contracts/organic.sol\":1619:1638  bytes32 productHash */\n      0x00\n        /* \"contracts/organic.sol\":1682:1687  _name */\n      dup5\n        /* \"contracts/organic.sol\":1689:1696  _origin */\n      dup5\n        /* \"contracts/organic.sol\":1698:1710  _produceDate */\n      dup5\n        /* \"contracts/organic.sol\":1712:1723  _farmerName */\n      dup5\n        /* \"contracts/organic.sol\":1665:1724  abi.encodePacked(_name, _origin, _produceDate, _farmerName) */\n      add(0x20, mload(0x40))\n      tag_112\n      swap5\n      swap4\n      swap3\n      swap2\n      swap1\n      tag_113\n      jump\t// in\n    tag_112:\n      mload(0x40)\n      0x20\n      dup2\n      dup4\n      sub\n      sub\n      dup2\n      mstore\n      swap1\n      0x40\n      mstore\n        /* \"contracts/organic.sol\":1641:1735  keccak256(... */\n      dup1\n      mload\n      swap1\n      0x20\n      add\n      keccak256\n        /* \"contracts/organic.sol\":1619:1735  bytes32 productHash = keccak256(... */\n      swap1\n      pop\n        /* \"contracts/organic.sol\":1805:1806  0 */\n      0x00\n        /* \"contracts/organic.sol\":1760:1775  productRequests */\n      0x05\n        /* \"contracts/organic.sol\":1760:1788  productRequests[productHash] */\n      0x00\n        /* \"contracts/organic.sol\":1776:1787  productHash */\n      dup4\n        /* \"contracts/organic.sol\":1760:1788  productRequests[productHash] */\n      dup2\n      mstore\n      0x20\n      add\n      swap1\n      dup2\n      mstore\n      0x20\n      add\n      0x00\n      keccak256\n        /* \"contracts/organic.sol\":1760:1793  productRequests[productHash].name */\n      0x00\n      add\n        /* \"contracts/organic.sol\":1754:1801  bytes(productRequests[productHash].name).length */\n      dup1\n      sload\n      tag_114\n      swap1\n      tag_56\n      jump\t// in\n    tag_114:\n      swap1\n      pop\n        /* \"contracts/organic.sol\":1754:1806  bytes(productRequests[productHash].name).length == 0 */\n      eq\n        /* \"contracts/organic.sol\":1746:1836  require(bytes(productRequests[productHash].name).length == 0, \"Product already submitted\") */\n      tag_115\n      jumpi\n      mload(0x40)\n      0x08c379a000000000000000000000000000000000000000000000000000000000\n      dup2\n      mstore\n      0x04\n      add\n      tag_116\n      swap1\n      tag_117\n      jump\t// in\n    tag_116:\n      mload(0x40)\n      dup1\n      swap2\n      sub\n      swap1\n      revert\n    tag_115:\n        /* \"contracts/organic.sol\":1880:2169  Product({... */\n      mload(0x40)\n      dup1\n      0x0100\n      add\n      0x40\n      mstore\n      dup1\n        /* \"contracts/organic.sol\":1909:1914  _name */\n      dup7\n        /* \"contracts/organic.sol\":1880:2169  Product({... */\n      dup2\n      mstore\n      0x20\n      add\n        /* \"contracts/organic.sol\":1937:1944  _origin */\n      dup6\n        /* \"contracts/organic.sol\":1880:2169  Product({... */\n      dup2\n      mstore\n      0x20\n      add\n        /* \"contracts/organic.sol\":1972:1984  _produceDate */\n      dup5\n        /* \"contracts/organic.sol\":1880:2169  Product({... */\n      dup2\n      mstore\n      0x20\n      add\n        /* \"contracts/organic.sol\":2011:2022  _farmerName */\n      dup4\n        /* \"contracts/organic.sol\":1880:2169  Product({... */\n      dup2\n      mstore\n      0x20\n      add\n        /* \"contracts/organic.sol\":2050:2055  false */\n      0x00\n        /* \"contracts/organic.sol\":1880:2169  Product({... */\n      iszero\n      iszero\n      dup2\n      mstore\n      0x20\n      add\n        /* \"contracts/organic.sol\":2090:2095  false */\n      0x00\n        /* \"contracts/organic.sol\":1880:2169  Product({... */\n      iszero\n      iszero\n      dup2\n      mstore\n      0x20\n      add\n        /* \"contracts/organic.sol\":2121:2126  false */\n      0x00\n        /* \"contracts/organic.sol\":1880:2169  Product({... */\n      iszero\n      iszero\n      dup2\n      mstore\n      0x20\n      add\n        /* \"contracts/organic.sol\":2156:2157  0 */\n      0x00\n        /* \"contracts/organic.sol\":1880:2169  Product({... */\n      dup2\n      mstore\n      pop\n        /* \"contracts/organic.sol\":1849:1864  productRequests */\n      0x05\n        /* \"contracts/organic.sol\":1849:1877  productRequests[productHash] */\n      0x00\n        /* \"contracts/organic.sol\":1865:1876  productHash */\n      dup4\n        /* \"contracts/organic.sol\":1849:1877  productRequests[productHash] */\n      dup2\n      mstore\n      0x20\n      add\n      swap1\n      dup2\n      mstore\n      0x20\n      add\n      0x00\n      keccak256\n        /* \"contracts/organic.sol\":1849:2169  productRequests[productHash] = Product({... */\n      0x00\n      dup3\n      add\n      mload\n      dup2\n      0x00\n      add\n      swap1\n      dup2\n      tag_118\n      swap2\n      swap1\n      tag_119\n      jump\t// in\n    tag_118:\n      pop\n      0x20\n      dup3\n      add\n      mload\n      dup2\n      0x01\n      add\n      swap1\n      dup2\n      tag_120\n      swap2\n      swap1\n      tag_119\n      jump\t// in\n    tag_120:\n      pop\n      0x40\n      dup3\n      add\n      mload\n      dup2\n      0x02\n      add\n      swap1\n      dup2\n      tag_121\n      swap2\n      swap1\n      tag_119\n      jump\t// in\n    tag_121:\n      pop\n      0x60\n      dup3\n      add\n      mload\n      dup2\n      0x03\n      add\n      swap1\n      dup2\n      tag_122\n      swap2\n      swap1\n      tag_119\n      jump\t// in\n    tag_122:\n      pop\n      0x80\n      dup3\n      add\n      mload\n      dup2\n      0x04\n      add\n      exp(0x0100, 0x00)\n      dup2\n      sload\n      dup2\n      0xff\n      mul\n      not\n      and\n      swap1\n      dup4\n      iszero\n      iszero\n      mul\n      or\n      swap1\n      sstore\n      pop\n      0xa0\n      dup3\n      add\n      mload\n      dup2\n      0x04\n      add\n      exp(0x0100, 0x01)\n      dup2\n      sload\n      dup2\n      0xff\n      mul\n      not\n      and\n      swap1\n      dup4\n      iszero\n      iszero\n      mul\n      or\n      swap1\n      sstore\n      pop\n      0xc0\n      dup3\n      add\n      mload\n      dup2\n      0x04\n      add\n      exp(0x0100, 0x02)\n      dup2\n      sload\n      dup2\n      0xff\n      mul\n      not\n      and\n      swap1\n      dup4\n      iszero\n      iszero\n      mul\n      or\n      swap1\n      sstore\n      pop\n      0xe0\n      dup3\n      add\n      mload\n      dup2\n      0x05\n      add\n      sstore\n      swap1\n      pop\n      pop\n        /* \"contracts/organic.sol\":2187:2223  ProductSubmitted(productHash, _name) */\n      0x60c184920fa378f84abb62c243160b19a4808cd6855ccc2315bfe68e11ae87bb\n        /* \"contracts/organic.sol\":2204:2215  productHash */\n      dup2\n        /* \"contracts/organic.sol\":2217:2222  _name */\n      dup7\n        /* \"contracts/organic.sol\":2187:2223  ProductSubmitted(productHash, _name) */\n      mload(0x40)\n      tag_123\n      swap3\n      swap2\n      swap1\n      tag_124\n      jump\t// in\n    tag_123:\n      mload(0x40)\n      dup1\n      swap2\n      sub\n      swap1\n      log1\n        /* \"contracts/organic.sol\":1608:2231  {... */\n      pop\n        /* \"contracts/organic.sol\":1425:2231  function submitProduct(... */\n      pop\n      pop\n      pop\n      pop\n      jump\t// out\n        /* \"contracts/organic.sol\":417:450  address public thirdPartyApprover */\n    tag_42:\n      0x02\n      0x00\n      swap1\n      sload\n      swap1\n      0x0100\n      exp\n      swap1\n      div\n      0xffffffffffffffffffffffffffffffffffffffff\n      and\n      dup2\n      jump\t// out\n        /* \"contracts/organic.sol\":384:410  address public pgcApprover */\n    tag_45:\n      0x01\n      0x00\n      swap1\n      sload\n      swap1\n      0x0100\n      exp\n      swap1\n      div\n      0xffffffffffffffffffffffffffffffffffffffff\n      and\n      dup2\n      jump\t// out\n        /* \"contracts/organic.sol\":2502:2868  function approveByThirdParty(bytes32 productHash) public onlyThirdParty {... */\n    tag_49:\n        /* \"contracts/organic.sol\":1145:1163  thirdPartyApprover */\n      0x02\n      0x00\n      swap1\n      sload\n      swap1\n      0x0100\n      exp\n      swap1\n      div\n      0xffffffffffffffffffffffffffffffffffffffff\n      and\n        /* \"contracts/organic.sol\":1131:1163  msg.sender == thirdPartyApprover */\n      0xffffffffffffffffffffffffffffffffffffffff\n      and\n        /* \"contracts/organic.sol\":1131:1141  msg.sender */\n      caller\n        /* \"contracts/organic.sol\":1131:1163  msg.sender == thirdPartyApprover */\n      0xffffffffffffffffffffffffffffffffffffffff\n      and\n      eq\n        /* \"contracts/organic.sol\":1123:1196  require(msg.sender == thirdPartyApprover, \"Only Third Party can approve\") */\n      tag_126\n      jumpi\n      mload(0x40)\n      0x08c379a000000000000000000000000000000000000000000000000000000000\n      dup2\n      mstore\n      0x04\n      add\n      tag_127\n      swap1\n      tag_128\n      jump\t// in\n    tag_127:\n      mload(0x40)\n      dup1\n      swap2\n      sub\n      swap1\n      revert\n    tag_126:\n        /* \"contracts/organic.sol\":2593:2608  productRequests */\n      0x05\n        /* \"contracts/organic.sol\":2593:2621  productRequests[productHash] */\n      0x00\n        /* \"contracts/organic.sol\":2609:2620  productHash */\n      dup3\n        /* \"contracts/organic.sol\":2593:2621  productRequests[productHash] */\n      dup2\n      mstore\n      0x20\n      add\n      swap1\n      dup2\n      mstore\n      0x20\n      add\n      0x00\n      keccak256\n        /* \"contracts/organic.sol\":2593:2633  productRequests[productHash].pgcApproved */\n      0x04\n      add\n      0x00\n      swap1\n      sload\n      swap1\n      0x0100\n      exp\n      swap1\n      div\n      0xff\n      and\n        /* \"contracts/organic.sol\":2585:2665  require(productRequests[productHash].pgcApproved, \"PGC approval required first\") */\n      tag_130\n      jumpi\n      mload(0x40)\n      0x08c379a000000000000000000000000000000000000000000000000000000000\n      dup2\n      mstore\n      0x04\n      add\n      tag_131\n      swap1\n      tag_132\n      jump\t// in\n    tag_131:\n      mload(0x40)\n      dup1\n      swap2\n      sub\n      swap1\n      revert\n    tag_130:\n        /* \"contracts/organic.sol\":2726:2730  true */\n      0x01\n        /* \"contracts/organic.sol\":2676:2691  productRequests */\n      0x05\n        /* \"contracts/organic.sol\":2676:2704  productRequests[productHash] */\n      0x00\n        /* \"contracts/organic.sol\":2692:2703  productHash */\n      dup4\n        /* \"contracts/organic.sol\":2676:2704  productRequests[productHash] */\n      dup2\n      mstore\n      0x20\n      add\n      swap1\n      dup2\n      mstore\n      0x20\n      add\n      0x00\n      keccak256\n        /* \"contracts/organic.sol\":2676:2723  productRequests[productHash].thirdPartyApproved */\n      0x04\n      add\n      0x01\n        /* \"contracts/organic.sol\":2676:2730  productRequests[productHash].thirdPartyApproved = true */\n      0x0100\n      exp\n      dup2\n      sload\n      dup2\n      0xff\n      mul\n      not\n      and\n      swap1\n      dup4\n      iszero\n      iszero\n      mul\n      or\n      swap1\n      sstore\n      pop\n        /* \"contracts/organic.sol\":2746:2777  ThirdPartyApproved(productHash) */\n      0xcbc26642a4f007fe2e8269f61b594975f23352d39ca8c35c230fc53f1501af36\n        /* \"contracts/organic.sol\":2765:2776  productHash */\n      dup2\n        /* \"contracts/organic.sol\":2746:2777  ThirdPartyApproved(productHash) */\n      mload(0x40)\n      tag_133\n      swap2\n      swap1\n      tag_106\n      jump\t// in\n    tag_133:\n      mload(0x40)\n      dup1\n      swap2\n      sub\n      swap1\n      log1\n        /* \"contracts/organic.sol\":2827:2860  _generateCertificate(productHash) */\n      tag_134\n        /* \"contracts/organic.sol\":2848:2859  productHash */\n      dup2\n        /* \"contracts/organic.sol\":2827:2847  _generateCertificate */\n      tag_135\n        /* \"contracts/organic.sol\":2827:2860  _generateCertificate(productHash) */\n      jump\t// in\n    tag_134:\n        /* \"contracts/organic.sol\":2502:2868  function approveByThirdParty(bytes32 productHash) public onlyThirdParty {... */\n      pop\n      jump\t// out\n        /* \"contracts/organic.sol\":553:603  mapping(bytes32 => Product) public productRequests */\n    tag_52:\n      mstore(0x20, 0x05)\n      dup1\n      0x00\n      mstore\n      keccak256(0x00, 0x40)\n      0x00\n      swap2\n      pop\n      swap1\n      pop\n      dup1\n      0x00\n      add\n      dup1\n      sload\n      tag_136\n      swap1\n      tag_56\n      jump\t// in\n    tag_136:\n      dup1\n      0x1f\n      add\n      0x20\n      dup1\n      swap2\n      div\n      mul\n      0x20\n      add\n      mload(0x40)\n      swap1\n      dup2\n      add\n      0x40\n      mstore\n      dup1\n      swap3\n      swap2\n      swap1\n      dup2\n      dup2\n      mstore\n      0x20\n      add\n      dup3\n      dup1\n      sload\n      tag_137\n      swap1\n      tag_56\n      jump\t// in\n    tag_137:\n      dup1\n      iszero\n      tag_138\n      jumpi\n      dup1\n      0x1f\n      lt\n      tag_139\n      jumpi\n      0x0100\n      dup1\n      dup4\n      sload\n      div\n      mul\n      dup4\n      mstore\n      swap2\n      0x20\n      add\n      swap2\n      jump(tag_138)\n    tag_139:\n      dup3\n      add\n      swap2\n      swap1\n      0x00\n      mstore\n      keccak256(0x00, 0x20)\n      swap1\n    tag_140:\n      dup2\n      sload\n      dup2\n      mstore\n      swap1\n      0x01\n      add\n      swap1\n      0x20\n      add\n      dup1\n      dup4\n      gt\n      tag_140\n      jumpi\n      dup3\n      swap1\n      sub\n      0x1f\n      and\n      dup3\n      add\n      swap2\n    tag_138:\n      pop\n      pop\n      pop\n      pop\n      pop\n      swap1\n      dup1\n      0x01\n      add\n      dup1\n      sload\n      tag_141\n      swap1\n      tag_56\n      jump\t// in\n    tag_141:\n      dup1\n      0x1f\n      add\n      0x20\n      dup1\n      swap2\n      div\n      mul\n      0x20\n      add\n      mload(0x40)\n      swap1\n      dup2\n      add\n      0x40\n      mstore\n      dup1\n      swap3\n      swap2\n      swap1\n      dup2\n      dup2\n      mstore\n      0x20\n      add\n      dup3\n      dup1\n      sload\n      tag_142\n      swap1\n      tag_56\n      jump\t// in\n    tag_142:\n      dup1\n      iszero\n      tag_143\n      jumpi\n      dup1\n      0x1f\n      lt\n      tag_144\n      jumpi\n      0x0100\n      dup1\n      dup4\n      sload\n      div\n      mul\n      dup4\n      mstore\n      swap2\n      0x20\n      add\n      swap2\n      jump(tag_143)\n    tag_144:\n      dup3\n      add\n      swap2\n      swap1\n      0x00\n      mstore\n      keccak256(0x00, 0x20)\n      swap1\n    tag_145:\n      dup2\n      sload\n      dup2\n      mstore\n      swap1\n      0x01\n      add\n      swap1\n      0x20\n      add\n      dup1\n      dup4\n      gt\n      tag_145\n      jumpi\n      dup3\n      swap1\n      sub\n      0x1f\n      and\n      dup3\n      add\n      swap2\n    tag_143:\n      pop\n      pop\n      pop\n      pop\n      pop\n      swap1\n      dup1\n      0x02\n      add\n      dup1\n      sload\n      tag_146\n      swap1\n      tag_56\n      jump\t// in\n    tag_146:\n      dup1\n      0x1f\n      add\n      0x20\n      dup1\n      swap2\n      div\n      mul\n      0x20\n      add\n      mload(0x40)\n      swap1\n      dup2\n      add\n      0x40\n      mstore\n      dup1\n      swap3\n      swap2\n      swap1\n      dup2\n      dup2\n      mstore\n      0x20\n      add\n      dup3\n      dup1\n      sload\n      tag_147\n      swap1\n      tag_56\n      jump\t// in\n    tag_147:\n      dup1\n      iszero\n      tag_148\n      jumpi\n      dup1\n      0x1f\n      lt\n      tag_149\n      jumpi\n      0x0100\n      dup1\n      dup4\n      sload\n      div\n      mul\n      dup4\n      mstore\n      swap2\n      0x20\n      add\n      swap2\n      jump(tag_148)\n    tag_149:\n      dup3\n      add\n      swap2\n      swap1\n      0x00\n      mstore\n      keccak256(0x00, 0x20)\n      swap1\n    tag_150:\n      dup2\n      sload\n      dup2\n      mstore\n      swap1\n      0x01\n      add\n      swap1\n      0x20\n      add\n      dup1\n      dup4\n      gt\n      tag_150\n      jumpi\n      dup3\n      swap1\n      sub\n      0x1f\n      and\n      dup3\n      add\n      swap2\n    tag_148:\n      pop\n      pop\n      pop\n      pop\n      pop\n      swap1\n      dup1\n      0x03\n      add\n      dup1\n      sload\n      tag_151\n      swap1\n      tag_56\n      jump\t// in\n    tag_151:\n      dup1\n      0x1f\n      add\n      0x20\n      dup1\n      swap2\n      div\n      mul\n      0x20\n      add\n      mload(0x40)\n      swap1\n      dup2\n      add\n      0x40\n      mstore\n      dup1\n      swap3\n      swap2\n      swap1\n      dup2\n      dup2\n      mstore\n      0x20\n      add\n      dup3\n      dup1\n      sload\n      tag_152\n      swap1\n      tag_56\n      jump\t// in\n    tag_152:\n      dup1\n      iszero\n      tag_153\n      jumpi\n      dup1\n      0x1f\n      lt\n      tag_154\n      jumpi\n      0x0100\n      dup1\n      dup4\n      sload\n      div\n      mul\n      dup4\n      mstore\n      swap2\n      0x20\n      add\n      swap2\n      jump(tag_153)\n    tag_154:\n      dup3\n      add\n      swap2\n      swap1\n      0x00\n      mstore\n      keccak256(0x00, 0x20)\n      swap1\n    tag_155:\n      dup2\n      sload\n      dup2\n      mstore\n      swap1\n      0x01\n      add\n      swap1\n      0x20\n      add\n      dup1\n      dup4\n      gt\n      tag_155\n      jumpi\n      dup3\n      swap1\n      sub\n      0x1f\n      and\n      dup3\n      add\n      swap2\n    tag_153:\n      pop\n      pop\n      pop\n      pop\n      pop\n      swap1\n      dup1\n      0x04\n      add\n      0x00\n      swap1\n      sload\n      swap1\n      0x0100\n      exp\n      swap1\n      div\n      0xff\n      and\n      swap1\n      dup1\n      0x04\n      add\n      0x01\n      swap1\n      sload\n      swap1\n      0x0100\n      exp\n      swap1\n      div\n      0xff\n      and\n      swap1\n      dup1\n      0x04\n      add\n      0x02\n      swap1\n      sload\n      swap1\n      0x0100\n      exp\n      swap1\n      div\n      0xff\n      and\n      swap1\n      dup1\n      0x05\n      add\n      sload\n      swap1\n      pop\n      dup9\n      jump\t// out\n        /* \"contracts/organic.sol\":2876:3405  function _generateCertificate(bytes32 productHash) internal {... */\n    tag_135:\n        /* \"contracts/organic.sol\":2947:2970  Product storage product */\n      0x00\n        /* \"contracts/organic.sol\":2973:2988  productRequests */\n      0x05\n        /* \"contracts/organic.sol\":2973:3001  productRequests[productHash] */\n      0x00\n        /* \"contracts/organic.sol\":2989:3000  productHash */\n      dup4\n        /* \"contracts/organic.sol\":2973:3001  productRequests[productHash] */\n      dup2\n      mstore\n      0x20\n      add\n      swap1\n      dup2\n      mstore\n      0x20\n      add\n      0x00\n      keccak256\n        /* \"contracts/organic.sol\":2947:3001  Product storage product = productRequests[productHash] */\n      swap1\n      pop\n        /* \"contracts/organic.sol\":3020:3027  product */\n      dup1\n        /* \"contracts/organic.sol\":3020:3039  product.pgcApproved */\n      0x04\n      add\n      0x00\n      swap1\n      sload\n      swap1\n      0x0100\n      exp\n      swap1\n      div\n      0xff\n      and\n        /* \"contracts/organic.sol\":3020:3069  product.pgcApproved && product.thirdPartyApproved */\n      dup1\n      iszero\n      tag_157\n      jumpi\n      pop\n        /* \"contracts/organic.sol\":3043:3050  product */\n      dup1\n        /* \"contracts/organic.sol\":3043:3069  product.thirdPartyApproved */\n      0x04\n      add\n      0x01\n      swap1\n      sload\n      swap1\n      0x0100\n      exp\n      swap1\n      div\n      0xff\n      and\n        /* \"contracts/organic.sol\":3020:3069  product.pgcApproved && product.thirdPartyApproved */\n    tag_157:\n        /* \"contracts/organic.sol\":3012:3096  require(product.pgcApproved && product.thirdPartyApproved, \"All approvals required\") */\n      tag_158\n      jumpi\n      mload(0x40)\n      0x08c379a000000000000000000000000000000000000000000000000000000000\n      dup2\n      mstore\n      0x04\n      add\n      tag_159\n      swap1\n      tag_160\n      jump\t// in\n    tag_159:\n      mload(0x40)\n      dup1\n      swap2\n      sub\n      swap1\n      revert\n    tag_158:\n        /* \"contracts/organic.sol\":3116:3123  product */\n      dup1\n        /* \"contracts/organic.sol\":3116:3133  product.certified */\n      0x04\n      add\n      0x02\n      swap1\n      sload\n      swap1\n      0x0100\n      exp\n      swap1\n      div\n      0xff\n      and\n        /* \"contracts/organic.sol\":3115:3133  !product.certified */\n      iszero\n        /* \"contracts/organic.sol\":3107:3155  require(!product.certified, \"Already certified\") */\n      tag_161\n      jumpi\n      mload(0x40)\n      0x08c379a000000000000000000000000000000000000000000000000000000000\n      dup2\n      mstore\n      0x04\n      add\n      tag_162\n      swap1\n      tag_163\n      jump\t// in\n    tag_162:\n      mload(0x40)\n      dup1\n      swap2\n      sub\n      swap1\n      revert\n    tag_161:\n        /* \"contracts/organic.sol\":3168:3186  certificateCounter */\n      0x03\n      0x00\n        /* \"contracts/organic.sol\":3168:3188  certificateCounter++ */\n      dup2\n      sload\n      dup1\n      swap3\n      swap2\n      swap1\n      tag_164\n      swap1\n      tag_165\n      jump\t// in\n    tag_164:\n      swap2\n      swap1\n      pop\n      sstore\n      pop\n        /* \"contracts/organic.sol\":3219:3223  true */\n      0x01\n        /* \"contracts/organic.sol\":3199:3206  product */\n      dup2\n        /* \"contracts/organic.sol\":3199:3216  product.certified */\n      0x04\n      add\n      0x02\n        /* \"contracts/organic.sol\":3199:3223  product.certified = true */\n      0x0100\n      exp\n      dup2\n      sload\n      dup2\n      0xff\n      mul\n      not\n      and\n      swap1\n      dup4\n      iszero\n      iszero\n      mul\n      or\n      swap1\n      sstore\n      pop\n        /* \"contracts/organic.sol\":3258:3276  certificateCounter */\n      sload(0x03)\n        /* \"contracts/organic.sol\":3234:3241  product */\n      dup2\n        /* \"contracts/organic.sol\":3234:3255  product.certificateId */\n      0x05\n      add\n        /* \"contracts/organic.sol\":3234:3276  product.certificateId = certificateCounter */\n      dup2\n      swap1\n      sstore\n      pop\n        /* \"contracts/organic.sol\":3322:3329  product */\n      dup1\n        /* \"contracts/organic.sol\":3287:3299  certificates */\n      0x04\n        /* \"contracts/organic.sol\":3287:3319  certificates[certificateCounter] */\n      0x00\n        /* \"contracts/organic.sol\":3300:3318  certificateCounter */\n      sload(0x03)\n        /* \"contracts/organic.sol\":3287:3319  certificates[certificateCounter] */\n      dup2\n      mstore\n      0x20\n      add\n      swap1\n      dup2\n      mstore\n      0x20\n      add\n      0x00\n      keccak256\n        /* \"contracts/organic.sol\":3287:3329  certificates[certificateCounter] = product */\n      0x00\n      dup3\n      add\n      dup2\n      0x00\n      add\n      swap1\n      dup2\n      tag_166\n      swap2\n      swap1\n      tag_167\n      jump\t// in\n    tag_166:\n      pop\n      0x01\n      dup3\n      add\n      dup2\n      0x01\n      add\n      swap1\n      dup2\n      tag_168\n      swap2\n      swap1\n      tag_167\n      jump\t// in\n    tag_168:\n      pop\n      0x02\n      dup3\n      add\n      dup2\n      0x02\n      add\n      swap1\n      dup2\n      tag_169\n      swap2\n      swap1\n      tag_167\n      jump\t// in\n    tag_169:\n      pop\n      0x03\n      dup3\n      add\n      dup2\n      0x03\n      add\n      swap1\n      dup2\n      tag_170\n      swap2\n      swap1\n      tag_167\n      jump\t// in\n    tag_170:\n      pop\n      0x04\n      dup3\n      add\n      0x00\n      swap1\n      sload\n      swap1\n      0x0100\n      exp\n      swap1\n      div\n      0xff\n      and\n      dup2\n      0x04\n      add\n      exp(0x0100, 0x00)\n      dup2\n      sload\n      dup2\n      0xff\n      mul\n      not\n      and\n      swap1\n      dup4\n      iszero\n      iszero\n      mul\n      or\n      swap1\n      sstore\n      pop\n      0x04\n      dup3\n      add\n      0x01\n      swap1\n      sload\n      swap1\n      0x0100\n      exp\n      swap1\n      div\n      0xff\n      and\n      dup2\n      0x04\n      add\n      exp(0x0100, 0x01)\n      dup2\n      sload\n      dup2\n      0xff\n      mul\n      not\n      and\n      swap1\n      dup4\n      iszero\n      iszero\n      mul\n      or\n      swap1\n      sstore\n      pop\n      0x04\n      dup3\n      add\n      0x02\n      swap1\n      sload\n      swap1\n      0x0100\n      exp\n      swap1\n      div\n      0xff\n      and\n      dup2\n      0x04\n      add\n      exp(0x0100, 0x02)\n      dup2\n      sload\n      dup2\n      0xff\n      mul\n      not\n      and\n      swap1\n      dup4\n      iszero\n      iszero\n      mul\n      or\n      swap1\n      sstore\n      pop\n      0x05\n      dup3\n      add\n      sload\n      dup2\n      0x05\n      add\n      sstore\n      swap1\n      pop\n      pop\n        /* \"contracts/organic.sol\":3347:3397  CertificateIssued(certificateCounter, productHash) */\n      0xc771a3f3d4fd030711f3d1cdaa1998be2f0b7725cf9abfc87f05519cc09c9e0d\n        /* \"contracts/organic.sol\":3365:3383  certificateCounter */\n      sload(0x03)\n        /* \"contracts/organic.sol\":3385:3396  productHash */\n      dup4\n        /* \"contracts/organic.sol\":3347:3397  CertificateIssued(certificateCounter, productHash) */\n      mload(0x40)\n      tag_171\n      swap3\n      swap2\n      swap1\n      tag_172\n      jump\t// in\n    tag_171:\n      mload(0x40)\n      dup1\n      swap2\n      sub\n      swap1\n      log1\n        /* \"contracts/organic.sol\":2936:3405  {... */\n      pop\n        /* \"contracts/organic.sol\":2876:3405  function _generateCertificate(bytes32 productHash) internal {... */\n      pop\n      jump\t// out\n        /* \"#utility.yul\":7:82   */\n    tag_173:\n        /* \"#utility.yul\":40:46   */\n      0x00\n        /* \"#utility.yul\":73:75   */\n      0x40\n        /* \"#utility.yul\":67:76   */\n      mload\n        /* \"#utility.yul\":57:76   */\n      swap1\n      pop\n        /* \"#utility.yul\":7:82   */\n      swap1\n      jump\t// out\n        /* \"#utility.yul\":88:205   */\n    tag_174:\n        /* \"#utility.yul\":197:198   */\n      0x00\n        /* \"#utility.yul\":194:195   */\n      dup1\n        /* \"#utility.yul\":187:199   */\n      revert\n        /* \"#utility.yul\":211:328   */\n    tag_175:\n        /* \"#utility.yul\":320:321   */\n      0x00\n        /* \"#utility.yul\":317:318   */\n      dup1\n        /* \"#utility.yul\":310:322   */\n      revert\n        /* \"#utility.yul\":334:411   */\n    tag_176:\n        /* \"#utility.yul\":371:378   */\n      0x00\n        /* \"#utility.yul\":400:405   */\n      dup2\n        /* \"#utility.yul\":389:405   */\n      swap1\n      pop\n        /* \"#utility.yul\":334:411   */\n      swap2\n      swap1\n      pop\n      jump\t// out\n        /* \"#utility.yul\":417:539   */\n    tag_177:\n        /* \"#utility.yul\":490:514   */\n      tag_245\n        /* \"#utility.yul\":508:513   */\n      dup2\n        /* \"#utility.yul\":490:514   */\n      tag_176\n      jump\t// in\n    tag_245:\n        /* \"#utility.yul\":483:488   */\n      dup2\n        /* \"#utility.yul\":480:515   */\n      eq\n        /* \"#utility.yul\":470:533   */\n      tag_246\n      jumpi\n        /* \"#utility.yul\":529:530   */\n      0x00\n        /* \"#utility.yul\":526:527   */\n      dup1\n        /* \"#utility.yul\":519:531   */\n      revert\n        /* \"#utility.yul\":470:533   */\n    tag_246:\n        /* \"#utility.yul\":417:539   */\n      pop\n      jump\t// out\n        /* \"#utility.yul\":545:684   */\n    tag_178:\n        /* \"#utility.yul\":591:596   */\n      0x00\n        /* \"#utility.yul\":629:635   */\n      dup2\n        /* \"#utility.yul\":616:636   */\n      calldataload\n        /* \"#utility.yul\":607:636   */\n      swap1\n      pop\n        /* \"#utility.yul\":645:678   */\n      tag_248\n        /* \"#utility.yul\":672:677   */\n      dup2\n        /* \"#utility.yul\":645:678   */\n      tag_177\n      jump\t// in\n    tag_248:\n        /* \"#utility.yul\":545:684   */\n      swap3\n      swap2\n      pop\n      pop\n      jump\t// out\n        /* \"#utility.yul\":690:1019   */\n    tag_16:\n        /* \"#utility.yul\":749:755   */\n      0x00\n        /* \"#utility.yul\":798:800   */\n      0x20\n        /* \"#utility.yul\":786:795   */\n      dup3\n        /* \"#utility.yul\":777:784   */\n      dup5\n        /* \"#utility.yul\":773:796   */\n      sub\n        /* \"#utility.yul\":769:801   */\n      slt\n        /* \"#utility.yul\":766:885   */\n      iszero\n      tag_250\n      jumpi\n        /* \"#utility.yul\":804:883   */\n      tag_251\n      tag_174\n      jump\t// in\n    tag_251:\n        /* \"#utility.yul\":766:885   */\n    tag_250:\n        /* \"#utility.yul\":924:925   */\n      0x00\n        /* \"#utility.yul\":949:1002   */\n      tag_252\n        /* \"#utility.yul\":994:1001   */\n      dup5\n        /* \"#utility.yul\":985:991   */\n      dup3\n        /* \"#utility.yul\":974:983   */\n      dup6\n        /* \"#utility.yul\":970:992   */\n      add\n        /* \"#utility.yul\":949:1002   */\n      tag_178\n      jump\t// in\n    tag_252:\n        /* \"#utility.yul\":939:1002   */\n      swap2\n      pop\n        /* \"#utility.yul\":895:1012   */\n      pop\n        /* \"#utility.yul\":690:1019   */\n      swap3\n      swap2\n      pop\n      pop\n      jump\t// out\n        /* \"#utility.yul\":1025:1124   */\n    tag_179:\n        /* \"#utility.yul\":1077:1083   */\n      0x00\n        /* \"#utility.yul\":1111:1116   */\n      dup2\n        /* \"#utility.yul\":1105:1117   */\n      mload\n        /* \"#utility.yul\":1095:1117   */\n      swap1\n      pop\n        /* \"#utility.yul\":1025:1124   */\n      swap2\n      swap1\n      pop\n      jump\t// out\n        /* \"#utility.yul\":1130:1299   */\n    tag_180:\n        /* \"#utility.yul\":1214:1225   */\n      0x00\n        /* \"#utility.yul\":1248:1254   */\n      dup3\n        /* \"#utility.yul\":1243:1246   */\n      dup3\n        /* \"#utility.yul\":1236:1255   */\n      mstore\n        /* \"#utility.yul\":1288:1292   */\n      0x20\n        /* \"#utility.yul\":1283:1286   */\n      dup3\n        /* \"#utility.yul\":1279:1293   */\n      add\n        /* \"#utility.yul\":1264:1293   */\n      swap1\n      pop\n        /* \"#utility.yul\":1130:1299   */\n      swap3\n      swap2\n      pop\n      pop\n      jump\t// out\n        /* \"#utility.yul\":1305:1444   */\n    tag_181:\n        /* \"#utility.yul\":1394:1400   */\n      dup3\n        /* \"#utility.yul\":1389:1392   */\n      dup2\n        /* \"#utility.yul\":1384:1387   */\n      dup4\n        /* \"#utility.yul\":1378:1401   */\n      mcopy\n        /* \"#utility.yul\":1435:1436   */\n      0x00\n        /* \"#utility.yul\":1426:1432   */\n      dup4\n        /* \"#utility.yul\":1421:1424   */\n      dup4\n        /* \"#utility.yul\":1417:1433   */\n      add\n        /* \"#utility.yul\":1410:1437   */\n      mstore\n        /* \"#utility.yul\":1305:1444   */\n      pop\n      pop\n      pop\n      jump\t// out\n        /* \"#utility.yul\":1450:1552   */\n    tag_182:\n        /* \"#utility.yul\":1491:1497   */\n      0x00\n        /* \"#utility.yul\":1542:1544   */\n      0x1f\n        /* \"#utility.yul\":1538:1545   */\n      not\n        /* \"#utility.yul\":1533:1535   */\n      0x1f\n        /* \"#utility.yul\":1526:1531   */\n      dup4\n        /* \"#utility.yul\":1522:1536   */\n      add\n        /* \"#utility.yul\":1518:1546   */\n      and\n        /* \"#utility.yul\":1508:1546   */\n      swap1\n      pop\n        /* \"#utility.yul\":1450:1552   */\n      swap2\n      swap1\n      pop\n      jump\t// out\n        /* \"#utility.yul\":1558:1935   */\n    tag_183:\n        /* \"#utility.yul\":1646:1649   */\n      0x00\n        /* \"#utility.yul\":1674:1713   */\n      tag_258\n        /* \"#utility.yul\":1707:1712   */\n      dup3\n        /* \"#utility.yul\":1674:1713   */\n      tag_179\n      jump\t// in\n    tag_258:\n        /* \"#utility.yul\":1729:1800   */\n      tag_259\n        /* \"#utility.yul\":1793:1799   */\n      dup2\n        /* \"#utility.yul\":1788:1791   */\n      dup6\n        /* \"#utility.yul\":1729:1800   */\n      tag_180\n      jump\t// in\n    tag_259:\n        /* \"#utility.yul\":1722:1800   */\n      swap4\n      pop\n        /* \"#utility.yul\":1809:1874   */\n      tag_260\n        /* \"#utility.yul\":1867:1873   */\n      dup2\n        /* \"#utility.yul\":1862:1865   */\n      dup6\n        /* \"#utility.yul\":1855:1859   */\n      0x20\n        /* \"#utility.yul\":1848:1853   */\n      dup7\n        /* \"#utility.yul\":1844:1860   */\n      add\n        /* \"#utility.yul\":1809:1874   */\n      tag_181\n      jump\t// in\n    tag_260:\n        /* \"#utility.yul\":1899:1928   */\n      tag_261\n        /* \"#utility.yul\":1921:1927   */\n      dup2\n        /* \"#utility.yul\":1899:1928   */\n      tag_182\n      jump\t// in\n    tag_261:\n        /* \"#utility.yul\":1894:1897   */\n      dup5\n        /* \"#utility.yul\":1890:1929   */\n      add\n        /* \"#utility.yul\":1883:1929   */\n      swap2\n      pop\n        /* \"#utility.yul\":1650:1935   */\n      pop\n        /* \"#utility.yul\":1558:1935   */\n      swap3\n      swap2\n      pop\n      pop\n      jump\t// out\n        /* \"#utility.yul\":1941:2031   */\n    tag_184:\n        /* \"#utility.yul\":1975:1982   */\n      0x00\n        /* \"#utility.yul\":2018:2023   */\n      dup2\n        /* \"#utility.yul\":2011:2024   */\n      iszero\n        /* \"#utility.yul\":2004:2025   */\n      iszero\n        /* \"#utility.yul\":1993:2025   */\n      swap1\n      pop\n        /* \"#utility.yul\":1941:2031   */\n      swap2\n      swap1\n      pop\n      jump\t// out\n        /* \"#utility.yul\":2037:2146   */\n    tag_185:\n        /* \"#utility.yul\":2118:2139   */\n      tag_264\n        /* \"#utility.yul\":2133:2138   */\n      dup2\n        /* \"#utility.yul\":2118:2139   */\n      tag_184\n      jump\t// in\n    tag_264:\n        /* \"#utility.yul\":2113:2116   */\n      dup3\n        /* \"#utility.yul\":2106:2140   */\n      mstore\n        /* \"#utility.yul\":2037:2146   */\n      pop\n      pop\n      jump\t// out\n        /* \"#utility.yul\":2152:3267   */\n    tag_19:\n        /* \"#utility.yul\":2453:2457   */\n      0x00\n        /* \"#utility.yul\":2491:2494   */\n      0xc0\n        /* \"#utility.yul\":2480:2489   */\n      dup3\n        /* \"#utility.yul\":2476:2495   */\n      add\n        /* \"#utility.yul\":2468:2495   */\n      swap1\n      pop\n        /* \"#utility.yul\":2541:2550   */\n      dup2\n        /* \"#utility.yul\":2535:2539   */\n      dup2\n        /* \"#utility.yul\":2531:2551   */\n      sub\n        /* \"#utility.yul\":2527:2528   */\n      0x00\n        /* \"#utility.yul\":2516:2525   */\n      dup4\n        /* \"#utility.yul\":2512:2529   */\n      add\n        /* \"#utility.yul\":2505:2552   */\n      mstore\n        /* \"#utility.yul\":2569:2647   */\n      tag_266\n        /* \"#utility.yul\":2642:2646   */\n      dup2\n        /* \"#utility.yul\":2633:2639   */\n      dup10\n        /* \"#utility.yul\":2569:2647   */\n      tag_183\n      jump\t// in\n    tag_266:\n        /* \"#utility.yul\":2561:2647   */\n      swap1\n      pop\n        /* \"#utility.yul\":2694:2703   */\n      dup2\n        /* \"#utility.yul\":2688:2692   */\n      dup2\n        /* \"#utility.yul\":2684:2704   */\n      sub\n        /* \"#utility.yul\":2679:2681   */\n      0x20\n        /* \"#utility.yul\":2668:2677   */\n      dup4\n        /* \"#utility.yul\":2664:2682   */\n      add\n        /* \"#utility.yul\":2657:2705   */\n      mstore\n        /* \"#utility.yul\":2722:2800   */\n      tag_267\n        /* \"#utility.yul\":2795:2799   */\n      dup2\n        /* \"#utility.yul\":2786:2792   */\n      dup9\n        /* \"#utility.yul\":2722:2800   */\n      tag_183\n      jump\t// in\n    tag_267:\n        /* \"#utility.yul\":2714:2800   */\n      swap1\n      pop\n        /* \"#utility.yul\":2847:2856   */\n      dup2\n        /* \"#utility.yul\":2841:2845   */\n      dup2\n        /* \"#utility.yul\":2837:2857   */\n      sub\n        /* \"#utility.yul\":2832:2834   */\n      0x40\n        /* \"#utility.yul\":2821:2830   */\n      dup4\n        /* \"#utility.yul\":2817:2835   */\n      add\n        /* \"#utility.yul\":2810:2858   */\n      mstore\n        /* \"#utility.yul\":2875:2953   */\n      tag_268\n        /* \"#utility.yul\":2948:2952   */\n      dup2\n        /* \"#utility.yul\":2939:2945   */\n      dup8\n        /* \"#utility.yul\":2875:2953   */\n      tag_183\n      jump\t// in\n    tag_268:\n        /* \"#utility.yul\":2867:2953   */\n      swap1\n      pop\n        /* \"#utility.yul\":3000:3009   */\n      dup2\n        /* \"#utility.yul\":2994:2998   */\n      dup2\n        /* \"#utility.yul\":2990:3010   */\n      sub\n        /* \"#utility.yul\":2985:2987   */\n      0x60\n        /* \"#utility.yul\":2974:2983   */\n      dup4\n        /* \"#utility.yul\":2970:2988   */\n      add\n        /* \"#utility.yul\":2963:3011   */\n      mstore\n        /* \"#utility.yul\":3028:3106   */\n      tag_269\n        /* \"#utility.yul\":3101:3105   */\n      dup2\n        /* \"#utility.yul\":3092:3098   */\n      dup7\n        /* \"#utility.yul\":3028:3106   */\n      tag_183\n      jump\t// in\n    tag_269:\n        /* \"#utility.yul\":3020:3106   */\n      swap1\n      pop\n        /* \"#utility.yul\":3116:3183   */\n      tag_270\n        /* \"#utility.yul\":3178:3181   */\n      0x80\n        /* \"#utility.yul\":3167:3176   */\n      dup4\n        /* \"#utility.yul\":3163:3182   */\n      add\n        /* \"#utility.yul\":3154:3160   */\n      dup6\n        /* \"#utility.yul\":3116:3183   */\n      tag_185\n      jump\t// in\n    tag_270:\n        /* \"#utility.yul\":3193:3260   */\n      tag_271\n        /* \"#utility.yul\":3255:3258   */\n      0xa0\n        /* \"#utility.yul\":3244:3253   */\n      dup4\n        /* \"#utility.yul\":3240:3259   */\n      add\n        /* \"#utility.yul\":3231:3237   */\n      dup5\n        /* \"#utility.yul\":3193:3260   */\n      tag_185\n      jump\t// in\n    tag_271:\n        /* \"#utility.yul\":2152:3267   */\n      swap8\n      swap7\n      pop\n      pop\n      pop\n      pop\n      pop\n      pop\n      pop\n      jump\t// out\n        /* \"#utility.yul\":3273:3391   */\n    tag_186:\n        /* \"#utility.yul\":3360:3384   */\n      tag_273\n        /* \"#utility.yul\":3378:3383   */\n      dup2\n        /* \"#utility.yul\":3360:3384   */\n      tag_176\n      jump\t// in\n    tag_273:\n        /* \"#utility.yul\":3355:3358   */\n      dup3\n        /* \"#utility.yul\":3348:3385   */\n      mstore\n        /* \"#utility.yul\":3273:3391   */\n      pop\n      pop\n      jump\t// out\n        /* \"#utility.yul\":3397:4722   */\n    tag_24:\n        /* \"#utility.yul\":3748:3752   */\n      0x00\n        /* \"#utility.yul\":3786:3789   */\n      0x0100\n        /* \"#utility.yul\":3775:3784   */\n      dup3\n        /* \"#utility.yul\":3771:3790   */\n      add\n        /* \"#utility.yul\":3763:3790   */\n      swap1\n      pop\n        /* \"#utility.yul\":3836:3845   */\n      dup2\n        /* \"#utility.yul\":3830:3834   */\n      dup2\n        /* \"#utility.yul\":3826:3846   */\n      sub\n        /* \"#utility.yul\":3822:3823   */\n      0x00\n        /* \"#utility.yul\":3811:3820   */\n      dup4\n        /* \"#utility.yul\":3807:3824   */\n      add\n        /* \"#utility.yul\":3800:3847   */\n      mstore\n        /* \"#utility.yul\":3864:3942   */\n      tag_275\n        /* \"#utility.yul\":3937:3941   */\n      dup2\n        /* \"#utility.yul\":3928:3934   */\n      dup12\n        /* \"#utility.yul\":3864:3942   */\n      tag_183\n      jump\t// in\n    tag_275:\n        /* \"#utility.yul\":3856:3942   */\n      swap1\n      pop\n        /* \"#utility.yul\":3989:3998   */\n      dup2\n        /* \"#utility.yul\":3983:3987   */\n      dup2\n        /* \"#utility.yul\":3979:3999   */\n      sub\n        /* \"#utility.yul\":3974:3976   */\n      0x20\n        /* \"#utility.yul\":3963:3972   */\n      dup4\n        /* \"#utility.yul\":3959:3977   */\n      add\n        /* \"#utility.yul\":3952:4000   */\n      mstore\n        /* \"#utility.yul\":4017:4095   */\n      tag_276\n        /* \"#utility.yul\":4090:4094   */\n      dup2\n        /* \"#utility.yul\":4081:4087   */\n      dup11\n        /* \"#utility.yul\":4017:4095   */\n      tag_183\n      jump\t// in\n    tag_276:\n        /* \"#utility.yul\":4009:4095   */\n      swap1\n      pop\n        /* \"#utility.yul\":4142:4151   */\n      dup2\n        /* \"#utility.yul\":4136:4140   */\n      dup2\n        /* \"#utility.yul\":4132:4152   */\n      sub\n        /* \"#utility.yul\":4127:4129   */\n      0x40\n        /* \"#utility.yul\":4116:4125   */\n      dup4\n        /* \"#utility.yul\":4112:4130   */\n      add\n        /* \"#utility.yul\":4105:4153   */\n      mstore\n        /* \"#utility.yul\":4170:4248   */\n      tag_277\n        /* \"#utility.yul\":4243:4247   */\n      dup2\n        /* \"#utility.yul\":4234:4240   */\n      dup10\n        /* \"#utility.yul\":4170:4248   */\n      tag_183\n      jump\t// in\n    tag_277:\n        /* \"#utility.yul\":4162:4248   */\n      swap1\n      pop\n        /* \"#utility.yul\":4295:4304   */\n      dup2\n        /* \"#utility.yul\":4289:4293   */\n      dup2\n        /* \"#utility.yul\":4285:4305   */\n      sub\n        /* \"#utility.yul\":4280:4282   */\n      0x60\n        /* \"#utility.yul\":4269:4278   */\n      dup4\n        /* \"#utility.yul\":4265:4283   */\n      add\n        /* \"#utility.yul\":4258:4306   */\n      mstore\n        /* \"#utility.yul\":4323:4401   */\n      tag_278\n        /* \"#utility.yul\":4396:4400   */\n      dup2\n        /* \"#utility.yul\":4387:4393   */\n      dup9\n        /* \"#utility.yul\":4323:4401   */\n      tag_183\n      jump\t// in\n    tag_278:\n        /* \"#utility.yul\":4315:4401   */\n      swap1\n      pop\n        /* \"#utility.yul\":4411:4478   */\n      tag_279\n        /* \"#utility.yul\":4473:4476   */\n      0x80\n        /* \"#utility.yul\":4462:4471   */\n      dup4\n        /* \"#utility.yul\":4458:4477   */\n      add\n        /* \"#utility.yul\":4449:4455   */\n      dup8\n        /* \"#utility.yul\":4411:4478   */\n      tag_185\n      jump\t// in\n    tag_279:\n        /* \"#utility.yul\":4488:4555   */\n      tag_280\n        /* \"#utility.yul\":4550:4553   */\n      0xa0\n        /* \"#utility.yul\":4539:4548   */\n      dup4\n        /* \"#utility.yul\":4535:4554   */\n      add\n        /* \"#utility.yul\":4526:4532   */\n      dup7\n        /* \"#utility.yul\":4488:4555   */\n      tag_185\n      jump\t// in\n    tag_280:\n        /* \"#utility.yul\":4565:4632   */\n      tag_281\n        /* \"#utility.yul\":4627:4630   */\n      0xc0\n        /* \"#utility.yul\":4616:4625   */\n      dup4\n        /* \"#utility.yul\":4612:4631   */\n      add\n        /* \"#utility.yul\":4603:4609   */\n      dup6\n        /* \"#utility.yul\":4565:4632   */\n      tag_185\n      jump\t// in\n    tag_281:\n        /* \"#utility.yul\":4642:4715   */\n      tag_282\n        /* \"#utility.yul\":4710:4713   */\n      0xe0\n        /* \"#utility.yul\":4699:4708   */\n      dup4\n        /* \"#utility.yul\":4695:4714   */\n      add\n        /* \"#utility.yul\":4686:4692   */\n      dup5\n        /* \"#utility.yul\":4642:4715   */\n      tag_186\n      jump\t// in\n    tag_282:\n        /* \"#utility.yul\":3397:4722   */\n      swap10\n      swap9\n      pop\n      pop\n      pop\n      pop\n      pop\n      pop\n      pop\n      pop\n      pop\n      jump\t// out\n        /* \"#utility.yul\":4728:4950   */\n    tag_28:\n        /* \"#utility.yul\":4821:4825   */\n      0x00\n        /* \"#utility.yul\":4859:4861   */\n      0x20\n        /* \"#utility.yul\":4848:4857   */\n      dup3\n        /* \"#utility.yul\":4844:4862   */\n      add\n        /* \"#utility.yul\":4836:4862   */\n      swap1\n      pop\n        /* \"#utility.yul\":4872:4943   */\n      tag_284\n        /* \"#utility.yul\":4940:4941   */\n      0x00\n        /* \"#utility.yul\":4929:4938   */\n      dup4\n        /* \"#utility.yul\":4925:4942   */\n      add\n        /* \"#utility.yul\":4916:4922   */\n      dup5\n        /* \"#utility.yul\":4872:4943   */\n      tag_186\n      jump\t// in\n    tag_284:\n        /* \"#utility.yul\":4728:4950   */\n      swap3\n      swap2\n      pop\n      pop\n      jump\t// out\n        /* \"#utility.yul\":4956:5033   */\n    tag_187:\n        /* \"#utility.yul\":4993:5000   */\n      0x00\n        /* \"#utility.yul\":5022:5027   */\n      dup2\n        /* \"#utility.yul\":5011:5027   */\n      swap1\n      pop\n        /* \"#utility.yul\":4956:5033   */\n      swap2\n      swap1\n      pop\n      jump\t// out\n        /* \"#utility.yul\":5039:5161   */\n    tag_188:\n        /* \"#utility.yul\":5112:5136   */\n      tag_287\n        /* \"#utility.yul\":5130:5135   */\n      dup2\n        /* \"#utility.yul\":5112:5136   */\n      tag_187\n      jump\t// in\n    tag_287:\n        /* \"#utility.yul\":5105:5110   */\n      dup2\n        /* \"#utility.yul\":5102:5137   */\n      eq\n        /* \"#utility.yul\":5092:5155   */\n      tag_288\n      jumpi\n        /* \"#utility.yul\":5151:5152   */\n      0x00\n        /* \"#utility.yul\":5148:5149   */\n      dup1\n        /* \"#utility.yul\":5141:5153   */\n      revert\n        /* \"#utility.yul\":5092:5155   */\n    tag_288:\n        /* \"#utility.yul\":5039:5161   */\n      pop\n      jump\t// out\n        /* \"#utility.yul\":5167:5306   */\n    tag_189:\n        /* \"#utility.yul\":5213:5218   */\n      0x00\n        /* \"#utility.yul\":5251:5257   */\n      dup2\n        /* \"#utility.yul\":5238:5258   */\n      calldataload\n        /* \"#utility.yul\":5229:5258   */\n      swap1\n      pop\n        /* \"#utility.yul\":5267:5300   */\n      tag_290\n        /* \"#utility.yul\":5294:5299   */\n      dup2\n        /* \"#utility.yul\":5267:5300   */\n      tag_188\n      jump\t// in\n    tag_290:\n        /* \"#utility.yul\":5167:5306   */\n      swap3\n      swap2\n      pop\n      pop\n      jump\t// out\n        /* \"#utility.yul\":5312:5641   */\n    tag_31:\n        /* \"#utility.yul\":5371:5377   */\n      0x00\n        /* \"#utility.yul\":5420:5422   */\n      0x20\n        /* \"#utility.yul\":5408:5417   */\n      dup3\n        /* \"#utility.yul\":5399:5406   */\n      dup5\n        /* \"#utility.yul\":5395:5418   */\n      sub\n        /* \"#utility.yul\":5391:5423   */\n      slt\n        /* \"#utility.yul\":5388:5507   */\n      iszero\n      tag_292\n      jumpi\n        /* \"#utility.yul\":5426:5505   */\n      tag_293\n      tag_174\n      jump\t// in\n    tag_293:\n        /* \"#utility.yul\":5388:5507   */\n    tag_292:\n        /* \"#utility.yul\":5546:5547   */\n      0x00\n        /* \"#utility.yul\":5571:5624   */\n      tag_294\n        /* \"#utility.yul\":5616:5623   */\n      dup5\n        /* \"#utility.yul\":5607:5613   */\n      dup3\n        /* \"#utility.yul\":5596:5605   */\n      dup6\n        /* \"#utility.yul\":5592:5614   */\n      add\n        /* \"#utility.yul\":5571:5624   */\n      tag_189\n      jump\t// in\n    tag_294:\n        /* \"#utility.yul\":5561:5624   */\n      swap2\n      pop\n        /* \"#utility.yul\":5517:5634   */\n      pop\n        /* \"#utility.yul\":5312:5641   */\n      swap3\n      swap2\n      pop\n      pop\n      jump\t// out\n        /* \"#utility.yul\":5647:5773   */\n    tag_190:\n        /* \"#utility.yul\":5684:5691   */\n      0x00\n        /* \"#utility.yul\":5724:5766   */\n      0xffffffffffffffffffffffffffffffffffffffff\n        /* \"#utility.yul\":5717:5722   */\n      dup3\n        /* \"#utility.yul\":5713:5767   */\n      and\n        /* \"#utility.yul\":5702:5767   */\n      swap1\n      pop\n        /* \"#utility.yul\":5647:5773   */\n      swap2\n      swap1\n      pop\n      jump\t// out\n        /* \"#utility.yul\":5779:5875   */\n    tag_191:\n        /* \"#utility.yul\":5816:5823   */\n      0x00\n        /* \"#utility.yul\":5845:5869   */\n      tag_297\n        /* \"#utility.yul\":5863:5868   */\n      dup3\n        /* \"#utility.yul\":5845:5869   */\n      tag_190\n      jump\t// in\n    tag_297:\n        /* \"#utility.yul\":5834:5869   */\n      swap1\n      pop\n        /* \"#utility.yul\":5779:5875   */\n      swap2\n      swap1\n      pop\n      jump\t// out\n        /* \"#utility.yul\":5881:5999   */\n    tag_192:\n        /* \"#utility.yul\":5968:5992   */\n      tag_299\n        /* \"#utility.yul\":5986:5991   */\n      dup2\n        /* \"#utility.yul\":5968:5992   */\n      tag_191\n      jump\t// in\n    tag_299:\n        /* \"#utility.yul\":5963:5966   */\n      dup3\n        /* \"#utility.yul\":5956:5993   */\n      mstore\n        /* \"#utility.yul\":5881:5999   */\n      pop\n      pop\n      jump\t// out\n        /* \"#utility.yul\":6005:6227   */\n    tag_36:\n        /* \"#utility.yul\":6098:6102   */\n      0x00\n        /* \"#utility.yul\":6136:6138   */\n      0x20\n        /* \"#utility.yul\":6125:6134   */\n      dup3\n        /* \"#utility.yul\":6121:6139   */\n      add\n        /* \"#utility.yul\":6113:6139   */\n      swap1\n      pop\n        /* \"#utility.yul\":6149:6220   */\n      tag_301\n        /* \"#utility.yul\":6217:6218   */\n      0x00\n        /* \"#utility.yul\":6206:6215   */\n      dup4\n        /* \"#utility.yul\":6202:6219   */\n      add\n        /* \"#utility.yul\":6193:6199   */\n      dup5\n        /* \"#utility.yul\":6149:6220   */\n      tag_192\n      jump\t// in\n    tag_301:\n        /* \"#utility.yul\":6005:6227   */\n      swap3\n      swap2\n      pop\n      pop\n      jump\t// out\n        /* \"#utility.yul\":6233:6350   */\n    tag_193:\n        /* \"#utility.yul\":6342:6343   */\n      0x00\n        /* \"#utility.yul\":6339:6340   */\n      dup1\n        /* \"#utility.yul\":6332:6344   */\n      revert\n        /* \"#utility.yul\":6356:6473   */\n    tag_194:\n        /* \"#utility.yul\":6465:6466   */\n      0x00\n        /* \"#utility.yul\":6462:6463   */\n      dup1\n        /* \"#utility.yul\":6455:6467   */\n      revert\n        /* \"#utility.yul\":6479:6659   */\n    tag_195:\n        /* \"#utility.yul\":6527:6604   */\n      0x4e487b7100000000000000000000000000000000000000000000000000000000\n        /* \"#utility.yul\":6524:6525   */\n      0x00\n        /* \"#utility.yul\":6517:6605   */\n      mstore\n        /* \"#utility.yul\":6624:6628   */\n      0x41\n        /* \"#utility.yul\":6621:6622   */\n      0x04\n        /* \"#utility.yul\":6614:6629   */\n      mstore\n        /* \"#utility.yul\":6648:6652   */\n      0x24\n        /* \"#utility.yul\":6645:6646   */\n      0x00\n        /* \"#utility.yul\":6638:6653   */\n      revert\n        /* \"#utility.yul\":6665:6946   */\n    tag_196:\n        /* \"#utility.yul\":6748:6775   */\n      tag_306\n        /* \"#utility.yul\":6770:6774   */\n      dup3\n        /* \"#utility.yul\":6748:6775   */\n      tag_182\n      jump\t// in\n    tag_306:\n        /* \"#utility.yul\":6740:6746   */\n      dup2\n        /* \"#utility.yul\":6736:6776   */\n      add\n        /* \"#utility.yul\":6878:6884   */\n      dup2\n        /* \"#utility.yul\":6866:6876   */\n      dup2\n        /* \"#utility.yul\":6863:6885   */\n      lt\n        /* \"#utility.yul\":6842:6860   */\n      0xffffffffffffffff\n        /* \"#utility.yul\":6830:6840   */\n      dup3\n        /* \"#utility.yul\":6827:6861   */\n      gt\n        /* \"#utility.yul\":6824:6886   */\n      or\n        /* \"#utility.yul\":6821:6909   */\n      iszero\n      tag_307\n      jumpi\n        /* \"#utility.yul\":6889:6907   */\n      tag_308\n      tag_195\n      jump\t// in\n    tag_308:\n        /* \"#utility.yul\":6821:6909   */\n    tag_307:\n        /* \"#utility.yul\":6929:6939   */\n      dup1\n        /* \"#utility.yul\":6925:6927   */\n      0x40\n        /* \"#utility.yul\":6918:6940   */\n      mstore\n        /* \"#utility.yul\":6708:6946   */\n      pop\n        /* \"#utility.yul\":6665:6946   */\n      pop\n      pop\n      jump\t// out\n        /* \"#utility.yul\":6952:7081   */\n    tag_197:\n        /* \"#utility.yul\":6986:6992   */\n      0x00\n        /* \"#utility.yul\":7013:7033   */\n      tag_310\n      tag_173\n      jump\t// in\n    tag_310:\n        /* \"#utility.yul\":7003:7033   */\n      swap1\n      pop\n        /* \"#utility.yul\":7042:7075   */\n      tag_311\n        /* \"#utility.yul\":7070:7074   */\n      dup3\n        /* \"#utility.yul\":7062:7068   */\n      dup3\n        /* \"#utility.yul\":7042:7075   */\n      tag_196\n      jump\t// in\n    tag_311:\n        /* \"#utility.yul\":6952:7081   */\n      swap2\n      swap1\n      pop\n      jump\t// out\n        /* \"#utility.yul\":7087:7395   */\n    tag_198:\n        /* \"#utility.yul\":7149:7153   */\n      0x00\n        /* \"#utility.yul\":7239:7257   */\n      0xffffffffffffffff\n        /* \"#utility.yul\":7231:7237   */\n      dup3\n        /* \"#utility.yul\":7228:7258   */\n      gt\n        /* \"#utility.yul\":7225:7281   */\n      iszero\n      tag_313\n      jumpi\n        /* \"#utility.yul\":7261:7279   */\n      tag_314\n      tag_195\n      jump\t// in\n    tag_314:\n        /* \"#utility.yul\":7225:7281   */\n    tag_313:\n        /* \"#utility.yul\":7299:7328   */\n      tag_315\n        /* \"#utility.yul\":7321:7327   */\n      dup3\n        /* \"#utility.yul\":7299:7328   */\n      tag_182\n      jump\t// in\n    tag_315:\n        /* \"#utility.yul\":7291:7328   */\n      swap1\n      pop\n        /* \"#utility.yul\":7383:7387   */\n      0x20\n        /* \"#utility.yul\":7377:7381   */\n      dup2\n        /* \"#utility.yul\":7373:7388   */\n      add\n        /* \"#utility.yul\":7365:7388   */\n      swap1\n      pop\n        /* \"#utility.yul\":7087:7395   */\n      swap2\n      swap1\n      pop\n      jump\t// out\n        /* \"#utility.yul\":7401:7549   */\n    tag_199:\n        /* \"#utility.yul\":7499:7505   */\n      dup3\n        /* \"#utility.yul\":7494:7497   */\n      dup2\n        /* \"#utility.yul\":7489:7492   */\n      dup4\n        /* \"#utility.yul\":7476:7506   */\n      calldatacopy\n        /* \"#utility.yul\":7540:7541   */\n      0x00\n        /* \"#utility.yul\":7531:7537   */\n      dup4\n        /* \"#utility.yul\":7526:7529   */\n      dup4\n        /* \"#utility.yul\":7522:7538   */\n      add\n        /* \"#utility.yul\":7515:7542   */\n      mstore\n        /* \"#utility.yul\":7401:7549   */\n      pop\n      pop\n      pop\n      jump\t// out\n        /* \"#utility.yul\":7555:7980   */\n    tag_200:\n        /* \"#utility.yul\":7633:7638   */\n      0x00\n        /* \"#utility.yul\":7658:7724   */\n      tag_318\n        /* \"#utility.yul\":7674:7723   */\n      tag_319\n        /* \"#utility.yul\":7716:7722   */\n      dup5\n        /* \"#utility.yul\":7674:7723   */\n      tag_198\n      jump\t// in\n    tag_319:\n        /* \"#utility.yul\":7658:7724   */\n      tag_197\n      jump\t// in\n    tag_318:\n        /* \"#utility.yul\":7649:7724   */\n      swap1\n      pop\n        /* \"#utility.yul\":7747:7753   */\n      dup3\n        /* \"#utility.yul\":7740:7745   */\n      dup2\n        /* \"#utility.yul\":7733:7754   */\n      mstore\n        /* \"#utility.yul\":7785:7789   */\n      0x20\n        /* \"#utility.yul\":7778:7783   */\n      dup2\n        /* \"#utility.yul\":7774:7790   */\n      add\n        /* \"#utility.yul\":7823:7826   */\n      dup5\n        /* \"#utility.yul\":7814:7820   */\n      dup5\n        /* \"#utility.yul\":7809:7812   */\n      dup5\n        /* \"#utility.yul\":7805:7821   */\n      add\n        /* \"#utility.yul\":7802:7827   */\n      gt\n        /* \"#utility.yul\":7799:7911   */\n      iszero\n      tag_320\n      jumpi\n        /* \"#utility.yul\":7830:7909   */\n      tag_321\n      tag_194\n      jump\t// in\n    tag_321:\n        /* \"#utility.yul\":7799:7911   */\n    tag_320:\n        /* \"#utility.yul\":7920:7974   */\n      tag_322\n        /* \"#utility.yul\":7967:7973   */\n      dup5\n        /* \"#utility.yul\":7962:7965   */\n      dup3\n        /* \"#utility.yul\":7957:7960   */\n      dup6\n        /* \"#utility.yul\":7920:7974   */\n      tag_199\n      jump\t// in\n    tag_322:\n        /* \"#utility.yul\":7639:7980   */\n      pop\n        /* \"#utility.yul\":7555:7980   */\n      swap4\n      swap3\n      pop\n      pop\n      pop\n      jump\t// out\n        /* \"#utility.yul\":8000:8340   */\n    tag_201:\n        /* \"#utility.yul\":8056:8061   */\n      0x00\n        /* \"#utility.yul\":8105:8108   */\n      dup3\n        /* \"#utility.yul\":8098:8102   */\n      0x1f\n        /* \"#utility.yul\":8090:8096   */\n      dup4\n        /* \"#utility.yul\":8086:8103   */\n      add\n        /* \"#utility.yul\":8082:8109   */\n      slt\n        /* \"#utility.yul\":8072:8194   */\n      tag_324\n      jumpi\n        /* \"#utility.yul\":8113:8192   */\n      tag_325\n      tag_193\n      jump\t// in\n    tag_325:\n        /* \"#utility.yul\":8072:8194   */\n    tag_324:\n        /* \"#utility.yul\":8230:8236   */\n      dup2\n        /* \"#utility.yul\":8217:8237   */\n      calldataload\n        /* \"#utility.yul\":8255:8334   */\n      tag_326\n        /* \"#utility.yul\":8330:8333   */\n      dup5\n        /* \"#utility.yul\":8322:8328   */\n      dup3\n        /* \"#utility.yul\":8315:8319   */\n      0x20\n        /* \"#utility.yul\":8307:8313   */\n      dup7\n        /* \"#utility.yul\":8303:8320   */\n      add\n        /* \"#utility.yul\":8255:8334   */\n      tag_200\n      jump\t// in\n    tag_326:\n        /* \"#utility.yul\":8246:8334   */\n      swap2\n      pop\n        /* \"#utility.yul\":8062:8340   */\n      pop\n        /* \"#utility.yul\":8000:8340   */\n      swap3\n      swap2\n      pop\n      pop\n      jump\t// out\n        /* \"#utility.yul\":8346:9831   */\n    tag_39:\n        /* \"#utility.yul\":8472:8478   */\n      0x00\n        /* \"#utility.yul\":8480:8486   */\n      dup1\n        /* \"#utility.yul\":8488:8494   */\n      0x00\n        /* \"#utility.yul\":8496:8502   */\n      dup1\n        /* \"#utility.yul\":8545:8548   */\n      0x80\n        /* \"#utility.yul\":8533:8542   */\n      dup6\n        /* \"#utility.yul\":8524:8531   */\n      dup8\n        /* \"#utility.yul\":8520:8543   */\n      sub\n        /* \"#utility.yul\":8516:8549   */\n      slt\n        /* \"#utility.yul\":8513:8633   */\n      iszero\n      tag_328\n      jumpi\n        /* \"#utility.yul\":8552:8631   */\n      tag_329\n      tag_174\n      jump\t// in\n    tag_329:\n        /* \"#utility.yul\":8513:8633   */\n    tag_328:\n        /* \"#utility.yul\":8700:8701   */\n      0x00\n        /* \"#utility.yul\":8689:8698   */\n      dup6\n        /* \"#utility.yul\":8685:8702   */\n      add\n        /* \"#utility.yul\":8672:8703   */\n      calldataload\n        /* \"#utility.yul\":8730:8748   */\n      0xffffffffffffffff\n        /* \"#utility.yul\":8722:8728   */\n      dup2\n        /* \"#utility.yul\":8719:8749   */\n      gt\n        /* \"#utility.yul\":8716:8833   */\n      iszero\n      tag_330\n      jumpi\n        /* \"#utility.yul\":8752:8831   */\n      tag_331\n      tag_175\n      jump\t// in\n    tag_331:\n        /* \"#utility.yul\":8716:8833   */\n    tag_330:\n        /* \"#utility.yul\":8857:8920   */\n      tag_332\n        /* \"#utility.yul\":8912:8919   */\n      dup8\n        /* \"#utility.yul\":8903:8909   */\n      dup3\n        /* \"#utility.yul\":8892:8901   */\n      dup9\n        /* \"#utility.yul\":8888:8910   */\n      add\n        /* \"#utility.yul\":8857:8920   */\n      tag_201\n      jump\t// in\n    tag_332:\n        /* \"#utility.yul\":8847:8920   */\n      swap5\n      pop\n        /* \"#utility.yul\":8643:8930   */\n      pop\n        /* \"#utility.yul\":8997:8999   */\n      0x20\n        /* \"#utility.yul\":8986:8995   */\n      dup6\n        /* \"#utility.yul\":8982:9000   */\n      add\n        /* \"#utility.yul\":8969:9001   */\n      calldataload\n        /* \"#utility.yul\":9028:9046   */\n      0xffffffffffffffff\n        /* \"#utility.yul\":9020:9026   */\n      dup2\n        /* \"#utility.yul\":9017:9047   */\n      gt\n        /* \"#utility.yul\":9014:9131   */\n      iszero\n      tag_333\n      jumpi\n        /* \"#utility.yul\":9050:9129   */\n      tag_334\n      tag_175\n      jump\t// in\n    tag_334:\n        /* \"#utility.yul\":9014:9131   */\n    tag_333:\n        /* \"#utility.yul\":9155:9218   */\n      tag_335\n        /* \"#utility.yul\":9210:9217   */\n      dup8\n        /* \"#utility.yul\":9201:9207   */\n      dup3\n        /* \"#utility.yul\":9190:9199   */\n      dup9\n        /* \"#utility.yul\":9186:9208   */\n      add\n        /* \"#utility.yul\":9155:9218   */\n      tag_201\n      jump\t// in\n    tag_335:\n        /* \"#utility.yul\":9145:9218   */\n      swap4\n      pop\n        /* \"#utility.yul\":8940:9228   */\n      pop\n        /* \"#utility.yul\":9295:9297   */\n      0x40\n        /* \"#utility.yul\":9284:9293   */\n      dup6\n        /* \"#utility.yul\":9280:9298   */\n      add\n        /* \"#utility.yul\":9267:9299   */\n      calldataload\n        /* \"#utility.yul\":9326:9344   */\n      0xffffffffffffffff\n        /* \"#utility.yul\":9318:9324   */\n      dup2\n        /* \"#utility.yul\":9315:9345   */\n      gt\n        /* \"#utility.yul\":9312:9429   */\n      iszero\n      tag_336\n      jumpi\n        /* \"#utility.yul\":9348:9427   */\n      tag_337\n      tag_175\n      jump\t// in\n    tag_337:\n        /* \"#utility.yul\":9312:9429   */\n    tag_336:\n        /* \"#utility.yul\":9453:9516   */\n      tag_338\n        /* \"#utility.yul\":9508:9515   */\n      dup8\n        /* \"#utility.yul\":9499:9505   */\n      dup3\n        /* \"#utility.yul\":9488:9497   */\n      dup9\n        /* \"#utility.yul\":9484:9506   */\n      add\n        /* \"#utility.yul\":9453:9516   */\n      tag_201\n      jump\t// in\n    tag_338:\n        /* \"#utility.yul\":9443:9516   */\n      swap3\n      pop\n        /* \"#utility.yul\":9238:9526   */\n      pop\n        /* \"#utility.yul\":9593:9595   */\n      0x60\n        /* \"#utility.yul\":9582:9591   */\n      dup6\n        /* \"#utility.yul\":9578:9596   */\n      add\n        /* \"#utility.yul\":9565:9597   */\n      calldataload\n        /* \"#utility.yul\":9624:9642   */\n      0xffffffffffffffff\n        /* \"#utility.yul\":9616:9622   */\n      dup2\n        /* \"#utility.yul\":9613:9643   */\n      gt\n        /* \"#utility.yul\":9610:9727   */\n      iszero\n      tag_339\n      jumpi\n        /* \"#utility.yul\":9646:9725   */\n      tag_340\n      tag_175\n      jump\t// in\n    tag_340:\n        /* \"#utility.yul\":9610:9727   */\n    tag_339:\n        /* \"#utility.yul\":9751:9814   */\n      tag_341\n        /* \"#utility.yul\":9806:9813   */\n      dup8\n        /* \"#utility.yul\":9797:9803   */\n      dup3\n        /* \"#utility.yul\":9786:9795   */\n      dup9\n        /* \"#utility.yul\":9782:9804   */\n      add\n        /* \"#utility.yul\":9751:9814   */\n      tag_201\n      jump\t// in\n    tag_341:\n        /* \"#utility.yul\":9741:9814   */\n      swap2\n      pop\n        /* \"#utility.yul\":9536:9824   */\n      pop\n        /* \"#utility.yul\":8346:9831   */\n      swap3\n      swap6\n      swap2\n      swap5\n      pop\n      swap3\n      pop\n      jump\t// out\n        /* \"#utility.yul\":9837:10017   */\n    tag_202:\n        /* \"#utility.yul\":9885:9962   */\n      0x4e487b7100000000000000000000000000000000000000000000000000000000\n        /* \"#utility.yul\":9882:9883   */\n      0x00\n        /* \"#utility.yul\":9875:9963   */\n      mstore\n        /* \"#utility.yul\":9982:9986   */\n      0x22\n        /* \"#utility.yul\":9979:9980   */\n      0x04\n        /* \"#utility.yul\":9972:9987   */\n      mstore\n        /* \"#utility.yul\":10006:10010   */\n      0x24\n        /* \"#utility.yul\":10003:10004   */\n      0x00\n        /* \"#utility.yul\":9996:10011   */\n      revert\n        /* \"#utility.yul\":10023:10343   */\n    tag_56:\n        /* \"#utility.yul\":10067:10073   */\n      0x00\n        /* \"#utility.yul\":10104:10105   */\n      0x02\n        /* \"#utility.yul\":10098:10102   */\n      dup3\n        /* \"#utility.yul\":10094:10106   */\n      div\n        /* \"#utility.yul\":10084:10106   */\n      swap1\n      pop\n        /* \"#utility.yul\":10151:10152   */\n      0x01\n        /* \"#utility.yul\":10145:10149   */\n      dup3\n        /* \"#utility.yul\":10141:10153   */\n      and\n        /* \"#utility.yul\":10172:10190   */\n      dup1\n        /* \"#utility.yul\":10162:10243   */\n      tag_344\n      jumpi\n        /* \"#utility.yul\":10228:10232   */\n      0x7f\n        /* \"#utility.yul\":10220:10226   */\n      dup3\n        /* \"#utility.yul\":10216:10233   */\n      and\n        /* \"#utility.yul\":10206:10233   */\n      swap2\n      pop\n        /* \"#utility.yul\":10162:10243   */\n    tag_344:\n        /* \"#utility.yul\":10290:10292   */\n      0x20\n        /* \"#utility.yul\":10282:10288   */\n      dup3\n        /* \"#utility.yul\":10279:10293   */\n      lt\n        /* \"#utility.yul\":10259:10277   */\n      dup2\n        /* \"#utility.yul\":10256:10294   */\n      sub\n        /* \"#utility.yul\":10253:10337   */\n      tag_345\n      jumpi\n        /* \"#utility.yul\":10309:10327   */\n      tag_346\n      tag_202\n      jump\t// in\n    tag_346:\n        /* \"#utility.yul\":10253:10337   */\n    tag_345:\n        /* \"#utility.yul\":10074:10343   */\n      pop\n        /* \"#utility.yul\":10023:10343   */\n      swap2\n      swap1\n      pop\n      jump\t// out\n        /* \"#utility.yul\":10349:10519   */\n    tag_203:\n        /* \"#utility.yul\":10489:10511   */\n      0x4f6e6c79205047432063616e20617070726f7665000000000000000000000000\n        /* \"#utility.yul\":10485:10486   */\n      0x00\n        /* \"#utility.yul\":10477:10483   */\n      dup3\n        /* \"#utility.yul\":10473:10487   */\n      add\n        /* \"#utility.yul\":10466:10512   */\n      mstore\n        /* \"#utility.yul\":10349:10519   */\n      pop\n      jump\t// out\n        /* \"#utility.yul\":10525:10891   */\n    tag_204:\n        /* \"#utility.yul\":10667:10670   */\n      0x00\n        /* \"#utility.yul\":10688:10755   */\n      tag_349\n        /* \"#utility.yul\":10752:10754   */\n      0x14\n        /* \"#utility.yul\":10747:10750   */\n      dup4\n        /* \"#utility.yul\":10688:10755   */\n      tag_180\n      jump\t// in\n    tag_349:\n        /* \"#utility.yul\":10681:10755   */\n      swap2\n      pop\n        /* \"#utility.yul\":10764:10857   */\n      tag_350\n        /* \"#utility.yul\":10853:10856   */\n      dup3\n        /* \"#utility.yul\":10764:10857   */\n      tag_203\n      jump\t// in\n    tag_350:\n        /* \"#utility.yul\":10882:10884   */\n      0x20\n        /* \"#utility.yul\":10877:10880   */\n      dup3\n        /* \"#utility.yul\":10873:10885   */\n      add\n        /* \"#utility.yul\":10866:10885   */\n      swap1\n      pop\n        /* \"#utility.yul\":10525:10891   */\n      swap2\n      swap1\n      pop\n      jump\t// out\n        /* \"#utility.yul\":10897:11316   */\n    tag_99:\n        /* \"#utility.yul\":11063:11067   */\n      0x00\n        /* \"#utility.yul\":11101:11103   */\n      0x20\n        /* \"#utility.yul\":11090:11099   */\n      dup3\n        /* \"#utility.yul\":11086:11104   */\n      add\n        /* \"#utility.yul\":11078:11104   */\n      swap1\n      pop\n        /* \"#utility.yul\":11150:11159   */\n      dup2\n        /* \"#utility.yul\":11144:11148   */\n      dup2\n        /* \"#utility.yul\":11140:11160   */\n      sub\n        /* \"#utility.yul\":11136:11137   */\n      0x00\n        /* \"#utility.yul\":11125:11134   */\n      dup4\n        /* \"#utility.yul\":11121:11138   */\n      add\n        /* \"#utility.yul\":11114:11161   */\n      mstore\n        /* \"#utility.yul\":11178:11309   */\n      tag_352\n        /* \"#utility.yul\":11304:11308   */\n      dup2\n        /* \"#utility.yul\":11178:11309   */\n      tag_204\n      jump\t// in\n    tag_352:\n        /* \"#utility.yul\":11170:11309   */\n      swap1\n      pop\n        /* \"#utility.yul\":10897:11316   */\n      swap2\n      swap1\n      pop\n      jump\t// out\n        /* \"#utility.yul\":11322:11487   */\n    tag_205:\n        /* \"#utility.yul\":11462:11479   */\n      0x496e76616c69642070726f647563740000000000000000000000000000000000\n        /* \"#utility.yul\":11458:11459   */\n      0x00\n        /* \"#utility.yul\":11450:11456   */\n      dup3\n        /* \"#utility.yul\":11446:11460   */\n      add\n        /* \"#utility.yul\":11439:11480   */\n      mstore\n        /* \"#utility.yul\":11322:11487   */\n      pop\n      jump\t// out\n        /* \"#utility.yul\":11493:11859   */\n    tag_206:\n        /* \"#utility.yul\":11635:11638   */\n      0x00\n        /* \"#utility.yul\":11656:11723   */\n      tag_355\n        /* \"#utility.yul\":11720:11722   */\n      0x0f\n        /* \"#utility.yul\":11715:11718   */\n      dup4\n        /* \"#utility.yul\":11656:11723   */\n      tag_180\n      jump\t// in\n    tag_355:\n        /* \"#utility.yul\":11649:11723   */\n      swap2\n      pop\n        /* \"#utility.yul\":11732:11825   */\n      tag_356\n        /* \"#utility.yul\":11821:11824   */\n      dup3\n        /* \"#utility.yul\":11732:11825   */\n      tag_205\n      jump\t// in\n    tag_356:\n        /* \"#utility.yul\":11850:11852   */\n      0x20\n        /* \"#utility.yul\":11845:11848   */\n      dup3\n        /* \"#utility.yul\":11841:11853   */\n      add\n        /* \"#utility.yul\":11834:11853   */\n      swap1\n      pop\n        /* \"#utility.yul\":11493:11859   */\n      swap2\n      swap1\n      pop\n      jump\t// out\n        /* \"#utility.yul\":11865:12284   */\n    tag_104:\n        /* \"#utility.yul\":12031:12035   */\n      0x00\n        /* \"#utility.yul\":12069:12071   */\n      0x20\n        /* \"#utility.yul\":12058:12067   */\n      dup3\n        /* \"#utility.yul\":12054:12072   */\n      add\n        /* \"#utility.yul\":12046:12072   */\n      swap1\n      pop\n        /* \"#utility.yul\":12118:12127   */\n      dup2\n        /* \"#utility.yul\":12112:12116   */\n      dup2\n        /* \"#utility.yul\":12108:12128   */\n      sub\n        /* \"#utility.yul\":12104:12105   */\n      0x00\n        /* \"#utility.yul\":12093:12102   */\n      dup4\n        /* \"#utility.yul\":12089:12106   */\n      add\n        /* \"#utility.yul\":12082:12129   */\n      mstore\n        /* \"#utility.yul\":12146:12277   */\n      tag_358\n        /* \"#utility.yul\":12272:12276   */\n      dup2\n        /* \"#utility.yul\":12146:12277   */\n      tag_206\n      jump\t// in\n    tag_358:\n        /* \"#utility.yul\":12138:12277   */\n      swap1\n      pop\n        /* \"#utility.yul\":11865:12284   */\n      swap2\n      swap1\n      pop\n      jump\t// out\n        /* \"#utility.yul\":12290:12408   */\n    tag_207:\n        /* \"#utility.yul\":12377:12401   */\n      tag_360\n        /* \"#utility.yul\":12395:12400   */\n      dup2\n        /* \"#utility.yul\":12377:12401   */\n      tag_187\n      jump\t// in\n    tag_360:\n        /* \"#utility.yul\":12372:12375   */\n      dup3\n        /* \"#utility.yul\":12365:12402   */\n      mstore\n        /* \"#utility.yul\":12290:12408   */\n      pop\n      pop\n      jump\t// out\n        /* \"#utility.yul\":12414:12636   */\n    tag_106:\n        /* \"#utility.yul\":12507:12511   */\n      0x00\n        /* \"#utility.yul\":12545:12547   */\n      0x20\n        /* \"#utility.yul\":12534:12543   */\n      dup3\n        /* \"#utility.yul\":12530:12548   */\n      add\n        /* \"#utility.yul\":12522:12548   */\n      swap1\n      pop\n        /* \"#utility.yul\":12558:12629   */\n      tag_362\n        /* \"#utility.yul\":12626:12627   */\n      0x00\n        /* \"#utility.yul\":12615:12624   */\n      dup4\n        /* \"#utility.yul\":12611:12628   */\n      add\n        /* \"#utility.yul\":12602:12608   */\n      dup5\n        /* \"#utility.yul\":12558:12629   */\n      tag_207\n      jump\t// in\n    tag_362:\n        /* \"#utility.yul\":12414:12636   */\n      swap3\n      swap2\n      pop\n      pop\n      jump\t// out\n        /* \"#utility.yul\":12642:12816   */\n    tag_208:\n        /* \"#utility.yul\":12782:12808   */\n      0x4f6e6c7920436572742049737375657220616c6c6f7765640000000000000000\n        /* \"#utility.yul\":12778:12779   */\n      0x00\n        /* \"#utility.yul\":12770:12776   */\n      dup3\n        /* \"#utility.yul\":12766:12780   */\n      add\n        /* \"#utility.yul\":12759:12809   */\n      mstore\n        /* \"#utility.yul\":12642:12816   */\n      pop\n      jump\t// out\n        /* \"#utility.yul\":12822:13188   */\n    tag_209:\n        /* \"#utility.yul\":12964:12967   */\n      0x00\n        /* \"#utility.yul\":12985:13052   */\n      tag_365\n        /* \"#utility.yul\":13049:13051   */\n      0x18\n        /* \"#utility.yul\":13044:13047   */\n      dup4\n        /* \"#utility.yul\":12985:13052   */\n      tag_180\n      jump\t// in\n    tag_365:\n        /* \"#utility.yul\":12978:13052   */\n      swap2\n      pop\n        /* \"#utility.yul\":13061:13154   */\n      tag_366\n        /* \"#utility.yul\":13150:13153   */\n      dup3\n        /* \"#utility.yul\":13061:13154   */\n      tag_208\n      jump\t// in\n    tag_366:\n        /* \"#utility.yul\":13179:13181   */\n      0x20\n        /* \"#utility.yul\":13174:13177   */\n      dup3\n        /* \"#utility.yul\":13170:13182   */\n      add\n        /* \"#utility.yul\":13163:13182   */\n      swap1\n      pop\n        /* \"#utility.yul\":12822:13188   */\n      swap2\n      swap1\n      pop\n      jump\t// out\n        /* \"#utility.yul\":13194:13613   */\n    tag_110:\n        /* \"#utility.yul\":13360:13364   */\n      0x00\n        /* \"#utility.yul\":13398:13400   */\n      0x20\n        /* \"#utility.yul\":13387:13396   */\n      dup3\n        /* \"#utility.yul\":13383:13401   */\n      add\n        /* \"#utility.yul\":13375:13401   */\n      swap1\n      pop\n        /* \"#utility.yul\":13447:13456   */\n      dup2\n        /* \"#utility.yul\":13441:13445   */\n      dup2\n        /* \"#utility.yul\":13437:13457   */\n      sub\n        /* \"#utility.yul\":13433:13434   */\n      0x00\n        /* \"#utility.yul\":13422:13431   */\n      dup4\n        /* \"#utility.yul\":13418:13435   */\n      add\n        /* \"#utility.yul\":13411:13458   */\n      mstore\n        /* \"#utility.yul\":13475:13606   */\n      tag_368\n        /* \"#utility.yul\":13601:13605   */\n      dup2\n        /* \"#utility.yul\":13475:13606   */\n      tag_209\n      jump\t// in\n    tag_368:\n        /* \"#utility.yul\":13467:13606   */\n      swap1\n      pop\n        /* \"#utility.yul\":13194:13613   */\n      swap2\n      swap1\n      pop\n      jump\t// out\n        /* \"#utility.yul\":13619:13767   */\n    tag_210:\n        /* \"#utility.yul\":13721:13732   */\n      0x00\n        /* \"#utility.yul\":13758:13761   */\n      dup2\n        /* \"#utility.yul\":13743:13761   */\n      swap1\n      pop\n        /* \"#utility.yul\":13619:13767   */\n      swap3\n      swap2\n      pop\n      pop\n      jump\t// out\n        /* \"#utility.yul\":13773:14163   */\n    tag_211:\n        /* \"#utility.yul\":13879:13882   */\n      0x00\n        /* \"#utility.yul\":13907:13946   */\n      tag_371\n        /* \"#utility.yul\":13940:13945   */\n      dup3\n        /* \"#utility.yul\":13907:13946   */\n      tag_179\n      jump\t// in\n    tag_371:\n        /* \"#utility.yul\":13962:14051   */\n      tag_372\n        /* \"#utility.yul\":14044:14050   */\n      dup2\n        /* \"#utility.yul\":14039:14042   */\n      dup6\n        /* \"#utility.yul\":13962:14051   */\n      tag_210\n      jump\t// in\n    tag_372:\n        /* \"#utility.yul\":13955:14051   */\n      swap4\n      pop\n        /* \"#utility.yul\":14060:14125   */\n      tag_373\n        /* \"#utility.yul\":14118:14124   */\n      dup2\n        /* \"#utility.yul\":14113:14116   */\n      dup6\n        /* \"#utility.yul\":14106:14110   */\n      0x20\n        /* \"#utility.yul\":14099:14104   */\n      dup7\n        /* \"#utility.yul\":14095:14111   */\n      add\n        /* \"#utility.yul\":14060:14125   */\n      tag_181\n      jump\t// in\n    tag_373:\n        /* \"#utility.yul\":14150:14156   */\n      dup1\n        /* \"#utility.yul\":14145:14148   */\n      dup5\n        /* \"#utility.yul\":14141:14157   */\n      add\n        /* \"#utility.yul\":14134:14157   */\n      swap2\n      pop\n        /* \"#utility.yul\":13883:14163   */\n      pop\n        /* \"#utility.yul\":13773:14163   */\n      swap3\n      swap2\n      pop\n      pop\n      jump\t// out\n        /* \"#utility.yul\":14169:14924   */\n    tag_113:\n        /* \"#utility.yul\":14445:14448   */\n      0x00\n        /* \"#utility.yul\":14467:14562   */\n      tag_375\n        /* \"#utility.yul\":14558:14561   */\n      dup3\n        /* \"#utility.yul\":14549:14555   */\n      dup8\n        /* \"#utility.yul\":14467:14562   */\n      tag_211\n      jump\t// in\n    tag_375:\n        /* \"#utility.yul\":14460:14562   */\n      swap2\n      pop\n        /* \"#utility.yul\":14579:14674   */\n      tag_376\n        /* \"#utility.yul\":14670:14673   */\n      dup3\n        /* \"#utility.yul\":14661:14667   */\n      dup7\n        /* \"#utility.yul\":14579:14674   */\n      tag_211\n      jump\t// in\n    tag_376:\n        /* \"#utility.yul\":14572:14674   */\n      swap2\n      pop\n        /* \"#utility.yul\":14691:14786   */\n      tag_377\n        /* \"#utility.yul\":14782:14785   */\n      dup3\n        /* \"#utility.yul\":14773:14779   */\n      dup6\n        /* \"#utility.yul\":14691:14786   */\n      tag_211\n      jump\t// in\n    tag_377:\n        /* \"#utility.yul\":14684:14786   */\n      swap2\n      pop\n        /* \"#utility.yul\":14803:14898   */\n      tag_378\n        /* \"#utility.yul\":14894:14897   */\n      dup3\n        /* \"#utility.yul\":14885:14891   */\n      dup5\n        /* \"#utility.yul\":14803:14898   */\n      tag_211\n      jump\t// in\n    tag_378:\n        /* \"#utility.yul\":14796:14898   */\n      swap2\n      pop\n        /* \"#utility.yul\":14915:14918   */\n      dup2\n        /* \"#utility.yul\":14908:14918   */\n      swap1\n      pop\n        /* \"#utility.yul\":14169:14924   */\n      swap6\n      swap5\n      pop\n      pop\n      pop\n      pop\n      pop\n      jump\t// out\n        /* \"#utility.yul\":14930:15105   */\n    tag_212:\n        /* \"#utility.yul\":15070:15097   */\n      0x50726f6475637420616c7265616479207375626d697474656400000000000000\n        /* \"#utility.yul\":15066:15067   */\n      0x00\n        /* \"#utility.yul\":15058:15064   */\n      dup3\n        /* \"#utility.yul\":15054:15068   */\n      add\n        /* \"#utility.yul\":15047:15098   */\n      mstore\n        /* \"#utility.yul\":14930:15105   */\n      pop\n      jump\t// out\n        /* \"#utility.yul\":15111:15477   */\n    tag_213:\n        /* \"#utility.yul\":15253:15256   */\n      0x00\n        /* \"#utility.yul\":15274:15341   */\n      tag_381\n        /* \"#utility.yul\":15338:15340   */\n      0x19\n        /* \"#utility.yul\":15333:15336   */\n      dup4\n        /* \"#utility.yul\":15274:15341   */\n      tag_180\n      jump\t// in\n    tag_381:\n        /* \"#utility.yul\":15267:15341   */\n      swap2\n      pop\n        /* \"#utility.yul\":15350:15443   */\n      tag_382\n        /* \"#utility.yul\":15439:15442   */\n      dup3\n        /* \"#utility.yul\":15350:15443   */\n      tag_212\n      jump\t// in\n    tag_382:\n        /* \"#utility.yul\":15468:15470   */\n      0x20\n        /* \"#utility.yul\":15463:15466   */\n      dup3\n        /* \"#utility.yul\":15459:15471   */\n      add\n        /* \"#utility.yul\":15452:15471   */\n      swap1\n      pop\n        /* \"#utility.yul\":15111:15477   */\n      swap2\n      swap1\n      pop\n      jump\t// out\n        /* \"#utility.yul\":15483:15902   */\n    tag_117:\n        /* \"#utility.yul\":15649:15653   */\n      0x00\n        /* \"#utility.yul\":15687:15689   */\n      0x20\n        /* \"#utility.yul\":15676:15685   */\n      dup3\n        /* \"#utility.yul\":15672:15690   */\n      add\n        /* \"#utility.yul\":15664:15690   */\n      swap1\n      pop\n        /* \"#utility.yul\":15736:15745   */\n      dup2\n        /* \"#utility.yul\":15730:15734   */\n      dup2\n        /* \"#utility.yul\":15726:15746   */\n      sub\n        /* \"#utility.yul\":15722:15723   */\n      0x00\n        /* \"#utility.yul\":15711:15720   */\n      dup4\n        /* \"#utility.yul\":15707:15724   */\n      add\n        /* \"#utility.yul\":15700:15747   */\n      mstore\n        /* \"#utility.yul\":15764:15895   */\n      tag_384\n        /* \"#utility.yul\":15890:15894   */\n      dup2\n        /* \"#utility.yul\":15764:15895   */\n      tag_213\n      jump\t// in\n    tag_384:\n        /* \"#utility.yul\":15756:15895   */\n      swap1\n      pop\n        /* \"#utility.yul\":15483:15902   */\n      swap2\n      swap1\n      pop\n      jump\t// out\n        /* \"#utility.yul\":15908:16049   */\n    tag_214:\n        /* \"#utility.yul\":15957:15961   */\n      0x00\n        /* \"#utility.yul\":15980:15983   */\n      dup2\n        /* \"#utility.yul\":15972:15983   */\n      swap1\n      pop\n        /* \"#utility.yul\":16003:16006   */\n      dup2\n        /* \"#utility.yul\":16000:16001   */\n      0x00\n        /* \"#utility.yul\":15993:16007   */\n      mstore\n        /* \"#utility.yul\":16037:16041   */\n      0x20\n        /* \"#utility.yul\":16034:16035   */\n      0x00\n        /* \"#utility.yul\":16024:16042   */\n      keccak256\n        /* \"#utility.yul\":16016:16042   */\n      swap1\n      pop\n        /* \"#utility.yul\":15908:16049   */\n      swap2\n      swap1\n      pop\n      jump\t// out\n        /* \"#utility.yul\":16055:16148   */\n    tag_215:\n        /* \"#utility.yul\":16092:16098   */\n      0x00\n        /* \"#utility.yul\":16139:16141   */\n      0x20\n        /* \"#utility.yul\":16134:16136   */\n      0x1f\n        /* \"#utility.yul\":16127:16132   */\n      dup4\n        /* \"#utility.yul\":16123:16137   */\n      add\n        /* \"#utility.yul\":16119:16142   */\n      div\n        /* \"#utility.yul\":16109:16142   */\n      swap1\n      pop\n        /* \"#utility.yul\":16055:16148   */\n      swap2\n      swap1\n      pop\n      jump\t// out\n        /* \"#utility.yul\":16154:16261   */\n    tag_216:\n        /* \"#utility.yul\":16198:16206   */\n      0x00\n        /* \"#utility.yul\":16248:16253   */\n      dup3\n        /* \"#utility.yul\":16242:16246   */\n      dup3\n        /* \"#utility.yul\":16238:16254   */\n      shl\n        /* \"#utility.yul\":16217:16254   */\n      swap1\n      pop\n        /* \"#utility.yul\":16154:16261   */\n      swap3\n      swap2\n      pop\n      pop\n      jump\t// out\n        /* \"#utility.yul\":16267:16660   */\n    tag_217:\n        /* \"#utility.yul\":16336:16342   */\n      0x00\n        /* \"#utility.yul\":16386:16387   */\n      0x08\n        /* \"#utility.yul\":16374:16384   */\n      dup4\n        /* \"#utility.yul\":16370:16388   */\n      mul\n        /* \"#utility.yul\":16409:16506   */\n      tag_389\n        /* \"#utility.yul\":16439:16505   */\n      0xffffffffffffffffffffffffffffffffffffffffffffffffffffffffffffffff\n        /* \"#utility.yul\":16428:16437   */\n      dup3\n        /* \"#utility.yul\":16409:16506   */\n      tag_216\n      jump\t// in\n    tag_389:\n        /* \"#utility.yul\":16527:16566   */\n      tag_390\n        /* \"#utility.yul\":16557:16565   */\n      dup7\n        /* \"#utility.yul\":16546:16555   */\n      dup4\n        /* \"#utility.yul\":16527:16566   */\n      tag_216\n      jump\t// in\n    tag_390:\n        /* \"#utility.yul\":16515:16566   */\n      swap6\n      pop\n        /* \"#utility.yul\":16599:16603   */\n      dup1\n        /* \"#utility.yul\":16595:16604   */\n      not\n        /* \"#utility.yul\":16588:16593   */\n      dup5\n        /* \"#utility.yul\":16584:16605   */\n      and\n        /* \"#utility.yul\":16575:16605   */\n      swap4\n      pop\n        /* \"#utility.yul\":16648:16652   */\n      dup1\n        /* \"#utility.yul\":16638:16646   */\n      dup7\n        /* \"#utility.yul\":16634:16653   */\n      and\n        /* \"#utility.yul\":16627:16632   */\n      dup5\n        /* \"#utility.yul\":16624:16654   */\n      or\n        /* \"#utility.yul\":16614:16654   */\n      swap3\n      pop\n        /* \"#utility.yul\":16343:16660   */\n      pop\n      pop\n        /* \"#utility.yul\":16267:16660   */\n      swap4\n      swap3\n      pop\n      pop\n      pop\n      jump\t// out\n        /* \"#utility.yul\":16666:16726   */\n    tag_218:\n        /* \"#utility.yul\":16694:16697   */\n      0x00\n        /* \"#utility.yul\":16715:16720   */\n      dup2\n        /* \"#utility.yul\":16708:16720   */\n      swap1\n      pop\n        /* \"#utility.yul\":16666:16726   */\n      swap2\n      swap1\n      pop\n      jump\t// out\n        /* \"#utility.yul\":16732:16874   */\n    tag_219:\n        /* \"#utility.yul\":16782:16791   */\n      0x00\n        /* \"#utility.yul\":16815:16868   */\n      tag_393\n        /* \"#utility.yul\":16833:16867   */\n      tag_394\n        /* \"#utility.yul\":16842:16866   */\n      tag_395\n        /* \"#utility.yul\":16860:16865   */\n      dup5\n        /* \"#utility.yul\":16842:16866   */\n      tag_176\n      jump\t// in\n    tag_395:\n        /* \"#utility.yul\":16833:16867   */\n      tag_218\n      jump\t// in\n    tag_394:\n        /* \"#utility.yul\":16815:16868   */\n      tag_176\n      jump\t// in\n    tag_393:\n        /* \"#utility.yul\":16802:16868   */\n      swap1\n      pop\n        /* \"#utility.yul\":16732:16874   */\n      swap2\n      swap1\n      pop\n      jump\t// out\n        /* \"#utility.yul\":16880:16955   */\n    tag_220:\n        /* \"#utility.yul\":16923:16926   */\n      0x00\n        /* \"#utility.yul\":16944:16949   */\n      dup2\n        /* \"#utility.yul\":16937:16949   */\n      swap1\n      pop\n        /* \"#utility.yul\":16880:16955   */\n      swap2\n      swap1\n      pop\n      jump\t// out\n        /* \"#utility.yul\":16961:17230   */\n    tag_221:\n        /* \"#utility.yul\":17071:17110   */\n      tag_398\n        /* \"#utility.yul\":17102:17109   */\n      dup4\n        /* \"#utility.yul\":17071:17110   */\n      tag_219\n      jump\t// in\n    tag_398:\n        /* \"#utility.yul\":17132:17223   */\n      tag_399\n        /* \"#utility.yul\":17181:17222   */\n      tag_400\n        /* \"#utility.yul\":17205:17221   */\n      dup3\n        /* \"#utility.yul\":17181:17222   */\n      tag_220\n      jump\t// in\n    tag_400:\n        /* \"#utility.yul\":17173:17179   */\n      dup5\n        /* \"#utility.yul\":17166:17170   */\n      dup5\n        /* \"#utility.yul\":17160:17171   */\n      sload\n        /* \"#utility.yul\":17132:17223   */\n      tag_217\n      jump\t// in\n    tag_399:\n        /* \"#utility.yul\":17126:17130   */\n      dup3\n        /* \"#utility.yul\":17119:17224   */\n      sstore\n        /* \"#utility.yul\":17037:17230   */\n      pop\n        /* \"#utility.yul\":16961:17230   */\n      pop\n      pop\n      pop\n      jump\t// out\n        /* \"#utility.yul\":17236:17309   */\n    tag_222:\n        /* \"#utility.yul\":17281:17284   */\n      0x00\n        /* \"#utility.yul\":17236:17309   */\n      swap1\n      jump\t// out\n        /* \"#utility.yul\":17315:17504   */\n    tag_223:\n        /* \"#utility.yul\":17392:17424   */\n      tag_403\n      tag_222\n      jump\t// in\n    tag_403:\n        /* \"#utility.yul\":17433:17498   */\n      tag_404\n        /* \"#utility.yul\":17491:17497   */\n      dup2\n        /* \"#utility.yul\":17483:17489   */\n      dup5\n        /* \"#utility.yul\":17477:17481   */\n      dup5\n        /* \"#utility.yul\":17433:17498   */\n      tag_221\n      jump\t// in\n    tag_404:\n        /* \"#utility.yul\":17368:17504   */\n      pop\n        /* \"#utility.yul\":17315:17504   */\n      pop\n      pop\n      jump\t// out\n        /* \"#utility.yul\":17510:17696   */\n    tag_224:\n        /* \"#utility.yul\":17570:17690   */\n    tag_406:\n        /* \"#utility.yul\":17587:17590   */\n      dup2\n        /* \"#utility.yul\":17580:17585   */\n      dup2\n        /* \"#utility.yul\":17577:17591   */\n      lt\n        /* \"#utility.yul\":17570:17690   */\n      iszero\n      tag_408\n      jumpi\n        /* \"#utility.yul\":17641:17680   */\n      tag_409\n        /* \"#utility.yul\":17678:17679   */\n      0x00\n        /* \"#utility.yul\":17671:17676   */\n      dup3\n        /* \"#utility.yul\":17641:17680   */\n      tag_223\n      jump\t// in\n    tag_409:\n        /* \"#utility.yul\":17614:17615   */\n      0x01\n        /* \"#utility.yul\":17607:17612   */\n      dup2\n        /* \"#utility.yul\":17603:17616   */\n      add\n        /* \"#utility.yul\":17594:17616   */\n      swap1\n      pop\n        /* \"#utility.yul\":17570:17690   */\n      jump(tag_406)\n    tag_408:\n        /* \"#utility.yul\":17510:17696   */\n      pop\n      pop\n      jump\t// out\n        /* \"#utility.yul\":17702:18245   */\n    tag_225:\n        /* \"#utility.yul\":17803:17805   */\n      0x1f\n        /* \"#utility.yul\":17798:17801   */\n      dup3\n        /* \"#utility.yul\":17795:17806   */\n      gt\n        /* \"#utility.yul\":17792:18238   */\n      iszero\n      tag_411\n      jumpi\n        /* \"#utility.yul\":17837:17875   */\n      tag_412\n        /* \"#utility.yul\":17869:17874   */\n      dup2\n        /* \"#utility.yul\":17837:17875   */\n      tag_214\n      jump\t// in\n    tag_412:\n        /* \"#utility.yul\":17921:17950   */\n      tag_413\n        /* \"#utility.yul\":17939:17949   */\n      dup5\n        /* \"#utility.yul\":17921:17950   */\n      tag_215\n      jump\t// in\n    tag_413:\n        /* \"#utility.yul\":17911:17919   */\n      dup2\n        /* \"#utility.yul\":17907:17951   */\n      add\n        /* \"#utility.yul\":18104:18106   */\n      0x20\n        /* \"#utility.yul\":18092:18102   */\n      dup6\n        /* \"#utility.yul\":18089:18107   */\n      lt\n        /* \"#utility.yul\":18086:18135   */\n      iszero\n      tag_414\n      jumpi\n        /* \"#utility.yul\":18125:18133   */\n      dup2\n        /* \"#utility.yul\":18110:18133   */\n      swap1\n      pop\n        /* \"#utility.yul\":18086:18135   */\n    tag_414:\n        /* \"#utility.yul\":18148:18228   */\n      tag_415\n        /* \"#utility.yul\":18204:18226   */\n      tag_416\n        /* \"#utility.yul\":18222:18225   */\n      dup6\n        /* \"#utility.yul\":18204:18226   */\n      tag_215\n      jump\t// in\n    tag_416:\n        /* \"#utility.yul\":18194:18202   */\n      dup4\n        /* \"#utility.yul\":18190:18227   */\n      add\n        /* \"#utility.yul\":18177:18188   */\n      dup3\n        /* \"#utility.yul\":18148:18228   */\n      tag_224\n      jump\t// in\n    tag_415:\n        /* \"#utility.yul\":17807:18238   */\n      pop\n      pop\n        /* \"#utility.yul\":17792:18238   */\n    tag_411:\n        /* \"#utility.yul\":17702:18245   */\n      pop\n      pop\n      pop\n      jump\t// out\n        /* \"#utility.yul\":18251:18368   */\n    tag_226:\n        /* \"#utility.yul\":18305:18313   */\n      0x00\n        /* \"#utility.yul\":18355:18360   */\n      dup3\n        /* \"#utility.yul\":18349:18353   */\n      dup3\n        /* \"#utility.yul\":18345:18361   */\n      shr\n        /* \"#utility.yul\":18324:18361   */\n      swap1\n      pop\n        /* \"#utility.yul\":18251:18368   */\n      swap3\n      swap2\n      pop\n      pop\n      jump\t// out\n        /* \"#utility.yul\":18374:18543   */\n    tag_227:\n        /* \"#utility.yul\":18418:18424   */\n      0x00\n        /* \"#utility.yul\":18451:18502   */\n      tag_419\n        /* \"#utility.yul\":18499:18500   */\n      0x00\n        /* \"#utility.yul\":18495:18501   */\n      not\n        /* \"#utility.yul\":18487:18492   */\n      dup5\n        /* \"#utility.yul\":18484:18485   */\n      0x08\n        /* \"#utility.yul\":18480:18493   */\n      mul\n        /* \"#utility.yul\":18451:18502   */\n      tag_226\n      jump\t// in\n    tag_419:\n        /* \"#utility.yul\":18447:18503   */\n      not\n        /* \"#utility.yul\":18532:18536   */\n      dup1\n        /* \"#utility.yul\":18526:18530   */\n      dup4\n        /* \"#utility.yul\":18522:18537   */\n      and\n        /* \"#utility.yul\":18512:18537   */\n      swap2\n      pop\n        /* \"#utility.yul\":18425:18543   */\n      pop\n        /* \"#utility.yul\":18374:18543   */\n      swap3\n      swap2\n      pop\n      pop\n      jump\t// out\n        /* \"#utility.yul\":18548:18843   */\n    tag_228:\n        /* \"#utility.yul\":18624:18628   */\n      0x00\n        /* \"#utility.yul\":18770:18799   */\n      tag_421\n        /* \"#utility.yul\":18795:18798   */\n      dup4\n        /* \"#utility.yul\":18789:18793   */\n      dup4\n        /* \"#utility.yul\":18770:18799   */\n      tag_227\n      jump\t// in\n    tag_421:\n        /* \"#utility.yul\":18762:18799   */\n      swap2\n      pop\n        /* \"#utility.yul\":18832:18835   */\n      dup3\n        /* \"#utility.yul\":18829:18830   */\n      0x02\n        /* \"#utility.yul\":18825:18836   */\n      mul\n        /* \"#utility.yul\":18819:18823   */\n      dup3\n        /* \"#utility.yul\":18816:18837   */\n      or\n        /* \"#utility.yul\":18808:18837   */\n      swap1\n      pop\n        /* \"#utility.yul\":18548:18843   */\n      swap3\n      swap2\n      pop\n      pop\n      jump\t// out\n        /* \"#utility.yul\":18848:20243   */\n    tag_119:\n        /* \"#utility.yul\":18965:19002   */\n      tag_423\n        /* \"#utility.yul\":18998:19001   */\n      dup3\n        /* \"#utility.yul\":18965:19002   */\n      tag_179\n      jump\t// in\n    tag_423:\n        /* \"#utility.yul\":19067:19085   */\n      0xffffffffffffffff\n        /* \"#utility.yul\":19059:19065   */\n      dup2\n        /* \"#utility.yul\":19056:19086   */\n      gt\n        /* \"#utility.yul\":19053:19109   */\n      iszero\n      tag_424\n      jumpi\n        /* \"#utility.yul\":19089:19107   */\n      tag_425\n      tag_195\n      jump\t// in\n    tag_425:\n        /* \"#utility.yul\":19053:19109   */\n    tag_424:\n        /* \"#utility.yul\":19133:19171   */\n      tag_426\n        /* \"#utility.yul\":19165:19169   */\n      dup3\n        /* \"#utility.yul\":19159:19170   */\n      sload\n        /* \"#utility.yul\":19133:19171   */\n      tag_56\n      jump\t// in\n    tag_426:\n        /* \"#utility.yul\":19218:19285   */\n      tag_427\n        /* \"#utility.yul\":19278:19284   */\n      dup3\n        /* \"#utility.yul\":19270:19276   */\n      dup3\n        /* \"#utility.yul\":19264:19268   */\n      dup6\n        /* \"#utility.yul\":19218:19285   */\n      tag_225\n      jump\t// in\n    tag_427:\n        /* \"#utility.yul\":19312:19313   */\n      0x00\n        /* \"#utility.yul\":19336:19340   */\n      0x20\n        /* \"#utility.yul\":19323:19340   */\n      swap1\n      pop\n        /* \"#utility.yul\":19368:19370   */\n      0x1f\n        /* \"#utility.yul\":19360:19366   */\n      dup4\n        /* \"#utility.yul\":19357:19371   */\n      gt\n        /* \"#utility.yul\":19385:19386   */\n      0x01\n        /* \"#utility.yul\":19380:19998   */\n      dup2\n      eq\n      tag_429\n      jumpi\n        /* \"#utility.yul\":20042:20043   */\n      0x00\n        /* \"#utility.yul\":20059:20065   */\n      dup5\n        /* \"#utility.yul\":20056:20133   */\n      iszero\n      tag_430\n      jumpi\n        /* \"#utility.yul\":20108:20117   */\n      dup3\n        /* \"#utility.yul\":20103:20106   */\n      dup8\n        /* \"#utility.yul\":20099:20118   */\n      add\n        /* \"#utility.yul\":20093:20119   */\n      mload\n        /* \"#utility.yul\":20084:20119   */\n      swap1\n      pop\n        /* \"#utility.yul\":20056:20133   */\n    tag_430:\n        /* \"#utility.yul\":20159:20226   */\n      tag_431\n        /* \"#utility.yul\":20219:20225   */\n      dup6\n        /* \"#utility.yul\":20212:20217   */\n      dup3\n        /* \"#utility.yul\":20159:20226   */\n      tag_228\n      jump\t// in\n    tag_431:\n        /* \"#utility.yul\":20153:20157   */\n      dup7\n        /* \"#utility.yul\":20146:20227   */\n      sstore\n        /* \"#utility.yul\":20015:20237   */\n      pop\n        /* \"#utility.yul\":19350:20237   */\n      jump(tag_428)\n        /* \"#utility.yul\":19380:19998   */\n    tag_429:\n        /* \"#utility.yul\":19432:19436   */\n      0x1f\n        /* \"#utility.yul\":19428:19437   */\n      not\n        /* \"#utility.yul\":19420:19426   */\n      dup5\n        /* \"#utility.yul\":19416:19438   */\n      and\n        /* \"#utility.yul\":19466:19503   */\n      tag_432\n        /* \"#utility.yul\":19498:19502   */\n      dup7\n        /* \"#utility.yul\":19466:19503   */\n      tag_214\n      jump\t// in\n    tag_432:\n        /* \"#utility.yul\":19525:19526   */\n      0x00\n        /* \"#utility.yul\":19539:19747   */\n    tag_433:\n        /* \"#utility.yul\":19553:19560   */\n      dup3\n        /* \"#utility.yul\":19550:19551   */\n      dup2\n        /* \"#utility.yul\":19547:19561   */\n      lt\n        /* \"#utility.yul\":19539:19747   */\n      iszero\n      tag_435\n      jumpi\n        /* \"#utility.yul\":19632:19641   */\n      dup5\n        /* \"#utility.yul\":19627:19630   */\n      dup10\n        /* \"#utility.yul\":19623:19642   */\n      add\n        /* \"#utility.yul\":19617:19643   */\n      mload\n        /* \"#utility.yul\":19609:19615   */\n      dup3\n        /* \"#utility.yul\":19602:19644   */\n      sstore\n        /* \"#utility.yul\":19683:19684   */\n      0x01\n        /* \"#utility.yul\":19675:19681   */\n      dup3\n        /* \"#utility.yul\":19671:19685   */\n      add\n        /* \"#utility.yul\":19661:19685   */\n      swap2\n      pop\n        /* \"#utility.yul\":19730:19732   */\n      0x20\n        /* \"#utility.yul\":19719:19728   */\n      dup6\n        /* \"#utility.yul\":19715:19733   */\n      add\n        /* \"#utility.yul\":19702:19733   */\n      swap5\n      pop\n        /* \"#utility.yul\":19576:19580   */\n      0x20\n        /* \"#utility.yul\":19573:19574   */\n      dup2\n        /* \"#utility.yul\":19569:19581   */\n      add\n        /* \"#utility.yul\":19564:19581   */\n      swap1\n      pop\n        /* \"#utility.yul\":19539:19747   */\n      jump(tag_433)\n    tag_435:\n        /* \"#utility.yul\":19775:19781   */\n      dup7\n        /* \"#utility.yul\":19766:19773   */\n      dup4\n        /* \"#utility.yul\":19763:19782   */\n      lt\n        /* \"#utility.yul\":19760:19939   */\n      iszero\n      tag_436\n      jumpi\n        /* \"#utility.yul\":19833:19842   */\n      dup5\n        /* \"#utility.yul\":19828:19831   */\n      dup10\n        /* \"#utility.yul\":19824:19843   */\n      add\n        /* \"#utility.yul\":19818:19844   */\n      mload\n        /* \"#utility.yul\":19876:19924   */\n      tag_437\n        /* \"#utility.yul\":19918:19922   */\n      0x1f\n        /* \"#utility.yul\":19910:19916   */\n      dup10\n        /* \"#utility.yul\":19906:19923   */\n      and\n        /* \"#utility.yul\":19895:19904   */\n      dup3\n        /* \"#utility.yul\":19876:19924   */\n      tag_227\n      jump\t// in\n    tag_437:\n        /* \"#utility.yul\":19868:19874   */\n      dup4\n        /* \"#utility.yul\":19861:19925   */\n      sstore\n        /* \"#utility.yul\":19783:19939   */\n      pop\n        /* \"#utility.yul\":19760:19939   */\n    tag_436:\n        /* \"#utility.yul\":19985:19986   */\n      0x01\n        /* \"#utility.yul\":19981:19982   */\n      0x02\n        /* \"#utility.yul\":19973:19979   */\n      dup9\n        /* \"#utility.yul\":19969:19983   */\n      mul\n        /* \"#utility.yul\":19965:19987   */\n      add\n        /* \"#utility.yul\":19959:19963   */\n      dup9\n        /* \"#utility.yul\":19952:19988   */\n      sstore\n        /* \"#utility.yul\":19387:19998   */\n      pop\n      pop\n      pop\n        /* \"#utility.yul\":19350:20237   */\n    tag_428:\n      pop\n        /* \"#utility.yul\":18940:20243   */\n      pop\n      pop\n      pop\n        /* \"#utility.yul\":18848:20243   */\n      pop\n      pop\n      jump\t// out\n        /* \"#utility.yul\":20249:20672   */\n    tag_124:\n        /* \"#utility.yul\":20390:20394   */\n      0x00\n        /* \"#utility.yul\":20428:20430   */\n      0x40\n        /* \"#utility.yul\":20417:20426   */\n      dup3\n        /* \"#utility.yul\":20413:20431   */\n      add\n        /* \"#utility.yul\":20405:20431   */\n      swap1\n      pop\n        /* \"#utility.yul\":20441:20512   */\n      tag_439\n        /* \"#utility.yul\":20509:20510   */\n      0x00\n        /* \"#utility.yul\":20498:20507   */\n      dup4\n        /* \"#utility.yul\":20494:20511   */\n      add\n        /* \"#utility.yul\":20485:20491   */\n      dup6\n        /* \"#utility.yul\":20441:20512   */\n      tag_207\n      jump\t// in\n    tag_439:\n        /* \"#utility.yul\":20559:20568   */\n      dup2\n        /* \"#utility.yul\":20553:20557   */\n      dup2\n        /* \"#utility.yul\":20549:20569   */\n      sub\n        /* \"#utility.yul\":20544:20546   */\n      0x20\n        /* \"#utility.yul\":20533:20542   */\n      dup4\n        /* \"#utility.yul\":20529:20547   */\n      add\n        /* \"#utility.yul\":20522:20570   */\n      mstore\n        /* \"#utility.yul\":20587:20665   */\n      tag_440\n        /* \"#utility.yul\":20660:20664   */\n      dup2\n        /* \"#utility.yul\":20651:20657   */\n      dup5\n        /* \"#utility.yul\":20587:20665   */\n      tag_183\n      jump\t// in\n    tag_440:\n        /* \"#utility.yul\":20579:20665   */\n      swap1\n      pop\n        /* \"#utility.yul\":20249:20672   */\n      swap4\n      swap3\n      pop\n      pop\n      pop\n      jump\t// out\n        /* \"#utility.yul\":20678:20856   */\n    tag_229:\n        /* \"#utility.yul\":20818:20848   */\n      0x4f6e6c792054686972642050617274792063616e20617070726f766500000000\n        /* \"#utility.yul\":20814:20815   */\n      0x00\n        /* \"#utility.yul\":20806:20812   */\n      dup3\n        /* \"#utility.yul\":20802:20816   */\n      add\n        /* \"#utility.yul\":20795:20849   */\n      mstore\n        /* \"#utility.yul\":20678:20856   */\n      pop\n      jump\t// out\n        /* \"#utility.yul\":20862:21228   */\n    tag_230:\n        /* \"#utility.yul\":21004:21007   */\n      0x00\n        /* \"#utility.yul\":21025:21092   */\n      tag_443\n        /* \"#utility.yul\":21089:21091   */\n      0x1c\n        /* \"#utility.yul\":21084:21087   */\n      dup4\n        /* \"#utility.yul\":21025:21092   */\n      tag_180\n      jump\t// in\n    tag_443:\n        /* \"#utility.yul\":21018:21092   */\n      swap2\n      pop\n        /* \"#utility.yul\":21101:21194   */\n      tag_444\n        /* \"#utility.yul\":21190:21193   */\n      dup3\n        /* \"#utility.yul\":21101:21194   */\n      tag_229\n      jump\t// in\n    tag_444:\n        /* \"#utility.yul\":21219:21221   */\n      0x20\n        /* \"#utility.yul\":21214:21217   */\n      dup3\n        /* \"#utility.yul\":21210:21222   */\n      add\n        /* \"#utility.yul\":21203:21222   */\n      swap1\n      pop\n        /* \"#utility.yul\":20862:21228   */\n      swap2\n      swap1\n      pop\n      jump\t// out\n        /* \"#utility.yul\":21234:21653   */\n    tag_128:\n        /* \"#utility.yul\":21400:21404   */\n      0x00\n        /* \"#utility.yul\":21438:21440   */\n      0x20\n        /* \"#utility.yul\":21427:21436   */\n      dup3\n        /* \"#utility.yul\":21423:21441   */\n      add\n        /* \"#utility.yul\":21415:21441   */\n      swap1\n      pop\n        /* \"#utility.yul\":21487:21496   */\n      dup2\n        /* \"#utility.yul\":21481:21485   */\n      dup2\n        /* \"#utility.yul\":21477:21497   */\n      sub\n        /* \"#utility.yul\":21473:21474   */\n      0x00\n        /* \"#utility.yul\":21462:21471   */\n      dup4\n        /* \"#utility.yul\":21458:21475   */\n      add\n        /* \"#utility.yul\":21451:21498   */\n      mstore\n        /* \"#utility.yul\":21515:21646   */\n      tag_446\n        /* \"#utility.yul\":21641:21645   */\n      dup2\n        /* \"#utility.yul\":21515:21646   */\n      tag_230\n      jump\t// in\n    tag_446:\n        /* \"#utility.yul\":21507:21646   */\n      swap1\n      pop\n        /* \"#utility.yul\":21234:21653   */\n      swap2\n      swap1\n      pop\n      jump\t// out\n        /* \"#utility.yul\":21659:21836   */\n    tag_231:\n        /* \"#utility.yul\":21799:21828   */\n      0x50474320617070726f76616c2072657175697265642066697273740000000000\n        /* \"#utility.yul\":21795:21796   */\n      0x00\n        /* \"#utility.yul\":21787:21793   */\n      dup3\n        /* \"#utility.yul\":21783:21797   */\n      add\n        /* \"#utility.yul\":21776:21829   */\n      mstore\n        /* \"#utility.yul\":21659:21836   */\n      pop\n      jump\t// out\n        /* \"#utility.yul\":21842:22208   */\n    tag_232:\n        /* \"#utility.yul\":21984:21987   */\n      0x00\n        /* \"#utility.yul\":22005:22072   */\n      tag_449\n        /* \"#utility.yul\":22069:22071   */\n      0x1b\n        /* \"#utility.yul\":22064:22067   */\n      dup4\n        /* \"#utility.yul\":22005:22072   */\n      tag_180\n      jump\t// in\n    tag_449:\n        /* \"#utility.yul\":21998:22072   */\n      swap2\n      pop\n        /* \"#utility.yul\":22081:22174   */\n      tag_450\n        /* \"#utility.yul\":22170:22173   */\n      dup3\n        /* \"#utility.yul\":22081:22174   */\n      tag_231\n      jump\t// in\n    tag_450:\n        /* \"#utility.yul\":22199:22201   */\n      0x20\n        /* \"#utility.yul\":22194:22197   */\n      dup3\n        /* \"#utility.yul\":22190:22202   */\n      add\n        /* \"#utility.yul\":22183:22202   */\n      swap1\n      pop\n        /* \"#utility.yul\":21842:22208   */\n      swap2\n      swap1\n      pop\n      jump\t// out\n        /* \"#utility.yul\":22214:22633   */\n    tag_132:\n        /* \"#utility.yul\":22380:22384   */\n      0x00\n        /* \"#utility.yul\":22418:22420   */\n      0x20\n        /* \"#utility.yul\":22407:22416   */\n      dup3\n        /* \"#utility.yul\":22403:22421   */\n      add\n        /* \"#utility.yul\":22395:22421   */\n      swap1\n      pop\n        /* \"#utility.yul\":22467:22476   */\n      dup2\n        /* \"#utility.yul\":22461:22465   */\n      dup2\n        /* \"#utility.yul\":22457:22477   */\n      sub\n        /* \"#utility.yul\":22453:22454   */\n      0x00\n        /* \"#utility.yul\":22442:22451   */\n      dup4\n        /* \"#utility.yul\":22438:22455   */\n      add\n        /* \"#utility.yul\":22431:22478   */\n      mstore\n        /* \"#utility.yul\":22495:22626   */\n      tag_452\n        /* \"#utility.yul\":22621:22625   */\n      dup2\n        /* \"#utility.yul\":22495:22626   */\n      tag_232\n      jump\t// in\n    tag_452:\n        /* \"#utility.yul\":22487:22626   */\n      swap1\n      pop\n        /* \"#utility.yul\":22214:22633   */\n      swap2\n      swap1\n      pop\n      jump\t// out\n        /* \"#utility.yul\":22639:22811   */\n    tag_233:\n        /* \"#utility.yul\":22779:22803   */\n      0x416c6c20617070726f76616c7320726571756972656400000000000000000000\n        /* \"#utility.yul\":22775:22776   */\n      0x00\n        /* \"#utility.yul\":22767:22773   */\n      dup3\n        /* \"#utility.yul\":22763:22777   */\n      add\n        /* \"#utility.yul\":22756:22804   */\n      mstore\n        /* \"#utility.yul\":22639:22811   */\n      pop\n      jump\t// out\n        /* \"#utility.yul\":22817:23183   */\n    tag_234:\n        /* \"#utility.yul\":22959:22962   */\n      0x00\n        /* \"#utility.yul\":22980:23047   */\n      tag_455\n        /* \"#utility.yul\":23044:23046   */\n      0x16\n        /* \"#utility.yul\":23039:23042   */\n      dup4\n        /* \"#utility.yul\":22980:23047   */\n      tag_180\n      jump\t// in\n    tag_455:\n        /* \"#utility.yul\":22973:23047   */\n      swap2\n      pop\n        /* \"#utility.yul\":23056:23149   */\n      tag_456\n        /* \"#utility.yul\":23145:23148   */\n      dup3\n        /* \"#utility.yul\":23056:23149   */\n      tag_233\n      jump\t// in\n    tag_456:\n        /* \"#utility.yul\":23174:23176   */\n      0x20\n        /* \"#utility.yul\":23169:23172   */\n      dup3\n        /* \"#utility.yul\":23165:23177   */\n      add\n        /* \"#utility.yul\":23158:23177   */\n      swap1\n      pop\n        /* \"#utility.yul\":22817:23183   */\n      swap2\n      swap1\n      pop\n      jump\t// out\n        /* \"#utility.yul\":23189:23608   */\n    tag_160:\n        /* \"#utility.yul\":23355:23359   */\n      0x00\n        /* \"#utility.yul\":23393:23395   */\n      0x20\n        /* \"#utility.yul\":23382:23391   */\n      dup3\n        /* \"#utility.yul\":23378:23396   */\n      add\n        /* \"#utility.yul\":23370:23396   */\n      swap1\n      pop\n        /* \"#utility.yul\":23442:23451   */\n      dup2\n        /* \"#utility.yul\":23436:23440   */\n      dup2\n        /* \"#utility.yul\":23432:23452   */\n      sub\n        /* \"#utility.yul\":23428:23429   */\n      0x00\n        /* \"#utility.yul\":23417:23426   */\n      dup4\n        /* \"#utility.yul\":23413:23430   */\n      add\n        /* \"#utility.yul\":23406:23453   */\n      mstore\n        /* \"#utility.yul\":23470:23601   */\n      tag_458\n        /* \"#utility.yul\":23596:23600   */\n      dup2\n        /* \"#utility.yul\":23470:23601   */\n      tag_234\n      jump\t// in\n    tag_458:\n        /* \"#utility.yul\":23462:23601   */\n      swap1\n      pop\n        /* \"#utility.yul\":23189:23608   */\n      swap2\n      swap1\n      pop\n      jump\t// out\n        /* \"#utility.yul\":23614:23781   */\n    tag_235:\n        /* \"#utility.yul\":23754:23773   */\n      0x416c726561647920636572746966696564000000000000000000000000000000\n        /* \"#utility.yul\":23750:23751   */\n      0x00\n        /* \"#utility.yul\":23742:23748   */\n      dup3\n        /* \"#utility.yul\":23738:23752   */\n      add\n        /* \"#utility.yul\":23731:23774   */\n      mstore\n        /* \"#utility.yul\":23614:23781   */\n      pop\n      jump\t// out\n        /* \"#utility.yul\":23787:24153   */\n    tag_236:\n        /* \"#utility.yul\":23929:23932   */\n      0x00\n        /* \"#utility.yul\":23950:24017   */\n      tag_461\n        /* \"#utility.yul\":24014:24016   */\n      0x11\n        /* \"#utility.yul\":24009:24012   */\n      dup4\n        /* \"#utility.yul\":23950:24017   */\n      tag_180\n      jump\t// in\n    tag_461:\n        /* \"#utility.yul\":23943:24017   */\n      swap2\n      pop\n        /* \"#utility.yul\":24026:24119   */\n      tag_462\n        /* \"#utility.yul\":24115:24118   */\n      dup3\n        /* \"#utility.yul\":24026:24119   */\n      tag_235\n      jump\t// in\n    tag_462:\n        /* \"#utility.yul\":24144:24146   */\n      0x20\n        /* \"#utility.yul\":24139:24142   */\n      dup3\n        /* \"#utility.yul\":24135:24147   */\n      add\n        /* \"#utility.yul\":24128:24147   */\n      swap1\n      pop\n        /* \"#utility.yul\":23787:24153   */\n      swap2\n      swap1\n      pop\n      jump\t// out\n        /* \"#utility.yul\":24159:24578   */\n    tag_163:\n        /* \"#utility.yul\":24325:24329   */\n      0x00\n        /* \"#utility.yul\":24363:24365   */\n      0x20\n        /* \"#utility.yul\":24352:24361   */\n      dup3\n        /* \"#utility.yul\":24348:24366   */\n      add\n        /* \"#utility.yul\":24340:24366   */\n      swap1\n      pop\n        /* \"#utility.yul\":24412:24421   */\n      dup2\n        /* \"#utility.yul\":24406:24410   */\n      dup2\n        /* \"#utility.yul\":24402:24422   */\n      sub\n        /* \"#utility.yul\":24398:24399   */\n      0x00\n        /* \"#utility.yul\":24387:24396   */\n      dup4\n        /* \"#utility.yul\":24383:24400   */\n      add\n        /* \"#utility.yul\":24376:24423   */\n      mstore\n        /* \"#utility.yul\":24440:24571   */\n      tag_464\n        /* \"#utility.yul\":24566:24570   */\n      dup2\n        /* \"#utility.yul\":24440:24571   */\n      tag_236\n      jump\t// in\n    tag_464:\n        /* \"#utility.yul\":24432:24571   */\n      swap1\n      pop\n        /* \"#utility.yul\":24159:24578   */\n      swap2\n      swap1\n      pop\n      jump\t// out\n        /* \"#utility.yul\":24584:24764   */\n    tag_237:\n        /* \"#utility.yul\":24632:24709   */\n      0x4e487b7100000000000000000000000000000000000000000000000000000000\n        /* \"#utility.yul\":24629:24630   */\n      0x00\n        /* \"#utility.yul\":24622:24710   */\n      mstore\n        /* \"#utility.yul\":24729:24733   */\n      0x11\n        /* \"#utility.yul\":24726:24727   */\n      0x04\n        /* \"#utility.yul\":24719:24734   */\n      mstore\n        /* \"#utility.yul\":24753:24757   */\n      0x24\n        /* \"#utility.yul\":24750:24751   */\n      0x00\n        /* \"#utility.yul\":24743:24758   */\n      revert\n        /* \"#utility.yul\":24770:25003   */\n    tag_165:\n        /* \"#utility.yul\":24809:24812   */\n      0x00\n        /* \"#utility.yul\":24832:24856   */\n      tag_467\n        /* \"#utility.yul\":24850:24855   */\n      dup3\n        /* \"#utility.yul\":24832:24856   */\n      tag_176\n      jump\t// in\n    tag_467:\n        /* \"#utility.yul\":24823:24856   */\n      swap2\n      pop\n        /* \"#utility.yul\":24878:24944   */\n      0xffffffffffffffffffffffffffffffffffffffffffffffffffffffffffffffff\n        /* \"#utility.yul\":24871:24876   */\n      dup3\n        /* \"#utility.yul\":24868:24945   */\n      sub\n        /* \"#utility.yul\":24865:24968   */\n      tag_468\n      jumpi\n        /* \"#utility.yul\":24948:24966   */\n      tag_469\n      tag_237\n      jump\t// in\n    tag_469:\n        /* \"#utility.yul\":24865:24968   */\n    tag_468:\n        /* \"#utility.yul\":24995:24996   */\n      0x01\n        /* \"#utility.yul\":24988:24993   */\n      dup3\n        /* \"#utility.yul\":24984:24997   */\n      add\n        /* \"#utility.yul\":24977:24997   */\n      swap1\n      pop\n        /* \"#utility.yul\":24770:25003   */\n      swap2\n      swap1\n      pop\n      jump\t// out\n        /* \"#utility.yul\":25009:25158   */\n    tag_238:\n        /* \"#utility.yul\":25058:25064   */\n      0x00\n        /* \"#utility.yul\":25092:25097   */\n      dup2\n        /* \"#utility.yul\":25086:25098   */\n      sload\n        /* \"#utility.yul\":25076:25098   */\n      swap1\n      pop\n        /* \"#utility.yul\":25118:25151   */\n      tag_471\n        /* \"#utility.yul\":25144:25150   */\n      dup2\n        /* \"#utility.yul\":25118:25151   */\n      tag_56\n      jump\t// in\n    tag_471:\n        /* \"#utility.yul\":25108:25151   */\n      swap1\n      pop\n        /* \"#utility.yul\":25009:25158   */\n      swap2\n      swap1\n      pop\n      jump\t// out\n        /* \"#utility.yul\":25164:26615   */\n    tag_167:\n        /* \"#utility.yul\":25275:25278   */\n      dup2\n        /* \"#utility.yul\":25269:25273   */\n      dup2\n        /* \"#utility.yul\":25266:25279   */\n      sub\n        /* \"#utility.yul\":25263:25289   */\n      tag_473\n      jumpi\n        /* \"#utility.yul\":25282:25287   */\n      pop\n      pop\n      jump(tag_472)\n        /* \"#utility.yul\":25263:25289   */\n    tag_473:\n        /* \"#utility.yul\":25313:25347   */\n      tag_474\n        /* \"#utility.yul\":25343:25346   */\n      dup3\n        /* \"#utility.yul\":25313:25347   */\n      tag_238\n      jump\t// in\n    tag_474:\n        /* \"#utility.yul\":25412:25430   */\n      0xffffffffffffffff\n        /* \"#utility.yul\":25404:25410   */\n      dup2\n        /* \"#utility.yul\":25401:25431   */\n      gt\n        /* \"#utility.yul\":25398:25454   */\n      iszero\n      tag_475\n      jumpi\n        /* \"#utility.yul\":25434:25452   */\n      tag_476\n      tag_195\n      jump\t// in\n    tag_476:\n        /* \"#utility.yul\":25398:25454   */\n    tag_475:\n        /* \"#utility.yul\":25478:25516   */\n      tag_477\n        /* \"#utility.yul\":25510:25514   */\n      dup3\n        /* \"#utility.yul\":25504:25515   */\n      sload\n        /* \"#utility.yul\":25478:25516   */\n      tag_56\n      jump\t// in\n    tag_477:\n        /* \"#utility.yul\":25563:25630   */\n      tag_478\n        /* \"#utility.yul\":25623:25629   */\n      dup3\n        /* \"#utility.yul\":25615:25621   */\n      dup3\n        /* \"#utility.yul\":25609:25613   */\n      dup6\n        /* \"#utility.yul\":25563:25630   */\n      tag_225\n      jump\t// in\n    tag_478:\n        /* \"#utility.yul\":25657:25658   */\n      0x00\n        /* \"#utility.yul\":25686:25688   */\n      0x1f\n        /* \"#utility.yul\":25678:25684   */\n      dup4\n        /* \"#utility.yul\":25675:25689   */\n      gt\n        /* \"#utility.yul\":25703:25704   */\n      0x01\n        /* \"#utility.yul\":25698:26370   */\n      dup2\n      eq\n      tag_480\n      jumpi\n        /* \"#utility.yul\":26414:26415   */\n      0x00\n        /* \"#utility.yul\":26431:26437   */\n      dup5\n        /* \"#utility.yul\":26428:26505   */\n      iszero\n      tag_481\n      jumpi\n        /* \"#utility.yul\":26480:26489   */\n      dup3\n        /* \"#utility.yul\":26475:26478   */\n      dup8\n        /* \"#utility.yul\":26471:26490   */\n      add\n        /* \"#utility.yul\":26465:26491   */\n      sload\n        /* \"#utility.yul\":26456:26491   */\n      swap1\n      pop\n        /* \"#utility.yul\":26428:26505   */\n    tag_481:\n        /* \"#utility.yul\":26531:26598   */\n      tag_482\n        /* \"#utility.yul\":26591:26597   */\n      dup6\n        /* \"#utility.yul\":26584:26589   */\n      dup3\n        /* \"#utility.yul\":26531:26598   */\n      tag_228\n      jump\t// in\n    tag_482:\n        /* \"#utility.yul\":26525:26529   */\n      dup7\n        /* \"#utility.yul\":26518:26599   */\n      sstore\n        /* \"#utility.yul\":26387:26609   */\n      pop\n        /* \"#utility.yul\":25668:26609   */\n      jump(tag_479)\n        /* \"#utility.yul\":25698:26370   */\n    tag_480:\n        /* \"#utility.yul\":25750:25754   */\n      0x1f\n        /* \"#utility.yul\":25746:25755   */\n      not\n        /* \"#utility.yul\":25738:25744   */\n      dup5\n        /* \"#utility.yul\":25734:25756   */\n      and\n        /* \"#utility.yul\":25776:25812   */\n      tag_483\n        /* \"#utility.yul\":25808:25811   */\n      dup8\n        /* \"#utility.yul\":25776:25812   */\n      tag_214\n      jump\t// in\n    tag_483:\n        /* \"#utility.yul\":25769:25812   */\n      swap7\n      pop\n        /* \"#utility.yul\":25839:25876   */\n      tag_484\n        /* \"#utility.yul\":25871:25875   */\n      dup7\n        /* \"#utility.yul\":25839:25876   */\n      tag_214\n      jump\t// in\n    tag_484:\n        /* \"#utility.yul\":25898:25899   */\n      0x00\n        /* \"#utility.yul\":25912:26119   */\n    tag_485:\n        /* \"#utility.yul\":25926:25933   */\n      dup3\n        /* \"#utility.yul\":25923:25924   */\n      dup2\n        /* \"#utility.yul\":25920:25934   */\n      lt\n        /* \"#utility.yul\":25912:26119   */\n      iszero\n      tag_487\n      jumpi\n        /* \"#utility.yul\":26005:26014   */\n      dup5\n        /* \"#utility.yul\":26000:26003   */\n      dup10\n        /* \"#utility.yul\":25996:26015   */\n      add\n        /* \"#utility.yul\":25990:26016   */\n      sload\n        /* \"#utility.yul\":25982:25988   */\n      dup3\n        /* \"#utility.yul\":25975:26017   */\n      sstore\n        /* \"#utility.yul\":26056:26057   */\n      0x01\n        /* \"#utility.yul\":26048:26054   */\n      dup3\n        /* \"#utility.yul\":26044:26058   */\n      add\n        /* \"#utility.yul\":26034:26058   */\n      swap2\n      pop\n        /* \"#utility.yul\":26103:26104   */\n      0x01\n        /* \"#utility.yul\":26092:26101   */\n      dup6\n        /* \"#utility.yul\":26088:26105   */\n      add\n        /* \"#utility.yul\":26075:26105   */\n      swap5\n      pop\n        /* \"#utility.yul\":25949:25953   */\n      0x20\n        /* \"#utility.yul\":25946:25947   */\n      dup2\n        /* \"#utility.yul\":25942:25954   */\n      add\n        /* \"#utility.yul\":25937:25954   */\n      swap1\n      pop\n        /* \"#utility.yul\":25912:26119   */\n      jump(tag_485)\n    tag_487:\n        /* \"#utility.yul\":26147:26153   */\n      dup7\n        /* \"#utility.yul\":26138:26145   */\n      dup4\n        /* \"#utility.yul\":26135:26154   */\n      lt\n        /* \"#utility.yul\":26132:26311   */\n      iszero\n      tag_488\n      jumpi\n        /* \"#utility.yul\":26205:26214   */\n      dup5\n        /* \"#utility.yul\":26200:26203   */\n      dup10\n        /* \"#utility.yul\":26196:26215   */\n      add\n        /* \"#utility.yul\":26190:26216   */\n      sload\n        /* \"#utility.yul\":26248:26296   */\n      tag_489\n        /* \"#utility.yul\":26290:26294   */\n      0x1f\n        /* \"#utility.yul\":26282:26288   */\n      dup10\n        /* \"#utility.yul\":26278:26295   */\n      and\n        /* \"#utility.yul\":26267:26276   */\n      dup3\n        /* \"#utility.yul\":26248:26296   */\n      tag_227\n      jump\t// in\n    tag_489:\n        /* \"#utility.yul\":26240:26246   */\n      dup4\n        /* \"#utility.yul\":26233:26297   */\n      sstore\n        /* \"#utility.yul\":26155:26311   */\n      pop\n        /* \"#utility.yul\":26132:26311   */\n    tag_488:\n        /* \"#utility.yul\":26357:26358   */\n      0x01\n        /* \"#utility.yul\":26353:26354   */\n      0x02\n        /* \"#utility.yul\":26345:26351   */\n      dup9\n        /* \"#utility.yul\":26341:26355   */\n      mul\n        /* \"#utility.yul\":26337:26359   */\n      add\n        /* \"#utility.yul\":26331:26335   */\n      dup9\n        /* \"#utility.yul\":26324:26360   */\n      sstore\n        /* \"#utility.yul\":25705:26370   */\n      pop\n      pop\n      pop\n        /* \"#utility.yul\":25668:26609   */\n    tag_479:\n      pop\n        /* \"#utility.yul\":25253:26615   */\n      pop\n      pop\n      pop\n        /* \"#utility.yul\":25164:26615   */\n      pop\n      pop\n    tag_472:\n      jump\t// out\n        /* \"#utility.yul\":26621:26953   */\n    tag_172:\n        /* \"#utility.yul\":26742:26746   */\n      0x00\n        /* \"#utility.yul\":26780:26782   */\n      0x40\n        /* \"#utility.yul\":26769:26778   */\n      dup3\n        /* \"#utility.yul\":26765:26783   */\n      add\n        /* \"#utility.yul\":26757:26783   */\n      swap1\n      pop\n        /* \"#utility.yul\":26793:26864   */\n      tag_491\n        /* \"#utility.yul\":26861:26862   */\n      0x00\n        /* \"#utility.yul\":26850:26859   */\n      dup4\n        /* \"#utility.yul\":26846:26863   */\n      add\n        /* \"#utility.yul\":26837:26843   */\n      dup6\n        /* \"#utility.yul\":26793:26864   */\n      tag_186\n      jump\t// in\n    tag_491:\n        /* \"#utility.yul\":26874:26946   */\n      tag_492\n        /* \"#utility.yul\":26942:26944   */\n      0x20\n        /* \"#utility.yul\":26931:26940   */\n      dup4\n        /* \"#utility.yul\":26927:26945   */\n      add\n        /* \"#utility.yul\":26918:26924   */\n      dup5\n        /* \"#utility.yul\":26874:26946   */\n      tag_207\n      jump\t// in\n    tag_492:\n        /* \"#utility.yul\":26621:26953   */\n      swap4\n      swap3\n      pop\n      pop\n      pop\n      jump\t// out\n\n    auxdata: 0xa26469706673582212200bdb1b9e249572dfccc731c8632f7566e74d0f2a7778aa49949c2e4e46bbe8df64736f6c634300081a0033\n}\n",
				"bytecode": {
					"linkReferences": {},
					"object": "608060405234801561000f575f80fd5b5060405161211138038061211183398181016040528101906100319190610155565b335f806101000a81548173ffffffffffffffffffffffffffffffffffffffff021916908373ffffffffffffffffffffffffffffffffffffffff1602179055508160015f6101000a81548173ffffffffffffffffffffffffffffffffffffffff021916908373ffffffffffffffffffffffffffffffffffffffff1602179055508060025f6101000a81548173ffffffffffffffffffffffffffffffffffffffff021916908373ffffffffffffffffffffffffffffffffffffffff1602179055505050610193565b5f80fd5b5f73ffffffffffffffffffffffffffffffffffffffff82169050919050565b5f610124826100fb565b9050919050565b6101348161011a565b811461013e575f80fd5b50565b5f8151905061014f8161012b565b92915050565b5f806040838503121561016b5761016a6100f7565b5b5f61017885828601610141565b925050602061018985828601610141565b9150509250929050565b611f71806101a05f395ff3fe608060405234801561000f575f80fd5b506004361061009c575f3560e01c80638f6414e3116100645780638f6414e314610164578063b7b577ed14610180578063d139d7e81461019e578063d3a2157e146101bc578063df4e214f146101d85761009c565b806351640fee146100a0578063663b3e22146100d557806367764b261461010c5780636ad1b9fe1461012a57806386a658ff14610146575b5f80fd5b6100ba60048036038101906100b5919061122a565b61020f565b6040516100cc969594939291906112df565b60405180910390f35b6100ef60048036038101906100ea919061122a565b610503565b604051610103989796959493929190611369565b60405180910390f35b610114610785565b6040516101219190611401565b60405180910390f35b610144600480360381019061013f919061144d565b61078b565b005b61014e6108e1565b60405161015b91906114b7565b60405180910390f35b61017e600480360381019061017991906115fc565b610904565b005b610188610b75565b60405161019591906114b7565b60405180910390f35b6101a6610b9a565b6040516101b391906114b7565b60405180910390f35b6101d660048036038101906101d1919061144d565b610bbf565b005b6101f260048036038101906101ed919061144d565b610d1e565b604051610206989796959493929190611369565b60405180910390f35b6060806060805f805f60045f8981526020019081526020015f20604051806101000160405290815f82018054610244906116fd565b80601f0160208091040260200160405190810160405280929190818152602001828054610270906116fd565b80156102bb5780601f10610292576101008083540402835291602001916102bb565b820191905f5260205f20905b81548152906001019060200180831161029e57829003601f168201915b505050505081526020016001820180546102d4906116fd565b80601f0160208091040260200160405190810160405280929190818152602001828054610300906116fd565b801561034b5780601f106103225761010080835404028352916020019161034b565b820191905f5260205f20905b81548152906001019060200180831161032e57829003601f168201915b50505050508152602001600282018054610364906116fd565b80601f0160208091040260200160405190810160405280929190818152602001828054610390906116fd565b80156103db5780601f106103b2576101008083540402835291602001916103db565b820191905f5260205f20905b8154815290600101906020018083116103be57829003601f168201915b505050505081526020016003820180546103f4906116fd565b80601f0160208091040260200160405190810160405280929190818152602001828054610420906116fd565b801561046b5780601f106104425761010080835404028352916020019161046b565b820191905f5260205f20905b81548152906001019060200180831161044e57829003601f168201915b50505050508152602001600482015f9054906101000a900460ff161515151581526020016004820160019054906101000a900460ff161515151581526020016004820160029054906101000a900460ff161515151581526020016005820154815250509050805f015181602001518260400151836060015184608001518560a001519650965096509650965096505091939550919395565b6004602052805f5260405f205f91509050805f018054610522906116fd565b80601f016020809104026020016040519081016040528092919081815260200182805461054e906116fd565b80156105995780601f1061057057610100808354040283529160200191610599565b820191905f5260205f20905b81548152906001019060200180831161057c57829003601f168201915b5050505050908060010180546105ae906116fd565b80601f01602080910402602001604051908101604052809291908181526020018280546105da906116fd565b80156106255780601f106105fc57610100808354040283529160200191610625565b820191905f5260205f20905b81548152906001019060200180831161060857829003601f168201915b50505050509080600201805461063a906116fd565b80601f0160208091040260200160405190810160405280929190818152602001828054610666906116fd565b80156106b15780601f10610688576101008083540402835291602001916106b1565b820191905f5260205f20905b81548152906001019060200180831161069457829003601f168201915b5050505050908060030180546106c6906116fd565b80601f01602080910402602001604051908101604052809291908181526020018280546106f2906116fd565b801561073d5780601f106107145761010080835404028352916020019161073d565b820191905f5260205f20905b81548152906001019060200180831161072057829003601f168201915b505050505090806004015f9054906101000a900460ff16908060040160019054906101000a900460ff16908060040160029054906101000a900460ff16908060050154905088565b60035481565b60015f9054906101000a900473ffffffffffffffffffffffffffffffffffffffff1673ffffffffffffffffffffffffffffffffffffffff163373ffffffffffffffffffffffffffffffffffffffff161461081a576040517f08c379a000000000000000000000000000000000000000000000000000000000815260040161081190611777565b60405180910390fd5b5f60055f8381526020019081526020015f205f018054610839906116fd565b90500361087b576040517f08c379a0000000000000000000000000000000000000000000000000000000008152600401610872906117df565b60405180910390fd5b600160055f8381526020019081526020015f206004015f6101000a81548160ff0219169083151502179055507f6aeeed011c43f0d62737327740f49cd0cef5c3096f9e72dfe97c337c605e0c02816040516108d6919061180c565b60405180910390a150565b5f8054906101000a900473ffffffffffffffffffffffffffffffffffffffff1681565b5f8054906101000a900473ffffffffffffffffffffffffffffffffffffffff1673ffffffffffffffffffffffffffffffffffffffff163373ffffffffffffffffffffffffffffffffffffffff1614610991576040517f08c379a00000000000000000000000000000000000000000000000000000000081526004016109889061186f565b60405180910390fd5b5f848484846040516020016109a994939291906118c7565b6040516020818303038152906040528051906020012090505f60055f8381526020019081526020015f205f0180546109e0906116fd565b905014610a22576040517f08c379a0000000000000000000000000000000000000000000000000000000008152600401610a199061194e565b60405180910390fd5b6040518061010001604052808681526020018581526020018481526020018381526020015f151581526020015f151581526020015f151581526020015f81525060055f8381526020019081526020015f205f820151815f019081610a869190611b09565b506020820151816001019081610a9c9190611b09565b506040820151816002019081610ab29190611b09565b506060820151816003019081610ac89190611b09565b506080820151816004015f6101000a81548160ff02191690831515021790555060a08201518160040160016101000a81548160ff02191690831515021790555060c08201518160040160026101000a81548160ff02191690831515021790555060e082015181600501559050507f60c184920fa378f84abb62c243160b19a4808cd6855ccc2315bfe68e11ae87bb8186604051610b66929190611bd8565b60405180910390a15050505050565b60025f9054906101000a900473ffffffffffffffffffffffffffffffffffffffff1681565b60015f9054906101000a900473ffffffffffffffffffffffffffffffffffffffff1681565b60025f9054906101000a900473ffffffffffffffffffffffffffffffffffffffff1673ffffffffffffffffffffffffffffffffffffffff163373ffffffffffffffffffffffffffffffffffffffff1614610c4e576040517f08c379a0000000000000000000000000000000000000000000000000000000008152600401610c4590611c50565b60405180910390fd5b60055f8281526020019081526020015f206004015f9054906101000a900460ff16610cae576040517f08c379a0000000000000000000000000000000000000000000000000000000008152600401610ca590611cb8565b60405180910390fd5b600160055f8381526020019081526020015f2060040160016101000a81548160ff0219169083151502179055507fcbc26642a4f007fe2e8269f61b594975f23352d39ca8c35c230fc53f1501af3681604051610d0a919061180c565b60405180910390a1610d1b81610fa0565b50565b6005602052805f5260405f205f91509050805f018054610d3d906116fd565b80601f0160208091040260200160405190810160405280929190818152602001828054610d69906116fd565b8015610db45780601f10610d8b57610100808354040283529160200191610db4565b820191905f5260205f20905b815481529060010190602001808311610d9757829003601f168201915b505050505090806001018054610dc9906116fd565b80601f0160208091040260200160405190810160405280929190818152602001828054610df5906116fd565b8015610e405780601f10610e1757610100808354040283529160200191610e40565b820191905f5260205f20905b815481529060010190602001808311610e2357829003601f168201915b505050505090806002018054610e55906116fd565b80601f0160208091040260200160405190810160405280929190818152602001828054610e81906116fd565b8015610ecc5780601f10610ea357610100808354040283529160200191610ecc565b820191905f5260205f20905b815481529060010190602001808311610eaf57829003601f168201915b505050505090806003018054610ee1906116fd565b80601f0160208091040260200160405190810160405280929190818152602001828054610f0d906116fd565b8015610f585780601f10610f2f57610100808354040283529160200191610f58565b820191905f5260205f20905b815481529060010190602001808311610f3b57829003601f168201915b505050505090806004015f9054906101000a900460ff16908060040160019054906101000a900460ff16908060040160029054906101000a900460ff16908060050154905088565b5f60055f8381526020019081526020015f209050806004015f9054906101000a900460ff168015610fdf57508060040160019054906101000a900460ff165b61101e576040517f08c379a000000000000000000000000000000000000000000000000000000000815260040161101590611d20565b60405180910390fd5b8060040160029054906101000a900460ff1615611070576040517f08c379a000000000000000000000000000000000000000000000000000000000815260040161106790611d88565b60405180910390fd5b60035f81548092919061108290611dd3565b919050555060018160040160026101000a81548160ff02191690831515021790555060035481600501819055508060045f60035481526020019081526020015f205f8201815f0190816110d59190611e2f565b50600182018160010190816110ea9190611e2f565b50600282018160020190816110ff9190611e2f565b50600382018160030190816111149190611e2f565b50600482015f9054906101000a900460ff16816004015f6101000a81548160ff0219169083151502179055506004820160019054906101000a900460ff168160040160016101000a81548160ff0219169083151502179055506004820160029054906101000a900460ff168160040160026101000a81548160ff021916908315150217905550600582015481600501559050507fc771a3f3d4fd030711f3d1cdaa1998be2f0b7725cf9abfc87f05519cc09c9e0d600354836040516111da929190611f14565b60405180910390a15050565b5f604051905090565b5f80fd5b5f80fd5b5f819050919050565b611209816111f7565b8114611213575f80fd5b50565b5f8135905061122481611200565b92915050565b5f6020828403121561123f5761123e6111ef565b5b5f61124c84828501611216565b91505092915050565b5f81519050919050565b5f82825260208201905092915050565b8281835e5f83830152505050565b5f601f19601f8301169050919050565b5f61129782611255565b6112a1818561125f565b93506112b181856020860161126f565b6112ba8161127d565b840191505092915050565b5f8115159050919050565b6112d9816112c5565b82525050565b5f60c0820190508181035f8301526112f7818961128d565b9050818103602083015261130b818861128d565b9050818103604083015261131f818761128d565b90508181036060830152611333818661128d565b905061134260808301856112d0565b61134f60a08301846112d0565b979650505050505050565b611363816111f7565b82525050565b5f610100820190508181035f830152611382818b61128d565b90508181036020830152611396818a61128d565b905081810360408301526113aa818961128d565b905081810360608301526113be818861128d565b90506113cd60808301876112d0565b6113da60a08301866112d0565b6113e760c08301856112d0565b6113f460e083018461135a565b9998505050505050505050565b5f6020820190506114145f83018461135a565b92915050565b5f819050919050565b61142c8161141a565b8114611436575f80fd5b50565b5f8135905061144781611423565b92915050565b5f60208284031215611462576114616111ef565b5b5f61146f84828501611439565b91505092915050565b5f73ffffffffffffffffffffffffffffffffffffffff82169050919050565b5f6114a182611478565b9050919050565b6114b181611497565b82525050565b5f6020820190506114ca5f8301846114a8565b92915050565b5f80fd5b5f80fd5b7f4e487b71000000000000000000000000000000000000000000000000000000005f52604160045260245ffd5b61150e8261127d565b810181811067ffffffffffffffff8211171561152d5761152c6114d8565b5b80604052505050565b5f61153f6111e6565b905061154b8282611505565b919050565b5f67ffffffffffffffff82111561156a576115696114d8565b5b6115738261127d565b9050602081019050919050565b828183375f83830152505050565b5f6115a061159b84611550565b611536565b9050828152602081018484840111156115bc576115bb6114d4565b5b6115c7848285611580565b509392505050565b5f82601f8301126115e3576115e26114d0565b5b81356115f384826020860161158e565b91505092915050565b5f805f8060808587031215611614576116136111ef565b5b5f85013567ffffffffffffffff811115611631576116306111f3565b5b61163d878288016115cf565b945050602085013567ffffffffffffffff81111561165e5761165d6111f3565b5b61166a878288016115cf565b935050604085013567ffffffffffffffff81111561168b5761168a6111f3565b5b611697878288016115cf565b925050606085013567ffffffffffffffff8111156116b8576116b76111f3565b5b6116c4878288016115cf565b91505092959194509250565b7f4e487b71000000000000000000000000000000000000000000000000000000005f52602260045260245ffd5b5f600282049050600182168061171457607f821691505b602082108103611727576117266116d0565b5b50919050565b7f4f6e6c79205047432063616e20617070726f76650000000000000000000000005f82015250565b5f61176160148361125f565b915061176c8261172d565b602082019050919050565b5f6020820190508181035f83015261178e81611755565b9050919050565b7f496e76616c69642070726f6475637400000000000000000000000000000000005f82015250565b5f6117c9600f8361125f565b91506117d482611795565b602082019050919050565b5f6020820190508181035f8301526117f6816117bd565b9050919050565b6118068161141a565b82525050565b5f60208201905061181f5f8301846117fd565b92915050565b7f4f6e6c7920436572742049737375657220616c6c6f77656400000000000000005f82015250565b5f61185960188361125f565b915061186482611825565b602082019050919050565b5f6020820190508181035f8301526118868161184d565b9050919050565b5f81905092915050565b5f6118a182611255565b6118ab818561188d565b93506118bb81856020860161126f565b80840191505092915050565b5f6118d28287611897565b91506118de8286611897565b91506118ea8285611897565b91506118f68284611897565b915081905095945050505050565b7f50726f6475637420616c7265616479207375626d6974746564000000000000005f82015250565b5f61193860198361125f565b915061194382611904565b602082019050919050565b5f6020820190508181035f8301526119658161192c565b9050919050565b5f819050815f5260205f209050919050565b5f6020601f8301049050919050565b5f82821b905092915050565b5f600883026119c87fffffffffffffffffffffffffffffffffffffffffffffffffffffffffffffffff8261198d565b6119d2868361198d565b95508019841693508086168417925050509392505050565b5f819050919050565b5f611a0d611a08611a03846111f7565b6119ea565b6111f7565b9050919050565b5f819050919050565b611a26836119f3565b611a3a611a3282611a14565b848454611999565b825550505050565b5f90565b611a4e611a42565b611a59818484611a1d565b505050565b5b81811015611a7c57611a715f82611a46565b600181019050611a5f565b5050565b601f821115611ac157611a928161196c565b611a9b8461197e565b81016020851015611aaa578190505b611abe611ab68561197e565b830182611a5e565b50505b505050565b5f82821c905092915050565b5f611ae15f1984600802611ac6565b1980831691505092915050565b5f611af98383611ad2565b9150826002028217905092915050565b611b1282611255565b67ffffffffffffffff811115611b2b57611b2a6114d8565b5b611b3582546116fd565b611b40828285611a80565b5f60209050601f831160018114611b71575f8415611b5f578287015190505b611b698582611aee565b865550611bd0565b601f198416611b7f8661196c565b5f5b82811015611ba657848901518255600182019150602085019450602081019050611b81565b86831015611bc35784890151611bbf601f891682611ad2565b8355505b6001600288020188555050505b505050505050565b5f604082019050611beb5f8301856117fd565b8181036020830152611bfd818461128d565b90509392505050565b7f4f6e6c792054686972642050617274792063616e20617070726f7665000000005f82015250565b5f611c3a601c8361125f565b9150611c4582611c06565b602082019050919050565b5f6020820190508181035f830152611c6781611c2e565b9050919050565b7f50474320617070726f76616c20726571756972656420666972737400000000005f82015250565b5f611ca2601b8361125f565b9150611cad82611c6e565b602082019050919050565b5f6020820190508181035f830152611ccf81611c96565b9050919050565b7f416c6c20617070726f76616c73207265717569726564000000000000000000005f82015250565b5f611d0a60168361125f565b9150611d1582611cd6565b602082019050919050565b5f6020820190508181035f830152611d3781611cfe565b9050919050565b7f416c7265616479206365727469666965640000000000000000000000000000005f82015250565b5f611d7260118361125f565b9150611d7d82611d3e565b602082019050919050565b5f6020820190508181035f830152611d9f81611d66565b9050919050565b7f4e487b71000000000000000000000000000000000000000000000000000000005f52601160045260245ffd5b5f611ddd826111f7565b91507fffffffffffffffffffffffffffffffffffffffffffffffffffffffffffffffff8203611e0f57611e0e611da6565b5b600182019050919050565b5f81549050611e28816116fd565b9050919050565b818103611e3d575050611f12565b611e4682611e1a565b67ffffffffffffffff811115611e5f57611e5e6114d8565b5b611e6982546116fd565b611e74828285611a80565b5f601f831160018114611ea1575f8415611e8f578287015490505b611e998582611aee565b865550611f0b565b601f198416611eaf8761196c565b9650611eba8661196c565b5f5b82811015611ee157848901548255600182019150600185019450602081019050611ebc565b86831015611efe5784890154611efa601f891682611ad2565b8355505b6001600288020188555050505b5050505050505b565b5f604082019050611f275f83018561135a565b611f3460208301846117fd565b939250505056fea26469706673582212200bdb1b9e249572dfccc731c8632f7566e74d0f2a7778aa49949c2e4e46bbe8df64736f6c634300081a0033",
					"opcodes": "PUSH1 0x80 PUSH1 0x40 MSTORE CALLVALUE DUP1 ISZERO PUSH2 0xF JUMPI PUSH0 DUP1 REVERT JUMPDEST POP PUSH1 0x40 MLOAD PUSH2 0x2111 CODESIZE SUB DUP1 PUSH2 0x2111 DUP4 CODECOPY DUP2 DUP2 ADD PUSH1 0x40 MSTORE DUP2 ADD SWAP1 PUSH2 0x31 SWAP2 SWAP1 PUSH2 0x155 JUMP JUMPDEST CALLER PUSH0 DUP1 PUSH2 0x100 EXP DUP2 SLOAD DUP2 PUSH20 0xFFFFFFFFFFFFFFFFFFFFFFFFFFFFFFFFFFFFFFFF MUL NOT AND SWAP1 DUP4 PUSH20 0xFFFFFFFFFFFFFFFFFFFFFFFFFFFFFFFFFFFFFFFF AND MUL OR SWAP1 SSTORE POP DUP2 PUSH1 0x1 PUSH0 PUSH2 0x100 EXP DUP2 SLOAD DUP2 PUSH20 0xFFFFFFFFFFFFFFFFFFFFFFFFFFFFFFFFFFFFFFFF MUL NOT AND SWAP1 DUP4 PUSH20 0xFFFFFFFFFFFFFFFFFFFFFFFFFFFFFFFFFFFFFFFF AND MUL OR SWAP1 SSTORE POP DUP1 PUSH1 0x2 PUSH0 PUSH2 0x100 EXP DUP2 SLOAD DUP2 PUSH20 0xFFFFFFFFFFFFFFFFFFFFFFFFFFFFFFFFFFFFFFFF MUL NOT AND SWAP1 DUP4 PUSH20 0xFFFFFFFFFFFFFFFFFFFFFFFFFFFFFFFFFFFFFFFF AND MUL OR SWAP1 SSTORE POP POP POP PUSH2 0x193 JUMP JUMPDEST PUSH0 DUP1 REVERT JUMPDEST PUSH0 PUSH20 0xFFFFFFFFFFFFFFFFFFFFFFFFFFFFFFFFFFFFFFFF DUP3 AND SWAP1 POP SWAP2 SWAP1 POP JUMP JUMPDEST PUSH0 PUSH2 0x124 DUP3 PUSH2 0xFB JUMP JUMPDEST SWAP1 POP SWAP2 SWAP1 POP JUMP JUMPDEST PUSH2 0x134 DUP2 PUSH2 0x11A JUMP JUMPDEST DUP2 EQ PUSH2 0x13E JUMPI PUSH0 DUP1 REVERT JUMPDEST POP JUMP JUMPDEST PUSH0 DUP2 MLOAD SWAP1 POP PUSH2 0x14F DUP2 PUSH2 0x12B JUMP JUMPDEST SWAP3 SWAP2 POP POP JUMP JUMPDEST PUSH0 DUP1 PUSH1 0x40 DUP4 DUP6 SUB SLT ISZERO PUSH2 0x16B JUMPI PUSH2 0x16A PUSH2 0xF7 JUMP JUMPDEST JUMPDEST PUSH0 PUSH2 0x178 DUP6 DUP3 DUP7 ADD PUSH2 0x141 JUMP JUMPDEST SWAP3 POP POP PUSH1 0x20 PUSH2 0x189 DUP6 DUP3 DUP7 ADD PUSH2 0x141 JUMP JUMPDEST SWAP2 POP POP SWAP3 POP SWAP3 SWAP1 POP JUMP JUMPDEST PUSH2 0x1F71 DUP1 PUSH2 0x1A0 PUSH0 CODECOPY PUSH0 RETURN INVALID PUSH1 0x80 PUSH1 0x40 MSTORE CALLVALUE DUP1 ISZERO PUSH2 0xF JUMPI PUSH0 DUP1 REVERT JUMPDEST POP PUSH1 0x4 CALLDATASIZE LT PUSH2 0x9C JUMPI PUSH0 CALLDATALOAD PUSH1 0xE0 SHR DUP1 PUSH4 0x8F6414E3 GT PUSH2 0x64 JUMPI DUP1 PUSH4 0x8F6414E3 EQ PUSH2 0x164 JUMPI DUP1 PUSH4 0xB7B577ED EQ PUSH2 0x180 JUMPI DUP1 PUSH4 0xD139D7E8 EQ PUSH2 0x19E JUMPI DUP1 PUSH4 0xD3A2157E EQ PUSH2 0x1BC JUMPI DUP1 PUSH4 0xDF4E214F EQ PUSH2 0x1D8 JUMPI PUSH2 0x9C JUMP JUMPDEST DUP1 PUSH4 0x51640FEE EQ PUSH2 0xA0 JUMPI DUP1 PUSH4 0x663B3E22 EQ PUSH2 0xD5 JUMPI DUP1 PUSH4 0x67764B26 EQ PUSH2 0x10C JUMPI DUP1 PUSH4 0x6AD1B9FE EQ PUSH2 0x12A JUMPI DUP1 PUSH4 0x86A658FF EQ PUSH2 0x146 JUMPI JUMPDEST PUSH0 DUP1 REVERT JUMPDEST PUSH2 0xBA PUSH1 0x4 DUP1 CALLDATASIZE SUB DUP2 ADD SWAP1 PUSH2 0xB5 SWAP2 SWAP1 PUSH2 0x122A JUMP JUMPDEST PUSH2 0x20F JUMP JUMPDEST PUSH1 0x40 MLOAD PUSH2 0xCC SWAP7 SWAP6 SWAP5 SWAP4 SWAP3 SWAP2 SWAP1 PUSH2 0x12DF JUMP JUMPDEST PUSH1 0x40 MLOAD DUP1 SWAP2 SUB SWAP1 RETURN JUMPDEST PUSH2 0xEF PUSH1 0x4 DUP1 CALLDATASIZE SUB DUP2 ADD SWAP1 PUSH2 0xEA SWAP2 SWAP1 PUSH2 0x122A JUMP JUMPDEST PUSH2 0x503 JUMP JUMPDEST PUSH1 0x40 MLOAD PUSH2 0x103 SWAP9 SWAP8 SWAP7 SWAP6 SWAP5 SWAP4 SWAP3 SWAP2 SWAP1 PUSH2 0x1369 JUMP JUMPDEST PUSH1 0x40 MLOAD DUP1 SWAP2 SUB SWAP1 RETURN JUMPDEST PUSH2 0x114 PUSH2 0x785 JUMP JUMPDEST PUSH1 0x40 MLOAD PUSH2 0x121 SWAP2 SWAP1 PUSH2 0x1401 JUMP JUMPDEST PUSH1 0x40 MLOAD DUP1 SWAP2 SUB SWAP1 RETURN JUMPDEST PUSH2 0x144 PUSH1 0x4 DUP1 CALLDATASIZE SUB DUP2 ADD SWAP1 PUSH2 0x13F SWAP2 SWAP1 PUSH2 0x144D JUMP JUMPDEST PUSH2 0x78B JUMP JUMPDEST STOP JUMPDEST PUSH2 0x14E PUSH2 0x8E1 JUMP JUMPDEST PUSH1 0x40 MLOAD PUSH2 0x15B SWAP2 SWAP1 PUSH2 0x14B7 JUMP JUMPDEST PUSH1 0x40 MLOAD DUP1 SWAP2 SUB SWAP1 RETURN JUMPDEST PUSH2 0x17E PUSH1 0x4 DUP1 CALLDATASIZE SUB DUP2 ADD SWAP1 PUSH2 0x179 SWAP2 SWAP1 PUSH2 0x15FC JUMP JUMPDEST PUSH2 0x904 JUMP JUMPDEST STOP JUMPDEST PUSH2 0x188 PUSH2 0xB75 JUMP JUMPDEST PUSH1 0x40 MLOAD PUSH2 0x195 SWAP2 SWAP1 PUSH2 0x14B7 JUMP JUMPDEST PUSH1 0x40 MLOAD DUP1 SWAP2 SUB SWAP1 RETURN JUMPDEST PUSH2 0x1A6 PUSH2 0xB9A JUMP JUMPDEST PUSH1 0x40 MLOAD PUSH2 0x1B3 SWAP2 SWAP1 PUSH2 0x14B7 JUMP JUMPDEST PUSH1 0x40 MLOAD DUP1 SWAP2 SUB SWAP1 RETURN JUMPDEST PUSH2 0x1D6 PUSH1 0x4 DUP1 CALLDATASIZE SUB DUP2 ADD SWAP1 PUSH2 0x1D1 SWAP2 SWAP1 PUSH2 0x144D JUMP JUMPDEST PUSH2 0xBBF JUMP JUMPDEST STOP JUMPDEST PUSH2 0x1F2 PUSH1 0x4 DUP1 CALLDATASIZE SUB DUP2 ADD SWAP1 PUSH2 0x1ED SWAP2 SWAP1 PUSH2 0x144D JUMP JUMPDEST PUSH2 0xD1E JUMP JUMPDEST PUSH1 0x40 MLOAD PUSH2 0x206 SWAP9 SWAP8 SWAP7 SWAP6 SWAP5 SWAP4 SWAP3 SWAP2 SWAP1 PUSH2 0x1369 JUMP JUMPDEST PUSH1 0x40 MLOAD DUP1 SWAP2 SUB SWAP1 RETURN JUMPDEST PUSH1 0x60 DUP1 PUSH1 0x60 DUP1 PUSH0 DUP1 PUSH0 PUSH1 0x4 PUSH0 DUP10 DUP2 MSTORE PUSH1 0x20 ADD SWAP1 DUP2 MSTORE PUSH1 0x20 ADD PUSH0 KECCAK256 PUSH1 0x40 MLOAD DUP1 PUSH2 0x100 ADD PUSH1 0x40 MSTORE SWAP1 DUP2 PUSH0 DUP3 ADD DUP1 SLOAD PUSH2 0x244 SWAP1 PUSH2 0x16FD JUMP JUMPDEST DUP1 PUSH1 0x1F ADD PUSH1 0x20 DUP1 SWAP2 DIV MUL PUSH1 0x20 ADD PUSH1 0x40 MLOAD SWAP1 DUP2 ADD PUSH1 0x40 MSTORE DUP1 SWAP3 SWAP2 SWAP1 DUP2 DUP2 MSTORE PUSH1 0x20 ADD DUP3 DUP1 SLOAD PUSH2 0x270 SWAP1 PUSH2 0x16FD JUMP JUMPDEST DUP1 ISZERO PUSH2 0x2BB JUMPI DUP1 PUSH1 0x1F LT PUSH2 0x292 JUMPI PUSH2 0x100 DUP1 DUP4 SLOAD DIV MUL DUP4 MSTORE SWAP2 PUSH1 0x20 ADD SWAP2 PUSH2 0x2BB JUMP JUMPDEST DUP3 ADD SWAP2 SWAP1 PUSH0 MSTORE PUSH1 0x20 PUSH0 KECCAK256 SWAP1 JUMPDEST DUP2 SLOAD DUP2 MSTORE SWAP1 PUSH1 0x1 ADD SWAP1 PUSH1 0x20 ADD DUP1 DUP4 GT PUSH2 0x29E JUMPI DUP3 SWAP1 SUB PUSH1 0x1F AND DUP3 ADD SWAP2 JUMPDEST POP POP POP POP POP DUP2 MSTORE PUSH1 0x20 ADD PUSH1 0x1 DUP3 ADD DUP1 SLOAD PUSH2 0x2D4 SWAP1 PUSH2 0x16FD JUMP JUMPDEST DUP1 PUSH1 0x1F ADD PUSH1 0x20 DUP1 SWAP2 DIV MUL PUSH1 0x20 ADD PUSH1 0x40 MLOAD SWAP1 DUP2 ADD PUSH1 0x40 MSTORE DUP1 SWAP3 SWAP2 SWAP1 DUP2 DUP2 MSTORE PUSH1 0x20 ADD DUP3 DUP1 SLOAD PUSH2 0x300 SWAP1 PUSH2 0x16FD JUMP JUMPDEST DUP1 ISZERO PUSH2 0x34B JUMPI DUP1 PUSH1 0x1F LT PUSH2 0x322 JUMPI PUSH2 0x100 DUP1 DUP4 SLOAD DIV MUL DUP4 MSTORE SWAP2 PUSH1 0x20 ADD SWAP2 PUSH2 0x34B JUMP JUMPDEST DUP3 ADD SWAP2 SWAP1 PUSH0 MSTORE PUSH1 0x20 PUSH0 KECCAK256 SWAP1 JUMPDEST DUP2 SLOAD DUP2 MSTORE SWAP1 PUSH1 0x1 ADD SWAP1 PUSH1 0x20 ADD DUP1 DUP4 GT PUSH2 0x32E JUMPI DUP3 SWAP1 SUB PUSH1 0x1F AND DUP3 ADD SWAP2 JUMPDEST POP POP POP POP POP DUP2 MSTORE PUSH1 0x20 ADD PUSH1 0x2 DUP3 ADD DUP1 SLOAD PUSH2 0x364 SWAP1 PUSH2 0x16FD JUMP JUMPDEST DUP1 PUSH1 0x1F ADD PUSH1 0x20 DUP1 SWAP2 DIV MUL PUSH1 0x20 ADD PUSH1 0x40 MLOAD SWAP1 DUP2 ADD PUSH1 0x40 MSTORE DUP1 SWAP3 SWAP2 SWAP1 DUP2 DUP2 MSTORE PUSH1 0x20 ADD DUP3 DUP1 SLOAD PUSH2 0x390 SWAP1 PUSH2 0x16FD JUMP JUMPDEST DUP1 ISZERO PUSH2 0x3DB JUMPI DUP1 PUSH1 0x1F LT PUSH2 0x3B2 JUMPI PUSH2 0x100 DUP1 DUP4 SLOAD DIV MUL DUP4 MSTORE SWAP2 PUSH1 0x20 ADD SWAP2 PUSH2 0x3DB JUMP JUMPDEST DUP3 ADD SWAP2 SWAP1 PUSH0 MSTORE PUSH1 0x20 PUSH0 KECCAK256 SWAP1 JUMPDEST DUP2 SLOAD DUP2 MSTORE SWAP1 PUSH1 0x1 ADD SWAP1 PUSH1 0x20 ADD DUP1 DUP4 GT PUSH2 0x3BE JUMPI DUP3 SWAP1 SUB PUSH1 0x1F AND DUP3 ADD SWAP2 JUMPDEST POP POP POP POP POP DUP2 MSTORE PUSH1 0x20 ADD PUSH1 0x3 DUP3 ADD DUP1 SLOAD PUSH2 0x3F4 SWAP1 PUSH2 0x16FD JUMP JUMPDEST DUP1 PUSH1 0x1F ADD PUSH1 0x20 DUP1 SWAP2 DIV MUL PUSH1 0x20 ADD PUSH1 0x40 MLOAD SWAP1 DUP2 ADD PUSH1 0x40 MSTORE DUP1 SWAP3 SWAP2 SWAP1 DUP2 DUP2 MSTORE PUSH1 0x20 ADD DUP3 DUP1 SLOAD PUSH2 0x420 SWAP1 PUSH2 0x16FD JUMP JUMPDEST DUP1 ISZERO PUSH2 0x46B JUMPI DUP1 PUSH1 0x1F LT PUSH2 0x442 JUMPI PUSH2 0x100 DUP1 DUP4 SLOAD DIV MUL DUP4 MSTORE SWAP2 PUSH1 0x20 ADD SWAP2 PUSH2 0x46B JUMP JUMPDEST DUP3 ADD SWAP2 SWAP1 PUSH0 MSTORE PUSH1 0x20 PUSH0 KECCAK256 SWAP1 JUMPDEST DUP2 SLOAD DUP2 MSTORE SWAP1 PUSH1 0x1 ADD SWAP1 PUSH1 0x20 ADD DUP1 DUP4 GT PUSH2 0x44E JUMPI DUP3 SWAP1 SUB PUSH1 0x1F AND DUP3 ADD SWAP2 JUMPDEST POP POP POP POP POP DUP2 MSTORE PUSH1 0x20 ADD PUSH1 0x4 DUP3 ADD PUSH0 SWAP1 SLOAD SWAP1 PUSH2 0x100 EXP SWAP1 DIV PUSH1 0xFF AND ISZERO ISZERO ISZERO ISZERO DUP2 MSTORE PUSH1 0x20 ADD PUSH1 0x4 DUP3 ADD PUSH1 0x1 SWAP1 SLOAD SWAP1 PUSH2 0x100 EXP SWAP1 DIV PUSH1 0xFF AND ISZERO ISZERO ISZERO ISZERO DUP2 MSTORE PUSH1 0x20 ADD PUSH1 0x4 DUP3 ADD PUSH1 0x2 SWAP1 SLOAD SWAP1 PUSH2 0x100 EXP SWAP1 DIV PUSH1 0xFF AND ISZERO ISZERO ISZERO ISZERO DUP2 MSTORE PUSH1 0x20 ADD PUSH1 0x5 DUP3 ADD SLOAD DUP2 MSTORE POP POP SWAP1 POP DUP1 PUSH0 ADD MLOAD DUP2 PUSH1 0x20 ADD MLOAD DUP3 PUSH1 0x40 ADD MLOAD DUP4 PUSH1 0x60 ADD MLOAD DUP5 PUSH1 0x80 ADD MLOAD DUP6 PUSH1 0xA0 ADD MLOAD SWAP7 POP SWAP7 POP SWAP7 POP SWAP7 POP SWAP7 POP SWAP7 POP POP SWAP2 SWAP4 SWAP6 POP SWAP2 SWAP4 SWAP6 JUMP JUMPDEST PUSH1 0x4 PUSH1 0x20 MSTORE DUP1 PUSH0 MSTORE PUSH1 0x40 PUSH0 KECCAK256 PUSH0 SWAP2 POP SWAP1 POP DUP1 PUSH0 ADD DUP1 SLOAD PUSH2 0x522 SWAP1 PUSH2 0x16FD JUMP JUMPDEST DUP1 PUSH1 0x1F ADD PUSH1 0x20 DUP1 SWAP2 DIV MUL PUSH1 0x20 ADD PUSH1 0x40 MLOAD SWAP1 DUP2 ADD PUSH1 0x40 MSTORE DUP1 SWAP3 SWAP2 SWAP1 DUP2 DUP2 MSTORE PUSH1 0x20 ADD DUP3 DUP1 SLOAD PUSH2 0x54E SWAP1 PUSH2 0x16FD JUMP JUMPDEST DUP1 ISZERO PUSH2 0x599 JUMPI DUP1 PUSH1 0x1F LT PUSH2 0x570 JUMPI PUSH2 0x100 DUP1 DUP4 SLOAD DIV MUL DUP4 MSTORE SWAP2 PUSH1 0x20 ADD SWAP2 PUSH2 0x599 JUMP JUMPDEST DUP3 ADD SWAP2 SWAP1 PUSH0 MSTORE PUSH1 0x20 PUSH0 KECCAK256 SWAP1 JUMPDEST DUP2 SLOAD DUP2 MSTORE SWAP1 PUSH1 0x1 ADD SWAP1 PUSH1 0x20 ADD DUP1 DUP4 GT PUSH2 0x57C JUMPI DUP3 SWAP1 SUB PUSH1 0x1F AND DUP3 ADD SWAP2 JUMPDEST POP POP POP POP POP SWAP1 DUP1 PUSH1 0x1 ADD DUP1 SLOAD PUSH2 0x5AE SWAP1 PUSH2 0x16FD JUMP JUMPDEST DUP1 PUSH1 0x1F ADD PUSH1 0x20 DUP1 SWAP2 DIV MUL PUSH1 0x20 ADD PUSH1 0x40 MLOAD SWAP1 DUP2 ADD PUSH1 0x40 MSTORE DUP1 SWAP3 SWAP2 SWAP1 DUP2 DUP2 MSTORE PUSH1 0x20 ADD DUP3 DUP1 SLOAD PUSH2 0x5DA SWAP1 PUSH2 0x16FD JUMP JUMPDEST DUP1 ISZERO PUSH2 0x625 JUMPI DUP1 PUSH1 0x1F LT PUSH2 0x5FC JUMPI PUSH2 0x100 DUP1 DUP4 SLOAD DIV MUL DUP4 MSTORE SWAP2 PUSH1 0x20 ADD SWAP2 PUSH2 0x625 JUMP JUMPDEST DUP3 ADD SWAP2 SWAP1 PUSH0 MSTORE PUSH1 0x20 PUSH0 KECCAK256 SWAP1 JUMPDEST DUP2 SLOAD DUP2 MSTORE SWAP1 PUSH1 0x1 ADD SWAP1 PUSH1 0x20 ADD DUP1 DUP4 GT PUSH2 0x608 JUMPI DUP3 SWAP1 SUB PUSH1 0x1F AND DUP3 ADD SWAP2 JUMPDEST POP POP POP POP POP SWAP1 DUP1 PUSH1 0x2 ADD DUP1 SLOAD PUSH2 0x63A SWAP1 PUSH2 0x16FD JUMP JUMPDEST DUP1 PUSH1 0x1F ADD PUSH1 0x20 DUP1 SWAP2 DIV MUL PUSH1 0x20 ADD PUSH1 0x40 MLOAD SWAP1 DUP2 ADD PUSH1 0x40 MSTORE DUP1 SWAP3 SWAP2 SWAP1 DUP2 DUP2 MSTORE PUSH1 0x20 ADD DUP3 DUP1 SLOAD PUSH2 0x666 SWAP1 PUSH2 0x16FD JUMP JUMPDEST DUP1 ISZERO PUSH2 0x6B1 JUMPI DUP1 PUSH1 0x1F LT PUSH2 0x688 JUMPI PUSH2 0x100 DUP1 DUP4 SLOAD DIV MUL DUP4 MSTORE SWAP2 PUSH1 0x20 ADD SWAP2 PUSH2 0x6B1 JUMP JUMPDEST DUP3 ADD SWAP2 SWAP1 PUSH0 MSTORE PUSH1 0x20 PUSH0 KECCAK256 SWAP1 JUMPDEST DUP2 SLOAD DUP2 MSTORE SWAP1 PUSH1 0x1 ADD SWAP1 PUSH1 0x20 ADD DUP1 DUP4 GT PUSH2 0x694 JUMPI DUP3 SWAP1 SUB PUSH1 0x1F AND DUP3 ADD SWAP2 JUMPDEST POP POP POP POP POP SWAP1 DUP1 PUSH1 0x3 ADD DUP1 SLOAD PUSH2 0x6C6 SWAP1 PUSH2 0x16FD JUMP JUMPDEST DUP1 PUSH1 0x1F ADD PUSH1 0x20 DUP1 SWAP2 DIV MUL PUSH1 0x20 ADD PUSH1 0x40 MLOAD SWAP1 DUP2 ADD PUSH1 0x40 MSTORE DUP1 SWAP3 SWAP2 SWAP1 DUP2 DUP2 MSTORE PUSH1 0x20 ADD DUP3 DUP1 SLOAD PUSH2 0x6F2 SWAP1 PUSH2 0x16FD JUMP JUMPDEST DUP1 ISZERO PUSH2 0x73D JUMPI DUP1 PUSH1 0x1F LT PUSH2 0x714 JUMPI PUSH2 0x100 DUP1 DUP4 SLOAD DIV MUL DUP4 MSTORE SWAP2 PUSH1 0x20 ADD SWAP2 PUSH2 0x73D JUMP JUMPDEST DUP3 ADD SWAP2 SWAP1 PUSH0 MSTORE PUSH1 0x20 PUSH0 KECCAK256 SWAP1 JUMPDEST DUP2 SLOAD DUP2 MSTORE SWAP1 PUSH1 0x1 ADD SWAP1 PUSH1 0x20 ADD DUP1 DUP4 GT PUSH2 0x720 JUMPI DUP3 SWAP1 SUB PUSH1 0x1F AND DUP3 ADD SWAP2 JUMPDEST POP POP POP POP POP SWAP1 DUP1 PUSH1 0x4 ADD PUSH0 SWAP1 SLOAD SWAP1 PUSH2 0x100 EXP SWAP1 DIV PUSH1 0xFF AND SWAP1 DUP1 PUSH1 0x4 ADD PUSH1 0x1 SWAP1 SLOAD SWAP1 PUSH2 0x100 EXP SWAP1 DIV PUSH1 0xFF AND SWAP1 DUP1 PUSH1 0x4 ADD PUSH1 0x2 SWAP1 SLOAD SWAP1 PUSH2 0x100 EXP SWAP1 DIV PUSH1 0xFF AND SWAP1 DUP1 PUSH1 0x5 ADD SLOAD SWAP1 POP DUP9 JUMP JUMPDEST PUSH1 0x3 SLOAD DUP2 JUMP JUMPDEST PUSH1 0x1 PUSH0 SWAP1 SLOAD SWAP1 PUSH2 0x100 EXP SWAP1 DIV PUSH20 0xFFFFFFFFFFFFFFFFFFFFFFFFFFFFFFFFFFFFFFFF AND PUSH20 0xFFFFFFFFFFFFFFFFFFFFFFFFFFFFFFFFFFFFFFFF AND CALLER PUSH20 0xFFFFFFFFFFFFFFFFFFFFFFFFFFFFFFFFFFFFFFFF AND EQ PUSH2 0x81A JUMPI PUSH1 0x40 MLOAD PUSH32 0x8C379A000000000000000000000000000000000000000000000000000000000 DUP2 MSTORE PUSH1 0x4 ADD PUSH2 0x811 SWAP1 PUSH2 0x1777 JUMP JUMPDEST PUSH1 0x40 MLOAD DUP1 SWAP2 SUB SWAP1 REVERT JUMPDEST PUSH0 PUSH1 0x5 PUSH0 DUP4 DUP2 MSTORE PUSH1 0x20 ADD SWAP1 DUP2 MSTORE PUSH1 0x20 ADD PUSH0 KECCAK256 PUSH0 ADD DUP1 SLOAD PUSH2 0x839 SWAP1 PUSH2 0x16FD JUMP JUMPDEST SWAP1 POP SUB PUSH2 0x87B JUMPI PUSH1 0x40 MLOAD PUSH32 0x8C379A000000000000000000000000000000000000000000000000000000000 DUP2 MSTORE PUSH1 0x4 ADD PUSH2 0x872 SWAP1 PUSH2 0x17DF JUMP JUMPDEST PUSH1 0x40 MLOAD DUP1 SWAP2 SUB SWAP1 REVERT JUMPDEST PUSH1 0x1 PUSH1 0x5 PUSH0 DUP4 DUP2 MSTORE PUSH1 0x20 ADD SWAP1 DUP2 MSTORE PUSH1 0x20 ADD PUSH0 KECCAK256 PUSH1 0x4 ADD PUSH0 PUSH2 0x100 EXP DUP2 SLOAD DUP2 PUSH1 0xFF MUL NOT AND SWAP1 DUP4 ISZERO ISZERO MUL OR SWAP1 SSTORE POP PUSH32 0x6AEEED011C43F0D62737327740F49CD0CEF5C3096F9E72DFE97C337C605E0C02 DUP2 PUSH1 0x40 MLOAD PUSH2 0x8D6 SWAP2 SWAP1 PUSH2 0x180C JUMP JUMPDEST PUSH1 0x40 MLOAD DUP1 SWAP2 SUB SWAP1 LOG1 POP JUMP JUMPDEST PUSH0 DUP1 SLOAD SWAP1 PUSH2 0x100 EXP SWAP1 DIV PUSH20 0xFFFFFFFFFFFFFFFFFFFFFFFFFFFFFFFFFFFFFFFF AND DUP2 JUMP JUMPDEST PUSH0 DUP1 SLOAD SWAP1 PUSH2 0x100 EXP SWAP1 DIV PUSH20 0xFFFFFFFFFFFFFFFFFFFFFFFFFFFFFFFFFFFFFFFF AND PUSH20 0xFFFFFFFFFFFFFFFFFFFFFFFFFFFFFFFFFFFFFFFF AND CALLER PUSH20 0xFFFFFFFFFFFFFFFFFFFFFFFFFFFFFFFFFFFFFFFF AND EQ PUSH2 0x991 JUMPI PUSH1 0x40 MLOAD PUSH32 0x8C379A000000000000000000000000000000000000000000000000000000000 DUP2 MSTORE PUSH1 0x4 ADD PUSH2 0x988 SWAP1 PUSH2 0x186F JUMP JUMPDEST PUSH1 0x40 MLOAD DUP1 SWAP2 SUB SWAP1 REVERT JUMPDEST PUSH0 DUP5 DUP5 DUP5 DUP5 PUSH1 0x40 MLOAD PUSH1 0x20 ADD PUSH2 0x9A9 SWAP5 SWAP4 SWAP3 SWAP2 SWAP1 PUSH2 0x18C7 JUMP JUMPDEST PUSH1 0x40 MLOAD PUSH1 0x20 DUP2 DUP4 SUB SUB DUP2 MSTORE SWAP1 PUSH1 0x40 MSTORE DUP1 MLOAD SWAP1 PUSH1 0x20 ADD KECCAK256 SWAP1 POP PUSH0 PUSH1 0x5 PUSH0 DUP4 DUP2 MSTORE PUSH1 0x20 ADD SWAP1 DUP2 MSTORE PUSH1 0x20 ADD PUSH0 KECCAK256 PUSH0 ADD DUP1 SLOAD PUSH2 0x9E0 SWAP1 PUSH2 0x16FD JUMP JUMPDEST SWAP1 POP EQ PUSH2 0xA22 JUMPI PUSH1 0x40 MLOAD PUSH32 0x8C379A000000000000000000000000000000000000000000000000000000000 DUP2 MSTORE PUSH1 0x4 ADD PUSH2 0xA19 SWAP1 PUSH2 0x194E JUMP JUMPDEST PUSH1 0x40 MLOAD DUP1 SWAP2 SUB SWAP1 REVERT JUMPDEST PUSH1 0x40 MLOAD DUP1 PUSH2 0x100 ADD PUSH1 0x40 MSTORE DUP1 DUP7 DUP2 MSTORE PUSH1 0x20 ADD DUP6 DUP2 MSTORE PUSH1 0x20 ADD DUP5 DUP2 MSTORE PUSH1 0x20 ADD DUP4 DUP2 MSTORE PUSH1 0x20 ADD PUSH0 ISZERO ISZERO DUP2 MSTORE PUSH1 0x20 ADD PUSH0 ISZERO ISZERO DUP2 MSTORE PUSH1 0x20 ADD PUSH0 ISZERO ISZERO DUP2 MSTORE PUSH1 0x20 ADD PUSH0 DUP2 MSTORE POP PUSH1 0x5 PUSH0 DUP4 DUP2 MSTORE PUSH1 0x20 ADD SWAP1 DUP2 MSTORE PUSH1 0x20 ADD PUSH0 KECCAK256 PUSH0 DUP3 ADD MLOAD DUP2 PUSH0 ADD SWAP1 DUP2 PUSH2 0xA86 SWAP2 SWAP1 PUSH2 0x1B09 JUMP JUMPDEST POP PUSH1 0x20 DUP3 ADD MLOAD DUP2 PUSH1 0x1 ADD SWAP1 DUP2 PUSH2 0xA9C SWAP2 SWAP1 PUSH2 0x1B09 JUMP JUMPDEST POP PUSH1 0x40 DUP3 ADD MLOAD DUP2 PUSH1 0x2 ADD SWAP1 DUP2 PUSH2 0xAB2 SWAP2 SWAP1 PUSH2 0x1B09 JUMP JUMPDEST POP PUSH1 0x60 DUP3 ADD MLOAD DUP2 PUSH1 0x3 ADD SWAP1 DUP2 PUSH2 0xAC8 SWAP2 SWAP1 PUSH2 0x1B09 JUMP JUMPDEST POP PUSH1 0x80 DUP3 ADD MLOAD DUP2 PUSH1 0x4 ADD PUSH0 PUSH2 0x100 EXP DUP2 SLOAD DUP2 PUSH1 0xFF MUL NOT AND SWAP1 DUP4 ISZERO ISZERO MUL OR SWAP1 SSTORE POP PUSH1 0xA0 DUP3 ADD MLOAD DUP2 PUSH1 0x4 ADD PUSH1 0x1 PUSH2 0x100 EXP DUP2 SLOAD DUP2 PUSH1 0xFF MUL NOT AND SWAP1 DUP4 ISZERO ISZERO MUL OR SWAP1 SSTORE POP PUSH1 0xC0 DUP3 ADD MLOAD DUP2 PUSH1 0x4 ADD PUSH1 0x2 PUSH2 0x100 EXP DUP2 SLOAD DUP2 PUSH1 0xFF MUL NOT AND SWAP1 DUP4 ISZERO ISZERO MUL OR SWAP1 SSTORE POP PUSH1 0xE0 DUP3 ADD MLOAD DUP2 PUSH1 0x5 ADD SSTORE SWAP1 POP POP PUSH32 0x60C184920FA378F84ABB62C243160B19A4808CD6855CCC2315BFE68E11AE87BB DUP2 DUP7 PUSH1 0x40 MLOAD PUSH2 0xB66 SWAP3 SWAP2 SWAP1 PUSH2 0x1BD8 JUMP JUMPDEST PUSH1 0x40 MLOAD DUP1 SWAP2 SUB SWAP1 LOG1 POP POP POP POP POP JUMP JUMPDEST PUSH1 0x2 PUSH0 SWAP1 SLOAD SWAP1 PUSH2 0x100 EXP SWAP1 DIV PUSH20 0xFFFFFFFFFFFFFFFFFFFFFFFFFFFFFFFFFFFFFFFF AND DUP2 JUMP JUMPDEST PUSH1 0x1 PUSH0 SWAP1 SLOAD SWAP1 PUSH2 0x100 EXP SWAP1 DIV PUSH20 0xFFFFFFFFFFFFFFFFFFFFFFFFFFFFFFFFFFFFFFFF AND DUP2 JUMP JUMPDEST PUSH1 0x2 PUSH0 SWAP1 SLOAD SWAP1 PUSH2 0x100 EXP SWAP1 DIV PUSH20 0xFFFFFFFFFFFFFFFFFFFFFFFFFFFFFFFFFFFFFFFF AND PUSH20 0xFFFFFFFFFFFFFFFFFFFFFFFFFFFFFFFFFFFFFFFF AND CALLER PUSH20 0xFFFFFFFFFFFFFFFFFFFFFFFFFFFFFFFFFFFFFFFF AND EQ PUSH2 0xC4E JUMPI PUSH1 0x40 MLOAD PUSH32 0x8C379A000000000000000000000000000000000000000000000000000000000 DUP2 MSTORE PUSH1 0x4 ADD PUSH2 0xC45 SWAP1 PUSH2 0x1C50 JUMP JUMPDEST PUSH1 0x40 MLOAD DUP1 SWAP2 SUB SWAP1 REVERT JUMPDEST PUSH1 0x5 PUSH0 DUP3 DUP2 MSTORE PUSH1 0x20 ADD SWAP1 DUP2 MSTORE PUSH1 0x20 ADD PUSH0 KECCAK256 PUSH1 0x4 ADD PUSH0 SWAP1 SLOAD SWAP1 PUSH2 0x100 EXP SWAP1 DIV PUSH1 0xFF AND PUSH2 0xCAE JUMPI PUSH1 0x40 MLOAD PUSH32 0x8C379A000000000000000000000000000000000000000000000000000000000 DUP2 MSTORE PUSH1 0x4 ADD PUSH2 0xCA5 SWAP1 PUSH2 0x1CB8 JUMP JUMPDEST PUSH1 0x40 MLOAD DUP1 SWAP2 SUB SWAP1 REVERT JUMPDEST PUSH1 0x1 PUSH1 0x5 PUSH0 DUP4 DUP2 MSTORE PUSH1 0x20 ADD SWAP1 DUP2 MSTORE PUSH1 0x20 ADD PUSH0 KECCAK256 PUSH1 0x4 ADD PUSH1 0x1 PUSH2 0x100 EXP DUP2 SLOAD DUP2 PUSH1 0xFF MUL NOT AND SWAP1 DUP4 ISZERO ISZERO MUL OR SWAP1 SSTORE POP PUSH32 0xCBC26642A4F007FE2E8269F61B594975F23352D39CA8C35C230FC53F1501AF36 DUP2 PUSH1 0x40 MLOAD PUSH2 0xD0A SWAP2 SWAP1 PUSH2 0x180C JUMP JUMPDEST PUSH1 0x40 MLOAD DUP1 SWAP2 SUB SWAP1 LOG1 PUSH2 0xD1B DUP2 PUSH2 0xFA0 JUMP JUMPDEST POP JUMP JUMPDEST PUSH1 0x5 PUSH1 0x20 MSTORE DUP1 PUSH0 MSTORE PUSH1 0x40 PUSH0 KECCAK256 PUSH0 SWAP2 POP SWAP1 POP DUP1 PUSH0 ADD DUP1 SLOAD PUSH2 0xD3D SWAP1 PUSH2 0x16FD JUMP JUMPDEST DUP1 PUSH1 0x1F ADD PUSH1 0x20 DUP1 SWAP2 DIV MUL PUSH1 0x20 ADD PUSH1 0x40 MLOAD SWAP1 DUP2 ADD PUSH1 0x40 MSTORE DUP1 SWAP3 SWAP2 SWAP1 DUP2 DUP2 MSTORE PUSH1 0x20 ADD DUP3 DUP1 SLOAD PUSH2 0xD69 SWAP1 PUSH2 0x16FD JUMP JUMPDEST DUP1 ISZERO PUSH2 0xDB4 JUMPI DUP1 PUSH1 0x1F LT PUSH2 0xD8B JUMPI PUSH2 0x100 DUP1 DUP4 SLOAD DIV MUL DUP4 MSTORE SWAP2 PUSH1 0x20 ADD SWAP2 PUSH2 0xDB4 JUMP JUMPDEST DUP3 ADD SWAP2 SWAP1 PUSH0 MSTORE PUSH1 0x20 PUSH0 KECCAK256 SWAP1 JUMPDEST DUP2 SLOAD DUP2 MSTORE SWAP1 PUSH1 0x1 ADD SWAP1 PUSH1 0x20 ADD DUP1 DUP4 GT PUSH2 0xD97 JUMPI DUP3 SWAP1 SUB PUSH1 0x1F AND DUP3 ADD SWAP2 JUMPDEST POP POP POP POP POP SWAP1 DUP1 PUSH1 0x1 ADD DUP1 SLOAD PUSH2 0xDC9 SWAP1 PUSH2 0x16FD JUMP JUMPDEST DUP1 PUSH1 0x1F ADD PUSH1 0x20 DUP1 SWAP2 DIV MUL PUSH1 0x20 ADD PUSH1 0x40 MLOAD SWAP1 DUP2 ADD PUSH1 0x40 MSTORE DUP1 SWAP3 SWAP2 SWAP1 DUP2 DUP2 MSTORE PUSH1 0x20 ADD DUP3 DUP1 SLOAD PUSH2 0xDF5 SWAP1 PUSH2 0x16FD JUMP JUMPDEST DUP1 ISZERO PUSH2 0xE40 JUMPI DUP1 PUSH1 0x1F LT PUSH2 0xE17 JUMPI PUSH2 0x100 DUP1 DUP4 SLOAD DIV MUL DUP4 MSTORE SWAP2 PUSH1 0x20 ADD SWAP2 PUSH2 0xE40 JUMP JUMPDEST DUP3 ADD SWAP2 SWAP1 PUSH0 MSTORE PUSH1 0x20 PUSH0 KECCAK256 SWAP1 JUMPDEST DUP2 SLOAD DUP2 MSTORE SWAP1 PUSH1 0x1 ADD SWAP1 PUSH1 0x20 ADD DUP1 DUP4 GT PUSH2 0xE23 JUMPI DUP3 SWAP1 SUB PUSH1 0x1F AND DUP3 ADD SWAP2 JUMPDEST POP POP POP POP POP SWAP1 DUP1 PUSH1 0x2 ADD DUP1 SLOAD PUSH2 0xE55 SWAP1 PUSH2 0x16FD JUMP JUMPDEST DUP1 PUSH1 0x1F ADD PUSH1 0x20 DUP1 SWAP2 DIV MUL PUSH1 0x20 ADD PUSH1 0x40 MLOAD SWAP1 DUP2 ADD PUSH1 0x40 MSTORE DUP1 SWAP3 SWAP2 SWAP1 DUP2 DUP2 MSTORE PUSH1 0x20 ADD DUP3 DUP1 SLOAD PUSH2 0xE81 SWAP1 PUSH2 0x16FD JUMP JUMPDEST DUP1 ISZERO PUSH2 0xECC JUMPI DUP1 PUSH1 0x1F LT PUSH2 0xEA3 JUMPI PUSH2 0x100 DUP1 DUP4 SLOAD DIV MUL DUP4 MSTORE SWAP2 PUSH1 0x20 ADD SWAP2 PUSH2 0xECC JUMP JUMPDEST DUP3 ADD SWAP2 SWAP1 PUSH0 MSTORE PUSH1 0x20 PUSH0 KECCAK256 SWAP1 JUMPDEST DUP2 SLOAD DUP2 MSTORE SWAP1 PUSH1 0x1 ADD SWAP1 PUSH1 0x20 ADD DUP1 DUP4 GT PUSH2 0xEAF JUMPI DUP3 SWAP1 SUB PUSH1 0x1F AND DUP3 ADD SWAP2 JUMPDEST POP POP POP POP POP SWAP1 DUP1 PUSH1 0x3 ADD DUP1 SLOAD PUSH2 0xEE1 SWAP1 PUSH2 0x16FD JUMP JUMPDEST DUP1 PUSH1 0x1F ADD PUSH1 0x20 DUP1 SWAP2 DIV MUL PUSH1 0x20 ADD PUSH1 0x40 MLOAD SWAP1 DUP2 ADD PUSH1 0x40 MSTORE DUP1 SWAP3 SWAP2 SWAP1 DUP2 DUP2 MSTORE PUSH1 0x20 ADD DUP3 DUP1 SLOAD PUSH2 0xF0D SWAP1 PUSH2 0x16FD JUMP JUMPDEST DUP1 ISZERO PUSH2 0xF58 JUMPI DUP1 PUSH1 0x1F LT PUSH2 0xF2F JUMPI PUSH2 0x100 DUP1 DUP4 SLOAD DIV MUL DUP4 MSTORE SWAP2 PUSH1 0x20 ADD SWAP2 PUSH2 0xF58 JUMP JUMPDEST DUP3 ADD SWAP2 SWAP1 PUSH0 MSTORE PUSH1 0x20 PUSH0 KECCAK256 SWAP1 JUMPDEST DUP2 SLOAD DUP2 MSTORE SWAP1 PUSH1 0x1 ADD SWAP1 PUSH1 0x20 ADD DUP1 DUP4 GT PUSH2 0xF3B JUMPI DUP3 SWAP1 SUB PUSH1 0x1F AND DUP3 ADD SWAP2 JUMPDEST POP POP POP POP POP SWAP1 DUP1 PUSH1 0x4 ADD PUSH0 SWAP1 SLOAD SWAP1 PUSH2 0x100 EXP SWAP1 DIV PUSH1 0xFF AND SWAP1 DUP1 PUSH1 0x4 ADD PUSH1 0x1 SWAP1 SLOAD SWAP1 PUSH2 0x100 EXP SWAP1 DIV PUSH1 0xFF AND SWAP1 DUP1 PUSH1 0x4 ADD PUSH1 0x2 SWAP1 SLOAD SWAP1 PUSH2 0x100 EXP SWAP1 DIV PUSH1 0xFF AND SWAP1 DUP1 PUSH1 0x5 ADD SLOAD SWAP1 POP DUP9 JUMP JUMPDEST PUSH0 PUSH1 0x5 PUSH0 DUP4 DUP2 MSTORE PUSH1 0x20 ADD SWAP1 DUP2 MSTORE PUSH1 0x20 ADD PUSH0 KECCAK256 SWAP1 POP DUP1 PUSH1 0x4 ADD PUSH0 SWAP1 SLOAD SWAP1 PUSH2 0x100 EXP SWAP1 DIV PUSH1 0xFF AND DUP1 ISZERO PUSH2 0xFDF JUMPI POP DUP1 PUSH1 0x4 ADD PUSH1 0x1 SWAP1 SLOAD SWAP1 PUSH2 0x100 EXP SWAP1 DIV PUSH1 0xFF AND JUMPDEST PUSH2 0x101E JUMPI PUSH1 0x40 MLOAD PUSH32 0x8C379A000000000000000000000000000000000000000000000000000000000 DUP2 MSTORE PUSH1 0x4 ADD PUSH2 0x1015 SWAP1 PUSH2 0x1D20 JUMP JUMPDEST PUSH1 0x40 MLOAD DUP1 SWAP2 SUB SWAP1 REVERT JUMPDEST DUP1 PUSH1 0x4 ADD PUSH1 0x2 SWAP1 SLOAD SWAP1 PUSH2 0x100 EXP SWAP1 DIV PUSH1 0xFF AND ISZERO PUSH2 0x1070 JUMPI PUSH1 0x40 MLOAD PUSH32 0x8C379A000000000000000000000000000000000000000000000000000000000 DUP2 MSTORE PUSH1 0x4 ADD PUSH2 0x1067 SWAP1 PUSH2 0x1D88 JUMP JUMPDEST PUSH1 0x40 MLOAD DUP1 SWAP2 SUB SWAP1 REVERT JUMPDEST PUSH1 0x3 PUSH0 DUP2 SLOAD DUP1 SWAP3 SWAP2 SWAP1 PUSH2 0x1082 SWAP1 PUSH2 0x1DD3 JUMP JUMPDEST SWAP2 SWAP1 POP SSTORE POP PUSH1 0x1 DUP2 PUSH1 0x4 ADD PUSH1 0x2 PUSH2 0x100 EXP DUP2 SLOAD DUP2 PUSH1 0xFF MUL NOT AND SWAP1 DUP4 ISZERO ISZERO MUL OR SWAP1 SSTORE POP PUSH1 0x3 SLOAD DUP2 PUSH1 0x5 ADD DUP2 SWAP1 SSTORE POP DUP1 PUSH1 0x4 PUSH0 PUSH1 0x3 SLOAD DUP2 MSTORE PUSH1 0x20 ADD SWAP1 DUP2 MSTORE PUSH1 0x20 ADD PUSH0 KECCAK256 PUSH0 DUP3 ADD DUP2 PUSH0 ADD SWAP1 DUP2 PUSH2 0x10D5 SWAP2 SWAP1 PUSH2 0x1E2F JUMP JUMPDEST POP PUSH1 0x1 DUP3 ADD DUP2 PUSH1 0x1 ADD SWAP1 DUP2 PUSH2 0x10EA SWAP2 SWAP1 PUSH2 0x1E2F JUMP JUMPDEST POP PUSH1 0x2 DUP3 ADD DUP2 PUSH1 0x2 ADD SWAP1 DUP2 PUSH2 0x10FF SWAP2 SWAP1 PUSH2 0x1E2F JUMP JUMPDEST POP PUSH1 0x3 DUP3 ADD DUP2 PUSH1 0x3 ADD SWAP1 DUP2 PUSH2 0x1114 SWAP2 SWAP1 PUSH2 0x1E2F JUMP JUMPDEST POP PUSH1 0x4 DUP3 ADD PUSH0 SWAP1 SLOAD SWAP1 PUSH2 0x100 EXP SWAP1 DIV PUSH1 0xFF AND DUP2 PUSH1 0x4 ADD PUSH0 PUSH2 0x100 EXP DUP2 SLOAD DUP2 PUSH1 0xFF MUL NOT AND SWAP1 DUP4 ISZERO ISZERO MUL OR SWAP1 SSTORE POP PUSH1 0x4 DUP3 ADD PUSH1 0x1 SWAP1 SLOAD SWAP1 PUSH2 0x100 EXP SWAP1 DIV PUSH1 0xFF AND DUP2 PUSH1 0x4 ADD PUSH1 0x1 PUSH2 0x100 EXP DUP2 SLOAD DUP2 PUSH1 0xFF MUL NOT AND SWAP1 DUP4 ISZERO ISZERO MUL OR SWAP1 SSTORE POP PUSH1 0x4 DUP3 ADD PUSH1 0x2 SWAP1 SLOAD SWAP1 PUSH2 0x100 EXP SWAP1 DIV PUSH1 0xFF AND DUP2 PUSH1 0x4 ADD PUSH1 0x2 PUSH2 0x100 EXP DUP2 SLOAD DUP2 PUSH1 0xFF MUL NOT AND SWAP1 DUP4 ISZERO ISZERO MUL OR SWAP1 SSTORE POP PUSH1 0x5 DUP3 ADD SLOAD DUP2 PUSH1 0x5 ADD SSTORE SWAP1 POP POP PUSH32 0xC771A3F3D4FD030711F3D1CDAA1998BE2F0B7725CF9ABFC87F05519CC09C9E0D PUSH1 0x3 SLOAD DUP4 PUSH1 0x40 MLOAD PUSH2 0x11DA SWAP3 SWAP2 SWAP1 PUSH2 0x1F14 JUMP JUMPDEST PUSH1 0x40 MLOAD DUP1 SWAP2 SUB SWAP1 LOG1 POP POP JUMP JUMPDEST PUSH0 PUSH1 0x40 MLOAD SWAP1 POP SWAP1 JUMP JUMPDEST PUSH0 DUP1 REVERT JUMPDEST PUSH0 DUP1 REVERT JUMPDEST PUSH0 DUP2 SWAP1 POP SWAP2 SWAP1 POP JUMP JUMPDEST PUSH2 0x1209 DUP2 PUSH2 0x11F7 JUMP JUMPDEST DUP2 EQ PUSH2 0x1213 JUMPI PUSH0 DUP1 REVERT JUMPDEST POP JUMP JUMPDEST PUSH0 DUP2 CALLDATALOAD SWAP1 POP PUSH2 0x1224 DUP2 PUSH2 0x1200 JUMP JUMPDEST SWAP3 SWAP2 POP POP JUMP JUMPDEST PUSH0 PUSH1 0x20 DUP3 DUP5 SUB SLT ISZERO PUSH2 0x123F JUMPI PUSH2 0x123E PUSH2 0x11EF JUMP JUMPDEST JUMPDEST PUSH0 PUSH2 0x124C DUP5 DUP3 DUP6 ADD PUSH2 0x1216 JUMP JUMPDEST SWAP2 POP POP SWAP3 SWAP2 POP POP JUMP JUMPDEST PUSH0 DUP2 MLOAD SWAP1 POP SWAP2 SWAP1 POP JUMP JUMPDEST PUSH0 DUP3 DUP3 MSTORE PUSH1 0x20 DUP3 ADD SWAP1 POP SWAP3 SWAP2 POP POP JUMP JUMPDEST DUP3 DUP2 DUP4 MCOPY PUSH0 DUP4 DUP4 ADD MSTORE POP POP POP JUMP JUMPDEST PUSH0 PUSH1 0x1F NOT PUSH1 0x1F DUP4 ADD AND SWAP1 POP SWAP2 SWAP1 POP JUMP JUMPDEST PUSH0 PUSH2 0x1297 DUP3 PUSH2 0x1255 JUMP JUMPDEST PUSH2 0x12A1 DUP2 DUP6 PUSH2 0x125F JUMP JUMPDEST SWAP4 POP PUSH2 0x12B1 DUP2 DUP6 PUSH1 0x20 DUP7 ADD PUSH2 0x126F JUMP JUMPDEST PUSH2 0x12BA DUP2 PUSH2 0x127D JUMP JUMPDEST DUP5 ADD SWAP2 POP POP SWAP3 SWAP2 POP POP JUMP JUMPDEST PUSH0 DUP2 ISZERO ISZERO SWAP1 POP SWAP2 SWAP1 POP JUMP JUMPDEST PUSH2 0x12D9 DUP2 PUSH2 0x12C5 JUMP JUMPDEST DUP3 MSTORE POP POP JUMP JUMPDEST PUSH0 PUSH1 0xC0 DUP3 ADD SWAP1 POP DUP2 DUP2 SUB PUSH0 DUP4 ADD MSTORE PUSH2 0x12F7 DUP2 DUP10 PUSH2 0x128D JUMP JUMPDEST SWAP1 POP DUP2 DUP2 SUB PUSH1 0x20 DUP4 ADD MSTORE PUSH2 0x130B DUP2 DUP9 PUSH2 0x128D JUMP JUMPDEST SWAP1 POP DUP2 DUP2 SUB PUSH1 0x40 DUP4 ADD MSTORE PUSH2 0x131F DUP2 DUP8 PUSH2 0x128D JUMP JUMPDEST SWAP1 POP DUP2 DUP2 SUB PUSH1 0x60 DUP4 ADD MSTORE PUSH2 0x1333 DUP2 DUP7 PUSH2 0x128D JUMP JUMPDEST SWAP1 POP PUSH2 0x1342 PUSH1 0x80 DUP4 ADD DUP6 PUSH2 0x12D0 JUMP JUMPDEST PUSH2 0x134F PUSH1 0xA0 DUP4 ADD DUP5 PUSH2 0x12D0 JUMP JUMPDEST SWAP8 SWAP7 POP POP POP POP POP POP POP JUMP JUMPDEST PUSH2 0x1363 DUP2 PUSH2 0x11F7 JUMP JUMPDEST DUP3 MSTORE POP POP JUMP JUMPDEST PUSH0 PUSH2 0x100 DUP3 ADD SWAP1 POP DUP2 DUP2 SUB PUSH0 DUP4 ADD MSTORE PUSH2 0x1382 DUP2 DUP12 PUSH2 0x128D JUMP JUMPDEST SWAP1 POP DUP2 DUP2 SUB PUSH1 0x20 DUP4 ADD MSTORE PUSH2 0x1396 DUP2 DUP11 PUSH2 0x128D JUMP JUMPDEST SWAP1 POP DUP2 DUP2 SUB PUSH1 0x40 DUP4 ADD MSTORE PUSH2 0x13AA DUP2 DUP10 PUSH2 0x128D JUMP JUMPDEST SWAP1 POP DUP2 DUP2 SUB PUSH1 0x60 DUP4 ADD MSTORE PUSH2 0x13BE DUP2 DUP9 PUSH2 0x128D JUMP JUMPDEST SWAP1 POP PUSH2 0x13CD PUSH1 0x80 DUP4 ADD DUP8 PUSH2 0x12D0 JUMP JUMPDEST PUSH2 0x13DA PUSH1 0xA0 DUP4 ADD DUP7 PUSH2 0x12D0 JUMP JUMPDEST PUSH2 0x13E7 PUSH1 0xC0 DUP4 ADD DUP6 PUSH2 0x12D0 JUMP JUMPDEST PUSH2 0x13F4 PUSH1 0xE0 DUP4 ADD DUP5 PUSH2 0x135A JUMP JUMPDEST SWAP10 SWAP9 POP POP POP POP POP POP POP POP POP JUMP JUMPDEST PUSH0 PUSH1 0x20 DUP3 ADD SWAP1 POP PUSH2 0x1414 PUSH0 DUP4 ADD DUP5 PUSH2 0x135A JUMP JUMPDEST SWAP3 SWAP2 POP POP JUMP JUMPDEST PUSH0 DUP2 SWAP1 POP SWAP2 SWAP1 POP JUMP JUMPDEST PUSH2 0x142C DUP2 PUSH2 0x141A JUMP JUMPDEST DUP2 EQ PUSH2 0x1436 JUMPI PUSH0 DUP1 REVERT JUMPDEST POP JUMP JUMPDEST PUSH0 DUP2 CALLDATALOAD SWAP1 POP PUSH2 0x1447 DUP2 PUSH2 0x1423 JUMP JUMPDEST SWAP3 SWAP2 POP POP JUMP JUMPDEST PUSH0 PUSH1 0x20 DUP3 DUP5 SUB SLT ISZERO PUSH2 0x1462 JUMPI PUSH2 0x1461 PUSH2 0x11EF JUMP JUMPDEST JUMPDEST PUSH0 PUSH2 0x146F DUP5 DUP3 DUP6 ADD PUSH2 0x1439 JUMP JUMPDEST SWAP2 POP POP SWAP3 SWAP2 POP POP JUMP JUMPDEST PUSH0 PUSH20 0xFFFFFFFFFFFFFFFFFFFFFFFFFFFFFFFFFFFFFFFF DUP3 AND SWAP1 POP SWAP2 SWAP1 POP JUMP JUMPDEST PUSH0 PUSH2 0x14A1 DUP3 PUSH2 0x1478 JUMP JUMPDEST SWAP1 POP SWAP2 SWAP1 POP JUMP JUMPDEST PUSH2 0x14B1 DUP2 PUSH2 0x1497 JUMP JUMPDEST DUP3 MSTORE POP POP JUMP JUMPDEST PUSH0 PUSH1 0x20 DUP3 ADD SWAP1 POP PUSH2 0x14CA PUSH0 DUP4 ADD DUP5 PUSH2 0x14A8 JUMP JUMPDEST SWAP3 SWAP2 POP POP JUMP JUMPDEST PUSH0 DUP1 REVERT JUMPDEST PUSH0 DUP1 REVERT JUMPDEST PUSH32 0x4E487B7100000000000000000000000000000000000000000000000000000000 PUSH0 MSTORE PUSH1 0x41 PUSH1 0x4 MSTORE PUSH1 0x24 PUSH0 REVERT JUMPDEST PUSH2 0x150E DUP3 PUSH2 0x127D JUMP JUMPDEST DUP2 ADD DUP2 DUP2 LT PUSH8 0xFFFFFFFFFFFFFFFF DUP3 GT OR ISZERO PUSH2 0x152D JUMPI PUSH2 0x152C PUSH2 0x14D8 JUMP JUMPDEST JUMPDEST DUP1 PUSH1 0x40 MSTORE POP POP POP JUMP JUMPDEST PUSH0 PUSH2 0x153F PUSH2 0x11E6 JUMP JUMPDEST SWAP1 POP PUSH2 0x154B DUP3 DUP3 PUSH2 0x1505 JUMP JUMPDEST SWAP2 SWAP1 POP JUMP JUMPDEST PUSH0 PUSH8 0xFFFFFFFFFFFFFFFF DUP3 GT ISZERO PUSH2 0x156A JUMPI PUSH2 0x1569 PUSH2 0x14D8 JUMP JUMPDEST JUMPDEST PUSH2 0x1573 DUP3 PUSH2 0x127D JUMP JUMPDEST SWAP1 POP PUSH1 0x20 DUP2 ADD SWAP1 POP SWAP2 SWAP1 POP JUMP JUMPDEST DUP3 DUP2 DUP4 CALLDATACOPY PUSH0 DUP4 DUP4 ADD MSTORE POP POP POP JUMP JUMPDEST PUSH0 PUSH2 0x15A0 PUSH2 0x159B DUP5 PUSH2 0x1550 JUMP JUMPDEST PUSH2 0x1536 JUMP JUMPDEST SWAP1 POP DUP3 DUP2 MSTORE PUSH1 0x20 DUP2 ADD DUP5 DUP5 DUP5 ADD GT ISZERO PUSH2 0x15BC JUMPI PUSH2 0x15BB PUSH2 0x14D4 JUMP JUMPDEST JUMPDEST PUSH2 0x15C7 DUP5 DUP3 DUP6 PUSH2 0x1580 JUMP JUMPDEST POP SWAP4 SWAP3 POP POP POP JUMP JUMPDEST PUSH0 DUP3 PUSH1 0x1F DUP4 ADD SLT PUSH2 0x15E3 JUMPI PUSH2 0x15E2 PUSH2 0x14D0 JUMP JUMPDEST JUMPDEST DUP2 CALLDATALOAD PUSH2 0x15F3 DUP5 DUP3 PUSH1 0x20 DUP7 ADD PUSH2 0x158E JUMP JUMPDEST SWAP2 POP POP SWAP3 SWAP2 POP POP JUMP JUMPDEST PUSH0 DUP1 PUSH0 DUP1 PUSH1 0x80 DUP6 DUP8 SUB SLT ISZERO PUSH2 0x1614 JUMPI PUSH2 0x1613 PUSH2 0x11EF JUMP JUMPDEST JUMPDEST PUSH0 DUP6 ADD CALLDATALOAD PUSH8 0xFFFFFFFFFFFFFFFF DUP2 GT ISZERO PUSH2 0x1631 JUMPI PUSH2 0x1630 PUSH2 0x11F3 JUMP JUMPDEST JUMPDEST PUSH2 0x163D DUP8 DUP3 DUP9 ADD PUSH2 0x15CF JUMP JUMPDEST SWAP5 POP POP PUSH1 0x20 DUP6 ADD CALLDATALOAD PUSH8 0xFFFFFFFFFFFFFFFF DUP2 GT ISZERO PUSH2 0x165E JUMPI PUSH2 0x165D PUSH2 0x11F3 JUMP JUMPDEST JUMPDEST PUSH2 0x166A DUP8 DUP3 DUP9 ADD PUSH2 0x15CF JUMP JUMPDEST SWAP4 POP POP PUSH1 0x40 DUP6 ADD CALLDATALOAD PUSH8 0xFFFFFFFFFFFFFFFF DUP2 GT ISZERO PUSH2 0x168B JUMPI PUSH2 0x168A PUSH2 0x11F3 JUMP JUMPDEST JUMPDEST PUSH2 0x1697 DUP8 DUP3 DUP9 ADD PUSH2 0x15CF JUMP JUMPDEST SWAP3 POP POP PUSH1 0x60 DUP6 ADD CALLDATALOAD PUSH8 0xFFFFFFFFFFFFFFFF DUP2 GT ISZERO PUSH2 0x16B8 JUMPI PUSH2 0x16B7 PUSH2 0x11F3 JUMP JUMPDEST JUMPDEST PUSH2 0x16C4 DUP8 DUP3 DUP9 ADD PUSH2 0x15CF JUMP JUMPDEST SWAP2 POP POP SWAP3 SWAP6 SWAP2 SWAP5 POP SWAP3 POP JUMP JUMPDEST PUSH32 0x4E487B7100000000000000000000000000000000000000000000000000000000 PUSH0 MSTORE PUSH1 0x22 PUSH1 0x4 MSTORE PUSH1 0x24 PUSH0 REVERT JUMPDEST PUSH0 PUSH1 0x2 DUP3 DIV SWAP1 POP PUSH1 0x1 DUP3 AND DUP1 PUSH2 0x1714 JUMPI PUSH1 0x7F DUP3 AND SWAP2 POP JUMPDEST PUSH1 0x20 DUP3 LT DUP2 SUB PUSH2 0x1727 JUMPI PUSH2 0x1726 PUSH2 0x16D0 JUMP JUMPDEST JUMPDEST POP SWAP2 SWAP1 POP JUMP JUMPDEST PUSH32 0x4F6E6C79205047432063616E20617070726F7665000000000000000000000000 PUSH0 DUP3 ADD MSTORE POP JUMP JUMPDEST PUSH0 PUSH2 0x1761 PUSH1 0x14 DUP4 PUSH2 0x125F JUMP JUMPDEST SWAP2 POP PUSH2 0x176C DUP3 PUSH2 0x172D JUMP JUMPDEST PUSH1 0x20 DUP3 ADD SWAP1 POP SWAP2 SWAP1 POP JUMP JUMPDEST PUSH0 PUSH1 0x20 DUP3 ADD SWAP1 POP DUP2 DUP2 SUB PUSH0 DUP4 ADD MSTORE PUSH2 0x178E DUP2 PUSH2 0x1755 JUMP JUMPDEST SWAP1 POP SWAP2 SWAP1 POP JUMP JUMPDEST PUSH32 0x496E76616C69642070726F647563740000000000000000000000000000000000 PUSH0 DUP3 ADD MSTORE POP JUMP JUMPDEST PUSH0 PUSH2 0x17C9 PUSH1 0xF DUP4 PUSH2 0x125F JUMP JUMPDEST SWAP2 POP PUSH2 0x17D4 DUP3 PUSH2 0x1795 JUMP JUMPDEST PUSH1 0x20 DUP3 ADD SWAP1 POP SWAP2 SWAP1 POP JUMP JUMPDEST PUSH0 PUSH1 0x20 DUP3 ADD SWAP1 POP DUP2 DUP2 SUB PUSH0 DUP4 ADD MSTORE PUSH2 0x17F6 DUP2 PUSH2 0x17BD JUMP JUMPDEST SWAP1 POP SWAP2 SWAP1 POP JUMP JUMPDEST PUSH2 0x1806 DUP2 PUSH2 0x141A JUMP JUMPDEST DUP3 MSTORE POP POP JUMP JUMPDEST PUSH0 PUSH1 0x20 DUP3 ADD SWAP1 POP PUSH2 0x181F PUSH0 DUP4 ADD DUP5 PUSH2 0x17FD JUMP JUMPDEST SWAP3 SWAP2 POP POP JUMP JUMPDEST PUSH32 0x4F6E6C7920436572742049737375657220616C6C6F7765640000000000000000 PUSH0 DUP3 ADD MSTORE POP JUMP JUMPDEST PUSH0 PUSH2 0x1859 PUSH1 0x18 DUP4 PUSH2 0x125F JUMP JUMPDEST SWAP2 POP PUSH2 0x1864 DUP3 PUSH2 0x1825 JUMP JUMPDEST PUSH1 0x20 DUP3 ADD SWAP1 POP SWAP2 SWAP1 POP JUMP JUMPDEST PUSH0 PUSH1 0x20 DUP3 ADD SWAP1 POP DUP2 DUP2 SUB PUSH0 DUP4 ADD MSTORE PUSH2 0x1886 DUP2 PUSH2 0x184D JUMP JUMPDEST SWAP1 POP SWAP2 SWAP1 POP JUMP JUMPDEST PUSH0 DUP2 SWAP1 POP SWAP3 SWAP2 POP POP JUMP JUMPDEST PUSH0 PUSH2 0x18A1 DUP3 PUSH2 0x1255 JUMP JUMPDEST PUSH2 0x18AB DUP2 DUP6 PUSH2 0x188D JUMP JUMPDEST SWAP4 POP PUSH2 0x18BB DUP2 DUP6 PUSH1 0x20 DUP7 ADD PUSH2 0x126F JUMP JUMPDEST DUP1 DUP5 ADD SWAP2 POP POP SWAP3 SWAP2 POP POP JUMP JUMPDEST PUSH0 PUSH2 0x18D2 DUP3 DUP8 PUSH2 0x1897 JUMP JUMPDEST SWAP2 POP PUSH2 0x18DE DUP3 DUP7 PUSH2 0x1897 JUMP JUMPDEST SWAP2 POP PUSH2 0x18EA DUP3 DUP6 PUSH2 0x1897 JUMP JUMPDEST SWAP2 POP PUSH2 0x18F6 DUP3 DUP5 PUSH2 0x1897 JUMP JUMPDEST SWAP2 POP DUP2 SWAP1 POP SWAP6 SWAP5 POP POP POP POP POP JUMP JUMPDEST PUSH32 0x50726F6475637420616C7265616479207375626D697474656400000000000000 PUSH0 DUP3 ADD MSTORE POP JUMP JUMPDEST PUSH0 PUSH2 0x1938 PUSH1 0x19 DUP4 PUSH2 0x125F JUMP JUMPDEST SWAP2 POP PUSH2 0x1943 DUP3 PUSH2 0x1904 JUMP JUMPDEST PUSH1 0x20 DUP3 ADD SWAP1 POP SWAP2 SWAP1 POP JUMP JUMPDEST PUSH0 PUSH1 0x20 DUP3 ADD SWAP1 POP DUP2 DUP2 SUB PUSH0 DUP4 ADD MSTORE PUSH2 0x1965 DUP2 PUSH2 0x192C JUMP JUMPDEST SWAP1 POP SWAP2 SWAP1 POP JUMP JUMPDEST PUSH0 DUP2 SWAP1 POP DUP2 PUSH0 MSTORE PUSH1 0x20 PUSH0 KECCAK256 SWAP1 POP SWAP2 SWAP1 POP JUMP JUMPDEST PUSH0 PUSH1 0x20 PUSH1 0x1F DUP4 ADD DIV SWAP1 POP SWAP2 SWAP1 POP JUMP JUMPDEST PUSH0 DUP3 DUP3 SHL SWAP1 POP SWAP3 SWAP2 POP POP JUMP JUMPDEST PUSH0 PUSH1 0x8 DUP4 MUL PUSH2 0x19C8 PUSH32 0xFFFFFFFFFFFFFFFFFFFFFFFFFFFFFFFFFFFFFFFFFFFFFFFFFFFFFFFFFFFFFFFF DUP3 PUSH2 0x198D JUMP JUMPDEST PUSH2 0x19D2 DUP7 DUP4 PUSH2 0x198D JUMP JUMPDEST SWAP6 POP DUP1 NOT DUP5 AND SWAP4 POP DUP1 DUP7 AND DUP5 OR SWAP3 POP POP POP SWAP4 SWAP3 POP POP POP JUMP JUMPDEST PUSH0 DUP2 SWAP1 POP SWAP2 SWAP1 POP JUMP JUMPDEST PUSH0 PUSH2 0x1A0D PUSH2 0x1A08 PUSH2 0x1A03 DUP5 PUSH2 0x11F7 JUMP JUMPDEST PUSH2 0x19EA JUMP JUMPDEST PUSH2 0x11F7 JUMP JUMPDEST SWAP1 POP SWAP2 SWAP1 POP JUMP JUMPDEST PUSH0 DUP2 SWAP1 POP SWAP2 SWAP1 POP JUMP JUMPDEST PUSH2 0x1A26 DUP4 PUSH2 0x19F3 JUMP JUMPDEST PUSH2 0x1A3A PUSH2 0x1A32 DUP3 PUSH2 0x1A14 JUMP JUMPDEST DUP5 DUP5 SLOAD PUSH2 0x1999 JUMP JUMPDEST DUP3 SSTORE POP POP POP POP JUMP JUMPDEST PUSH0 SWAP1 JUMP JUMPDEST PUSH2 0x1A4E PUSH2 0x1A42 JUMP JUMPDEST PUSH2 0x1A59 DUP2 DUP5 DUP5 PUSH2 0x1A1D JUMP JUMPDEST POP POP POP JUMP JUMPDEST JUMPDEST DUP2 DUP2 LT ISZERO PUSH2 0x1A7C JUMPI PUSH2 0x1A71 PUSH0 DUP3 PUSH2 0x1A46 JUMP JUMPDEST PUSH1 0x1 DUP2 ADD SWAP1 POP PUSH2 0x1A5F JUMP JUMPDEST POP POP JUMP JUMPDEST PUSH1 0x1F DUP3 GT ISZERO PUSH2 0x1AC1 JUMPI PUSH2 0x1A92 DUP2 PUSH2 0x196C JUMP JUMPDEST PUSH2 0x1A9B DUP5 PUSH2 0x197E JUMP JUMPDEST DUP2 ADD PUSH1 0x20 DUP6 LT ISZERO PUSH2 0x1AAA JUMPI DUP2 SWAP1 POP JUMPDEST PUSH2 0x1ABE PUSH2 0x1AB6 DUP6 PUSH2 0x197E JUMP JUMPDEST DUP4 ADD DUP3 PUSH2 0x1A5E JUMP JUMPDEST POP POP JUMPDEST POP POP POP JUMP JUMPDEST PUSH0 DUP3 DUP3 SHR SWAP1 POP SWAP3 SWAP2 POP POP JUMP JUMPDEST PUSH0 PUSH2 0x1AE1 PUSH0 NOT DUP5 PUSH1 0x8 MUL PUSH2 0x1AC6 JUMP JUMPDEST NOT DUP1 DUP4 AND SWAP2 POP POP SWAP3 SWAP2 POP POP JUMP JUMPDEST PUSH0 PUSH2 0x1AF9 DUP4 DUP4 PUSH2 0x1AD2 JUMP JUMPDEST SWAP2 POP DUP3 PUSH1 0x2 MUL DUP3 OR SWAP1 POP SWAP3 SWAP2 POP POP JUMP JUMPDEST PUSH2 0x1B12 DUP3 PUSH2 0x1255 JUMP JUMPDEST PUSH8 0xFFFFFFFFFFFFFFFF DUP2 GT ISZERO PUSH2 0x1B2B JUMPI PUSH2 0x1B2A PUSH2 0x14D8 JUMP JUMPDEST JUMPDEST PUSH2 0x1B35 DUP3 SLOAD PUSH2 0x16FD JUMP JUMPDEST PUSH2 0x1B40 DUP3 DUP3 DUP6 PUSH2 0x1A80 JUMP JUMPDEST PUSH0 PUSH1 0x20 SWAP1 POP PUSH1 0x1F DUP4 GT PUSH1 0x1 DUP2 EQ PUSH2 0x1B71 JUMPI PUSH0 DUP5 ISZERO PUSH2 0x1B5F JUMPI DUP3 DUP8 ADD MLOAD SWAP1 POP JUMPDEST PUSH2 0x1B69 DUP6 DUP3 PUSH2 0x1AEE JUMP JUMPDEST DUP7 SSTORE POP PUSH2 0x1BD0 JUMP JUMPDEST PUSH1 0x1F NOT DUP5 AND PUSH2 0x1B7F DUP7 PUSH2 0x196C JUMP JUMPDEST PUSH0 JUMPDEST DUP3 DUP2 LT ISZERO PUSH2 0x1BA6 JUMPI DUP5 DUP10 ADD MLOAD DUP3 SSTORE PUSH1 0x1 DUP3 ADD SWAP2 POP PUSH1 0x20 DUP6 ADD SWAP5 POP PUSH1 0x20 DUP2 ADD SWAP1 POP PUSH2 0x1B81 JUMP JUMPDEST DUP7 DUP4 LT ISZERO PUSH2 0x1BC3 JUMPI DUP5 DUP10 ADD MLOAD PUSH2 0x1BBF PUSH1 0x1F DUP10 AND DUP3 PUSH2 0x1AD2 JUMP JUMPDEST DUP4 SSTORE POP JUMPDEST PUSH1 0x1 PUSH1 0x2 DUP9 MUL ADD DUP9 SSTORE POP POP POP JUMPDEST POP POP POP POP POP POP JUMP JUMPDEST PUSH0 PUSH1 0x40 DUP3 ADD SWAP1 POP PUSH2 0x1BEB PUSH0 DUP4 ADD DUP6 PUSH2 0x17FD JUMP JUMPDEST DUP2 DUP2 SUB PUSH1 0x20 DUP4 ADD MSTORE PUSH2 0x1BFD DUP2 DUP5 PUSH2 0x128D JUMP JUMPDEST SWAP1 POP SWAP4 SWAP3 POP POP POP JUMP JUMPDEST PUSH32 0x4F6E6C792054686972642050617274792063616E20617070726F766500000000 PUSH0 DUP3 ADD MSTORE POP JUMP JUMPDEST PUSH0 PUSH2 0x1C3A PUSH1 0x1C DUP4 PUSH2 0x125F JUMP JUMPDEST SWAP2 POP PUSH2 0x1C45 DUP3 PUSH2 0x1C06 JUMP JUMPDEST PUSH1 0x20 DUP3 ADD SWAP1 POP SWAP2 SWAP1 POP JUMP JUMPDEST PUSH0 PUSH1 0x20 DUP3 ADD SWAP1 POP DUP2 DUP2 SUB PUSH0 DUP4 ADD MSTORE PUSH2 0x1C67 DUP2 PUSH2 0x1C2E JUMP JUMPDEST SWAP1 POP SWAP2 SWAP1 POP JUMP JUMPDEST PUSH32 0x50474320617070726F76616C2072657175697265642066697273740000000000 PUSH0 DUP3 ADD MSTORE POP JUMP JUMPDEST PUSH0 PUSH2 0x1CA2 PUSH1 0x1B DUP4 PUSH2 0x125F JUMP JUMPDEST SWAP2 POP PUSH2 0x1CAD DUP3 PUSH2 0x1C6E JUMP JUMPDEST PUSH1 0x20 DUP3 ADD SWAP1 POP SWAP2 SWAP1 POP JUMP JUMPDEST PUSH0 PUSH1 0x20 DUP3 ADD SWAP1 POP DUP2 DUP2 SUB PUSH0 DUP4 ADD MSTORE PUSH2 0x1CCF DUP2 PUSH2 0x1C96 JUMP JUMPDEST SWAP1 POP SWAP2 SWAP1 POP JUMP JUMPDEST PUSH32 0x416C6C20617070726F76616C7320726571756972656400000000000000000000 PUSH0 DUP3 ADD MSTORE POP JUMP JUMPDEST PUSH0 PUSH2 0x1D0A PUSH1 0x16 DUP4 PUSH2 0x125F JUMP JUMPDEST SWAP2 POP PUSH2 0x1D15 DUP3 PUSH2 0x1CD6 JUMP JUMPDEST PUSH1 0x20 DUP3 ADD SWAP1 POP SWAP2 SWAP1 POP JUMP JUMPDEST PUSH0 PUSH1 0x20 DUP3 ADD SWAP1 POP DUP2 DUP2 SUB PUSH0 DUP4 ADD MSTORE PUSH2 0x1D37 DUP2 PUSH2 0x1CFE JUMP JUMPDEST SWAP1 POP SWAP2 SWAP1 POP JUMP JUMPDEST PUSH32 0x416C726561647920636572746966696564000000000000000000000000000000 PUSH0 DUP3 ADD MSTORE POP JUMP JUMPDEST PUSH0 PUSH2 0x1D72 PUSH1 0x11 DUP4 PUSH2 0x125F JUMP JUMPDEST SWAP2 POP PUSH2 0x1D7D DUP3 PUSH2 0x1D3E JUMP JUMPDEST PUSH1 0x20 DUP3 ADD SWAP1 POP SWAP2 SWAP1 POP JUMP JUMPDEST PUSH0 PUSH1 0x20 DUP3 ADD SWAP1 POP DUP2 DUP2 SUB PUSH0 DUP4 ADD MSTORE PUSH2 0x1D9F DUP2 PUSH2 0x1D66 JUMP JUMPDEST SWAP1 POP SWAP2 SWAP1 POP JUMP JUMPDEST PUSH32 0x4E487B7100000000000000000000000000000000000000000000000000000000 PUSH0 MSTORE PUSH1 0x11 PUSH1 0x4 MSTORE PUSH1 0x24 PUSH0 REVERT JUMPDEST PUSH0 PUSH2 0x1DDD DUP3 PUSH2 0x11F7 JUMP JUMPDEST SWAP2 POP PUSH32 0xFFFFFFFFFFFFFFFFFFFFFFFFFFFFFFFFFFFFFFFFFFFFFFFFFFFFFFFFFFFFFFFF DUP3 SUB PUSH2 0x1E0F JUMPI PUSH2 0x1E0E PUSH2 0x1DA6 JUMP JUMPDEST JUMPDEST PUSH1 0x1 DUP3 ADD SWAP1 POP SWAP2 SWAP1 POP JUMP JUMPDEST PUSH0 DUP2 SLOAD SWAP1 POP PUSH2 0x1E28 DUP2 PUSH2 0x16FD JUMP JUMPDEST SWAP1 POP SWAP2 SWAP1 POP JUMP JUMPDEST DUP2 DUP2 SUB PUSH2 0x1E3D JUMPI POP POP PUSH2 0x1F12 JUMP JUMPDEST PUSH2 0x1E46 DUP3 PUSH2 0x1E1A JUMP JUMPDEST PUSH8 0xFFFFFFFFFFFFFFFF DUP2 GT ISZERO PUSH2 0x1E5F JUMPI PUSH2 0x1E5E PUSH2 0x14D8 JUMP JUMPDEST JUMPDEST PUSH2 0x1E69 DUP3 SLOAD PUSH2 0x16FD JUMP JUMPDEST PUSH2 0x1E74 DUP3 DUP3 DUP6 PUSH2 0x1A80 JUMP JUMPDEST PUSH0 PUSH1 0x1F DUP4 GT PUSH1 0x1 DUP2 EQ PUSH2 0x1EA1 JUMPI PUSH0 DUP5 ISZERO PUSH2 0x1E8F JUMPI DUP3 DUP8 ADD SLOAD SWAP1 POP JUMPDEST PUSH2 0x1E99 DUP6 DUP3 PUSH2 0x1AEE JUMP JUMPDEST DUP7 SSTORE POP PUSH2 0x1F0B JUMP JUMPDEST PUSH1 0x1F NOT DUP5 AND PUSH2 0x1EAF DUP8 PUSH2 0x196C JUMP JUMPDEST SWAP7 POP PUSH2 0x1EBA DUP7 PUSH2 0x196C JUMP JUMPDEST PUSH0 JUMPDEST DUP3 DUP2 LT ISZERO PUSH2 0x1EE1 JUMPI DUP5 DUP10 ADD SLOAD DUP3 SSTORE PUSH1 0x1 DUP3 ADD SWAP2 POP PUSH1 0x1 DUP6 ADD SWAP5 POP PUSH1 0x20 DUP2 ADD SWAP1 POP PUSH2 0x1EBC JUMP JUMPDEST DUP7 DUP4 LT ISZERO PUSH2 0x1EFE JUMPI DUP5 DUP10 ADD SLOAD PUSH2 0x1EFA PUSH1 0x1F DUP10 AND DUP3 PUSH2 0x1AD2 JUMP JUMPDEST DUP4 SSTORE POP JUMPDEST PUSH1 0x1 PUSH1 0x2 DUP9 MUL ADD DUP9 SSTORE POP POP POP JUMPDEST POP POP POP POP POP POP JUMPDEST JUMP JUMPDEST PUSH0 PUSH1 0x40 DUP3 ADD SWAP1 POP PUSH2 0x1F27 PUSH0 DUP4 ADD DUP6 PUSH2 0x135A JUMP JUMPDEST PUSH2 0x1F34 PUSH1 0x20 DUP4 ADD DUP5 PUSH2 0x17FD JUMP JUMPDEST SWAP4 SWAP3 POP POP POP JUMP INVALID LOG2 PUSH5 0x6970667358 0x22 SLT KECCAK256 SIGNEXTEND 0xDB SHL SWAP15 0x24 SWAP6 PUSH19 0xDFCCC731C8632F7566E74D0F2A7778AA49949C 0x2E 0x4E CHAINID 0xBB 0xE8 0xDF PUSH5 0x736F6C6343 STOP ADDMOD BYTE STOP CALLER "
				},
				"gasEstimates": {
					"creation": {
						"codeDepositCost": "1609800",
						"executionCost": "infinite",
						"totalCost": "infinite"
					},
					"external": {
						"approveByPGC(bytes32)": "infinite",
						"approveByThirdParty(bytes32)": "infinite",
						"certIssuer()": "2594",
						"certificateCounter()": "2470",
						"certificates(uint256)": "infinite",
						"getCertificate(uint256)": "infinite",
						"pgcApprover()": "2552",
						"productRequests(bytes32)": "infinite",
						"submitProduct(string,string,string,string)": "infinite",
						"thirdPartyApprover()": "2530"
					},
					"internal": {
						"_generateCertificate(bytes32)": "infinite"
					}
				},
				"methodIdentifiers": {
					"approveByPGC(bytes32)": "6ad1b9fe",
					"approveByThirdParty(bytes32)": "d3a2157e",
					"certIssuer()": "86a658ff",
					"certificateCounter()": "67764b26",
					"certificates(uint256)": "663b3e22",
					"getCertificate(uint256)": "51640fee",
					"pgcApprover()": "d139d7e8",
					"productRequests(bytes32)": "df4e214f",
					"submitProduct(string,string,string,string)": "8f6414e3",
					"thirdPartyApprover()": "b7b577ed"
				}
			},
			"storageLayout": {
				"storage": [
					{
						"astId": 20,
						"contract": "contracts/organic.sol:CertificationContract",
						"label": "certIssuer",
						"offset": 0,
						"slot": "0",
						"type": "t_address"
					},
					{
						"astId": 22,
						"contract": "contracts/organic.sol:CertificationContract",
						"label": "pgcApprover",
						"offset": 0,
						"slot": "1",
						"type": "t_address"
					},
					{
						"astId": 24,
						"contract": "contracts/organic.sol:CertificationContract",
						"label": "thirdPartyApprover",
						"offset": 0,
						"slot": "2",
						"type": "t_address"
					},
					{
						"astId": 26,
						"contract": "contracts/organic.sol:CertificationContract",
						"label": "certificateCounter",
						"offset": 0,
						"slot": "3",
						"type": "t_uint256"
					},
					{
						"astId": 31,
						"contract": "contracts/organic.sol:CertificationContract",
						"label": "certificates",
						"offset": 0,
						"slot": "4",
						"type": "t_mapping(t_uint256,t_struct(Product)18_storage)"
					},
					{
						"astId": 36,
						"contract": "contracts/organic.sol:CertificationContract",
						"label": "productRequests",
						"offset": 0,
						"slot": "5",
						"type": "t_mapping(t_bytes32,t_struct(Product)18_storage)"
					}
				],
				"types": {
					"t_address": {
						"encoding": "inplace",
						"label": "address",
						"numberOfBytes": "20"
					},
					"t_bool": {
						"encoding": "inplace",
						"label": "bool",
						"numberOfBytes": "1"
					},
					"t_bytes32": {
						"encoding": "inplace",
						"label": "bytes32",
						"numberOfBytes": "32"
					},
					"t_mapping(t_bytes32,t_struct(Product)18_storage)": {
						"encoding": "mapping",
						"key": "t_bytes32",
						"label": "mapping(bytes32 => struct CertificationContract.Product)",
						"numberOfBytes": "32",
						"value": "t_struct(Product)18_storage"
					},
					"t_mapping(t_uint256,t_struct(Product)18_storage)": {
						"encoding": "mapping",
						"key": "t_uint256",
						"label": "mapping(uint256 => struct CertificationContract.Product)",
						"numberOfBytes": "32",
						"value": "t_struct(Product)18_storage"
					},
					"t_string_storage": {
						"encoding": "bytes",
						"label": "string",
						"numberOfBytes": "32"
					},
					"t_struct(Product)18_storage": {
						"encoding": "inplace",
						"label": "struct CertificationContract.Product",
						"members": [
							{
								"astId": 3,
								"contract": "contracts/organic.sol:CertificationContract",
								"label": "name",
								"offset": 0,
								"slot": "0",
								"type": "t_string_storage"
							},
							{
								"astId": 5,
								"contract": "contracts/organic.sol:CertificationContract",
								"label": "origin",
								"offset": 0,
								"slot": "1",
								"type": "t_string_storage"
							},
							{
								"astId": 7,
								"contract": "contracts/organic.sol:CertificationContract",
								"label": "produceDate",
								"offset": 0,
								"slot": "2",
								"type": "t_string_storage"
							},
							{
								"astId": 9,
								"contract": "contracts/organic.sol:CertificationContract",
								"label": "farmerName",
								"offset": 0,
								"slot": "3",
								"type": "t_string_storage"
							},
							{
								"astId": 11,
								"contract": "contracts/organic.sol:CertificationContract",
								"label": "pgcApproved",
								"offset": 0,
								"slot": "4",
								"type": "t_bool"
							},
							{
								"astId": 13,
								"contract": "contracts/organic.sol:CertificationContract",
								"label": "thirdPartyApproved",
								"offset": 1,
								"slot": "4",
								"type": "t_bool"
							},
							{
								"astId": 15,
								"contract": "contracts/organic.sol:CertificationContract",
								"label": "certified",
								"offset": 2,
								"slot": "4",
								"type": "t_bool"
							},
							{
								"astId": 17,
								"contract": "contracts/organic.sol:CertificationContract",
								"label": "certificateId",
								"offset": 0,
								"slot": "5",
								"type": "t_uint256"
							}
						],
						"numberOfBytes": "192"
					},
					"t_uint256": {
						"encoding": "inplace",
						"label": "uint256",
						"numberOfBytes": "32"
					}
				}
			},
			"userdoc": {
				"kind": "user",
				"methods": {},
				"version": 1
			}
		}
	}
}