{
	"contracts/Auction.sol": {
		"Auction": {
			"abi": [
				{
					"inputs": [],
					"stateMutability": "payable",
					"type": "constructor"
				},
				{
					"inputs": [
						{
							"internalType": "string",
							"name": "name",
							"type": "string"
						}
					],
					"name": "BidderRegisterMaster",
					"outputs": [],
					"stateMutability": "nonpayable",
					"type": "function"
				},
				{
					"inputs": [
						{
							"internalType": "uint256",
							"name": "myBidValue",
							"type": "uint256"
						}
					],
					"name": "MyBidding",
					"outputs": [],
					"stateMutability": "nonpayable",
					"type": "function"
				},
				{
					"inputs": [],
					"name": "auctionItem",
					"outputs": [
						{
							"internalType": "string",
							"name": "itemTitle",
							"type": "string"
						},
						{
							"internalType": "uint256",
							"name": "startingPrice",
							"type": "uint256"
						},
						{
							"internalType": "bool",
							"name": "auctionClosed",
							"type": "bool"
						}
					],
					"stateMutability": "view",
					"type": "function"
				},
				{
					"inputs": [],
					"name": "declareAuctionResult",
					"outputs": [],
					"stateMutability": "nonpayable",
					"type": "function"
				},
				{
					"inputs": [
						{
							"internalType": "string",
							"name": "name",
							"type": "string"
						},
						{
							"internalType": "uint256",
							"name": "bidValue",
							"type": "uint256"
						}
					],
					"name": "setAuctionItem",
					"outputs": [],
					"stateMutability": "nonpayable",
					"type": "function"
				},
				{
					"inputs": [],
					"name": "transferBidAmount",
					"outputs": [],
					"stateMutability": "payable",
					"type": "function"
				},
				{
					"inputs": [],
					"name": "winner",
					"outputs": [
						{
							"internalType": "address",
							"name": "bidderWallet",
							"type": "address"
						},
						{
							"internalType": "uint256",
							"name": "bidPlaced",
							"type": "uint256"
						}
					],
					"stateMutability": "view",
					"type": "function"
				}
			],
			"devdoc": {
				"kind": "dev",
				"methods": {},
				"version": 1
			},
			"evm": {
				"assembly": "    /* \"contracts/Auction.sol\":107:4052  contract Auction {... */\n  mstore(0x40, 0x80)\n    /* \"contracts/Auction.sol\":496:497  0 */\n  0x00\n    /* \"contracts/Auction.sol\":488:493  regNo */\n  0x08\n    /* \"contracts/Auction.sol\":488:497  regNo = 0 */\n  dup2\n  swap1\n  sstore\n  pop\n    /* \"contracts/Auction.sol\":543:553  msg.sender */\n  caller\n    /* \"contracts/Auction.sol\":518:532  auctionManager */\n  0x00\n  dup1\n    /* \"contracts/Auction.sol\":518:554  auctionManager = payable(msg.sender) */\n  0x0100\n  exp\n  dup2\n  sload\n  dup2\n  0xffffffffffffffffffffffffffffffffffffffff\n  mul\n  not\n  and\n  swap1\n  dup4\n  0xffffffffffffffffffffffffffffffffffffffff\n  and\n  mul\n  or\n  swap1\n  sstore\n  pop\n    /* \"contracts/Auction.sol\":107:4052  contract Auction {... */\n  dataSize(sub_0)\n  dup1\n  dataOffset(sub_0)\n  0x00\n  codecopy\n  0x00\n  return\nstop\n\nsub_0: assembly {\n        /* \"contracts/Auction.sol\":107:4052  contract Auction {... */\n      mstore(0x40, 0x80)\n      jumpi(tag_1, lt(calldatasize, 0x04))\n      shr(0xe0, calldataload(0x00))\n      dup1\n      0xc2c042ca\n      gt\n      tag_9\n      jumpi\n      dup1\n      0xc2c042ca\n      eq\n      tag_5\n      jumpi\n      dup1\n      0xd990426e\n      eq\n      tag_6\n      jumpi\n      dup1\n      0xdfbf53ae\n      eq\n      tag_7\n      jumpi\n      dup1\n      0xe42d4727\n      eq\n      tag_8\n      jumpi\n      jump(tag_1)\n    tag_9:\n      dup1\n      0x3bac5e75\n      eq\n      tag_2\n      jumpi\n      dup1\n      0x7b42f401\n      eq\n      tag_3\n      jumpi\n      dup1\n      0x9edd0010\n      eq\n      tag_4\n      jumpi\n    tag_1:\n      0x00\n      dup1\n      revert\n        /* \"contracts/Auction.sol\":3837:4041  function transferBidAmount() public payable ... */\n    tag_2:\n      tag_10\n      tag_11\n      jump\t// in\n    tag_10:\n      stop\n        /* \"contracts/Auction.sol\":3584:3829  function declareAuctionResult() public checkAuctionManager {... */\n    tag_3:\n      callvalue\n      dup1\n      iszero\n      tag_12\n      jumpi\n      0x00\n      dup1\n      revert\n    tag_12:\n      pop\n      tag_13\n      tag_14\n      jump\t// in\n    tag_13:\n      stop\n        /* \"contracts/Auction.sol\":3032:3433  function MyBidding(uint myBidValue) public ... */\n    tag_4:\n      callvalue\n      dup1\n      iszero\n      tag_15\n      jumpi\n      0x00\n      dup1\n      revert\n    tag_15:\n      pop\n      tag_16\n      0x04\n      dup1\n      calldatasize\n      sub\n      dup2\n      add\n      swap1\n      tag_17\n      swap2\n      swap1\n      tag_18\n      jump\t// in\n    tag_17:\n      tag_19\n      jump\t// in\n    tag_16:\n      stop\n        /* \"contracts/Auction.sol\":206:234  AdminItem public auctionItem */\n    tag_5:\n      callvalue\n      dup1\n      iszero\n      tag_20\n      jumpi\n      0x00\n      dup1\n      revert\n    tag_20:\n      pop\n      tag_21\n      tag_22\n      jump\t// in\n    tag_21:\n      mload(0x40)\n      tag_23\n      swap4\n      swap3\n      swap2\n      swap1\n      tag_24\n      jump\t// in\n    tag_23:\n      mload(0x40)\n      dup1\n      swap2\n      sub\n      swap1\n      return\n        /* \"contracts/Auction.sol\":2396:2602  function setAuctionItem(string memory name, uint bidValue) public checkAuctionManager {... */\n    tag_6:\n      callvalue\n      dup1\n      iszero\n      tag_25\n      jumpi\n      0x00\n      dup1\n      revert\n    tag_25:\n      pop\n      tag_26\n      0x04\n      dup1\n      calldatasize\n      sub\n      dup2\n      add\n      swap1\n      tag_27\n      swap2\n      swap1\n      tag_28\n      jump\t// in\n    tag_27:\n      tag_29\n      jump\t// in\n    tag_26:\n      stop\n        /* \"contracts/Auction.sol\":241:263  AdminBid public winner */\n    tag_7:\n      callvalue\n      dup1\n      iszero\n      tag_30\n      jumpi\n      0x00\n      dup1\n      revert\n    tag_30:\n      pop\n      tag_31\n      tag_32\n      jump\t// in\n    tag_31:\n      mload(0x40)\n      tag_33\n      swap3\n      swap2\n      swap1\n      tag_34\n      jump\t// in\n    tag_33:\n      mload(0x40)\n      dup1\n      swap2\n      sub\n      swap1\n      return\n        /* \"contracts/Auction.sol\":2765:3017  function BidderRegisterMaster(string memory name) public ... */\n    tag_8:\n      callvalue\n      dup1\n      iszero\n      tag_35\n      jumpi\n      0x00\n      dup1\n      revert\n    tag_35:\n      pop\n      tag_36\n      0x04\n      dup1\n      calldatasize\n      sub\n      dup2\n      add\n      swap1\n      tag_37\n      swap2\n      swap1\n      tag_38\n      jump\t// in\n    tag_37:\n      tag_39\n      jump\t// in\n    tag_36:\n      stop\n        /* \"contracts/Auction.sol\":3837:4041  function transferBidAmount() public payable ... */\n    tag_11:\n        /* \"contracts/Auction.sol\":664:678  auctionManager */\n      0x00\n      dup1\n      sload\n      swap1\n      0x0100\n      exp\n      swap1\n      div\n      0xffffffffffffffffffffffffffffffffffffffff\n      and\n        /* \"contracts/Auction.sol\":650:678  msg.sender != auctionManager */\n      0xffffffffffffffffffffffffffffffffffffffff\n      and\n        /* \"contracts/Auction.sol\":650:660  msg.sender */\n      caller\n        /* \"contracts/Auction.sol\":650:678  msg.sender != auctionManager */\n      0xffffffffffffffffffffffffffffffffffffffff\n      and\n      sub\n        /* \"contracts/Auction.sol\":642:723  require(msg.sender != auctionManager, \"Only participants can take part in a bid\") */\n      tag_41\n      jumpi\n      mload(0x40)\n      0x08c379a000000000000000000000000000000000000000000000000000000000\n      dup2\n      mstore\n      0x04\n      add\n      tag_42\n      swap1\n      tag_43\n      jump\t// in\n    tag_42:\n      mload(0x40)\n      dup1\n      swap2\n      sub\n      swap1\n      revert\n    tag_41:\n        /* \"contracts/Auction.sol\":2085:2091  winner */\n      0x06\n        /* \"contracts/Auction.sol\":2085:2104  winner.bidderWallet */\n      0x00\n      add\n      0x00\n      swap1\n      sload\n      swap1\n      0x0100\n      exp\n      swap1\n      div\n      0xffffffffffffffffffffffffffffffffffffffff\n      and\n        /* \"contracts/Auction.sol\":2071:2104  msg.sender == winner.bidderWallet */\n      0xffffffffffffffffffffffffffffffffffffffff\n      and\n        /* \"contracts/Auction.sol\":2071:2081  msg.sender */\n      caller\n        /* \"contracts/Auction.sol\":2071:2104  msg.sender == winner.bidderWallet */\n      0xffffffffffffffffffffffffffffffffffffffff\n      and\n      eq\n        /* \"contracts/Auction.sol\":2063:2149  require(msg.sender == winner.bidderWallet, \"Re-check the Bid Winner's wallet address\") */\n      tag_45\n      jumpi\n      mload(0x40)\n      0x08c379a000000000000000000000000000000000000000000000000000000000\n      dup2\n      mstore\n      0x04\n      add\n      tag_46\n      swap1\n      tag_47\n      jump\t// in\n    tag_46:\n      mload(0x40)\n      dup1\n      swap2\n      sub\n      swap1\n      revert\n    tag_45:\n        /* \"contracts/Auction.sol\":2222:2235  uint ethtowei */\n      0x00\n        /* \"contracts/Auction.sol\":2257:2264  1 ether */\n      0x0de0b6b3a7640000\n        /* \"contracts/Auction.sol\":2238:2244  winner */\n      0x06\n        /* \"contracts/Auction.sol\":2238:2254  winner.bidPlaced */\n      0x01\n      add\n      sload\n        /* \"contracts/Auction.sol\":2238:2264  winner.bidPlaced * 1 ether */\n      tag_49\n      swap2\n      swap1\n      tag_50\n      jump\t// in\n    tag_49:\n        /* \"contracts/Auction.sol\":2222:2264  uint ethtowei = winner.bidPlaced * 1 ether */\n      swap1\n      pop\n        /* \"contracts/Auction.sol\":2295:2304  msg.value */\n      callvalue\n        /* \"contracts/Auction.sol\":2283:2291  ethtowei */\n      dup2\n        /* \"contracts/Auction.sol\":2283:2304  ethtowei == msg.value */\n      eq\n        /* \"contracts/Auction.sol\":2275:2359  require(ethtowei == msg.value, \"Transaction is Invalid. Incorrect ETH amount sent.\") */\n      tag_51\n      jumpi\n      mload(0x40)\n      0x08c379a000000000000000000000000000000000000000000000000000000000\n      dup2\n      mstore\n      0x04\n      add\n      tag_52\n      swap1\n      tag_53\n      jump\t// in\n    tag_52:\n      mload(0x40)\n      dup1\n      swap2\n      sub\n      swap1\n      revert\n    tag_51:\n        /* \"contracts/Auction.sol\":3999:4013  auctionManager */\n      0x00\n      dup1\n      sload\n      swap1\n      0x0100\n      exp\n      swap1\n      div\n      0xffffffffffffffffffffffffffffffffffffffff\n      and\n        /* \"contracts/Auction.sol\":3999:4022  auctionManager.transfer */\n      0xffffffffffffffffffffffffffffffffffffffff\n      and\n        /* \"contracts/Auction.sol\":3999:4033  auctionManager.transfer(msg.value) */\n      0x08fc\n        /* \"contracts/Auction.sol\":4023:4032  msg.value */\n      callvalue\n        /* \"contracts/Auction.sol\":3999:4033  auctionManager.transfer(msg.value) */\n      swap1\n      dup2\n      iszero\n      mul\n      swap1\n      mload(0x40)\n      0x00\n      mload(0x40)\n      dup1\n      dup4\n      sub\n      dup2\n      dup6\n      dup9\n      dup9\n      call\n      swap4\n      pop\n      pop\n      pop\n      pop\n      iszero\n      dup1\n      iszero\n      tag_56\n      jumpi\n      returndatasize\n      0x00\n      dup1\n      returndatacopy\n      revert(0x00, returndatasize)\n    tag_56:\n      pop\n        /* \"contracts/Auction.sol\":2211:2379  {... */\n      pop\n        /* \"contracts/Auction.sol\":3837:4041  function transferBidAmount() public payable ... */\n      jump\t// out\n        /* \"contracts/Auction.sol\":3584:3829  function declareAuctionResult() public checkAuctionManager {... */\n    tag_14:\n        /* \"contracts/Auction.sol\":1320:1334  auctionManager */\n      0x00\n      dup1\n      sload\n      swap1\n      0x0100\n      exp\n      swap1\n      div\n      0xffffffffffffffffffffffffffffffffffffffff\n      and\n        /* \"contracts/Auction.sol\":1306:1334  msg.sender == auctionManager */\n      0xffffffffffffffffffffffffffffffffffffffff\n      and\n        /* \"contracts/Auction.sol\":1306:1316  msg.sender */\n      caller\n        /* \"contracts/Auction.sol\":1306:1334  msg.sender == auctionManager */\n      0xffffffffffffffffffffffffffffffffffffffff\n      and\n      eq\n        /* \"contracts/Auction.sol\":1298:1347  require(msg.sender == auctionManager, \"Invalid.\") */\n      tag_58\n      jumpi\n      mload(0x40)\n      0x08c379a000000000000000000000000000000000000000000000000000000000\n      dup2\n      mstore\n      0x04\n      add\n      tag_59\n      swap1\n      tag_60\n      jump\t// in\n    tag_59:\n      mload(0x40)\n      dup1\n      swap2\n      sub\n      swap1\n      revert\n    tag_58:\n        /* \"contracts/Auction.sol\":3654:3670  uint winnerIndex */\n      0x00\n        /* \"contracts/Auction.sol\":3683:3684  1 */\n      0x01\n        /* \"contracts/Auction.sol\":3673:3680  chainNo */\n      sload(0x0b)\n        /* \"contracts/Auction.sol\":3673:3684  chainNo - 1 */\n      tag_62\n      swap2\n      swap1\n      tag_63\n      jump\t// in\n    tag_62:\n        /* \"contracts/Auction.sol\":3654:3684  uint winnerIndex = chainNo - 1 */\n      swap1\n      pop\n        /* \"contracts/Auction.sol\":3704:3716  auctionChain */\n      0x0a\n        /* \"contracts/Auction.sol\":3704:3729  auctionChain[winnerIndex] */\n      0x00\n        /* \"contracts/Auction.sol\":3717:3728  winnerIndex */\n      dup3\n        /* \"contracts/Auction.sol\":3704:3729  auctionChain[winnerIndex] */\n      dup2\n      mstore\n      0x20\n      add\n      swap1\n      dup2\n      mstore\n      0x20\n      add\n      0x00\n      keccak256\n        /* \"contracts/Auction.sol\":3695:3701  winner */\n      0x06\n        /* \"contracts/Auction.sol\":3695:3729  winner = auctionChain[winnerIndex] */\n      0x00\n      dup3\n      add\n      0x00\n      swap1\n      sload\n      swap1\n      0x0100\n      exp\n      swap1\n      div\n      0xffffffffffffffffffffffffffffffffffffffff\n      and\n      dup2\n      0x00\n      add\n      exp(0x0100, 0x00)\n      dup2\n      sload\n      dup2\n      0xffffffffffffffffffffffffffffffffffffffff\n      mul\n      not\n      and\n      swap1\n      dup4\n      0xffffffffffffffffffffffffffffffffffffffff\n      and\n      mul\n      or\n      swap1\n      sstore\n      pop\n      0x01\n      dup3\n      add\n      sload\n      dup2\n      0x01\n      add\n      sstore\n      swap1\n      pop\n      pop\n        /* \"contracts/Auction.sol\":3756:3821  AdminItem(auctionItem.itemTitle, auctionItem.startingPrice, true) */\n      mload(0x40)\n      dup1\n      0x60\n      add\n      0x40\n      mstore\n      dup1\n        /* \"contracts/Auction.sol\":3766:3777  auctionItem */\n      0x03\n        /* \"contracts/Auction.sol\":3766:3787  auctionItem.itemTitle */\n      0x00\n      add\n        /* \"contracts/Auction.sol\":3756:3821  AdminItem(auctionItem.itemTitle, auctionItem.startingPrice, true) */\n      dup1\n      sload\n      tag_64\n      swap1\n      tag_65\n      jump\t// in\n    tag_64:\n      dup1\n      0x1f\n      add\n      0x20\n      dup1\n      swap2\n      div\n      mul\n      0x20\n      add\n      mload(0x40)\n      swap1\n      dup2\n      add\n      0x40\n      mstore\n      dup1\n      swap3\n      swap2\n      swap1\n      dup2\n      dup2\n      mstore\n      0x20\n      add\n      dup3\n      dup1\n      sload\n      tag_66\n      swap1\n      tag_65\n      jump\t// in\n    tag_66:\n      dup1\n      iszero\n      tag_67\n      jumpi\n      dup1\n      0x1f\n      lt\n      tag_68\n      jumpi\n      0x0100\n      dup1\n      dup4\n      sload\n      div\n      mul\n      dup4\n      mstore\n      swap2\n      0x20\n      add\n      swap2\n      jump(tag_67)\n    tag_68:\n      dup3\n      add\n      swap2\n      swap1\n      0x00\n      mstore\n      keccak256(0x00, 0x20)\n      swap1\n    tag_69:\n      dup2\n      sload\n      dup2\n      mstore\n      swap1\n      0x01\n      add\n      swap1\n      0x20\n      add\n      dup1\n      dup4\n      gt\n      tag_69\n      jumpi\n      dup3\n      swap1\n      sub\n      0x1f\n      and\n      dup3\n      add\n      swap2\n    tag_67:\n      pop\n      pop\n      pop\n      pop\n      pop\n      dup2\n      mstore\n      0x20\n      add\n        /* \"contracts/Auction.sol\":3789:3800  auctionItem */\n      0x03\n        /* \"contracts/Auction.sol\":3789:3814  auctionItem.startingPrice */\n      0x01\n      add\n      sload\n        /* \"contracts/Auction.sol\":3756:3821  AdminItem(auctionItem.itemTitle, auctionItem.startingPrice, true) */\n      dup2\n      mstore\n      0x20\n      add\n        /* \"contracts/Auction.sol\":3816:3820  true */\n      0x01\n        /* \"contracts/Auction.sol\":3756:3821  AdminItem(auctionItem.itemTitle, auctionItem.startingPrice, true) */\n      iszero\n      iszero\n      dup2\n      mstore\n      pop\n        /* \"contracts/Auction.sol\":3742:3753  auctionItem */\n      0x03\n        /* \"contracts/Auction.sol\":3742:3821  auctionItem = AdminItem(auctionItem.itemTitle, auctionItem.startingPrice, true) */\n      0x00\n      dup3\n      add\n      mload\n      dup2\n      0x00\n      add\n      swap1\n      dup2\n      tag_70\n      swap2\n      swap1\n      tag_71\n      jump\t// in\n    tag_70:\n      pop\n      0x20\n      dup3\n      add\n      mload\n      dup2\n      0x01\n      add\n      sstore\n      0x40\n      dup3\n      add\n      mload\n      dup2\n      0x02\n      add\n      exp(0x0100, 0x00)\n      dup2\n      sload\n      dup2\n      0xff\n      mul\n      not\n      and\n      swap1\n      dup4\n      iszero\n      iszero\n      mul\n      or\n      swap1\n      sstore\n      pop\n      swap1\n      pop\n      pop\n        /* \"contracts/Auction.sol\":3643:3829  {... */\n      pop\n        /* \"contracts/Auction.sol\":3584:3829  function declareAuctionResult() public checkAuctionManager {... */\n      jump\t// out\n        /* \"contracts/Auction.sol\":3032:3433  function MyBidding(uint myBidValue) public ... */\n    tag_19:\n        /* \"contracts/Auction.sol\":2694:2699  false */\n      0x00\n        /* \"contracts/Auction.sol\":2665:2699  auctionItem.auctionClosed == false */\n      iszero\n      iszero\n        /* \"contracts/Auction.sol\":2665:2676  auctionItem */\n      0x03\n        /* \"contracts/Auction.sol\":2665:2690  auctionItem.auctionClosed */\n      0x02\n      add\n      0x00\n      swap1\n      sload\n      swap1\n      0x0100\n      exp\n      swap1\n      div\n      0xff\n      and\n        /* \"contracts/Auction.sol\":2665:2699  auctionItem.auctionClosed == false */\n      iszero\n      iszero\n      eq\n        /* \"contracts/Auction.sol\":2657:2735  require(auctionItem.auctionClosed == false, \"The auction is over, Thank you!\") */\n      tag_73\n      jumpi\n      mload(0x40)\n      0x08c379a000000000000000000000000000000000000000000000000000000000\n      dup2\n      mstore\n      0x04\n      add\n      tag_74\n      swap1\n      tag_75\n      jump\t// in\n    tag_74:\n      mload(0x40)\n      dup1\n      swap2\n      sub\n      swap1\n      revert\n    tag_73:\n        /* \"contracts/Auction.sol\":664:678  auctionManager */\n      0x00\n      dup1\n      sload\n      swap1\n      0x0100\n      exp\n      swap1\n      div\n      0xffffffffffffffffffffffffffffffffffffffff\n      and\n        /* \"contracts/Auction.sol\":650:678  msg.sender != auctionManager */\n      0xffffffffffffffffffffffffffffffffffffffff\n      and\n        /* \"contracts/Auction.sol\":650:660  msg.sender */\n      caller\n        /* \"contracts/Auction.sol\":650:678  msg.sender != auctionManager */\n      0xffffffffffffffffffffffffffffffffffffffff\n      and\n      sub\n        /* \"contracts/Auction.sol\":642:723  require(msg.sender != auctionManager, \"Only participants can take part in a bid\") */\n      tag_77\n      jumpi\n      mload(0x40)\n      0x08c379a000000000000000000000000000000000000000000000000000000000\n      dup2\n      mstore\n      0x04\n      add\n      tag_78\n      swap1\n      tag_43\n      jump\t// in\n    tag_78:\n      mload(0x40)\n      dup1\n      swap2\n      sub\n      swap1\n      revert\n    tag_77:\n        /* \"contracts/Auction.sol\":1427:1453  AdminUser memory userblock */\n      tag_80\n      tag_81\n      jump\t// in\n    tag_80:\n        /* \"contracts/Auction.sol\":1464:1474  bool token */\n      0x00\n        /* \"contracts/Auction.sol\":1493:1504  uint regcnt */\n      dup1\n        /* \"contracts/Auction.sol\":1519:1758  while (regcnt < regNo) {... */\n    tag_82:\n        /* \"contracts/Auction.sol\":1535:1540  regNo */\n      sload(0x08)\n        /* \"contracts/Auction.sol\":1526:1532  regcnt */\n      dup2\n        /* \"contracts/Auction.sol\":1526:1540  regcnt < regNo */\n      lt\n        /* \"contracts/Auction.sol\":1519:1758  while (regcnt < regNo) {... */\n      iszero\n      tag_83\n      jumpi\n        /* \"contracts/Auction.sol\":1569:1590  auctionBidderRegister */\n      0x09\n        /* \"contracts/Auction.sol\":1569:1598  auctionBidderRegister[regcnt] */\n      0x00\n        /* \"contracts/Auction.sol\":1591:1597  regcnt */\n      dup3\n        /* \"contracts/Auction.sol\":1569:1598  auctionBidderRegister[regcnt] */\n      dup2\n      mstore\n      0x20\n      add\n      swap1\n      dup2\n      mstore\n      0x20\n      add\n      0x00\n      keccak256\n        /* \"contracts/Auction.sol\":1557:1598  userblock = auctionBidderRegister[regcnt] */\n      mload(0x40)\n      dup1\n      0x40\n      add\n      0x40\n      mstore\n      swap1\n      dup2\n      0x00\n      dup3\n      add\n      dup1\n      sload\n      tag_84\n      swap1\n      tag_65\n      jump\t// in\n    tag_84:\n      dup1\n      0x1f\n      add\n      0x20\n      dup1\n      swap2\n      div\n      mul\n      0x20\n      add\n      mload(0x40)\n      swap1\n      dup2\n      add\n      0x40\n      mstore\n      dup1\n      swap3\n      swap2\n      swap1\n      dup2\n      dup2\n      mstore\n      0x20\n      add\n      dup3\n      dup1\n      sload\n      tag_85\n      swap1\n      tag_65\n      jump\t// in\n    tag_85:\n      dup1\n      iszero\n      tag_86\n      jumpi\n      dup1\n      0x1f\n      lt\n      tag_87\n      jumpi\n      0x0100\n      dup1\n      dup4\n      sload\n      div\n      mul\n      dup4\n      mstore\n      swap2\n      0x20\n      add\n      swap2\n      jump(tag_86)\n    tag_87:\n      dup3\n      add\n      swap2\n      swap1\n      0x00\n      mstore\n      keccak256(0x00, 0x20)\n      swap1\n    tag_88:\n      dup2\n      sload\n      dup2\n      mstore\n      swap1\n      0x01\n      add\n      swap1\n      0x20\n      add\n      dup1\n      dup4\n      gt\n      tag_88\n      jumpi\n      dup3\n      swap1\n      sub\n      0x1f\n      and\n      dup3\n      add\n      swap2\n    tag_86:\n      pop\n      pop\n      pop\n      pop\n      pop\n      dup2\n      mstore\n      0x20\n      add\n      0x01\n      dup3\n      add\n      0x00\n      swap1\n      sload\n      swap1\n      0x0100\n      exp\n      swap1\n      div\n      0xffffffffffffffffffffffffffffffffffffffff\n      and\n      0xffffffffffffffffffffffffffffffffffffffff\n      and\n      0xffffffffffffffffffffffffffffffffffffffff\n      and\n      dup2\n      mstore\n      pop\n      pop\n      swap3\n      pop\n        /* \"contracts/Auction.sol\":1641:1651  msg.sender */\n      caller\n        /* \"contracts/Auction.sol\":1617:1651  userblock.userWallet == msg.sender */\n      0xffffffffffffffffffffffffffffffffffffffff\n      and\n        /* \"contracts/Auction.sol\":1617:1626  userblock */\n      dup4\n        /* \"contracts/Auction.sol\":1617:1637  userblock.userWallet */\n      0x20\n      add\n      mload\n        /* \"contracts/Auction.sol\":1617:1651  userblock.userWallet == msg.sender */\n      0xffffffffffffffffffffffffffffffffffffffff\n      and\n      sub\n        /* \"contracts/Auction.sol\":1613:1724  if (userblock.userWallet == msg.sender) {... */\n      tag_89\n      jumpi\n        /* \"contracts/Auction.sol\":1680:1684  true */\n      0x01\n        /* \"contracts/Auction.sol\":1672:1684  token = true */\n      swap2\n      pop\n        /* \"contracts/Auction.sol\":1703:1708  break */\n      jump(tag_83)\n        /* \"contracts/Auction.sol\":1613:1724  if (userblock.userWallet == msg.sender) {... */\n    tag_89:\n        /* \"contracts/Auction.sol\":1738:1746  regcnt++ */\n      dup1\n      dup1\n      tag_90\n      swap1\n      tag_91\n      jump\t// in\n    tag_90:\n      swap2\n      pop\n      pop\n        /* \"contracts/Auction.sol\":1519:1758  while (regcnt < regNo) {... */\n      jump(tag_82)\n    tag_83:\n        /* \"contracts/Auction.sol\":1785:1789  true */\n      0x01\n        /* \"contracts/Auction.sol\":1776:1789  token == true */\n      iszero\n      iszero\n        /* \"contracts/Auction.sol\":1776:1781  token */\n      dup3\n        /* \"contracts/Auction.sol\":1776:1789  token == true */\n      iszero\n      iszero\n      eq\n        /* \"contracts/Auction.sol\":1768:1847  require(token == true, \"Invalid: Ensure participitation before bidding begins\") */\n      tag_92\n      jumpi\n      mload(0x40)\n      0x08c379a000000000000000000000000000000000000000000000000000000000\n      dup2\n      mstore\n      0x04\n      add\n      tag_93\n      swap1\n      tag_94\n      jump\t// in\n    tag_93:\n      mload(0x40)\n      dup1\n      swap2\n      sub\n      swap1\n      revert\n    tag_92:\n        /* \"contracts/Auction.sol\":3209:3219  myBidValue */\n      dup4\n        /* \"contracts/Auction.sol\":1949:1960  maxBidValue */\n      sload(0x0c)\n        /* \"contracts/Auction.sol\":1935:1946  bidderValue */\n      dup2\n        /* \"contracts/Auction.sol\":1935:1960  bidderValue > maxBidValue */\n      gt\n        /* \"contracts/Auction.sol\":1927:1994  require(bidderValue > maxBidValue, \"Bid too low, hence, rejected!\") */\n      tag_96\n      jumpi\n      mload(0x40)\n      0x08c379a000000000000000000000000000000000000000000000000000000000\n      dup2\n      mstore\n      0x04\n      add\n      tag_97\n      swap1\n      tag_98\n      jump\t// in\n    tag_97:\n      mload(0x40)\n      dup1\n      swap2\n      sub\n      swap1\n      revert\n    tag_96:\n        /* \"contracts/Auction.sol\":3238:3266  AdminBid memory auctionblock */\n      0x00\n        /* \"contracts/Auction.sol\":3269:3310  AdminBid(payable(msg.sender), myBidValue) */\n      mload(0x40)\n      dup1\n      0x40\n      add\n      0x40\n      mstore\n      dup1\n        /* \"contracts/Auction.sol\":3286:3296  msg.sender */\n      caller\n        /* \"contracts/Auction.sol\":3269:3310  AdminBid(payable(msg.sender), myBidValue) */\n      0xffffffffffffffffffffffffffffffffffffffff\n      and\n      dup2\n      mstore\n      0x20\n      add\n        /* \"contracts/Auction.sol\":3299:3309  myBidValue */\n      dup8\n        /* \"contracts/Auction.sol\":3269:3310  AdminBid(payable(msg.sender), myBidValue) */\n      dup2\n      mstore\n      pop\n        /* \"contracts/Auction.sol\":3238:3310  AdminBid memory auctionblock = AdminBid(payable(msg.sender), myBidValue) */\n      swap1\n      pop\n        /* \"contracts/Auction.sol\":3345:3357  auctionblock */\n      dup1\n        /* \"contracts/Auction.sol\":3321:3333  auctionChain */\n      0x0a\n        /* \"contracts/Auction.sol\":3321:3342  auctionChain[chainNo] */\n      0x00\n        /* \"contracts/Auction.sol\":3334:3341  chainNo */\n      sload(0x0b)\n        /* \"contracts/Auction.sol\":3321:3342  auctionChain[chainNo] */\n      dup2\n      mstore\n      0x20\n      add\n      swap1\n      dup2\n      mstore\n      0x20\n      add\n      0x00\n      keccak256\n        /* \"contracts/Auction.sol\":3321:3357  auctionChain[chainNo] = auctionblock */\n      0x00\n      dup3\n      add\n      mload\n      dup2\n      0x00\n      add\n      exp(0x0100, 0x00)\n      dup2\n      sload\n      dup2\n      0xffffffffffffffffffffffffffffffffffffffff\n      mul\n      not\n      and\n      swap1\n      dup4\n      0xffffffffffffffffffffffffffffffffffffffff\n      and\n      mul\n      or\n      swap1\n      sstore\n      pop\n      0x20\n      dup3\n      add\n      mload\n      dup2\n      0x01\n      add\n      sstore\n      swap1\n      pop\n      pop\n        /* \"contracts/Auction.sol\":3384:3394  myBidValue */\n      dup6\n        /* \"contracts/Auction.sol\":3370:3381  maxBidValue */\n      0x0c\n        /* \"contracts/Auction.sol\":3370:3394  maxBidValue = myBidValue */\n      dup2\n      swap1\n      sstore\n      pop\n        /* \"contracts/Auction.sol\":3405:3425  gotoNextBlockchain() */\n      tag_100\n        /* \"contracts/Auction.sol\":3405:3423  gotoNextBlockchain */\n      tag_101\n        /* \"contracts/Auction.sol\":3405:3425  gotoNextBlockchain() */\n      jump\t// in\n    tag_100:\n        /* \"contracts/Auction.sol\":3227:3433  {... */\n      pop\n        /* \"contracts/Auction.sol\":1858:1859  _ */\n      pop\n        /* \"contracts/Auction.sol\":1416:1867  {... */\n      pop\n      pop\n      pop\n        /* \"contracts/Auction.sol\":3032:3433  function MyBidding(uint myBidValue) public ... */\n      pop\n      jump\t// out\n        /* \"contracts/Auction.sol\":206:234  AdminItem public auctionItem */\n    tag_22:\n      0x03\n      dup1\n      0x00\n      add\n      dup1\n      sload\n      tag_102\n      swap1\n      tag_65\n      jump\t// in\n    tag_102:\n      dup1\n      0x1f\n      add\n      0x20\n      dup1\n      swap2\n      div\n      mul\n      0x20\n      add\n      mload(0x40)\n      swap1\n      dup2\n      add\n      0x40\n      mstore\n      dup1\n      swap3\n      swap2\n      swap1\n      dup2\n      dup2\n      mstore\n      0x20\n      add\n      dup3\n      dup1\n      sload\n      tag_103\n      swap1\n      tag_65\n      jump\t// in\n    tag_103:\n      dup1\n      iszero\n      tag_104\n      jumpi\n      dup1\n      0x1f\n      lt\n      tag_105\n      jumpi\n      0x0100\n      dup1\n      dup4\n      sload\n      div\n      mul\n      dup4\n      mstore\n      swap2\n      0x20\n      add\n      swap2\n      jump(tag_104)\n    tag_105:\n      dup3\n      add\n      swap2\n      swap1\n      0x00\n      mstore\n      keccak256(0x00, 0x20)\n      swap1\n    tag_106:\n      dup2\n      sload\n      dup2\n      mstore\n      swap1\n      0x01\n      add\n      swap1\n      0x20\n      add\n      dup1\n      dup4\n      gt\n      tag_106\n      jumpi\n      dup3\n      swap1\n      sub\n      0x1f\n      and\n      dup3\n      add\n      swap2\n    tag_104:\n      pop\n      pop\n      pop\n      pop\n      pop\n      swap1\n      dup1\n      0x01\n      add\n      sload\n      swap1\n      dup1\n      0x02\n      add\n      0x00\n      swap1\n      sload\n      swap1\n      0x0100\n      exp\n      swap1\n      div\n      0xff\n      and\n      swap1\n      pop\n      dup4\n      jump\t// out\n        /* \"contracts/Auction.sol\":2396:2602  function setAuctionItem(string memory name, uint bidValue) public checkAuctionManager {... */\n    tag_29:\n        /* \"contracts/Auction.sol\":1320:1334  auctionManager */\n      0x00\n      dup1\n      sload\n      swap1\n      0x0100\n      exp\n      swap1\n      div\n      0xffffffffffffffffffffffffffffffffffffffff\n      and\n        /* \"contracts/Auction.sol\":1306:1334  msg.sender == auctionManager */\n      0xffffffffffffffffffffffffffffffffffffffff\n      and\n        /* \"contracts/Auction.sol\":1306:1316  msg.sender */\n      caller\n        /* \"contracts/Auction.sol\":1306:1334  msg.sender == auctionManager */\n      0xffffffffffffffffffffffffffffffffffffffff\n      and\n      eq\n        /* \"contracts/Auction.sol\":1298:1347  require(msg.sender == auctionManager, \"Invalid.\") */\n      tag_108\n      jumpi\n      mload(0x40)\n      0x08c379a000000000000000000000000000000000000000000000000000000000\n      dup2\n      mstore\n      0x04\n      add\n      tag_109\n      swap1\n      tag_60\n      jump\t// in\n    tag_109:\n      mload(0x40)\n      dup1\n      swap2\n      sub\n      swap1\n      revert\n    tag_108:\n        /* \"contracts/Auction.sol\":2507:2539  AdminItem(name, bidValue, false) */\n      mload(0x40)\n      dup1\n      0x60\n      add\n      0x40\n      mstore\n      dup1\n        /* \"contracts/Auction.sol\":2517:2521  name */\n      dup4\n        /* \"contracts/Auction.sol\":2507:2539  AdminItem(name, bidValue, false) */\n      dup2\n      mstore\n      0x20\n      add\n        /* \"contracts/Auction.sol\":2523:2531  bidValue */\n      dup3\n        /* \"contracts/Auction.sol\":2507:2539  AdminItem(name, bidValue, false) */\n      dup2\n      mstore\n      0x20\n      add\n        /* \"contracts/Auction.sol\":2533:2538  false */\n      0x00\n        /* \"contracts/Auction.sol\":2507:2539  AdminItem(name, bidValue, false) */\n      iszero\n      iszero\n      dup2\n      mstore\n      pop\n        /* \"contracts/Auction.sol\":2493:2504  auctionItem */\n      0x03\n        /* \"contracts/Auction.sol\":2493:2539  auctionItem = AdminItem(name, bidValue, false) */\n      0x00\n      dup3\n      add\n      mload\n      dup2\n      0x00\n      add\n      swap1\n      dup2\n      tag_111\n      swap2\n      swap1\n      tag_71\n      jump\t// in\n    tag_111:\n      pop\n      0x20\n      dup3\n      add\n      mload\n      dup2\n      0x01\n      add\n      sstore\n      0x40\n      dup3\n      add\n      mload\n      dup2\n      0x02\n      add\n      exp(0x0100, 0x00)\n      dup2\n      sload\n      dup2\n      0xff\n      mul\n      not\n      and\n      swap1\n      dup4\n      iszero\n      iszero\n      mul\n      or\n      swap1\n      sstore\n      pop\n      swap1\n      pop\n      pop\n        /* \"contracts/Auction.sol\":2564:2572  bidValue */\n      dup1\n        /* \"contracts/Auction.sol\":2550:2561  maxBidValue */\n      0x0c\n        /* \"contracts/Auction.sol\":2550:2572  maxBidValue = bidValue */\n      dup2\n      swap1\n      sstore\n      pop\n        /* \"contracts/Auction.sol\":2593:2594  0 */\n      0x00\n        /* \"contracts/Auction.sol\":2583:2590  chainNo */\n      0x0b\n        /* \"contracts/Auction.sol\":2583:2594  chainNo = 0 */\n      dup2\n      swap1\n      sstore\n      pop\n        /* \"contracts/Auction.sol\":2396:2602  function setAuctionItem(string memory name, uint bidValue) public checkAuctionManager {... */\n      pop\n      pop\n      jump\t// out\n        /* \"contracts/Auction.sol\":241:263  AdminBid public winner */\n    tag_32:\n      0x06\n      dup1\n      0x00\n      add\n      0x00\n      swap1\n      sload\n      swap1\n      0x0100\n      exp\n      swap1\n      div\n      0xffffffffffffffffffffffffffffffffffffffff\n      and\n      swap1\n      dup1\n      0x01\n      add\n      sload\n      swap1\n      pop\n      dup3\n      jump\t// out\n        /* \"contracts/Auction.sol\":2765:3017  function BidderRegisterMaster(string memory name) public ... */\n    tag_39:\n        /* \"contracts/Auction.sol\":664:678  auctionManager */\n      0x00\n      dup1\n      sload\n      swap1\n      0x0100\n      exp\n      swap1\n      div\n      0xffffffffffffffffffffffffffffffffffffffff\n      and\n        /* \"contracts/Auction.sol\":650:678  msg.sender != auctionManager */\n      0xffffffffffffffffffffffffffffffffffffffff\n      and\n        /* \"contracts/Auction.sol\":650:660  msg.sender */\n      caller\n        /* \"contracts/Auction.sol\":650:678  msg.sender != auctionManager */\n      0xffffffffffffffffffffffffffffffffffffffff\n      and\n      sub\n        /* \"contracts/Auction.sol\":642:723  require(msg.sender != auctionManager, \"Only participants can take part in a bid\") */\n      tag_113\n      jumpi\n      mload(0x40)\n      0x08c379a000000000000000000000000000000000000000000000000000000000\n      dup2\n      mstore\n      0x04\n      add\n      tag_114\n      swap1\n      tag_43\n      jump\t// in\n    tag_114:\n      mload(0x40)\n      dup1\n      swap2\n      sub\n      swap1\n      revert\n    tag_113:\n        /* \"contracts/Auction.sol\":800:826  AdminUser memory userblock */\n      tag_116\n      tag_81\n      jump\t// in\n    tag_116:\n        /* \"contracts/Auction.sol\":847:858  uint regcnt */\n      0x00\n        /* \"contracts/Auction.sol\":875:885  bool token */\n      dup1\n        /* \"contracts/Auction.sol\":904:1143  while (regcnt < regNo) {... */\n    tag_117:\n        /* \"contracts/Auction.sol\":920:925  regNo */\n      sload(0x08)\n        /* \"contracts/Auction.sol\":911:917  regcnt */\n      dup3\n        /* \"contracts/Auction.sol\":911:925  regcnt < regNo */\n      lt\n        /* \"contracts/Auction.sol\":904:1143  while (regcnt < regNo) {... */\n      iszero\n      tag_118\n      jumpi\n        /* \"contracts/Auction.sol\":954:975  auctionBidderRegister */\n      0x09\n        /* \"contracts/Auction.sol\":954:983  auctionBidderRegister[regcnt] */\n      0x00\n        /* \"contracts/Auction.sol\":976:982  regcnt */\n      dup4\n        /* \"contracts/Auction.sol\":954:983  auctionBidderRegister[regcnt] */\n      dup2\n      mstore\n      0x20\n      add\n      swap1\n      dup2\n      mstore\n      0x20\n      add\n      0x00\n      keccak256\n        /* \"contracts/Auction.sol\":942:983  userblock = auctionBidderRegister[regcnt] */\n      mload(0x40)\n      dup1\n      0x40\n      add\n      0x40\n      mstore\n      swap1\n      dup2\n      0x00\n      dup3\n      add\n      dup1\n      sload\n      tag_119\n      swap1\n      tag_65\n      jump\t// in\n    tag_119:\n      dup1\n      0x1f\n      add\n      0x20\n      dup1\n      swap2\n      div\n      mul\n      0x20\n      add\n      mload(0x40)\n      swap1\n      dup2\n      add\n      0x40\n      mstore\n      dup1\n      swap3\n      swap2\n      swap1\n      dup2\n      dup2\n      mstore\n      0x20\n      add\n      dup3\n      dup1\n      sload\n      tag_120\n      swap1\n      tag_65\n      jump\t// in\n    tag_120:\n      dup1\n      iszero\n      tag_121\n      jumpi\n      dup1\n      0x1f\n      lt\n      tag_122\n      jumpi\n      0x0100\n      dup1\n      dup4\n      sload\n      div\n      mul\n      dup4\n      mstore\n      swap2\n      0x20\n      add\n      swap2\n      jump(tag_121)\n    tag_122:\n      dup3\n      add\n      swap2\n      swap1\n      0x00\n      mstore\n      keccak256(0x00, 0x20)\n      swap1\n    tag_123:\n      dup2\n      sload\n      dup2\n      mstore\n      swap1\n      0x01\n      add\n      swap1\n      0x20\n      add\n      dup1\n      dup4\n      gt\n      tag_123\n      jumpi\n      dup3\n      swap1\n      sub\n      0x1f\n      and\n      dup3\n      add\n      swap2\n    tag_121:\n      pop\n      pop\n      pop\n      pop\n      pop\n      dup2\n      mstore\n      0x20\n      add\n      0x01\n      dup3\n      add\n      0x00\n      swap1\n      sload\n      swap1\n      0x0100\n      exp\n      swap1\n      div\n      0xffffffffffffffffffffffffffffffffffffffff\n      and\n      0xffffffffffffffffffffffffffffffffffffffff\n      and\n      0xffffffffffffffffffffffffffffffffffffffff\n      and\n      dup2\n      mstore\n      pop\n      pop\n      swap3\n      pop\n        /* \"contracts/Auction.sol\":1026:1036  msg.sender */\n      caller\n        /* \"contracts/Auction.sol\":1002:1036  userblock.userWallet == msg.sender */\n      0xffffffffffffffffffffffffffffffffffffffff\n      and\n        /* \"contracts/Auction.sol\":1002:1011  userblock */\n      dup4\n        /* \"contracts/Auction.sol\":1002:1022  userblock.userWallet */\n      0x20\n      add\n      mload\n        /* \"contracts/Auction.sol\":1002:1036  userblock.userWallet == msg.sender */\n      0xffffffffffffffffffffffffffffffffffffffff\n      and\n      sub\n        /* \"contracts/Auction.sol\":998:1109  if (userblock.userWallet == msg.sender) {... */\n      tag_124\n      jumpi\n        /* \"contracts/Auction.sol\":1065:1069  true */\n      0x01\n        /* \"contracts/Auction.sol\":1057:1069  token = true */\n      swap1\n      pop\n        /* \"contracts/Auction.sol\":1088:1093  break */\n      jump(tag_118)\n        /* \"contracts/Auction.sol\":998:1109  if (userblock.userWallet == msg.sender) {... */\n    tag_124:\n        /* \"contracts/Auction.sol\":1123:1131  regcnt++ */\n      dup2\n      dup1\n      tag_125\n      swap1\n      tag_91\n      jump\t// in\n    tag_125:\n      swap3\n      pop\n      pop\n        /* \"contracts/Auction.sol\":904:1143  while (regcnt < regNo) {... */\n      jump(tag_117)\n    tag_118:\n        /* \"contracts/Auction.sol\":1170:1175  false */\n      0x00\n        /* \"contracts/Auction.sol\":1161:1175  token == false */\n      iszero\n      iszero\n        /* \"contracts/Auction.sol\":1161:1166  token */\n      dup2\n        /* \"contracts/Auction.sol\":1161:1175  token == false */\n      iszero\n      iszero\n      eq\n        /* \"contracts/Auction.sol\":1153:1223  require(token == false, \"Thank you, but you are already registered .\") */\n      tag_126\n      jumpi\n      mload(0x40)\n      0x08c379a000000000000000000000000000000000000000000000000000000000\n      dup2\n      mstore\n      0x04\n      add\n      tag_127\n      swap1\n      tag_128\n      jump\t// in\n    tag_127:\n      mload(0x40)\n      dup1\n      swap2\n      sub\n      swap1\n      revert\n    tag_126:\n        /* \"contracts/Auction.sol\":2946:2982  AdminUser(name, payable(msg.sender)) */\n      mload(0x40)\n      dup1\n      0x40\n      add\n      0x40\n      mstore\n      dup1\n        /* \"contracts/Auction.sol\":2956:2960  name */\n      dup6\n        /* \"contracts/Auction.sol\":2946:2982  AdminUser(name, payable(msg.sender)) */\n      dup2\n      mstore\n      0x20\n      add\n        /* \"contracts/Auction.sol\":2970:2980  msg.sender */\n      caller\n        /* \"contracts/Auction.sol\":2946:2982  AdminUser(name, payable(msg.sender)) */\n      0xffffffffffffffffffffffffffffffffffffffff\n      and\n      dup2\n      mstore\n      pop\n        /* \"contracts/Auction.sol\":2915:2936  auctionBidderRegister */\n      0x09\n        /* \"contracts/Auction.sol\":2915:2943  auctionBidderRegister[regNo] */\n      0x00\n        /* \"contracts/Auction.sol\":2937:2942  regNo */\n      sload(0x08)\n        /* \"contracts/Auction.sol\":2915:2943  auctionBidderRegister[regNo] */\n      dup2\n      mstore\n      0x20\n      add\n      swap1\n      dup2\n      mstore\n      0x20\n      add\n      0x00\n      keccak256\n        /* \"contracts/Auction.sol\":2915:2982  auctionBidderRegister[regNo] = AdminUser(name, payable(msg.sender)) */\n      0x00\n      dup3\n      add\n      mload\n      dup2\n      0x00\n      add\n      swap1\n      dup2\n      tag_130\n      swap2\n      swap1\n      tag_71\n      jump\t// in\n    tag_130:\n      pop\n      0x20\n      dup3\n      add\n      mload\n      dup2\n      0x01\n      add\n      exp(0x0100, 0x00)\n      dup2\n      sload\n      dup2\n      0xffffffffffffffffffffffffffffffffffffffff\n      mul\n      not\n      and\n      swap1\n      dup4\n      0xffffffffffffffffffffffffffffffffffffffff\n      and\n      mul\n      or\n      swap1\n      sstore\n      pop\n      swap1\n      pop\n      pop\n        /* \"contracts/Auction.sol\":2993:3009  gotoNextBidder() */\n      tag_131\n        /* \"contracts/Auction.sol\":2993:3007  gotoNextBidder */\n      tag_132\n        /* \"contracts/Auction.sol\":2993:3009  gotoNextBidder() */\n      jump\t// in\n    tag_131:\n        /* \"contracts/Auction.sol\":789:1243  {... */\n      pop\n      pop\n      pop\n        /* \"contracts/Auction.sol\":2765:3017  function BidderRegisterMaster(string memory name) public ... */\n      pop\n      jump\t// out\n        /* \"contracts/Auction.sol\":3510:3576  function gotoNextBlockchain() private {... */\n    tag_101:\n        /* \"contracts/Auction.sol\":3559:3566  chainNo */\n      0x0b\n      0x00\n        /* \"contracts/Auction.sol\":3559:3568  chainNo++ */\n      dup2\n      sload\n      dup1\n      swap3\n      swap2\n      swap1\n      tag_134\n      swap1\n      tag_91\n      jump\t// in\n    tag_134:\n      swap2\n      swap1\n      pop\n      sstore\n      pop\n        /* \"contracts/Auction.sol\":3510:3576  function gotoNextBlockchain() private {... */\n      jump\t// out\n        /* \"contracts/Auction.sol\":3442:3502  function gotoNextBidder() private {... */\n    tag_132:\n        /* \"contracts/Auction.sol\":3487:3492  regNo */\n      0x08\n      0x00\n        /* \"contracts/Auction.sol\":3487:3494  regNo++ */\n      dup2\n      sload\n      dup1\n      swap3\n      swap2\n      swap1\n      tag_136\n      swap1\n      tag_91\n      jump\t// in\n    tag_136:\n      swap2\n      swap1\n      pop\n      sstore\n      pop\n        /* \"contracts/Auction.sol\":3442:3502  function gotoNextBidder() private {... */\n      jump\t// out\n    tag_81:\n      mload(0x40)\n      dup1\n      0x40\n      add\n      0x40\n      mstore\n      dup1\n      0x60\n      dup2\n      mstore\n      0x20\n      add\n      and(0xffffffffffffffffffffffffffffffffffffffff, 0x00)\n      dup2\n      mstore\n      pop\n      swap1\n      jump\t// out\n        /* \"#utility.yul\":7:82   */\n    tag_137:\n        /* \"#utility.yul\":40:46   */\n      0x00\n        /* \"#utility.yul\":73:75   */\n      0x40\n        /* \"#utility.yul\":67:76   */\n      mload\n        /* \"#utility.yul\":57:76   */\n      swap1\n      pop\n        /* \"#utility.yul\":7:82   */\n      swap1\n      jump\t// out\n        /* \"#utility.yul\":88:205   */\n    tag_138:\n        /* \"#utility.yul\":197:198   */\n      0x00\n        /* \"#utility.yul\":194:195   */\n      dup1\n        /* \"#utility.yul\":187:199   */\n      revert\n        /* \"#utility.yul\":211:328   */\n    tag_139:\n        /* \"#utility.yul\":320:321   */\n      0x00\n        /* \"#utility.yul\":317:318   */\n      dup1\n        /* \"#utility.yul\":310:322   */\n      revert\n        /* \"#utility.yul\":334:411   */\n    tag_140:\n        /* \"#utility.yul\":371:378   */\n      0x00\n        /* \"#utility.yul\":400:405   */\n      dup2\n        /* \"#utility.yul\":389:405   */\n      swap1\n      pop\n        /* \"#utility.yul\":334:411   */\n      swap2\n      swap1\n      pop\n      jump\t// out\n        /* \"#utility.yul\":417:539   */\n    tag_141:\n        /* \"#utility.yul\":490:514   */\n      tag_202\n        /* \"#utility.yul\":508:513   */\n      dup2\n        /* \"#utility.yul\":490:514   */\n      tag_140\n      jump\t// in\n    tag_202:\n        /* \"#utility.yul\":483:488   */\n      dup2\n        /* \"#utility.yul\":480:515   */\n      eq\n        /* \"#utility.yul\":470:533   */\n      tag_203\n      jumpi\n        /* \"#utility.yul\":529:530   */\n      0x00\n        /* \"#utility.yul\":526:527   */\n      dup1\n        /* \"#utility.yul\":519:531   */\n      revert\n        /* \"#utility.yul\":470:533   */\n    tag_203:\n        /* \"#utility.yul\":417:539   */\n      pop\n      jump\t// out\n        /* \"#utility.yul\":545:684   */\n    tag_142:\n        /* \"#utility.yul\":591:596   */\n      0x00\n        /* \"#utility.yul\":629:635   */\n      dup2\n        /* \"#utility.yul\":616:636   */\n      calldataload\n        /* \"#utility.yul\":607:636   */\n      swap1\n      pop\n        /* \"#utility.yul\":645:678   */\n      tag_205\n        /* \"#utility.yul\":672:677   */\n      dup2\n        /* \"#utility.yul\":645:678   */\n      tag_141\n      jump\t// in\n    tag_205:\n        /* \"#utility.yul\":545:684   */\n      swap3\n      swap2\n      pop\n      pop\n      jump\t// out\n        /* \"#utility.yul\":690:1019   */\n    tag_18:\n        /* \"#utility.yul\":749:755   */\n      0x00\n        /* \"#utility.yul\":798:800   */\n      0x20\n        /* \"#utility.yul\":786:795   */\n      dup3\n        /* \"#utility.yul\":777:784   */\n      dup5\n        /* \"#utility.yul\":773:796   */\n      sub\n        /* \"#utility.yul\":769:801   */\n      slt\n        /* \"#utility.yul\":766:885   */\n      iszero\n      tag_207\n      jumpi\n        /* \"#utility.yul\":804:883   */\n      tag_208\n      tag_138\n      jump\t// in\n    tag_208:\n        /* \"#utility.yul\":766:885   */\n    tag_207:\n        /* \"#utility.yul\":924:925   */\n      0x00\n        /* \"#utility.yul\":949:1002   */\n      tag_209\n        /* \"#utility.yul\":994:1001   */\n      dup5\n        /* \"#utility.yul\":985:991   */\n      dup3\n        /* \"#utility.yul\":974:983   */\n      dup6\n        /* \"#utility.yul\":970:992   */\n      add\n        /* \"#utility.yul\":949:1002   */\n      tag_142\n      jump\t// in\n    tag_209:\n        /* \"#utility.yul\":939:1002   */\n      swap2\n      pop\n        /* \"#utility.yul\":895:1012   */\n      pop\n        /* \"#utility.yul\":690:1019   */\n      swap3\n      swap2\n      pop\n      pop\n      jump\t// out\n        /* \"#utility.yul\":1025:1124   */\n    tag_143:\n        /* \"#utility.yul\":1077:1083   */\n      0x00\n        /* \"#utility.yul\":1111:1116   */\n      dup2\n        /* \"#utility.yul\":1105:1117   */\n      mload\n        /* \"#utility.yul\":1095:1117   */\n      swap1\n      pop\n        /* \"#utility.yul\":1025:1124   */\n      swap2\n      swap1\n      pop\n      jump\t// out\n        /* \"#utility.yul\":1130:1299   */\n    tag_144:\n        /* \"#utility.yul\":1214:1225   */\n      0x00\n        /* \"#utility.yul\":1248:1254   */\n      dup3\n        /* \"#utility.yul\":1243:1246   */\n      dup3\n        /* \"#utility.yul\":1236:1255   */\n      mstore\n        /* \"#utility.yul\":1288:1292   */\n      0x20\n        /* \"#utility.yul\":1283:1286   */\n      dup3\n        /* \"#utility.yul\":1279:1293   */\n      add\n        /* \"#utility.yul\":1264:1293   */\n      swap1\n      pop\n        /* \"#utility.yul\":1130:1299   */\n      swap3\n      swap2\n      pop\n      pop\n      jump\t// out\n        /* \"#utility.yul\":1305:1444   */\n    tag_145:\n        /* \"#utility.yul\":1394:1400   */\n      dup3\n        /* \"#utility.yul\":1389:1392   */\n      dup2\n        /* \"#utility.yul\":1384:1387   */\n      dup4\n        /* \"#utility.yul\":1378:1401   */\n      mcopy\n        /* \"#utility.yul\":1435:1436   */\n      0x00\n        /* \"#utility.yul\":1426:1432   */\n      dup4\n        /* \"#utility.yul\":1421:1424   */\n      dup4\n        /* \"#utility.yul\":1417:1433   */\n      add\n        /* \"#utility.yul\":1410:1437   */\n      mstore\n        /* \"#utility.yul\":1305:1444   */\n      pop\n      pop\n      pop\n      jump\t// out\n        /* \"#utility.yul\":1450:1552   */\n    tag_146:\n        /* \"#utility.yul\":1491:1497   */\n      0x00\n        /* \"#utility.yul\":1542:1544   */\n      0x1f\n        /* \"#utility.yul\":1538:1545   */\n      not\n        /* \"#utility.yul\":1533:1535   */\n      0x1f\n        /* \"#utility.yul\":1526:1531   */\n      dup4\n        /* \"#utility.yul\":1522:1536   */\n      add\n        /* \"#utility.yul\":1518:1546   */\n      and\n        /* \"#utility.yul\":1508:1546   */\n      swap1\n      pop\n        /* \"#utility.yul\":1450:1552   */\n      swap2\n      swap1\n      pop\n      jump\t// out\n        /* \"#utility.yul\":1558:1935   */\n    tag_147:\n        /* \"#utility.yul\":1646:1649   */\n      0x00\n        /* \"#utility.yul\":1674:1713   */\n      tag_215\n        /* \"#utility.yul\":1707:1712   */\n      dup3\n        /* \"#utility.yul\":1674:1713   */\n      tag_143\n      jump\t// in\n    tag_215:\n        /* \"#utility.yul\":1729:1800   */\n      tag_216\n        /* \"#utility.yul\":1793:1799   */\n      dup2\n        /* \"#utility.yul\":1788:1791   */\n      dup6\n        /* \"#utility.yul\":1729:1800   */\n      tag_144\n      jump\t// in\n    tag_216:\n        /* \"#utility.yul\":1722:1800   */\n      swap4\n      pop\n        /* \"#utility.yul\":1809:1874   */\n      tag_217\n        /* \"#utility.yul\":1867:1873   */\n      dup2\n        /* \"#utility.yul\":1862:1865   */\n      dup6\n        /* \"#utility.yul\":1855:1859   */\n      0x20\n        /* \"#utility.yul\":1848:1853   */\n      dup7\n        /* \"#utility.yul\":1844:1860   */\n      add\n        /* \"#utility.yul\":1809:1874   */\n      tag_145\n      jump\t// in\n    tag_217:\n        /* \"#utility.yul\":1899:1928   */\n      tag_218\n        /* \"#utility.yul\":1921:1927   */\n      dup2\n        /* \"#utility.yul\":1899:1928   */\n      tag_146\n      jump\t// in\n    tag_218:\n        /* \"#utility.yul\":1894:1897   */\n      dup5\n        /* \"#utility.yul\":1890:1929   */\n      add\n        /* \"#utility.yul\":1883:1929   */\n      swap2\n      pop\n        /* \"#utility.yul\":1650:1935   */\n      pop\n        /* \"#utility.yul\":1558:1935   */\n      swap3\n      swap2\n      pop\n      pop\n      jump\t// out\n        /* \"#utility.yul\":1941:2059   */\n    tag_148:\n        /* \"#utility.yul\":2028:2052   */\n      tag_220\n        /* \"#utility.yul\":2046:2051   */\n      dup2\n        /* \"#utility.yul\":2028:2052   */\n      tag_140\n      jump\t// in\n    tag_220:\n        /* \"#utility.yul\":2023:2026   */\n      dup3\n        /* \"#utility.yul\":2016:2053   */\n      mstore\n        /* \"#utility.yul\":1941:2059   */\n      pop\n      pop\n      jump\t// out\n        /* \"#utility.yul\":2065:2155   */\n    tag_149:\n        /* \"#utility.yul\":2099:2106   */\n      0x00\n        /* \"#utility.yul\":2142:2147   */\n      dup2\n        /* \"#utility.yul\":2135:2148   */\n      iszero\n        /* \"#utility.yul\":2128:2149   */\n      iszero\n        /* \"#utility.yul\":2117:2149   */\n      swap1\n      pop\n        /* \"#utility.yul\":2065:2155   */\n      swap2\n      swap1\n      pop\n      jump\t// out\n        /* \"#utility.yul\":2161:2270   */\n    tag_150:\n        /* \"#utility.yul\":2242:2263   */\n      tag_223\n        /* \"#utility.yul\":2257:2262   */\n      dup2\n        /* \"#utility.yul\":2242:2263   */\n      tag_149\n      jump\t// in\n    tag_223:\n        /* \"#utility.yul\":2237:2240   */\n      dup3\n        /* \"#utility.yul\":2230:2264   */\n      mstore\n        /* \"#utility.yul\":2161:2270   */\n      pop\n      pop\n      jump\t// out\n        /* \"#utility.yul\":2276:2797   */\n    tag_24:\n        /* \"#utility.yul\":2439:2443   */\n      0x00\n        /* \"#utility.yul\":2477:2479   */\n      0x60\n        /* \"#utility.yul\":2466:2475   */\n      dup3\n        /* \"#utility.yul\":2462:2480   */\n      add\n        /* \"#utility.yul\":2454:2480   */\n      swap1\n      pop\n        /* \"#utility.yul\":2526:2535   */\n      dup2\n        /* \"#utility.yul\":2520:2524   */\n      dup2\n        /* \"#utility.yul\":2516:2536   */\n      sub\n        /* \"#utility.yul\":2512:2513   */\n      0x00\n        /* \"#utility.yul\":2501:2510   */\n      dup4\n        /* \"#utility.yul\":2497:2514   */\n      add\n        /* \"#utility.yul\":2490:2537   */\n      mstore\n        /* \"#utility.yul\":2554:2632   */\n      tag_225\n        /* \"#utility.yul\":2627:2631   */\n      dup2\n        /* \"#utility.yul\":2618:2624   */\n      dup7\n        /* \"#utility.yul\":2554:2632   */\n      tag_147\n      jump\t// in\n    tag_225:\n        /* \"#utility.yul\":2546:2632   */\n      swap1\n      pop\n        /* \"#utility.yul\":2642:2714   */\n      tag_226\n        /* \"#utility.yul\":2710:2712   */\n      0x20\n        /* \"#utility.yul\":2699:2708   */\n      dup4\n        /* \"#utility.yul\":2695:2713   */\n      add\n        /* \"#utility.yul\":2686:2692   */\n      dup6\n        /* \"#utility.yul\":2642:2714   */\n      tag_148\n      jump\t// in\n    tag_226:\n        /* \"#utility.yul\":2724:2790   */\n      tag_227\n        /* \"#utility.yul\":2786:2788   */\n      0x40\n        /* \"#utility.yul\":2775:2784   */\n      dup4\n        /* \"#utility.yul\":2771:2789   */\n      add\n        /* \"#utility.yul\":2762:2768   */\n      dup5\n        /* \"#utility.yul\":2724:2790   */\n      tag_150\n      jump\t// in\n    tag_227:\n        /* \"#utility.yul\":2276:2797   */\n      swap5\n      swap4\n      pop\n      pop\n      pop\n      pop\n      jump\t// out\n        /* \"#utility.yul\":2803:2920   */\n    tag_151:\n        /* \"#utility.yul\":2912:2913   */\n      0x00\n        /* \"#utility.yul\":2909:2910   */\n      dup1\n        /* \"#utility.yul\":2902:2914   */\n      revert\n        /* \"#utility.yul\":2926:3043   */\n    tag_152:\n        /* \"#utility.yul\":3035:3036   */\n      0x00\n        /* \"#utility.yul\":3032:3033   */\n      dup1\n        /* \"#utility.yul\":3025:3037   */\n      revert\n        /* \"#utility.yul\":3049:3229   */\n    tag_153:\n        /* \"#utility.yul\":3097:3174   */\n      0x4e487b7100000000000000000000000000000000000000000000000000000000\n        /* \"#utility.yul\":3094:3095   */\n      0x00\n        /* \"#utility.yul\":3087:3175   */\n      mstore\n        /* \"#utility.yul\":3194:3198   */\n      0x41\n        /* \"#utility.yul\":3191:3192   */\n      0x04\n        /* \"#utility.yul\":3184:3199   */\n      mstore\n        /* \"#utility.yul\":3218:3222   */\n      0x24\n        /* \"#utility.yul\":3215:3216   */\n      0x00\n        /* \"#utility.yul\":3208:3223   */\n      revert\n        /* \"#utility.yul\":3235:3516   */\n    tag_154:\n        /* \"#utility.yul\":3318:3345   */\n      tag_232\n        /* \"#utility.yul\":3340:3344   */\n      dup3\n        /* \"#utility.yul\":3318:3345   */\n      tag_146\n      jump\t// in\n    tag_232:\n        /* \"#utility.yul\":3310:3316   */\n      dup2\n        /* \"#utility.yul\":3306:3346   */\n      add\n        /* \"#utility.yul\":3448:3454   */\n      dup2\n        /* \"#utility.yul\":3436:3446   */\n      dup2\n        /* \"#utility.yul\":3433:3455   */\n      lt\n        /* \"#utility.yul\":3412:3430   */\n      0xffffffffffffffff\n        /* \"#utility.yul\":3400:3410   */\n      dup3\n        /* \"#utility.yul\":3397:3431   */\n      gt\n        /* \"#utility.yul\":3394:3456   */\n      or\n        /* \"#utility.yul\":3391:3479   */\n      iszero\n      tag_233\n      jumpi\n        /* \"#utility.yul\":3459:3477   */\n      tag_234\n      tag_153\n      jump\t// in\n    tag_234:\n        /* \"#utility.yul\":3391:3479   */\n    tag_233:\n        /* \"#utility.yul\":3499:3509   */\n      dup1\n        /* \"#utility.yul\":3495:3497   */\n      0x40\n        /* \"#utility.yul\":3488:3510   */\n      mstore\n        /* \"#utility.yul\":3278:3516   */\n      pop\n        /* \"#utility.yul\":3235:3516   */\n      pop\n      pop\n      jump\t// out\n        /* \"#utility.yul\":3522:3651   */\n    tag_155:\n        /* \"#utility.yul\":3556:3562   */\n      0x00\n        /* \"#utility.yul\":3583:3603   */\n      tag_236\n      tag_137\n      jump\t// in\n    tag_236:\n        /* \"#utility.yul\":3573:3603   */\n      swap1\n      pop\n        /* \"#utility.yul\":3612:3645   */\n      tag_237\n        /* \"#utility.yul\":3640:3644   */\n      dup3\n        /* \"#utility.yul\":3632:3638   */\n      dup3\n        /* \"#utility.yul\":3612:3645   */\n      tag_154\n      jump\t// in\n    tag_237:\n        /* \"#utility.yul\":3522:3651   */\n      swap2\n      swap1\n      pop\n      jump\t// out\n        /* \"#utility.yul\":3657:3965   */\n    tag_156:\n        /* \"#utility.yul\":3719:3723   */\n      0x00\n        /* \"#utility.yul\":3809:3827   */\n      0xffffffffffffffff\n        /* \"#utility.yul\":3801:3807   */\n      dup3\n        /* \"#utility.yul\":3798:3828   */\n      gt\n        /* \"#utility.yul\":3795:3851   */\n      iszero\n      tag_239\n      jumpi\n        /* \"#utility.yul\":3831:3849   */\n      tag_240\n      tag_153\n      jump\t// in\n    tag_240:\n        /* \"#utility.yul\":3795:3851   */\n    tag_239:\n        /* \"#utility.yul\":3869:3898   */\n      tag_241\n        /* \"#utility.yul\":3891:3897   */\n      dup3\n        /* \"#utility.yul\":3869:3898   */\n      tag_146\n      jump\t// in\n    tag_241:\n        /* \"#utility.yul\":3861:3898   */\n      swap1\n      pop\n        /* \"#utility.yul\":3953:3957   */\n      0x20\n        /* \"#utility.yul\":3947:3951   */\n      dup2\n        /* \"#utility.yul\":3943:3958   */\n      add\n        /* \"#utility.yul\":3935:3958   */\n      swap1\n      pop\n        /* \"#utility.yul\":3657:3965   */\n      swap2\n      swap1\n      pop\n      jump\t// out\n        /* \"#utility.yul\":3971:4119   */\n    tag_157:\n        /* \"#utility.yul\":4069:4075   */\n      dup3\n        /* \"#utility.yul\":4064:4067   */\n      dup2\n        /* \"#utility.yul\":4059:4062   */\n      dup4\n        /* \"#utility.yul\":4046:4076   */\n      calldatacopy\n        /* \"#utility.yul\":4110:4111   */\n      0x00\n        /* \"#utility.yul\":4101:4107   */\n      dup4\n        /* \"#utility.yul\":4096:4099   */\n      dup4\n        /* \"#utility.yul\":4092:4108   */\n      add\n        /* \"#utility.yul\":4085:4112   */\n      mstore\n        /* \"#utility.yul\":3971:4119   */\n      pop\n      pop\n      pop\n      jump\t// out\n        /* \"#utility.yul\":4125:4550   */\n    tag_158:\n        /* \"#utility.yul\":4203:4208   */\n      0x00\n        /* \"#utility.yul\":4228:4294   */\n      tag_244\n        /* \"#utility.yul\":4244:4293   */\n      tag_245\n        /* \"#utility.yul\":4286:4292   */\n      dup5\n        /* \"#utility.yul\":4244:4293   */\n      tag_156\n      jump\t// in\n    tag_245:\n        /* \"#utility.yul\":4228:4294   */\n      tag_155\n      jump\t// in\n    tag_244:\n        /* \"#utility.yul\":4219:4294   */\n      swap1\n      pop\n        /* \"#utility.yul\":4317:4323   */\n      dup3\n        /* \"#utility.yul\":4310:4315   */\n      dup2\n        /* \"#utility.yul\":4303:4324   */\n      mstore\n        /* \"#utility.yul\":4355:4359   */\n      0x20\n        /* \"#utility.yul\":4348:4353   */\n      dup2\n        /* \"#utility.yul\":4344:4360   */\n      add\n        /* \"#utility.yul\":4393:4396   */\n      dup5\n        /* \"#utility.yul\":4384:4390   */\n      dup5\n        /* \"#utility.yul\":4379:4382   */\n      dup5\n        /* \"#utility.yul\":4375:4391   */\n      add\n        /* \"#utility.yul\":4372:4397   */\n      gt\n        /* \"#utility.yul\":4369:4481   */\n      iszero\n      tag_246\n      jumpi\n        /* \"#utility.yul\":4400:4479   */\n      tag_247\n      tag_152\n      jump\t// in\n    tag_247:\n        /* \"#utility.yul\":4369:4481   */\n    tag_246:\n        /* \"#utility.yul\":4490:4544   */\n      tag_248\n        /* \"#utility.yul\":4537:4543   */\n      dup5\n        /* \"#utility.yul\":4532:4535   */\n      dup3\n        /* \"#utility.yul\":4527:4530   */\n      dup6\n        /* \"#utility.yul\":4490:4544   */\n      tag_157\n      jump\t// in\n    tag_248:\n        /* \"#utility.yul\":4209:4550   */\n      pop\n        /* \"#utility.yul\":4125:4550   */\n      swap4\n      swap3\n      pop\n      pop\n      pop\n      jump\t// out\n        /* \"#utility.yul\":4570:4910   */\n    tag_159:\n        /* \"#utility.yul\":4626:4631   */\n      0x00\n        /* \"#utility.yul\":4675:4678   */\n      dup3\n        /* \"#utility.yul\":4668:4672   */\n      0x1f\n        /* \"#utility.yul\":4660:4666   */\n      dup4\n        /* \"#utility.yul\":4656:4673   */\n      add\n        /* \"#utility.yul\":4652:4679   */\n      slt\n        /* \"#utility.yul\":4642:4764   */\n      tag_250\n      jumpi\n        /* \"#utility.yul\":4683:4762   */\n      tag_251\n      tag_151\n      jump\t// in\n    tag_251:\n        /* \"#utility.yul\":4642:4764   */\n    tag_250:\n        /* \"#utility.yul\":4800:4806   */\n      dup2\n        /* \"#utility.yul\":4787:4807   */\n      calldataload\n        /* \"#utility.yul\":4825:4904   */\n      tag_252\n        /* \"#utility.yul\":4900:4903   */\n      dup5\n        /* \"#utility.yul\":4892:4898   */\n      dup3\n        /* \"#utility.yul\":4885:4889   */\n      0x20\n        /* \"#utility.yul\":4877:4883   */\n      dup7\n        /* \"#utility.yul\":4873:4890   */\n      add\n        /* \"#utility.yul\":4825:4904   */\n      tag_158\n      jump\t// in\n    tag_252:\n        /* \"#utility.yul\":4816:4904   */\n      swap2\n      pop\n        /* \"#utility.yul\":4632:4910   */\n      pop\n        /* \"#utility.yul\":4570:4910   */\n      swap3\n      swap2\n      pop\n      pop\n      jump\t// out\n        /* \"#utility.yul\":4916:5570   */\n    tag_28:\n        /* \"#utility.yul\":4994:5000   */\n      0x00\n        /* \"#utility.yul\":5002:5008   */\n      dup1\n        /* \"#utility.yul\":5051:5053   */\n      0x40\n        /* \"#utility.yul\":5039:5048   */\n      dup4\n        /* \"#utility.yul\":5030:5037   */\n      dup6\n        /* \"#utility.yul\":5026:5049   */\n      sub\n        /* \"#utility.yul\":5022:5054   */\n      slt\n        /* \"#utility.yul\":5019:5138   */\n      iszero\n      tag_254\n      jumpi\n        /* \"#utility.yul\":5057:5136   */\n      tag_255\n      tag_138\n      jump\t// in\n    tag_255:\n        /* \"#utility.yul\":5019:5138   */\n    tag_254:\n        /* \"#utility.yul\":5205:5206   */\n      0x00\n        /* \"#utility.yul\":5194:5203   */\n      dup4\n        /* \"#utility.yul\":5190:5207   */\n      add\n        /* \"#utility.yul\":5177:5208   */\n      calldataload\n        /* \"#utility.yul\":5235:5253   */\n      0xffffffffffffffff\n        /* \"#utility.yul\":5227:5233   */\n      dup2\n        /* \"#utility.yul\":5224:5254   */\n      gt\n        /* \"#utility.yul\":5221:5338   */\n      iszero\n      tag_256\n      jumpi\n        /* \"#utility.yul\":5257:5336   */\n      tag_257\n      tag_139\n      jump\t// in\n    tag_257:\n        /* \"#utility.yul\":5221:5338   */\n    tag_256:\n        /* \"#utility.yul\":5362:5425   */\n      tag_258\n        /* \"#utility.yul\":5417:5424   */\n      dup6\n        /* \"#utility.yul\":5408:5414   */\n      dup3\n        /* \"#utility.yul\":5397:5406   */\n      dup7\n        /* \"#utility.yul\":5393:5415   */\n      add\n        /* \"#utility.yul\":5362:5425   */\n      tag_159\n      jump\t// in\n    tag_258:\n        /* \"#utility.yul\":5352:5425   */\n      swap3\n      pop\n        /* \"#utility.yul\":5148:5435   */\n      pop\n        /* \"#utility.yul\":5474:5476   */\n      0x20\n        /* \"#utility.yul\":5500:5553   */\n      tag_259\n        /* \"#utility.yul\":5545:5552   */\n      dup6\n        /* \"#utility.yul\":5536:5542   */\n      dup3\n        /* \"#utility.yul\":5525:5534   */\n      dup7\n        /* \"#utility.yul\":5521:5543   */\n      add\n        /* \"#utility.yul\":5500:5553   */\n      tag_142\n      jump\t// in\n    tag_259:\n        /* \"#utility.yul\":5490:5553   */\n      swap2\n      pop\n        /* \"#utility.yul\":5445:5563   */\n      pop\n        /* \"#utility.yul\":4916:5570   */\n      swap3\n      pop\n      swap3\n      swap1\n      pop\n      jump\t// out\n        /* \"#utility.yul\":5576:5702   */\n    tag_160:\n        /* \"#utility.yul\":5613:5620   */\n      0x00\n        /* \"#utility.yul\":5653:5695   */\n      0xffffffffffffffffffffffffffffffffffffffff\n        /* \"#utility.yul\":5646:5651   */\n      dup3\n        /* \"#utility.yul\":5642:5696   */\n      and\n        /* \"#utility.yul\":5631:5696   */\n      swap1\n      pop\n        /* \"#utility.yul\":5576:5702   */\n      swap2\n      swap1\n      pop\n      jump\t// out\n        /* \"#utility.yul\":5708:5804   */\n    tag_161:\n        /* \"#utility.yul\":5745:5752   */\n      0x00\n        /* \"#utility.yul\":5774:5798   */\n      tag_262\n        /* \"#utility.yul\":5792:5797   */\n      dup3\n        /* \"#utility.yul\":5774:5798   */\n      tag_160\n      jump\t// in\n    tag_262:\n        /* \"#utility.yul\":5763:5798   */\n      swap1\n      pop\n        /* \"#utility.yul\":5708:5804   */\n      swap2\n      swap1\n      pop\n      jump\t// out\n        /* \"#utility.yul\":5810:5928   */\n    tag_162:\n        /* \"#utility.yul\":5897:5921   */\n      tag_264\n        /* \"#utility.yul\":5915:5920   */\n      dup2\n        /* \"#utility.yul\":5897:5921   */\n      tag_161\n      jump\t// in\n    tag_264:\n        /* \"#utility.yul\":5892:5895   */\n      dup3\n        /* \"#utility.yul\":5885:5922   */\n      mstore\n        /* \"#utility.yul\":5810:5928   */\n      pop\n      pop\n      jump\t// out\n        /* \"#utility.yul\":5934:6266   */\n    tag_34:\n        /* \"#utility.yul\":6055:6059   */\n      0x00\n        /* \"#utility.yul\":6093:6095   */\n      0x40\n        /* \"#utility.yul\":6082:6091   */\n      dup3\n        /* \"#utility.yul\":6078:6096   */\n      add\n        /* \"#utility.yul\":6070:6096   */\n      swap1\n      pop\n        /* \"#utility.yul\":6106:6177   */\n      tag_266\n        /* \"#utility.yul\":6174:6175   */\n      0x00\n        /* \"#utility.yul\":6163:6172   */\n      dup4\n        /* \"#utility.yul\":6159:6176   */\n      add\n        /* \"#utility.yul\":6150:6156   */\n      dup6\n        /* \"#utility.yul\":6106:6177   */\n      tag_162\n      jump\t// in\n    tag_266:\n        /* \"#utility.yul\":6187:6259   */\n      tag_267\n        /* \"#utility.yul\":6255:6257   */\n      0x20\n        /* \"#utility.yul\":6244:6253   */\n      dup4\n        /* \"#utility.yul\":6240:6258   */\n      add\n        /* \"#utility.yul\":6231:6237   */\n      dup5\n        /* \"#utility.yul\":6187:6259   */\n      tag_148\n      jump\t// in\n    tag_267:\n        /* \"#utility.yul\":5934:6266   */\n      swap4\n      swap3\n      pop\n      pop\n      pop\n      jump\t// out\n        /* \"#utility.yul\":6272:6781   */\n    tag_38:\n        /* \"#utility.yul\":6341:6347   */\n      0x00\n        /* \"#utility.yul\":6390:6392   */\n      0x20\n        /* \"#utility.yul\":6378:6387   */\n      dup3\n        /* \"#utility.yul\":6369:6376   */\n      dup5\n        /* \"#utility.yul\":6365:6388   */\n      sub\n        /* \"#utility.yul\":6361:6393   */\n      slt\n        /* \"#utility.yul\":6358:6477   */\n      iszero\n      tag_269\n      jumpi\n        /* \"#utility.yul\":6396:6475   */\n      tag_270\n      tag_138\n      jump\t// in\n    tag_270:\n        /* \"#utility.yul\":6358:6477   */\n    tag_269:\n        /* \"#utility.yul\":6544:6545   */\n      0x00\n        /* \"#utility.yul\":6533:6542   */\n      dup3\n        /* \"#utility.yul\":6529:6546   */\n      add\n        /* \"#utility.yul\":6516:6547   */\n      calldataload\n        /* \"#utility.yul\":6574:6592   */\n      0xffffffffffffffff\n        /* \"#utility.yul\":6566:6572   */\n      dup2\n        /* \"#utility.yul\":6563:6593   */\n      gt\n        /* \"#utility.yul\":6560:6677   */\n      iszero\n      tag_271\n      jumpi\n        /* \"#utility.yul\":6596:6675   */\n      tag_272\n      tag_139\n      jump\t// in\n    tag_272:\n        /* \"#utility.yul\":6560:6677   */\n    tag_271:\n        /* \"#utility.yul\":6701:6764   */\n      tag_273\n        /* \"#utility.yul\":6756:6763   */\n      dup5\n        /* \"#utility.yul\":6747:6753   */\n      dup3\n        /* \"#utility.yul\":6736:6745   */\n      dup6\n        /* \"#utility.yul\":6732:6754   */\n      add\n        /* \"#utility.yul\":6701:6764   */\n      tag_159\n      jump\t// in\n    tag_273:\n        /* \"#utility.yul\":6691:6764   */\n      swap2\n      pop\n        /* \"#utility.yul\":6487:6774   */\n      pop\n        /* \"#utility.yul\":6272:6781   */\n      swap3\n      swap2\n      pop\n      pop\n      jump\t// out\n        /* \"#utility.yul\":6787:7014   */\n    tag_163:\n        /* \"#utility.yul\":6927:6961   */\n      0x4f6e6c79207061727469636970616e74732063616e2074616b65207061727420\n        /* \"#utility.yul\":6923:6924   */\n      0x00\n        /* \"#utility.yul\":6915:6921   */\n      dup3\n        /* \"#utility.yul\":6911:6925   */\n      add\n        /* \"#utility.yul\":6904:6962   */\n      mstore\n        /* \"#utility.yul\":6996:7006   */\n      0x696e206120626964000000000000000000000000000000000000000000000000\n        /* \"#utility.yul\":6991:6993   */\n      0x20\n        /* \"#utility.yul\":6983:6989   */\n      dup3\n        /* \"#utility.yul\":6979:6994   */\n      add\n        /* \"#utility.yul\":6972:7007   */\n      mstore\n        /* \"#utility.yul\":6787:7014   */\n      pop\n      jump\t// out\n        /* \"#utility.yul\":7020:7386   */\n    tag_164:\n        /* \"#utility.yul\":7162:7165   */\n      0x00\n        /* \"#utility.yul\":7183:7250   */\n      tag_276\n        /* \"#utility.yul\":7247:7249   */\n      0x28\n        /* \"#utility.yul\":7242:7245   */\n      dup4\n        /* \"#utility.yul\":7183:7250   */\n      tag_144\n      jump\t// in\n    tag_276:\n        /* \"#utility.yul\":7176:7250   */\n      swap2\n      pop\n        /* \"#utility.yul\":7259:7352   */\n      tag_277\n        /* \"#utility.yul\":7348:7351   */\n      dup3\n        /* \"#utility.yul\":7259:7352   */\n      tag_163\n      jump\t// in\n    tag_277:\n        /* \"#utility.yul\":7377:7379   */\n      0x40\n        /* \"#utility.yul\":7372:7375   */\n      dup3\n        /* \"#utility.yul\":7368:7380   */\n      add\n        /* \"#utility.yul\":7361:7380   */\n      swap1\n      pop\n        /* \"#utility.yul\":7020:7386   */\n      swap2\n      swap1\n      pop\n      jump\t// out\n        /* \"#utility.yul\":7392:7811   */\n    tag_43:\n        /* \"#utility.yul\":7558:7562   */\n      0x00\n        /* \"#utility.yul\":7596:7598   */\n      0x20\n        /* \"#utility.yul\":7585:7594   */\n      dup3\n        /* \"#utility.yul\":7581:7599   */\n      add\n        /* \"#utility.yul\":7573:7599   */\n      swap1\n      pop\n        /* \"#utility.yul\":7645:7654   */\n      dup2\n        /* \"#utility.yul\":7639:7643   */\n      dup2\n        /* \"#utility.yul\":7635:7655   */\n      sub\n        /* \"#utility.yul\":7631:7632   */\n      0x00\n        /* \"#utility.yul\":7620:7629   */\n      dup4\n        /* \"#utility.yul\":7616:7633   */\n      add\n        /* \"#utility.yul\":7609:7656   */\n      mstore\n        /* \"#utility.yul\":7673:7804   */\n      tag_279\n        /* \"#utility.yul\":7799:7803   */\n      dup2\n        /* \"#utility.yul\":7673:7804   */\n      tag_164\n      jump\t// in\n    tag_279:\n        /* \"#utility.yul\":7665:7804   */\n      swap1\n      pop\n        /* \"#utility.yul\":7392:7811   */\n      swap2\n      swap1\n      pop\n      jump\t// out\n        /* \"#utility.yul\":7817:8044   */\n    tag_165:\n        /* \"#utility.yul\":7957:7991   */\n      0x52652d636865636b20746865204269642057696e6e657227732077616c6c6574\n        /* \"#utility.yul\":7953:7954   */\n      0x00\n        /* \"#utility.yul\":7945:7951   */\n      dup3\n        /* \"#utility.yul\":7941:7955   */\n      add\n        /* \"#utility.yul\":7934:7992   */\n      mstore\n        /* \"#utility.yul\":8026:8036   */\n      0x2061646472657373000000000000000000000000000000000000000000000000\n        /* \"#utility.yul\":8021:8023   */\n      0x20\n        /* \"#utility.yul\":8013:8019   */\n      dup3\n        /* \"#utility.yul\":8009:8024   */\n      add\n        /* \"#utility.yul\":8002:8037   */\n      mstore\n        /* \"#utility.yul\":7817:8044   */\n      pop\n      jump\t// out\n        /* \"#utility.yul\":8050:8416   */\n    tag_166:\n        /* \"#utility.yul\":8192:8195   */\n      0x00\n        /* \"#utility.yul\":8213:8280   */\n      tag_282\n        /* \"#utility.yul\":8277:8279   */\n      0x28\n        /* \"#utility.yul\":8272:8275   */\n      dup4\n        /* \"#utility.yul\":8213:8280   */\n      tag_144\n      jump\t// in\n    tag_282:\n        /* \"#utility.yul\":8206:8280   */\n      swap2\n      pop\n        /* \"#utility.yul\":8289:8382   */\n      tag_283\n        /* \"#utility.yul\":8378:8381   */\n      dup3\n        /* \"#utility.yul\":8289:8382   */\n      tag_165\n      jump\t// in\n    tag_283:\n        /* \"#utility.yul\":8407:8409   */\n      0x40\n        /* \"#utility.yul\":8402:8405   */\n      dup3\n        /* \"#utility.yul\":8398:8410   */\n      add\n        /* \"#utility.yul\":8391:8410   */\n      swap1\n      pop\n        /* \"#utility.yul\":8050:8416   */\n      swap2\n      swap1\n      pop\n      jump\t// out\n        /* \"#utility.yul\":8422:8841   */\n    tag_47:\n        /* \"#utility.yul\":8588:8592   */\n      0x00\n        /* \"#utility.yul\":8626:8628   */\n      0x20\n        /* \"#utility.yul\":8615:8624   */\n      dup3\n        /* \"#utility.yul\":8611:8629   */\n      add\n        /* \"#utility.yul\":8603:8629   */\n      swap1\n      pop\n        /* \"#utility.yul\":8675:8684   */\n      dup2\n        /* \"#utility.yul\":8669:8673   */\n      dup2\n        /* \"#utility.yul\":8665:8685   */\n      sub\n        /* \"#utility.yul\":8661:8662   */\n      0x00\n        /* \"#utility.yul\":8650:8659   */\n      dup4\n        /* \"#utility.yul\":8646:8663   */\n      add\n        /* \"#utility.yul\":8639:8686   */\n      mstore\n        /* \"#utility.yul\":8703:8834   */\n      tag_285\n        /* \"#utility.yul\":8829:8833   */\n      dup2\n        /* \"#utility.yul\":8703:8834   */\n      tag_166\n      jump\t// in\n    tag_285:\n        /* \"#utility.yul\":8695:8834   */\n      swap1\n      pop\n        /* \"#utility.yul\":8422:8841   */\n      swap2\n      swap1\n      pop\n      jump\t// out\n        /* \"#utility.yul\":8847:9027   */\n    tag_167:\n        /* \"#utility.yul\":8895:8972   */\n      0x4e487b7100000000000000000000000000000000000000000000000000000000\n        /* \"#utility.yul\":8892:8893   */\n      0x00\n        /* \"#utility.yul\":8885:8973   */\n      mstore\n        /* \"#utility.yul\":8992:8996   */\n      0x11\n        /* \"#utility.yul\":8989:8990   */\n      0x04\n        /* \"#utility.yul\":8982:8997   */\n      mstore\n        /* \"#utility.yul\":9016:9020   */\n      0x24\n        /* \"#utility.yul\":9013:9014   */\n      0x00\n        /* \"#utility.yul\":9006:9021   */\n      revert\n        /* \"#utility.yul\":9033:9443   */\n    tag_50:\n        /* \"#utility.yul\":9073:9080   */\n      0x00\n        /* \"#utility.yul\":9096:9116   */\n      tag_288\n        /* \"#utility.yul\":9114:9115   */\n      dup3\n        /* \"#utility.yul\":9096:9116   */\n      tag_140\n      jump\t// in\n    tag_288:\n        /* \"#utility.yul\":9091:9116   */\n      swap2\n      pop\n        /* \"#utility.yul\":9130:9150   */\n      tag_289\n        /* \"#utility.yul\":9148:9149   */\n      dup4\n        /* \"#utility.yul\":9130:9150   */\n      tag_140\n      jump\t// in\n    tag_289:\n        /* \"#utility.yul\":9125:9150   */\n      swap3\n      pop\n        /* \"#utility.yul\":9185:9186   */\n      dup3\n        /* \"#utility.yul\":9182:9183   */\n      dup3\n        /* \"#utility.yul\":9178:9187   */\n      mul\n        /* \"#utility.yul\":9207:9237   */\n      tag_290\n        /* \"#utility.yul\":9225:9236   */\n      dup2\n        /* \"#utility.yul\":9207:9237   */\n      tag_140\n      jump\t// in\n    tag_290:\n        /* \"#utility.yul\":9196:9237   */\n      swap2\n      pop\n        /* \"#utility.yul\":9386:9387   */\n      dup3\n        /* \"#utility.yul\":9377:9384   */\n      dup3\n        /* \"#utility.yul\":9373:9388   */\n      div\n        /* \"#utility.yul\":9370:9371   */\n      dup5\n        /* \"#utility.yul\":9367:9389   */\n      eq\n        /* \"#utility.yul\":9347:9348   */\n      dup4\n        /* \"#utility.yul\":9340:9349   */\n      iszero\n        /* \"#utility.yul\":9320:9403   */\n      or\n        /* \"#utility.yul\":9297:9436   */\n      tag_291\n      jumpi\n        /* \"#utility.yul\":9416:9434   */\n      tag_292\n      tag_167\n      jump\t// in\n    tag_292:\n        /* \"#utility.yul\":9297:9436   */\n    tag_291:\n        /* \"#utility.yul\":9081:9443   */\n      pop\n        /* \"#utility.yul\":9033:9443   */\n      swap3\n      swap2\n      pop\n      pop\n      jump\t// out\n        /* \"#utility.yul\":9449:9686   */\n    tag_168:\n        /* \"#utility.yul\":9589:9623   */\n      0x5472616e73616374696f6e20697320496e76616c69642e20496e636f72726563\n        /* \"#utility.yul\":9585:9586   */\n      0x00\n        /* \"#utility.yul\":9577:9583   */\n      dup3\n        /* \"#utility.yul\":9573:9587   */\n      add\n        /* \"#utility.yul\":9566:9624   */\n      mstore\n        /* \"#utility.yul\":9658:9678   */\n      0x742045544820616d6f756e742073656e742e0000000000000000000000000000\n        /* \"#utility.yul\":9653:9655   */\n      0x20\n        /* \"#utility.yul\":9645:9651   */\n      dup3\n        /* \"#utility.yul\":9641:9656   */\n      add\n        /* \"#utility.yul\":9634:9679   */\n      mstore\n        /* \"#utility.yul\":9449:9686   */\n      pop\n      jump\t// out\n        /* \"#utility.yul\":9692:10058   */\n    tag_169:\n        /* \"#utility.yul\":9834:9837   */\n      0x00\n        /* \"#utility.yul\":9855:9922   */\n      tag_295\n        /* \"#utility.yul\":9919:9921   */\n      0x32\n        /* \"#utility.yul\":9914:9917   */\n      dup4\n        /* \"#utility.yul\":9855:9922   */\n      tag_144\n      jump\t// in\n    tag_295:\n        /* \"#utility.yul\":9848:9922   */\n      swap2\n      pop\n        /* \"#utility.yul\":9931:10024   */\n      tag_296\n        /* \"#utility.yul\":10020:10023   */\n      dup3\n        /* \"#utility.yul\":9931:10024   */\n      tag_168\n      jump\t// in\n    tag_296:\n        /* \"#utility.yul\":10049:10051   */\n      0x40\n        /* \"#utility.yul\":10044:10047   */\n      dup3\n        /* \"#utility.yul\":10040:10052   */\n      add\n        /* \"#utility.yul\":10033:10052   */\n      swap1\n      pop\n        /* \"#utility.yul\":9692:10058   */\n      swap2\n      swap1\n      pop\n      jump\t// out\n        /* \"#utility.yul\":10064:10483   */\n    tag_53:\n        /* \"#utility.yul\":10230:10234   */\n      0x00\n        /* \"#utility.yul\":10268:10270   */\n      0x20\n        /* \"#utility.yul\":10257:10266   */\n      dup3\n        /* \"#utility.yul\":10253:10271   */\n      add\n        /* \"#utility.yul\":10245:10271   */\n      swap1\n      pop\n        /* \"#utility.yul\":10317:10326   */\n      dup2\n        /* \"#utility.yul\":10311:10315   */\n      dup2\n        /* \"#utility.yul\":10307:10327   */\n      sub\n        /* \"#utility.yul\":10303:10304   */\n      0x00\n        /* \"#utility.yul\":10292:10301   */\n      dup4\n        /* \"#utility.yul\":10288:10305   */\n      add\n        /* \"#utility.yul\":10281:10328   */\n      mstore\n        /* \"#utility.yul\":10345:10476   */\n      tag_298\n        /* \"#utility.yul\":10471:10475   */\n      dup2\n        /* \"#utility.yul\":10345:10476   */\n      tag_169\n      jump\t// in\n    tag_298:\n        /* \"#utility.yul\":10337:10476   */\n      swap1\n      pop\n        /* \"#utility.yul\":10064:10483   */\n      swap2\n      swap1\n      pop\n      jump\t// out\n        /* \"#utility.yul\":10489:10647   */\n    tag_170:\n        /* \"#utility.yul\":10629:10639   */\n      0x496e76616c69642e000000000000000000000000000000000000000000000000\n        /* \"#utility.yul\":10625:10626   */\n      0x00\n        /* \"#utility.yul\":10617:10623   */\n      dup3\n        /* \"#utility.yul\":10613:10627   */\n      add\n        /* \"#utility.yul\":10606:10640   */\n      mstore\n        /* \"#utility.yul\":10489:10647   */\n      pop\n      jump\t// out\n        /* \"#utility.yul\":10653:11018   */\n    tag_171:\n        /* \"#utility.yul\":10795:10798   */\n      0x00\n        /* \"#utility.yul\":10816:10882   */\n      tag_301\n        /* \"#utility.yul\":10880:10881   */\n      0x08\n        /* \"#utility.yul\":10875:10878   */\n      dup4\n        /* \"#utility.yul\":10816:10882   */\n      tag_144\n      jump\t// in\n    tag_301:\n        /* \"#utility.yul\":10809:10882   */\n      swap2\n      pop\n        /* \"#utility.yul\":10891:10984   */\n      tag_302\n        /* \"#utility.yul\":10980:10983   */\n      dup3\n        /* \"#utility.yul\":10891:10984   */\n      tag_170\n      jump\t// in\n    tag_302:\n        /* \"#utility.yul\":11009:11011   */\n      0x20\n        /* \"#utility.yul\":11004:11007   */\n      dup3\n        /* \"#utility.yul\":11000:11012   */\n      add\n        /* \"#utility.yul\":10993:11012   */\n      swap1\n      pop\n        /* \"#utility.yul\":10653:11018   */\n      swap2\n      swap1\n      pop\n      jump\t// out\n        /* \"#utility.yul\":11024:11443   */\n    tag_60:\n        /* \"#utility.yul\":11190:11194   */\n      0x00\n        /* \"#utility.yul\":11228:11230   */\n      0x20\n        /* \"#utility.yul\":11217:11226   */\n      dup3\n        /* \"#utility.yul\":11213:11231   */\n      add\n        /* \"#utility.yul\":11205:11231   */\n      swap1\n      pop\n        /* \"#utility.yul\":11277:11286   */\n      dup2\n        /* \"#utility.yul\":11271:11275   */\n      dup2\n        /* \"#utility.yul\":11267:11287   */\n      sub\n        /* \"#utility.yul\":11263:11264   */\n      0x00\n        /* \"#utility.yul\":11252:11261   */\n      dup4\n        /* \"#utility.yul\":11248:11265   */\n      add\n        /* \"#utility.yul\":11241:11288   */\n      mstore\n        /* \"#utility.yul\":11305:11436   */\n      tag_304\n        /* \"#utility.yul\":11431:11435   */\n      dup2\n        /* \"#utility.yul\":11305:11436   */\n      tag_171\n      jump\t// in\n    tag_304:\n        /* \"#utility.yul\":11297:11436   */\n      swap1\n      pop\n        /* \"#utility.yul\":11024:11443   */\n      swap2\n      swap1\n      pop\n      jump\t// out\n        /* \"#utility.yul\":11449:11643   */\n    tag_63:\n        /* \"#utility.yul\":11489:11493   */\n      0x00\n        /* \"#utility.yul\":11509:11529   */\n      tag_306\n        /* \"#utility.yul\":11527:11528   */\n      dup3\n        /* \"#utility.yul\":11509:11529   */\n      tag_140\n      jump\t// in\n    tag_306:\n        /* \"#utility.yul\":11504:11529   */\n      swap2\n      pop\n        /* \"#utility.yul\":11543:11563   */\n      tag_307\n        /* \"#utility.yul\":11561:11562   */\n      dup4\n        /* \"#utility.yul\":11543:11563   */\n      tag_140\n      jump\t// in\n    tag_307:\n        /* \"#utility.yul\":11538:11563   */\n      swap3\n      pop\n        /* \"#utility.yul\":11587:11588   */\n      dup3\n        /* \"#utility.yul\":11584:11585   */\n      dup3\n        /* \"#utility.yul\":11580:11589   */\n      sub\n        /* \"#utility.yul\":11572:11589   */\n      swap1\n      pop\n        /* \"#utility.yul\":11611:11612   */\n      dup2\n        /* \"#utility.yul\":11605:11609   */\n      dup2\n        /* \"#utility.yul\":11602:11613   */\n      gt\n        /* \"#utility.yul\":11599:11636   */\n      iszero\n      tag_308\n      jumpi\n        /* \"#utility.yul\":11616:11634   */\n      tag_309\n      tag_167\n      jump\t// in\n    tag_309:\n        /* \"#utility.yul\":11599:11636   */\n    tag_308:\n        /* \"#utility.yul\":11449:11643   */\n      swap3\n      swap2\n      pop\n      pop\n      jump\t// out\n        /* \"#utility.yul\":11649:11829   */\n    tag_172:\n        /* \"#utility.yul\":11697:11774   */\n      0x4e487b7100000000000000000000000000000000000000000000000000000000\n        /* \"#utility.yul\":11694:11695   */\n      0x00\n        /* \"#utility.yul\":11687:11775   */\n      mstore\n        /* \"#utility.yul\":11794:11798   */\n      0x22\n        /* \"#utility.yul\":11791:11792   */\n      0x04\n        /* \"#utility.yul\":11784:11799   */\n      mstore\n        /* \"#utility.yul\":11818:11822   */\n      0x24\n        /* \"#utility.yul\":11815:11816   */\n      0x00\n        /* \"#utility.yul\":11808:11823   */\n      revert\n        /* \"#utility.yul\":11835:12155   */\n    tag_65:\n        /* \"#utility.yul\":11879:11885   */\n      0x00\n        /* \"#utility.yul\":11916:11917   */\n      0x02\n        /* \"#utility.yul\":11910:11914   */\n      dup3\n        /* \"#utility.yul\":11906:11918   */\n      div\n        /* \"#utility.yul\":11896:11918   */\n      swap1\n      pop\n        /* \"#utility.yul\":11963:11964   */\n      0x01\n        /* \"#utility.yul\":11957:11961   */\n      dup3\n        /* \"#utility.yul\":11953:11965   */\n      and\n        /* \"#utility.yul\":11984:12002   */\n      dup1\n        /* \"#utility.yul\":11974:12055   */\n      tag_312\n      jumpi\n        /* \"#utility.yul\":12040:12044   */\n      0x7f\n        /* \"#utility.yul\":12032:12038   */\n      dup3\n        /* \"#utility.yul\":12028:12045   */\n      and\n        /* \"#utility.yul\":12018:12045   */\n      swap2\n      pop\n        /* \"#utility.yul\":11974:12055   */\n    tag_312:\n        /* \"#utility.yul\":12102:12104   */\n      0x20\n        /* \"#utility.yul\":12094:12100   */\n      dup3\n        /* \"#utility.yul\":12091:12105   */\n      lt\n        /* \"#utility.yul\":12071:12089   */\n      dup2\n        /* \"#utility.yul\":12068:12106   */\n      sub\n        /* \"#utility.yul\":12065:12149   */\n      tag_313\n      jumpi\n        /* \"#utility.yul\":12121:12139   */\n      tag_314\n      tag_172\n      jump\t// in\n    tag_314:\n        /* \"#utility.yul\":12065:12149   */\n    tag_313:\n        /* \"#utility.yul\":11886:12155   */\n      pop\n        /* \"#utility.yul\":11835:12155   */\n      swap2\n      swap1\n      pop\n      jump\t// out\n        /* \"#utility.yul\":12161:12302   */\n    tag_173:\n        /* \"#utility.yul\":12210:12214   */\n      0x00\n        /* \"#utility.yul\":12233:12236   */\n      dup2\n        /* \"#utility.yul\":12225:12236   */\n      swap1\n      pop\n        /* \"#utility.yul\":12256:12259   */\n      dup2\n        /* \"#utility.yul\":12253:12254   */\n      0x00\n        /* \"#utility.yul\":12246:12260   */\n      mstore\n        /* \"#utility.yul\":12290:12294   */\n      0x20\n        /* \"#utility.yul\":12287:12288   */\n      0x00\n        /* \"#utility.yul\":12277:12295   */\n      keccak256\n        /* \"#utility.yul\":12269:12295   */\n      swap1\n      pop\n        /* \"#utility.yul\":12161:12302   */\n      swap2\n      swap1\n      pop\n      jump\t// out\n        /* \"#utility.yul\":12308:12401   */\n    tag_174:\n        /* \"#utility.yul\":12345:12351   */\n      0x00\n        /* \"#utility.yul\":12392:12394   */\n      0x20\n        /* \"#utility.yul\":12387:12389   */\n      0x1f\n        /* \"#utility.yul\":12380:12385   */\n      dup4\n        /* \"#utility.yul\":12376:12390   */\n      add\n        /* \"#utility.yul\":12372:12395   */\n      div\n        /* \"#utility.yul\":12362:12395   */\n      swap1\n      pop\n        /* \"#utility.yul\":12308:12401   */\n      swap2\n      swap1\n      pop\n      jump\t// out\n        /* \"#utility.yul\":12407:12514   */\n    tag_175:\n        /* \"#utility.yul\":12451:12459   */\n      0x00\n        /* \"#utility.yul\":12501:12506   */\n      dup3\n        /* \"#utility.yul\":12495:12499   */\n      dup3\n        /* \"#utility.yul\":12491:12507   */\n      shl\n        /* \"#utility.yul\":12470:12507   */\n      swap1\n      pop\n        /* \"#utility.yul\":12407:12514   */\n      swap3\n      swap2\n      pop\n      pop\n      jump\t// out\n        /* \"#utility.yul\":12520:12913   */\n    tag_176:\n        /* \"#utility.yul\":12589:12595   */\n      0x00\n        /* \"#utility.yul\":12639:12640   */\n      0x08\n        /* \"#utility.yul\":12627:12637   */\n      dup4\n        /* \"#utility.yul\":12623:12641   */\n      mul\n        /* \"#utility.yul\":12662:12759   */\n      tag_319\n        /* \"#utility.yul\":12692:12758   */\n      0xffffffffffffffffffffffffffffffffffffffffffffffffffffffffffffffff\n        /* \"#utility.yul\":12681:12690   */\n      dup3\n        /* \"#utility.yul\":12662:12759   */\n      tag_175\n      jump\t// in\n    tag_319:\n        /* \"#utility.yul\":12780:12819   */\n      tag_320\n        /* \"#utility.yul\":12810:12818   */\n      dup7\n        /* \"#utility.yul\":12799:12808   */\n      dup4\n        /* \"#utility.yul\":12780:12819   */\n      tag_175\n      jump\t// in\n    tag_320:\n        /* \"#utility.yul\":12768:12819   */\n      swap6\n      pop\n        /* \"#utility.yul\":12852:12856   */\n      dup1\n        /* \"#utility.yul\":12848:12857   */\n      not\n        /* \"#utility.yul\":12841:12846   */\n      dup5\n        /* \"#utility.yul\":12837:12858   */\n      and\n        /* \"#utility.yul\":12828:12858   */\n      swap4\n      pop\n        /* \"#utility.yul\":12901:12905   */\n      dup1\n        /* \"#utility.yul\":12891:12899   */\n      dup7\n        /* \"#utility.yul\":12887:12906   */\n      and\n        /* \"#utility.yul\":12880:12885   */\n      dup5\n        /* \"#utility.yul\":12877:12907   */\n      or\n        /* \"#utility.yul\":12867:12907   */\n      swap3\n      pop\n        /* \"#utility.yul\":12596:12913   */\n      pop\n      pop\n        /* \"#utility.yul\":12520:12913   */\n      swap4\n      swap3\n      pop\n      pop\n      pop\n      jump\t// out\n        /* \"#utility.yul\":12919:12979   */\n    tag_177:\n        /* \"#utility.yul\":12947:12950   */\n      0x00\n        /* \"#utility.yul\":12968:12973   */\n      dup2\n        /* \"#utility.yul\":12961:12973   */\n      swap1\n      pop\n        /* \"#utility.yul\":12919:12979   */\n      swap2\n      swap1\n      pop\n      jump\t// out\n        /* \"#utility.yul\":12985:13127   */\n    tag_178:\n        /* \"#utility.yul\":13035:13044   */\n      0x00\n        /* \"#utility.yul\":13068:13121   */\n      tag_323\n        /* \"#utility.yul\":13086:13120   */\n      tag_324\n        /* \"#utility.yul\":13095:13119   */\n      tag_325\n        /* \"#utility.yul\":13113:13118   */\n      dup5\n        /* \"#utility.yul\":13095:13119   */\n      tag_140\n      jump\t// in\n    tag_325:\n        /* \"#utility.yul\":13086:13120   */\n      tag_177\n      jump\t// in\n    tag_324:\n        /* \"#utility.yul\":13068:13121   */\n      tag_140\n      jump\t// in\n    tag_323:\n        /* \"#utility.yul\":13055:13121   */\n      swap1\n      pop\n        /* \"#utility.yul\":12985:13127   */\n      swap2\n      swap1\n      pop\n      jump\t// out\n        /* \"#utility.yul\":13133:13208   */\n    tag_179:\n        /* \"#utility.yul\":13176:13179   */\n      0x00\n        /* \"#utility.yul\":13197:13202   */\n      dup2\n        /* \"#utility.yul\":13190:13202   */\n      swap1\n      pop\n        /* \"#utility.yul\":13133:13208   */\n      swap2\n      swap1\n      pop\n      jump\t// out\n        /* \"#utility.yul\":13214:13483   */\n    tag_180:\n        /* \"#utility.yul\":13324:13363   */\n      tag_328\n        /* \"#utility.yul\":13355:13362   */\n      dup4\n        /* \"#utility.yul\":13324:13363   */\n      tag_178\n      jump\t// in\n    tag_328:\n        /* \"#utility.yul\":13385:13476   */\n      tag_329\n        /* \"#utility.yul\":13434:13475   */\n      tag_330\n        /* \"#utility.yul\":13458:13474   */\n      dup3\n        /* \"#utility.yul\":13434:13475   */\n      tag_179\n      jump\t// in\n    tag_330:\n        /* \"#utility.yul\":13426:13432   */\n      dup5\n        /* \"#utility.yul\":13419:13423   */\n      dup5\n        /* \"#utility.yul\":13413:13424   */\n      sload\n        /* \"#utility.yul\":13385:13476   */\n      tag_176\n      jump\t// in\n    tag_329:\n        /* \"#utility.yul\":13379:13383   */\n      dup3\n        /* \"#utility.yul\":13372:13477   */\n      sstore\n        /* \"#utility.yul\":13290:13483   */\n      pop\n        /* \"#utility.yul\":13214:13483   */\n      pop\n      pop\n      pop\n      jump\t// out\n        /* \"#utility.yul\":13489:13562   */\n    tag_181:\n        /* \"#utility.yul\":13534:13537   */\n      0x00\n        /* \"#utility.yul\":13489:13562   */\n      swap1\n      jump\t// out\n        /* \"#utility.yul\":13568:13757   */\n    tag_182:\n        /* \"#utility.yul\":13645:13677   */\n      tag_333\n      tag_181\n      jump\t// in\n    tag_333:\n        /* \"#utility.yul\":13686:13751   */\n      tag_334\n        /* \"#utility.yul\":13744:13750   */\n      dup2\n        /* \"#utility.yul\":13736:13742   */\n      dup5\n        /* \"#utility.yul\":13730:13734   */\n      dup5\n        /* \"#utility.yul\":13686:13751   */\n      tag_180\n      jump\t// in\n    tag_334:\n        /* \"#utility.yul\":13621:13757   */\n      pop\n        /* \"#utility.yul\":13568:13757   */\n      pop\n      pop\n      jump\t// out\n        /* \"#utility.yul\":13763:13949   */\n    tag_183:\n        /* \"#utility.yul\":13823:13943   */\n    tag_336:\n        /* \"#utility.yul\":13840:13843   */\n      dup2\n        /* \"#utility.yul\":13833:13838   */\n      dup2\n        /* \"#utility.yul\":13830:13844   */\n      lt\n        /* \"#utility.yul\":13823:13943   */\n      iszero\n      tag_338\n      jumpi\n        /* \"#utility.yul\":13894:13933   */\n      tag_339\n        /* \"#utility.yul\":13931:13932   */\n      0x00\n        /* \"#utility.yul\":13924:13929   */\n      dup3\n        /* \"#utility.yul\":13894:13933   */\n      tag_182\n      jump\t// in\n    tag_339:\n        /* \"#utility.yul\":13867:13868   */\n      0x01\n        /* \"#utility.yul\":13860:13865   */\n      dup2\n        /* \"#utility.yul\":13856:13869   */\n      add\n        /* \"#utility.yul\":13847:13869   */\n      swap1\n      pop\n        /* \"#utility.yul\":13823:13943   */\n      jump(tag_336)\n    tag_338:\n        /* \"#utility.yul\":13763:13949   */\n      pop\n      pop\n      jump\t// out\n        /* \"#utility.yul\":13955:14498   */\n    tag_184:\n        /* \"#utility.yul\":14056:14058   */\n      0x1f\n        /* \"#utility.yul\":14051:14054   */\n      dup3\n        /* \"#utility.yul\":14048:14059   */\n      gt\n        /* \"#utility.yul\":14045:14491   */\n      iszero\n      tag_341\n      jumpi\n        /* \"#utility.yul\":14090:14128   */\n      tag_342\n        /* \"#utility.yul\":14122:14127   */\n      dup2\n        /* \"#utility.yul\":14090:14128   */\n      tag_173\n      jump\t// in\n    tag_342:\n        /* \"#utility.yul\":14174:14203   */\n      tag_343\n        /* \"#utility.yul\":14192:14202   */\n      dup5\n        /* \"#utility.yul\":14174:14203   */\n      tag_174\n      jump\t// in\n    tag_343:\n        /* \"#utility.yul\":14164:14172   */\n      dup2\n        /* \"#utility.yul\":14160:14204   */\n      add\n        /* \"#utility.yul\":14357:14359   */\n      0x20\n        /* \"#utility.yul\":14345:14355   */\n      dup6\n        /* \"#utility.yul\":14342:14360   */\n      lt\n        /* \"#utility.yul\":14339:14388   */\n      iszero\n      tag_344\n      jumpi\n        /* \"#utility.yul\":14378:14386   */\n      dup2\n        /* \"#utility.yul\":14363:14386   */\n      swap1\n      pop\n        /* \"#utility.yul\":14339:14388   */\n    tag_344:\n        /* \"#utility.yul\":14401:14481   */\n      tag_345\n        /* \"#utility.yul\":14457:14479   */\n      tag_346\n        /* \"#utility.yul\":14475:14478   */\n      dup6\n        /* \"#utility.yul\":14457:14479   */\n      tag_174\n      jump\t// in\n    tag_346:\n        /* \"#utility.yul\":14447:14455   */\n      dup4\n        /* \"#utility.yul\":14443:14480   */\n      add\n        /* \"#utility.yul\":14430:14441   */\n      dup3\n        /* \"#utility.yul\":14401:14481   */\n      tag_183\n      jump\t// in\n    tag_345:\n        /* \"#utility.yul\":14060:14491   */\n      pop\n      pop\n        /* \"#utility.yul\":14045:14491   */\n    tag_341:\n        /* \"#utility.yul\":13955:14498   */\n      pop\n      pop\n      pop\n      jump\t// out\n        /* \"#utility.yul\":14504:14621   */\n    tag_185:\n        /* \"#utility.yul\":14558:14566   */\n      0x00\n        /* \"#utility.yul\":14608:14613   */\n      dup3\n        /* \"#utility.yul\":14602:14606   */\n      dup3\n        /* \"#utility.yul\":14598:14614   */\n      shr\n        /* \"#utility.yul\":14577:14614   */\n      swap1\n      pop\n        /* \"#utility.yul\":14504:14621   */\n      swap3\n      swap2\n      pop\n      pop\n      jump\t// out\n        /* \"#utility.yul\":14627:14796   */\n    tag_186:\n        /* \"#utility.yul\":14671:14677   */\n      0x00\n        /* \"#utility.yul\":14704:14755   */\n      tag_349\n        /* \"#utility.yul\":14752:14753   */\n      0x00\n        /* \"#utility.yul\":14748:14754   */\n      not\n        /* \"#utility.yul\":14740:14745   */\n      dup5\n        /* \"#utility.yul\":14737:14738   */\n      0x08\n        /* \"#utility.yul\":14733:14746   */\n      mul\n        /* \"#utility.yul\":14704:14755   */\n      tag_185\n      jump\t// in\n    tag_349:\n        /* \"#utility.yul\":14700:14756   */\n      not\n        /* \"#utility.yul\":14785:14789   */\n      dup1\n        /* \"#utility.yul\":14779:14783   */\n      dup4\n        /* \"#utility.yul\":14775:14790   */\n      and\n        /* \"#utility.yul\":14765:14790   */\n      swap2\n      pop\n        /* \"#utility.yul\":14678:14796   */\n      pop\n        /* \"#utility.yul\":14627:14796   */\n      swap3\n      swap2\n      pop\n      pop\n      jump\t// out\n        /* \"#utility.yul\":14801:15096   */\n    tag_187:\n        /* \"#utility.yul\":14877:14881   */\n      0x00\n        /* \"#utility.yul\":15023:15052   */\n      tag_351\n        /* \"#utility.yul\":15048:15051   */\n      dup4\n        /* \"#utility.yul\":15042:15046   */\n      dup4\n        /* \"#utility.yul\":15023:15052   */\n      tag_186\n      jump\t// in\n    tag_351:\n        /* \"#utility.yul\":15015:15052   */\n      swap2\n      pop\n        /* \"#utility.yul\":15085:15088   */\n      dup3\n        /* \"#utility.yul\":15082:15083   */\n      0x02\n        /* \"#utility.yul\":15078:15089   */\n      mul\n        /* \"#utility.yul\":15072:15076   */\n      dup3\n        /* \"#utility.yul\":15069:15090   */\n      or\n        /* \"#utility.yul\":15061:15090   */\n      swap1\n      pop\n        /* \"#utility.yul\":14801:15096   */\n      swap3\n      swap2\n      pop\n      pop\n      jump\t// out\n        /* \"#utility.yul\":15101:16496   */\n    tag_71:\n        /* \"#utility.yul\":15218:15255   */\n      tag_353\n        /* \"#utility.yul\":15251:15254   */\n      dup3\n        /* \"#utility.yul\":15218:15255   */\n      tag_143\n      jump\t// in\n    tag_353:\n        /* \"#utility.yul\":15320:15338   */\n      0xffffffffffffffff\n        /* \"#utility.yul\":15312:15318   */\n      dup2\n        /* \"#utility.yul\":15309:15339   */\n      gt\n        /* \"#utility.yul\":15306:15362   */\n      iszero\n      tag_354\n      jumpi\n        /* \"#utility.yul\":15342:15360   */\n      tag_355\n      tag_153\n      jump\t// in\n    tag_355:\n        /* \"#utility.yul\":15306:15362   */\n    tag_354:\n        /* \"#utility.yul\":15386:15424   */\n      tag_356\n        /* \"#utility.yul\":15418:15422   */\n      dup3\n        /* \"#utility.yul\":15412:15423   */\n      sload\n        /* \"#utility.yul\":15386:15424   */\n      tag_65\n      jump\t// in\n    tag_356:\n        /* \"#utility.yul\":15471:15538   */\n      tag_357\n        /* \"#utility.yul\":15531:15537   */\n      dup3\n        /* \"#utility.yul\":15523:15529   */\n      dup3\n        /* \"#utility.yul\":15517:15521   */\n      dup6\n        /* \"#utility.yul\":15471:15538   */\n      tag_184\n      jump\t// in\n    tag_357:\n        /* \"#utility.yul\":15565:15566   */\n      0x00\n        /* \"#utility.yul\":15589:15593   */\n      0x20\n        /* \"#utility.yul\":15576:15593   */\n      swap1\n      pop\n        /* \"#utility.yul\":15621:15623   */\n      0x1f\n        /* \"#utility.yul\":15613:15619   */\n      dup4\n        /* \"#utility.yul\":15610:15624   */\n      gt\n        /* \"#utility.yul\":15638:15639   */\n      0x01\n        /* \"#utility.yul\":15633:16251   */\n      dup2\n      eq\n      tag_359\n      jumpi\n        /* \"#utility.yul\":16295:16296   */\n      0x00\n        /* \"#utility.yul\":16312:16318   */\n      dup5\n        /* \"#utility.yul\":16309:16386   */\n      iszero\n      tag_360\n      jumpi\n        /* \"#utility.yul\":16361:16370   */\n      dup3\n        /* \"#utility.yul\":16356:16359   */\n      dup8\n        /* \"#utility.yul\":16352:16371   */\n      add\n        /* \"#utility.yul\":16346:16372   */\n      mload\n        /* \"#utility.yul\":16337:16372   */\n      swap1\n      pop\n        /* \"#utility.yul\":16309:16386   */\n    tag_360:\n        /* \"#utility.yul\":16412:16479   */\n      tag_361\n        /* \"#utility.yul\":16472:16478   */\n      dup6\n        /* \"#utility.yul\":16465:16470   */\n      dup3\n        /* \"#utility.yul\":16412:16479   */\n      tag_187\n      jump\t// in\n    tag_361:\n        /* \"#utility.yul\":16406:16410   */\n      dup7\n        /* \"#utility.yul\":16399:16480   */\n      sstore\n        /* \"#utility.yul\":16268:16490   */\n      pop\n        /* \"#utility.yul\":15603:16490   */\n      jump(tag_358)\n        /* \"#utility.yul\":15633:16251   */\n    tag_359:\n        /* \"#utility.yul\":15685:15689   */\n      0x1f\n        /* \"#utility.yul\":15681:15690   */\n      not\n        /* \"#utility.yul\":15673:15679   */\n      dup5\n        /* \"#utility.yul\":15669:15691   */\n      and\n        /* \"#utility.yul\":15719:15756   */\n      tag_362\n        /* \"#utility.yul\":15751:15755   */\n      dup7\n        /* \"#utility.yul\":15719:15756   */\n      tag_173\n      jump\t// in\n    tag_362:\n        /* \"#utility.yul\":15778:15779   */\n      0x00\n        /* \"#utility.yul\":15792:16000   */\n    tag_363:\n        /* \"#utility.yul\":15806:15813   */\n      dup3\n        /* \"#utility.yul\":15803:15804   */\n      dup2\n        /* \"#utility.yul\":15800:15814   */\n      lt\n        /* \"#utility.yul\":15792:16000   */\n      iszero\n      tag_365\n      jumpi\n        /* \"#utility.yul\":15885:15894   */\n      dup5\n        /* \"#utility.yul\":15880:15883   */\n      dup10\n        /* \"#utility.yul\":15876:15895   */\n      add\n        /* \"#utility.yul\":15870:15896   */\n      mload\n        /* \"#utility.yul\":15862:15868   */\n      dup3\n        /* \"#utility.yul\":15855:15897   */\n      sstore\n        /* \"#utility.yul\":15936:15937   */\n      0x01\n        /* \"#utility.yul\":15928:15934   */\n      dup3\n        /* \"#utility.yul\":15924:15938   */\n      add\n        /* \"#utility.yul\":15914:15938   */\n      swap2\n      pop\n        /* \"#utility.yul\":15983:15985   */\n      0x20\n        /* \"#utility.yul\":15972:15981   */\n      dup6\n        /* \"#utility.yul\":15968:15986   */\n      add\n        /* \"#utility.yul\":15955:15986   */\n      swap5\n      pop\n        /* \"#utility.yul\":15829:15833   */\n      0x20\n        /* \"#utility.yul\":15826:15827   */\n      dup2\n        /* \"#utility.yul\":15822:15834   */\n      add\n        /* \"#utility.yul\":15817:15834   */\n      swap1\n      pop\n        /* \"#utility.yul\":15792:16000   */\n      jump(tag_363)\n    tag_365:\n        /* \"#utility.yul\":16028:16034   */\n      dup7\n        /* \"#utility.yul\":16019:16026   */\n      dup4\n        /* \"#utility.yul\":16016:16035   */\n      lt\n        /* \"#utility.yul\":16013:16192   */\n      iszero\n      tag_366\n      jumpi\n        /* \"#utility.yul\":16086:16095   */\n      dup5\n        /* \"#utility.yul\":16081:16084   */\n      dup10\n        /* \"#utility.yul\":16077:16096   */\n      add\n        /* \"#utility.yul\":16071:16097   */\n      mload\n        /* \"#utility.yul\":16129:16177   */\n      tag_367\n        /* \"#utility.yul\":16171:16175   */\n      0x1f\n        /* \"#utility.yul\":16163:16169   */\n      dup10\n        /* \"#utility.yul\":16159:16176   */\n      and\n        /* \"#utility.yul\":16148:16157   */\n      dup3\n        /* \"#utility.yul\":16129:16177   */\n      tag_186\n      jump\t// in\n    tag_367:\n        /* \"#utility.yul\":16121:16127   */\n      dup4\n        /* \"#utility.yul\":16114:16178   */\n      sstore\n        /* \"#utility.yul\":16036:16192   */\n      pop\n        /* \"#utility.yul\":16013:16192   */\n    tag_366:\n        /* \"#utility.yul\":16238:16239   */\n      0x01\n        /* \"#utility.yul\":16234:16235   */\n      0x02\n        /* \"#utility.yul\":16226:16232   */\n      dup9\n        /* \"#utility.yul\":16222:16236   */\n      mul\n        /* \"#utility.yul\":16218:16240   */\n      add\n        /* \"#utility.yul\":16212:16216   */\n      dup9\n        /* \"#utility.yul\":16205:16241   */\n      sstore\n        /* \"#utility.yul\":15640:16251   */\n      pop\n      pop\n      pop\n        /* \"#utility.yul\":15603:16490   */\n    tag_358:\n      pop\n        /* \"#utility.yul\":15193:16496   */\n      pop\n      pop\n      pop\n        /* \"#utility.yul\":15101:16496   */\n      pop\n      pop\n      jump\t// out\n        /* \"#utility.yul\":16502:16683   */\n    tag_188:\n        /* \"#utility.yul\":16642:16675   */\n      0x5468652061756374696f6e206973206f7665722c205468616e6b20796f752100\n        /* \"#utility.yul\":16638:16639   */\n      0x00\n        /* \"#utility.yul\":16630:16636   */\n      dup3\n        /* \"#utility.yul\":16626:16640   */\n      add\n        /* \"#utility.yul\":16619:16676   */\n      mstore\n        /* \"#utility.yul\":16502:16683   */\n      pop\n      jump\t// out\n        /* \"#utility.yul\":16689:17055   */\n    tag_189:\n        /* \"#utility.yul\":16831:16834   */\n      0x00\n        /* \"#utility.yul\":16852:16919   */\n      tag_370\n        /* \"#utility.yul\":16916:16918   */\n      0x1f\n        /* \"#utility.yul\":16911:16914   */\n      dup4\n        /* \"#utility.yul\":16852:16919   */\n      tag_144\n      jump\t// in\n    tag_370:\n        /* \"#utility.yul\":16845:16919   */\n      swap2\n      pop\n        /* \"#utility.yul\":16928:17021   */\n      tag_371\n        /* \"#utility.yul\":17017:17020   */\n      dup3\n        /* \"#utility.yul\":16928:17021   */\n      tag_188\n      jump\t// in\n    tag_371:\n        /* \"#utility.yul\":17046:17048   */\n      0x20\n        /* \"#utility.yul\":17041:17044   */\n      dup3\n        /* \"#utility.yul\":17037:17049   */\n      add\n        /* \"#utility.yul\":17030:17049   */\n      swap1\n      pop\n        /* \"#utility.yul\":16689:17055   */\n      swap2\n      swap1\n      pop\n      jump\t// out\n        /* \"#utility.yul\":17061:17480   */\n    tag_75:\n        /* \"#utility.yul\":17227:17231   */\n      0x00\n        /* \"#utility.yul\":17265:17267   */\n      0x20\n        /* \"#utility.yul\":17254:17263   */\n      dup3\n        /* \"#utility.yul\":17250:17268   */\n      add\n        /* \"#utility.yul\":17242:17268   */\n      swap1\n      pop\n        /* \"#utility.yul\":17314:17323   */\n      dup2\n        /* \"#utility.yul\":17308:17312   */\n      dup2\n        /* \"#utility.yul\":17304:17324   */\n      sub\n        /* \"#utility.yul\":17300:17301   */\n      0x00\n        /* \"#utility.yul\":17289:17298   */\n      dup4\n        /* \"#utility.yul\":17285:17302   */\n      add\n        /* \"#utility.yul\":17278:17325   */\n      mstore\n        /* \"#utility.yul\":17342:17473   */\n      tag_373\n        /* \"#utility.yul\":17468:17472   */\n      dup2\n        /* \"#utility.yul\":17342:17473   */\n      tag_189\n      jump\t// in\n    tag_373:\n        /* \"#utility.yul\":17334:17473   */\n      swap1\n      pop\n        /* \"#utility.yul\":17061:17480   */\n      swap2\n      swap1\n      pop\n      jump\t// out\n        /* \"#utility.yul\":17486:17719   */\n    tag_91:\n        /* \"#utility.yul\":17525:17528   */\n      0x00\n        /* \"#utility.yul\":17548:17572   */\n      tag_375\n        /* \"#utility.yul\":17566:17571   */\n      dup3\n        /* \"#utility.yul\":17548:17572   */\n      tag_140\n      jump\t// in\n    tag_375:\n        /* \"#utility.yul\":17539:17572   */\n      swap2\n      pop\n        /* \"#utility.yul\":17594:17660   */\n      0xffffffffffffffffffffffffffffffffffffffffffffffffffffffffffffffff\n        /* \"#utility.yul\":17587:17592   */\n      dup3\n        /* \"#utility.yul\":17584:17661   */\n      sub\n        /* \"#utility.yul\":17581:17684   */\n      tag_376\n      jumpi\n        /* \"#utility.yul\":17664:17682   */\n      tag_377\n      tag_167\n      jump\t// in\n    tag_377:\n        /* \"#utility.yul\":17581:17684   */\n    tag_376:\n        /* \"#utility.yul\":17711:17712   */\n      0x01\n        /* \"#utility.yul\":17704:17709   */\n      dup3\n        /* \"#utility.yul\":17700:17713   */\n      add\n        /* \"#utility.yul\":17693:17713   */\n      swap1\n      pop\n        /* \"#utility.yul\":17486:17719   */\n      swap2\n      swap1\n      pop\n      jump\t// out\n        /* \"#utility.yul\":17725:17965   */\n    tag_190:\n        /* \"#utility.yul\":17865:17899   */\n      0x496e76616c69643a20456e7375726520706172746963697069746174696f6e20\n        /* \"#utility.yul\":17861:17862   */\n      0x00\n        /* \"#utility.yul\":17853:17859   */\n      dup3\n        /* \"#utility.yul\":17849:17863   */\n      add\n        /* \"#utility.yul\":17842:17900   */\n      mstore\n        /* \"#utility.yul\":17934:17957   */\n      0x6265666f72652062696464696e6720626567696e730000000000000000000000\n        /* \"#utility.yul\":17929:17931   */\n      0x20\n        /* \"#utility.yul\":17921:17927   */\n      dup3\n        /* \"#utility.yul\":17917:17932   */\n      add\n        /* \"#utility.yul\":17910:17958   */\n      mstore\n        /* \"#utility.yul\":17725:17965   */\n      pop\n      jump\t// out\n        /* \"#utility.yul\":17971:18337   */\n    tag_191:\n        /* \"#utility.yul\":18113:18116   */\n      0x00\n        /* \"#utility.yul\":18134:18201   */\n      tag_380\n        /* \"#utility.yul\":18198:18200   */\n      0x35\n        /* \"#utility.yul\":18193:18196   */\n      dup4\n        /* \"#utility.yul\":18134:18201   */\n      tag_144\n      jump\t// in\n    tag_380:\n        /* \"#utility.yul\":18127:18201   */\n      swap2\n      pop\n        /* \"#utility.yul\":18210:18303   */\n      tag_381\n        /* \"#utility.yul\":18299:18302   */\n      dup3\n        /* \"#utility.yul\":18210:18303   */\n      tag_190\n      jump\t// in\n    tag_381:\n        /* \"#utility.yul\":18328:18330   */\n      0x40\n        /* \"#utility.yul\":18323:18326   */\n      dup3\n        /* \"#utility.yul\":18319:18331   */\n      add\n        /* \"#utility.yul\":18312:18331   */\n      swap1\n      pop\n        /* \"#utility.yul\":17971:18337   */\n      swap2\n      swap1\n      pop\n      jump\t// out\n        /* \"#utility.yul\":18343:18762   */\n    tag_94:\n        /* \"#utility.yul\":18509:18513   */\n      0x00\n        /* \"#utility.yul\":18547:18549   */\n      0x20\n        /* \"#utility.yul\":18536:18545   */\n      dup3\n        /* \"#utility.yul\":18532:18550   */\n      add\n        /* \"#utility.yul\":18524:18550   */\n      swap1\n      pop\n        /* \"#utility.yul\":18596:18605   */\n      dup2\n        /* \"#utility.yul\":18590:18594   */\n      dup2\n        /* \"#utility.yul\":18586:18606   */\n      sub\n        /* \"#utility.yul\":18582:18583   */\n      0x00\n        /* \"#utility.yul\":18571:18580   */\n      dup4\n        /* \"#utility.yul\":18567:18584   */\n      add\n        /* \"#utility.yul\":18560:18607   */\n      mstore\n        /* \"#utility.yul\":18624:18755   */\n      tag_383\n        /* \"#utility.yul\":18750:18754   */\n      dup2\n        /* \"#utility.yul\":18624:18755   */\n      tag_191\n      jump\t// in\n    tag_383:\n        /* \"#utility.yul\":18616:18755   */\n      swap1\n      pop\n        /* \"#utility.yul\":18343:18762   */\n      swap2\n      swap1\n      pop\n      jump\t// out\n        /* \"#utility.yul\":18768:18947   */\n    tag_192:\n        /* \"#utility.yul\":18908:18939   */\n      0x42696420746f6f206c6f772c2068656e63652c2072656a656374656421000000\n        /* \"#utility.yul\":18904:18905   */\n      0x00\n        /* \"#utility.yul\":18896:18902   */\n      dup3\n        /* \"#utility.yul\":18892:18906   */\n      add\n        /* \"#utility.yul\":18885:18940   */\n      mstore\n        /* \"#utility.yul\":18768:18947   */\n      pop\n      jump\t// out\n        /* \"#utility.yul\":18953:19319   */\n    tag_193:\n        /* \"#utility.yul\":19095:19098   */\n      0x00\n        /* \"#utility.yul\":19116:19183   */\n      tag_386\n        /* \"#utility.yul\":19180:19182   */\n      0x1d\n        /* \"#utility.yul\":19175:19178   */\n      dup4\n        /* \"#utility.yul\":19116:19183   */\n      tag_144\n      jump\t// in\n    tag_386:\n        /* \"#utility.yul\":19109:19183   */\n      swap2\n      pop\n        /* \"#utility.yul\":19192:19285   */\n      tag_387\n        /* \"#utility.yul\":19281:19284   */\n      dup3\n        /* \"#utility.yul\":19192:19285   */\n      tag_192\n      jump\t// in\n    tag_387:\n        /* \"#utility.yul\":19310:19312   */\n      0x20\n        /* \"#utility.yul\":19305:19308   */\n      dup3\n        /* \"#utility.yul\":19301:19313   */\n      add\n        /* \"#utility.yul\":19294:19313   */\n      swap1\n      pop\n        /* \"#utility.yul\":18953:19319   */\n      swap2\n      swap1\n      pop\n      jump\t// out\n        /* \"#utility.yul\":19325:19744   */\n    tag_98:\n        /* \"#utility.yul\":19491:19495   */\n      0x00\n        /* \"#utility.yul\":19529:19531   */\n      0x20\n        /* \"#utility.yul\":19518:19527   */\n      dup3\n        /* \"#utility.yul\":19514:19532   */\n      add\n        /* \"#utility.yul\":19506:19532   */\n      swap1\n      pop\n        /* \"#utility.yul\":19578:19587   */\n      dup2\n        /* \"#utility.yul\":19572:19576   */\n      dup2\n        /* \"#utility.yul\":19568:19588   */\n      sub\n        /* \"#utility.yul\":19564:19565   */\n      0x00\n        /* \"#utility.yul\":19553:19562   */\n      dup4\n        /* \"#utility.yul\":19549:19566   */\n      add\n        /* \"#utility.yul\":19542:19589   */\n      mstore\n        /* \"#utility.yul\":19606:19737   */\n      tag_389\n        /* \"#utility.yul\":19732:19736   */\n      dup2\n        /* \"#utility.yul\":19606:19737   */\n      tag_193\n      jump\t// in\n    tag_389:\n        /* \"#utility.yul\":19598:19737   */\n      swap1\n      pop\n        /* \"#utility.yul\":19325:19744   */\n      swap2\n      swap1\n      pop\n      jump\t// out\n        /* \"#utility.yul\":19750:19980   */\n    tag_194:\n        /* \"#utility.yul\":19890:19924   */\n      0x5468616e6b20796f752c2062757420796f752061726520616c72656164792072\n        /* \"#utility.yul\":19886:19887   */\n      0x00\n        /* \"#utility.yul\":19878:19884   */\n      dup3\n        /* \"#utility.yul\":19874:19888   */\n      add\n        /* \"#utility.yul\":19867:19925   */\n      mstore\n        /* \"#utility.yul\":19959:19972   */\n      0x656769737465726564202e000000000000000000000000000000000000000000\n        /* \"#utility.yul\":19954:19956   */\n      0x20\n        /* \"#utility.yul\":19946:19952   */\n      dup3\n        /* \"#utility.yul\":19942:19957   */\n      add\n        /* \"#utility.yul\":19935:19973   */\n      mstore\n        /* \"#utility.yul\":19750:19980   */\n      pop\n      jump\t// out\n        /* \"#utility.yul\":19986:20352   */\n    tag_195:\n        /* \"#utility.yul\":20128:20131   */\n      0x00\n        /* \"#utility.yul\":20149:20216   */\n      tag_392\n        /* \"#utility.yul\":20213:20215   */\n      0x2b\n        /* \"#utility.yul\":20208:20211   */\n      dup4\n        /* \"#utility.yul\":20149:20216   */\n      tag_144\n      jump\t// in\n    tag_392:\n        /* \"#utility.yul\":20142:20216   */\n      swap2\n      pop\n        /* \"#utility.yul\":20225:20318   */\n      tag_393\n        /* \"#utility.yul\":20314:20317   */\n      dup3\n        /* \"#utility.yul\":20225:20318   */\n      tag_194\n      jump\t// in\n    tag_393:\n        /* \"#utility.yul\":20343:20345   */\n      0x40\n        /* \"#utility.yul\":20338:20341   */\n      dup3\n        /* \"#utility.yul\":20334:20346   */\n      add\n        /* \"#utility.yul\":20327:20346   */\n      swap1\n      pop\n        /* \"#utility.yul\":19986:20352   */\n      swap2\n      swap1\n      pop\n      jump\t// out\n        /* \"#utility.yul\":20358:20777   */\n    tag_128:\n        /* \"#utility.yul\":20524:20528   */\n      0x00\n        /* \"#utility.yul\":20562:20564   */\n      0x20\n        /* \"#utility.yul\":20551:20560   */\n      dup3\n        /* \"#utility.yul\":20547:20565   */\n      add\n        /* \"#utility.yul\":20539:20565   */\n      swap1\n      pop\n        /* \"#utility.yul\":20611:20620   */\n      dup2\n        /* \"#utility.yul\":20605:20609   */\n      dup2\n        /* \"#utility.yul\":20601:20621   */\n      sub\n        /* \"#utility.yul\":20597:20598   */\n      0x00\n        /* \"#utility.yul\":20586:20595   */\n      dup4\n        /* \"#utility.yul\":20582:20599   */\n      add\n        /* \"#utility.yul\":20575:20622   */\n      mstore\n        /* \"#utility.yul\":20639:20770   */\n      tag_395\n        /* \"#utility.yul\":20765:20769   */\n      dup2\n        /* \"#utility.yul\":20639:20770   */\n      tag_195\n      jump\t// in\n    tag_395:\n        /* \"#utility.yul\":20631:20770   */\n      swap1\n      pop\n        /* \"#utility.yul\":20358:20777   */\n      swap2\n      swap1\n      pop\n      jump\t// out\n\n    auxdata: 0xa2646970667358221220da99748dbf582d082a6a7674e77b91b2c3b56f0d8ea6897301eb3e9127774ee864736f6c634300081a0033\n}\n",
				"bytecode": {
					"linkReferences": {},
					"object": "60806040525f600881905550335f806101000a81548173ffffffffffffffffffffffffffffffffffffffff021916908373ffffffffffffffffffffffffffffffffffffffff160217905550611956806100575f395ff3fe60806040526004361061006f575f3560e01c8063c2c042ca1161004d578063c2c042ca146100bb578063d990426e146100e7578063dfbf53ae1461010f578063e42d47271461013a5761006f565b80633bac5e75146100735780637b42f4011461007d5780639edd001014610093575b5f80fd5b61007b610162565b005b348015610088575f80fd5b50610091610344565b005b34801561009e575f80fd5b506100b960048036038101906100b49190610e3e565b610558565b005b3480156100c6575f80fd5b506100cf6108dc565b6040516100de93929190610f02565b60405180910390f35b3480156100f2575f80fd5b5061010d6004803603810190610108919061106a565b610985565b005b34801561011a575f80fd5b50610123610a83565b604051610131929190611103565b60405180910390f35b348015610145575f80fd5b50610160600480360381019061015b919061112a565b610ab3565b005b5f8054906101000a900473ffffffffffffffffffffffffffffffffffffffff1673ffffffffffffffffffffffffffffffffffffffff163373ffffffffffffffffffffffffffffffffffffffff16036101ef576040517f08c379a00000000000000000000000000000000000000000000000000000000081526004016101e6906111e1565b60405180910390fd5b60065f015f9054906101000a900473ffffffffffffffffffffffffffffffffffffffff1673ffffffffffffffffffffffffffffffffffffffff163373ffffffffffffffffffffffffffffffffffffffff1614610280576040517f08c379a00000000000000000000000000000000000000000000000000000000081526004016102779061126f565b60405180910390fd5b5f670de0b6b3a764000060066001015461029a91906112ba565b90503481146102de576040517f08c379a00000000000000000000000000000000000000000000000000000000081526004016102d59061136b565b60405180910390fd5b5f8054906101000a900473ffffffffffffffffffffffffffffffffffffffff1673ffffffffffffffffffffffffffffffffffffffff166108fc3490811502906040515f60405180830381858888f19350505050158015610340573d5f803e3d5ffd5b5050565b5f8054906101000a900473ffffffffffffffffffffffffffffffffffffffff1673ffffffffffffffffffffffffffffffffffffffff163373ffffffffffffffffffffffffffffffffffffffff16146103d1576040517f08c379a00000000000000000000000000000000000000000000000000000000081526004016103c8906113d3565b60405180910390fd5b5f6001600b546103e191906113f1565b9050600a5f8281526020019081526020015f2060065f82015f9054906101000a900473ffffffffffffffffffffffffffffffffffffffff16815f015f6101000a81548173ffffffffffffffffffffffffffffffffffffffff021916908373ffffffffffffffffffffffffffffffffffffffff16021790555060018201548160010155905050604051806060016040528060035f01805461048090611451565b80601f01602080910402602001604051908101604052809291908181526020018280546104ac90611451565b80156104f75780601f106104ce576101008083540402835291602001916104f7565b820191905f5260205f20905b8154815290600101906020018083116104da57829003601f168201915b5050505050815260200160036001015481526020016001151581525060035f820151815f019081610528919061161e565b50602082015181600101556040820151816002015f6101000a81548160ff02191690831515021790555090505050565b5f151560036002015f9054906101000a900460ff161515146105af576040517f08c379a00000000000000000000000000000000000000000000000000000000081526004016105a690611737565b60405180910390fd5b5f8054906101000a900473ffffffffffffffffffffffffffffffffffffffff1673ffffffffffffffffffffffffffffffffffffffff163373ffffffffffffffffffffffffffffffffffffffff160361063c576040517f08c379a0000000000000000000000000000000000000000000000000000000008152600401610633906111e1565b60405180910390fd5b610644610dcb565b5f805b6008548110156107a65760095f8281526020019081526020015f206040518060400160405290815f8201805461067c90611451565b80601f01602080910402602001604051908101604052809291908181526020018280546106a890611451565b80156106f35780601f106106ca576101008083540402835291602001916106f3565b820191905f5260205f20905b8154815290600101906020018083116106d657829003601f168201915b50505050508152602001600182015f9054906101000a900473ffffffffffffffffffffffffffffffffffffffff1673ffffffffffffffffffffffffffffffffffffffff1673ffffffffffffffffffffffffffffffffffffffff168152505092503373ffffffffffffffffffffffffffffffffffffffff16836020015173ffffffffffffffffffffffffffffffffffffffff160361079357600191506107a6565b808061079e90611755565b915050610647565b60011515821515146107ed576040517f08c379a00000000000000000000000000000000000000000000000000000000081526004016107e49061180c565b60405180910390fd5b83600c548111610832576040517f08c379a000000000000000000000000000000000000000000000000000000000815260040161082990611874565b60405180910390fd5b5f60405180604001604052803373ffffffffffffffffffffffffffffffffffffffff16815260200187815250905080600a5f600b5481526020019081526020015f205f820151815f015f6101000a81548173ffffffffffffffffffffffffffffffffffffffff021916908373ffffffffffffffffffffffffffffffffffffffff1602179055506020820151816001015590505085600c819055506108d4610d99565b505050505050565b6003805f0180546108ec90611451565b80601f016020809104026020016040519081016040528092919081815260200182805461091890611451565b80156109635780601f1061093a57610100808354040283529160200191610963565b820191905f5260205f20905b81548152906001019060200180831161094657829003601f168201915b505050505090806001015490806002015f9054906101000a900460ff16905083565b5f8054906101000a900473ffffffffffffffffffffffffffffffffffffffff1673ffffffffffffffffffffffffffffffffffffffff163373ffffffffffffffffffffffffffffffffffffffff1614610a12576040517f08c379a0000000000000000000000000000000000000000000000000000000008152600401610a09906113d3565b60405180910390fd5b60405180606001604052808381526020018281526020015f151581525060035f820151815f019081610a44919061161e565b50602082015181600101556040820151816002015f6101000a81548160ff02191690831515021790555090505080600c819055505f600b819055505050565b6006805f015f9054906101000a900473ffffffffffffffffffffffffffffffffffffffff16908060010154905082565b5f8054906101000a900473ffffffffffffffffffffffffffffffffffffffff1673ffffffffffffffffffffffffffffffffffffffff163373ffffffffffffffffffffffffffffffffffffffff1603610b40576040517f08c379a0000000000000000000000000000000000000000000000000000000008152600401610b37906111e1565b60405180910390fd5b610b48610dcb565b5f805b600854821015610caa5760095f8381526020019081526020015f206040518060400160405290815f82018054610b8090611451565b80601f0160208091040260200160405190810160405280929190818152602001828054610bac90611451565b8015610bf75780601f10610bce57610100808354040283529160200191610bf7565b820191905f5260205f20905b815481529060010190602001808311610bda57829003601f168201915b50505050508152602001600182015f9054906101000a900473ffffffffffffffffffffffffffffffffffffffff1673ffffffffffffffffffffffffffffffffffffffff1673ffffffffffffffffffffffffffffffffffffffff168152505092503373ffffffffffffffffffffffffffffffffffffffff16836020015173ffffffffffffffffffffffffffffffffffffffff1603610c975760019050610caa565b8180610ca290611755565b925050610b4b565b5f151581151514610cf0576040517f08c379a0000000000000000000000000000000000000000000000000000000008152600401610ce790611902565b60405180910390fd5b60405180604001604052808581526020013373ffffffffffffffffffffffffffffffffffffffff1681525060095f60085481526020019081526020015f205f820151815f019081610d41919061161e565b506020820151816001015f6101000a81548173ffffffffffffffffffffffffffffffffffffffff021916908373ffffffffffffffffffffffffffffffffffffffff160217905550905050610d93610db2565b50505050565b600b5f815480929190610dab90611755565b9190505550565b60085f815480929190610dc490611755565b9190505550565b6040518060400160405280606081526020015f73ffffffffffffffffffffffffffffffffffffffff1681525090565b5f604051905090565b5f80fd5b5f80fd5b5f819050919050565b610e1d81610e0b565b8114610e27575f80fd5b50565b5f81359050610e3881610e14565b92915050565b5f60208284031215610e5357610e52610e03565b5b5f610e6084828501610e2a565b91505092915050565b5f81519050919050565b5f82825260208201905092915050565b8281835e5f83830152505050565b5f601f19601f8301169050919050565b5f610eab82610e69565b610eb58185610e73565b9350610ec5818560208601610e83565b610ece81610e91565b840191505092915050565b610ee281610e0b565b82525050565b5f8115159050919050565b610efc81610ee8565b82525050565b5f6060820190508181035f830152610f1a8186610ea1565b9050610f296020830185610ed9565b610f366040830184610ef3565b949350505050565b5f80fd5b5f80fd5b7f4e487b71000000000000000000000000000000000000000000000000000000005f52604160045260245ffd5b610f7c82610e91565b810181811067ffffffffffffffff82111715610f9b57610f9a610f46565b5b80604052505050565b5f610fad610dfa565b9050610fb98282610f73565b919050565b5f67ffffffffffffffff821115610fd857610fd7610f46565b5b610fe182610e91565b9050602081019050919050565b828183375f83830152505050565b5f61100e61100984610fbe565b610fa4565b90508281526020810184848401111561102a57611029610f42565b5b611035848285610fee565b509392505050565b5f82601f83011261105157611050610f3e565b5b8135611061848260208601610ffc565b91505092915050565b5f80604083850312156110805761107f610e03565b5b5f83013567ffffffffffffffff81111561109d5761109c610e07565b5b6110a98582860161103d565b92505060206110ba85828601610e2a565b9150509250929050565b5f73ffffffffffffffffffffffffffffffffffffffff82169050919050565b5f6110ed826110c4565b9050919050565b6110fd816110e3565b82525050565b5f6040820190506111165f8301856110f4565b6111236020830184610ed9565b9392505050565b5f6020828403121561113f5761113e610e03565b5b5f82013567ffffffffffffffff81111561115c5761115b610e07565b5b6111688482850161103d565b91505092915050565b7f4f6e6c79207061727469636970616e74732063616e2074616b652070617274205f8201527f696e206120626964000000000000000000000000000000000000000000000000602082015250565b5f6111cb602883610e73565b91506111d682611171565b604082019050919050565b5f6020820190508181035f8301526111f8816111bf565b9050919050565b7f52652d636865636b20746865204269642057696e6e657227732077616c6c65745f8201527f2061646472657373000000000000000000000000000000000000000000000000602082015250565b5f611259602883610e73565b9150611264826111ff565b604082019050919050565b5f6020820190508181035f8301526112868161124d565b9050919050565b7f4e487b71000000000000000000000000000000000000000000000000000000005f52601160045260245ffd5b5f6112c482610e0b565b91506112cf83610e0b565b92508282026112dd81610e0b565b915082820484148315176112f4576112f361128d565b5b5092915050565b7f5472616e73616374696f6e20697320496e76616c69642e20496e636f727265635f8201527f742045544820616d6f756e742073656e742e0000000000000000000000000000602082015250565b5f611355603283610e73565b9150611360826112fb565b604082019050919050565b5f6020820190508181035f83015261138281611349565b9050919050565b7f496e76616c69642e0000000000000000000000000000000000000000000000005f82015250565b5f6113bd600883610e73565b91506113c882611389565b602082019050919050565b5f6020820190508181035f8301526113ea816113b1565b9050919050565b5f6113fb82610e0b565b915061140683610e0b565b925082820390508181111561141e5761141d61128d565b5b92915050565b7f4e487b71000000000000000000000000000000000000000000000000000000005f52602260045260245ffd5b5f600282049050600182168061146857607f821691505b60208210810361147b5761147a611424565b5b50919050565b5f819050815f5260205f209050919050565b5f6020601f8301049050919050565b5f82821b905092915050565b5f600883026114dd7fffffffffffffffffffffffffffffffffffffffffffffffffffffffffffffffff826114a2565b6114e786836114a2565b95508019841693508086168417925050509392505050565b5f819050919050565b5f61152261151d61151884610e0b565b6114ff565b610e0b565b9050919050565b5f819050919050565b61153b83611508565b61154f61154782611529565b8484546114ae565b825550505050565b5f90565b611563611557565b61156e818484611532565b505050565b5b81811015611591576115865f8261155b565b600181019050611574565b5050565b601f8211156115d6576115a781611481565b6115b084611493565b810160208510156115bf578190505b6115d36115cb85611493565b830182611573565b50505b505050565b5f82821c905092915050565b5f6115f65f19846008026115db565b1980831691505092915050565b5f61160e83836115e7565b9150826002028217905092915050565b61162782610e69565b67ffffffffffffffff8111156116405761163f610f46565b5b61164a8254611451565b611655828285611595565b5f60209050601f831160018114611686575f8415611674578287015190505b61167e8582611603565b8655506116e5565b601f19841661169486611481565b5f5b828110156116bb57848901518255600182019150602085019450602081019050611696565b868310156116d857848901516116d4601f8916826115e7565b8355505b6001600288020188555050505b505050505050565b7f5468652061756374696f6e206973206f7665722c205468616e6b20796f7521005f82015250565b5f611721601f83610e73565b915061172c826116ed565b602082019050919050565b5f6020820190508181035f83015261174e81611715565b9050919050565b5f61175f82610e0b565b91507fffffffffffffffffffffffffffffffffffffffffffffffffffffffffffffffff82036117915761179061128d565b5b600182019050919050565b7f496e76616c69643a20456e7375726520706172746963697069746174696f6e205f8201527f6265666f72652062696464696e6720626567696e730000000000000000000000602082015250565b5f6117f6603583610e73565b91506118018261179c565b604082019050919050565b5f6020820190508181035f830152611823816117ea565b9050919050565b7f42696420746f6f206c6f772c2068656e63652c2072656a6563746564210000005f82015250565b5f61185e601d83610e73565b91506118698261182a565b602082019050919050565b5f6020820190508181035f83015261188b81611852565b9050919050565b7f5468616e6b20796f752c2062757420796f752061726520616c726561647920725f8201527f656769737465726564202e000000000000000000000000000000000000000000602082015250565b5f6118ec602b83610e73565b91506118f782611892565b604082019050919050565b5f6020820190508181035f830152611919816118e0565b905091905056fea2646970667358221220da99748dbf582d082a6a7674e77b91b2c3b56f0d8ea6897301eb3e9127774ee864736f6c634300081a0033",
					"opcodes": "PUSH1 0x80 PUSH1 0x40 MSTORE PUSH0 PUSH1 0x8 DUP2 SWAP1 SSTORE POP CALLER PUSH0 DUP1 PUSH2 0x100 EXP DUP2 SLOAD DUP2 PUSH20 0xFFFFFFFFFFFFFFFFFFFFFFFFFFFFFFFFFFFFFFFF MUL NOT AND SWAP1 DUP4 PUSH20 0xFFFFFFFFFFFFFFFFFFFFFFFFFFFFFFFFFFFFFFFF AND MUL OR SWAP1 SSTORE POP PUSH2 0x1956 DUP1 PUSH2 0x57 PUSH0 CODECOPY PUSH0 RETURN INVALID PUSH1 0x80 PUSH1 0x40 MSTORE PUSH1 0x4 CALLDATASIZE LT PUSH2 0x6F JUMPI PUSH0 CALLDATALOAD PUSH1 0xE0 SHR DUP1 PUSH4 0xC2C042CA GT PUSH2 0x4D JUMPI DUP1 PUSH4 0xC2C042CA EQ PUSH2 0xBB JUMPI DUP1 PUSH4 0xD990426E EQ PUSH2 0xE7 JUMPI DUP1 PUSH4 0xDFBF53AE EQ PUSH2 0x10F JUMPI DUP1 PUSH4 0xE42D4727 EQ PUSH2 0x13A JUMPI PUSH2 0x6F JUMP JUMPDEST DUP1 PUSH4 0x3BAC5E75 EQ PUSH2 0x73 JUMPI DUP1 PUSH4 0x7B42F401 EQ PUSH2 0x7D JUMPI DUP1 PUSH4 0x9EDD0010 EQ PUSH2 0x93 JUMPI JUMPDEST PUSH0 DUP1 REVERT JUMPDEST PUSH2 0x7B PUSH2 0x162 JUMP JUMPDEST STOP JUMPDEST CALLVALUE DUP1 ISZERO PUSH2 0x88 JUMPI PUSH0 DUP1 REVERT JUMPDEST POP PUSH2 0x91 PUSH2 0x344 JUMP JUMPDEST STOP JUMPDEST CALLVALUE DUP1 ISZERO PUSH2 0x9E JUMPI PUSH0 DUP1 REVERT JUMPDEST POP PUSH2 0xB9 PUSH1 0x4 DUP1 CALLDATASIZE SUB DUP2 ADD SWAP1 PUSH2 0xB4 SWAP2 SWAP1 PUSH2 0xE3E JUMP JUMPDEST PUSH2 0x558 JUMP JUMPDEST STOP JUMPDEST CALLVALUE DUP1 ISZERO PUSH2 0xC6 JUMPI PUSH0 DUP1 REVERT JUMPDEST POP PUSH2 0xCF PUSH2 0x8DC JUMP JUMPDEST PUSH1 0x40 MLOAD PUSH2 0xDE SWAP4 SWAP3 SWAP2 SWAP1 PUSH2 0xF02 JUMP JUMPDEST PUSH1 0x40 MLOAD DUP1 SWAP2 SUB SWAP1 RETURN JUMPDEST CALLVALUE DUP1 ISZERO PUSH2 0xF2 JUMPI PUSH0 DUP1 REVERT JUMPDEST POP PUSH2 0x10D PUSH1 0x4 DUP1 CALLDATASIZE SUB DUP2 ADD SWAP1 PUSH2 0x108 SWAP2 SWAP1 PUSH2 0x106A JUMP JUMPDEST PUSH2 0x985 JUMP JUMPDEST STOP JUMPDEST CALLVALUE DUP1 ISZERO PUSH2 0x11A JUMPI PUSH0 DUP1 REVERT JUMPDEST POP PUSH2 0x123 PUSH2 0xA83 JUMP JUMPDEST PUSH1 0x40 MLOAD PUSH2 0x131 SWAP3 SWAP2 SWAP1 PUSH2 0x1103 JUMP JUMPDEST PUSH1 0x40 MLOAD DUP1 SWAP2 SUB SWAP1 RETURN JUMPDEST CALLVALUE DUP1 ISZERO PUSH2 0x145 JUMPI PUSH0 DUP1 REVERT JUMPDEST POP PUSH2 0x160 PUSH1 0x4 DUP1 CALLDATASIZE SUB DUP2 ADD SWAP1 PUSH2 0x15B SWAP2 SWAP1 PUSH2 0x112A JUMP JUMPDEST PUSH2 0xAB3 JUMP JUMPDEST STOP JUMPDEST PUSH0 DUP1 SLOAD SWAP1 PUSH2 0x100 EXP SWAP1 DIV PUSH20 0xFFFFFFFFFFFFFFFFFFFFFFFFFFFFFFFFFFFFFFFF AND PUSH20 0xFFFFFFFFFFFFFFFFFFFFFFFFFFFFFFFFFFFFFFFF AND CALLER PUSH20 0xFFFFFFFFFFFFFFFFFFFFFFFFFFFFFFFFFFFFFFFF AND SUB PUSH2 0x1EF JUMPI PUSH1 0x40 MLOAD PUSH32 0x8C379A000000000000000000000000000000000000000000000000000000000 DUP2 MSTORE PUSH1 0x4 ADD PUSH2 0x1E6 SWAP1 PUSH2 0x11E1 JUMP JUMPDEST PUSH1 0x40 MLOAD DUP1 SWAP2 SUB SWAP1 REVERT JUMPDEST PUSH1 0x6 PUSH0 ADD PUSH0 SWAP1 SLOAD SWAP1 PUSH2 0x100 EXP SWAP1 DIV PUSH20 0xFFFFFFFFFFFFFFFFFFFFFFFFFFFFFFFFFFFFFFFF AND PUSH20 0xFFFFFFFFFFFFFFFFFFFFFFFFFFFFFFFFFFFFFFFF AND CALLER PUSH20 0xFFFFFFFFFFFFFFFFFFFFFFFFFFFFFFFFFFFFFFFF AND EQ PUSH2 0x280 JUMPI PUSH1 0x40 MLOAD PUSH32 0x8C379A000000000000000000000000000000000000000000000000000000000 DUP2 MSTORE PUSH1 0x4 ADD PUSH2 0x277 SWAP1 PUSH2 0x126F JUMP JUMPDEST PUSH1 0x40 MLOAD DUP1 SWAP2 SUB SWAP1 REVERT JUMPDEST PUSH0 PUSH8 0xDE0B6B3A7640000 PUSH1 0x6 PUSH1 0x1 ADD SLOAD PUSH2 0x29A SWAP2 SWAP1 PUSH2 0x12BA JUMP JUMPDEST SWAP1 POP CALLVALUE DUP2 EQ PUSH2 0x2DE JUMPI PUSH1 0x40 MLOAD PUSH32 0x8C379A000000000000000000000000000000000000000000000000000000000 DUP2 MSTORE PUSH1 0x4 ADD PUSH2 0x2D5 SWAP1 PUSH2 0x136B JUMP JUMPDEST PUSH1 0x40 MLOAD DUP1 SWAP2 SUB SWAP1 REVERT JUMPDEST PUSH0 DUP1 SLOAD SWAP1 PUSH2 0x100 EXP SWAP1 DIV PUSH20 0xFFFFFFFFFFFFFFFFFFFFFFFFFFFFFFFFFFFFFFFF AND PUSH20 0xFFFFFFFFFFFFFFFFFFFFFFFFFFFFFFFFFFFFFFFF AND PUSH2 0x8FC CALLVALUE SWAP1 DUP2 ISZERO MUL SWAP1 PUSH1 0x40 MLOAD PUSH0 PUSH1 0x40 MLOAD DUP1 DUP4 SUB DUP2 DUP6 DUP9 DUP9 CALL SWAP4 POP POP POP POP ISZERO DUP1 ISZERO PUSH2 0x340 JUMPI RETURNDATASIZE PUSH0 DUP1 RETURNDATACOPY RETURNDATASIZE PUSH0 REVERT JUMPDEST POP POP JUMP JUMPDEST PUSH0 DUP1 SLOAD SWAP1 PUSH2 0x100 EXP SWAP1 DIV PUSH20 0xFFFFFFFFFFFFFFFFFFFFFFFFFFFFFFFFFFFFFFFF AND PUSH20 0xFFFFFFFFFFFFFFFFFFFFFFFFFFFFFFFFFFFFFFFF AND CALLER PUSH20 0xFFFFFFFFFFFFFFFFFFFFFFFFFFFFFFFFFFFFFFFF AND EQ PUSH2 0x3D1 JUMPI PUSH1 0x40 MLOAD PUSH32 0x8C379A000000000000000000000000000000000000000000000000000000000 DUP2 MSTORE PUSH1 0x4 ADD PUSH2 0x3C8 SWAP1 PUSH2 0x13D3 JUMP JUMPDEST PUSH1 0x40 MLOAD DUP1 SWAP2 SUB SWAP1 REVERT JUMPDEST PUSH0 PUSH1 0x1 PUSH1 0xB SLOAD PUSH2 0x3E1 SWAP2 SWAP1 PUSH2 0x13F1 JUMP JUMPDEST SWAP1 POP PUSH1 0xA PUSH0 DUP3 DUP2 MSTORE PUSH1 0x20 ADD SWAP1 DUP2 MSTORE PUSH1 0x20 ADD PUSH0 KECCAK256 PUSH1 0x6 PUSH0 DUP3 ADD PUSH0 SWAP1 SLOAD SWAP1 PUSH2 0x100 EXP SWAP1 DIV PUSH20 0xFFFFFFFFFFFFFFFFFFFFFFFFFFFFFFFFFFFFFFFF AND DUP2 PUSH0 ADD PUSH0 PUSH2 0x100 EXP DUP2 SLOAD DUP2 PUSH20 0xFFFFFFFFFFFFFFFFFFFFFFFFFFFFFFFFFFFFFFFF MUL NOT AND SWAP1 DUP4 PUSH20 0xFFFFFFFFFFFFFFFFFFFFFFFFFFFFFFFFFFFFFFFF AND MUL OR SWAP1 SSTORE POP PUSH1 0x1 DUP3 ADD SLOAD DUP2 PUSH1 0x1 ADD SSTORE SWAP1 POP POP PUSH1 0x40 MLOAD DUP1 PUSH1 0x60 ADD PUSH1 0x40 MSTORE DUP1 PUSH1 0x3 PUSH0 ADD DUP1 SLOAD PUSH2 0x480 SWAP1 PUSH2 0x1451 JUMP JUMPDEST DUP1 PUSH1 0x1F ADD PUSH1 0x20 DUP1 SWAP2 DIV MUL PUSH1 0x20 ADD PUSH1 0x40 MLOAD SWAP1 DUP2 ADD PUSH1 0x40 MSTORE DUP1 SWAP3 SWAP2 SWAP1 DUP2 DUP2 MSTORE PUSH1 0x20 ADD DUP3 DUP1 SLOAD PUSH2 0x4AC SWAP1 PUSH2 0x1451 JUMP JUMPDEST DUP1 ISZERO PUSH2 0x4F7 JUMPI DUP1 PUSH1 0x1F LT PUSH2 0x4CE JUMPI PUSH2 0x100 DUP1 DUP4 SLOAD DIV MUL DUP4 MSTORE SWAP2 PUSH1 0x20 ADD SWAP2 PUSH2 0x4F7 JUMP JUMPDEST DUP3 ADD SWAP2 SWAP1 PUSH0 MSTORE PUSH1 0x20 PUSH0 KECCAK256 SWAP1 JUMPDEST DUP2 SLOAD DUP2 MSTORE SWAP1 PUSH1 0x1 ADD SWAP1 PUSH1 0x20 ADD DUP1 DUP4 GT PUSH2 0x4DA JUMPI DUP3 SWAP1 SUB PUSH1 0x1F AND DUP3 ADD SWAP2 JUMPDEST POP POP POP POP POP DUP2 MSTORE PUSH1 0x20 ADD PUSH1 0x3 PUSH1 0x1 ADD SLOAD DUP2 MSTORE PUSH1 0x20 ADD PUSH1 0x1 ISZERO ISZERO DUP2 MSTORE POP PUSH1 0x3 PUSH0 DUP3 ADD MLOAD DUP2 PUSH0 ADD SWAP1 DUP2 PUSH2 0x528 SWAP2 SWAP1 PUSH2 0x161E JUMP JUMPDEST POP PUSH1 0x20 DUP3 ADD MLOAD DUP2 PUSH1 0x1 ADD SSTORE PUSH1 0x40 DUP3 ADD MLOAD DUP2 PUSH1 0x2 ADD PUSH0 PUSH2 0x100 EXP DUP2 SLOAD DUP2 PUSH1 0xFF MUL NOT AND SWAP1 DUP4 ISZERO ISZERO MUL OR SWAP1 SSTORE POP SWAP1 POP POP POP JUMP JUMPDEST PUSH0 ISZERO ISZERO PUSH1 0x3 PUSH1 0x2 ADD PUSH0 SWAP1 SLOAD SWAP1 PUSH2 0x100 EXP SWAP1 DIV PUSH1 0xFF AND ISZERO ISZERO EQ PUSH2 0x5AF JUMPI PUSH1 0x40 MLOAD PUSH32 0x8C379A000000000000000000000000000000000000000000000000000000000 DUP2 MSTORE PUSH1 0x4 ADD PUSH2 0x5A6 SWAP1 PUSH2 0x1737 JUMP JUMPDEST PUSH1 0x40 MLOAD DUP1 SWAP2 SUB SWAP1 REVERT JUMPDEST PUSH0 DUP1 SLOAD SWAP1 PUSH2 0x100 EXP SWAP1 DIV PUSH20 0xFFFFFFFFFFFFFFFFFFFFFFFFFFFFFFFFFFFFFFFF AND PUSH20 0xFFFFFFFFFFFFFFFFFFFFFFFFFFFFFFFFFFFFFFFF AND CALLER PUSH20 0xFFFFFFFFFFFFFFFFFFFFFFFFFFFFFFFFFFFFFFFF AND SUB PUSH2 0x63C JUMPI PUSH1 0x40 MLOAD PUSH32 0x8C379A000000000000000000000000000000000000000000000000000000000 DUP2 MSTORE PUSH1 0x4 ADD PUSH2 0x633 SWAP1 PUSH2 0x11E1 JUMP JUMPDEST PUSH1 0x40 MLOAD DUP1 SWAP2 SUB SWAP1 REVERT JUMPDEST PUSH2 0x644 PUSH2 0xDCB JUMP JUMPDEST PUSH0 DUP1 JUMPDEST PUSH1 0x8 SLOAD DUP2 LT ISZERO PUSH2 0x7A6 JUMPI PUSH1 0x9 PUSH0 DUP3 DUP2 MSTORE PUSH1 0x20 ADD SWAP1 DUP2 MSTORE PUSH1 0x20 ADD PUSH0 KECCAK256 PUSH1 0x40 MLOAD DUP1 PUSH1 0x40 ADD PUSH1 0x40 MSTORE SWAP1 DUP2 PUSH0 DUP3 ADD DUP1 SLOAD PUSH2 0x67C SWAP1 PUSH2 0x1451 JUMP JUMPDEST DUP1 PUSH1 0x1F ADD PUSH1 0x20 DUP1 SWAP2 DIV MUL PUSH1 0x20 ADD PUSH1 0x40 MLOAD SWAP1 DUP2 ADD PUSH1 0x40 MSTORE DUP1 SWAP3 SWAP2 SWAP1 DUP2 DUP2 MSTORE PUSH1 0x20 ADD DUP3 DUP1 SLOAD PUSH2 0x6A8 SWAP1 PUSH2 0x1451 JUMP JUMPDEST DUP1 ISZERO PUSH2 0x6F3 JUMPI DUP1 PUSH1 0x1F LT PUSH2 0x6CA JUMPI PUSH2 0x100 DUP1 DUP4 SLOAD DIV MUL DUP4 MSTORE SWAP2 PUSH1 0x20 ADD SWAP2 PUSH2 0x6F3 JUMP JUMPDEST DUP3 ADD SWAP2 SWAP1 PUSH0 MSTORE PUSH1 0x20 PUSH0 KECCAK256 SWAP1 JUMPDEST DUP2 SLOAD DUP2 MSTORE SWAP1 PUSH1 0x1 ADD SWAP1 PUSH1 0x20 ADD DUP1 DUP4 GT PUSH2 0x6D6 JUMPI DUP3 SWAP1 SUB PUSH1 0x1F AND DUP3 ADD SWAP2 JUMPDEST POP POP POP POP POP DUP2 MSTORE PUSH1 0x20 ADD PUSH1 0x1 DUP3 ADD PUSH0 SWAP1 SLOAD SWAP1 PUSH2 0x100 EXP SWAP1 DIV PUSH20 0xFFFFFFFFFFFFFFFFFFFFFFFFFFFFFFFFFFFFFFFF AND PUSH20 0xFFFFFFFFFFFFFFFFFFFFFFFFFFFFFFFFFFFFFFFF AND PUSH20 0xFFFFFFFFFFFFFFFFFFFFFFFFFFFFFFFFFFFFFFFF AND DUP2 MSTORE POP POP SWAP3 POP CALLER PUSH20 0xFFFFFFFFFFFFFFFFFFFFFFFFFFFFFFFFFFFFFFFF AND DUP4 PUSH1 0x20 ADD MLOAD PUSH20 0xFFFFFFFFFFFFFFFFFFFFFFFFFFFFFFFFFFFFFFFF AND SUB PUSH2 0x793 JUMPI PUSH1 0x1 SWAP2 POP PUSH2 0x7A6 JUMP JUMPDEST DUP1 DUP1 PUSH2 0x79E SWAP1 PUSH2 0x1755 JUMP JUMPDEST SWAP2 POP POP PUSH2 0x647 JUMP JUMPDEST PUSH1 0x1 ISZERO ISZERO DUP3 ISZERO ISZERO EQ PUSH2 0x7ED JUMPI PUSH1 0x40 MLOAD PUSH32 0x8C379A000000000000000000000000000000000000000000000000000000000 DUP2 MSTORE PUSH1 0x4 ADD PUSH2 0x7E4 SWAP1 PUSH2 0x180C JUMP JUMPDEST PUSH1 0x40 MLOAD DUP1 SWAP2 SUB SWAP1 REVERT JUMPDEST DUP4 PUSH1 0xC SLOAD DUP2 GT PUSH2 0x832 JUMPI PUSH1 0x40 MLOAD PUSH32 0x8C379A000000000000000000000000000000000000000000000000000000000 DUP2 MSTORE PUSH1 0x4 ADD PUSH2 0x829 SWAP1 PUSH2 0x1874 JUMP JUMPDEST PUSH1 0x40 MLOAD DUP1 SWAP2 SUB SWAP1 REVERT JUMPDEST PUSH0 PUSH1 0x40 MLOAD DUP1 PUSH1 0x40 ADD PUSH1 0x40 MSTORE DUP1 CALLER PUSH20 0xFFFFFFFFFFFFFFFFFFFFFFFFFFFFFFFFFFFFFFFF AND DUP2 MSTORE PUSH1 0x20 ADD DUP8 DUP2 MSTORE POP SWAP1 POP DUP1 PUSH1 0xA PUSH0 PUSH1 0xB SLOAD DUP2 MSTORE PUSH1 0x20 ADD SWAP1 DUP2 MSTORE PUSH1 0x20 ADD PUSH0 KECCAK256 PUSH0 DUP3 ADD MLOAD DUP2 PUSH0 ADD PUSH0 PUSH2 0x100 EXP DUP2 SLOAD DUP2 PUSH20 0xFFFFFFFFFFFFFFFFFFFFFFFFFFFFFFFFFFFFFFFF MUL NOT AND SWAP1 DUP4 PUSH20 0xFFFFFFFFFFFFFFFFFFFFFFFFFFFFFFFFFFFFFFFF AND MUL OR SWAP1 SSTORE POP PUSH1 0x20 DUP3 ADD MLOAD DUP2 PUSH1 0x1 ADD SSTORE SWAP1 POP POP DUP6 PUSH1 0xC DUP2 SWAP1 SSTORE POP PUSH2 0x8D4 PUSH2 0xD99 JUMP JUMPDEST POP POP POP POP POP POP JUMP JUMPDEST PUSH1 0x3 DUP1 PUSH0 ADD DUP1 SLOAD PUSH2 0x8EC SWAP1 PUSH2 0x1451 JUMP JUMPDEST DUP1 PUSH1 0x1F ADD PUSH1 0x20 DUP1 SWAP2 DIV MUL PUSH1 0x20 ADD PUSH1 0x40 MLOAD SWAP1 DUP2 ADD PUSH1 0x40 MSTORE DUP1 SWAP3 SWAP2 SWAP1 DUP2 DUP2 MSTORE PUSH1 0x20 ADD DUP3 DUP1 SLOAD PUSH2 0x918 SWAP1 PUSH2 0x1451 JUMP JUMPDEST DUP1 ISZERO PUSH2 0x963 JUMPI DUP1 PUSH1 0x1F LT PUSH2 0x93A JUMPI PUSH2 0x100 DUP1 DUP4 SLOAD DIV MUL DUP4 MSTORE SWAP2 PUSH1 0x20 ADD SWAP2 PUSH2 0x963 JUMP JUMPDEST DUP3 ADD SWAP2 SWAP1 PUSH0 MSTORE PUSH1 0x20 PUSH0 KECCAK256 SWAP1 JUMPDEST DUP2 SLOAD DUP2 MSTORE SWAP1 PUSH1 0x1 ADD SWAP1 PUSH1 0x20 ADD DUP1 DUP4 GT PUSH2 0x946 JUMPI DUP3 SWAP1 SUB PUSH1 0x1F AND DUP3 ADD SWAP2 JUMPDEST POP POP POP POP POP SWAP1 DUP1 PUSH1 0x1 ADD SLOAD SWAP1 DUP1 PUSH1 0x2 ADD PUSH0 SWAP1 SLOAD SWAP1 PUSH2 0x100 EXP SWAP1 DIV PUSH1 0xFF AND SWAP1 POP DUP4 JUMP JUMPDEST PUSH0 DUP1 SLOAD SWAP1 PUSH2 0x100 EXP SWAP1 DIV PUSH20 0xFFFFFFFFFFFFFFFFFFFFFFFFFFFFFFFFFFFFFFFF AND PUSH20 0xFFFFFFFFFFFFFFFFFFFFFFFFFFFFFFFFFFFFFFFF AND CALLER PUSH20 0xFFFFFFFFFFFFFFFFFFFFFFFFFFFFFFFFFFFFFFFF AND EQ PUSH2 0xA12 JUMPI PUSH1 0x40 MLOAD PUSH32 0x8C379A000000000000000000000000000000000000000000000000000000000 DUP2 MSTORE PUSH1 0x4 ADD PUSH2 0xA09 SWAP1 PUSH2 0x13D3 JUMP JUMPDEST PUSH1 0x40 MLOAD DUP1 SWAP2 SUB SWAP1 REVERT JUMPDEST PUSH1 0x40 MLOAD DUP1 PUSH1 0x60 ADD PUSH1 0x40 MSTORE DUP1 DUP4 DUP2 MSTORE PUSH1 0x20 ADD DUP3 DUP2 MSTORE PUSH1 0x20 ADD PUSH0 ISZERO ISZERO DUP2 MSTORE POP PUSH1 0x3 PUSH0 DUP3 ADD MLOAD DUP2 PUSH0 ADD SWAP1 DUP2 PUSH2 0xA44 SWAP2 SWAP1 PUSH2 0x161E JUMP JUMPDEST POP PUSH1 0x20 DUP3 ADD MLOAD DUP2 PUSH1 0x1 ADD SSTORE PUSH1 0x40 DUP3 ADD MLOAD DUP2 PUSH1 0x2 ADD PUSH0 PUSH2 0x100 EXP DUP2 SLOAD DUP2 PUSH1 0xFF MUL NOT AND SWAP1 DUP4 ISZERO ISZERO MUL OR SWAP1 SSTORE POP SWAP1 POP POP DUP1 PUSH1 0xC DUP2 SWAP1 SSTORE POP PUSH0 PUSH1 0xB DUP2 SWAP1 SSTORE POP POP POP JUMP JUMPDEST PUSH1 0x6 DUP1 PUSH0 ADD PUSH0 SWAP1 SLOAD SWAP1 PUSH2 0x100 EXP SWAP1 DIV PUSH20 0xFFFFFFFFFFFFFFFFFFFFFFFFFFFFFFFFFFFFFFFF AND SWAP1 DUP1 PUSH1 0x1 ADD SLOAD SWAP1 POP DUP3 JUMP JUMPDEST PUSH0 DUP1 SLOAD SWAP1 PUSH2 0x100 EXP SWAP1 DIV PUSH20 0xFFFFFFFFFFFFFFFFFFFFFFFFFFFFFFFFFFFFFFFF AND PUSH20 0xFFFFFFFFFFFFFFFFFFFFFFFFFFFFFFFFFFFFFFFF AND CALLER PUSH20 0xFFFFFFFFFFFFFFFFFFFFFFFFFFFFFFFFFFFFFFFF AND SUB PUSH2 0xB40 JUMPI PUSH1 0x40 MLOAD PUSH32 0x8C379A000000000000000000000000000000000000000000000000000000000 DUP2 MSTORE PUSH1 0x4 ADD PUSH2 0xB37 SWAP1 PUSH2 0x11E1 JUMP JUMPDEST PUSH1 0x40 MLOAD DUP1 SWAP2 SUB SWAP1 REVERT JUMPDEST PUSH2 0xB48 PUSH2 0xDCB JUMP JUMPDEST PUSH0 DUP1 JUMPDEST PUSH1 0x8 SLOAD DUP3 LT ISZERO PUSH2 0xCAA JUMPI PUSH1 0x9 PUSH0 DUP4 DUP2 MSTORE PUSH1 0x20 ADD SWAP1 DUP2 MSTORE PUSH1 0x20 ADD PUSH0 KECCAK256 PUSH1 0x40 MLOAD DUP1 PUSH1 0x40 ADD PUSH1 0x40 MSTORE SWAP1 DUP2 PUSH0 DUP3 ADD DUP1 SLOAD PUSH2 0xB80 SWAP1 PUSH2 0x1451 JUMP JUMPDEST DUP1 PUSH1 0x1F ADD PUSH1 0x20 DUP1 SWAP2 DIV MUL PUSH1 0x20 ADD PUSH1 0x40 MLOAD SWAP1 DUP2 ADD PUSH1 0x40 MSTORE DUP1 SWAP3 SWAP2 SWAP1 DUP2 DUP2 MSTORE PUSH1 0x20 ADD DUP3 DUP1 SLOAD PUSH2 0xBAC SWAP1 PUSH2 0x1451 JUMP JUMPDEST DUP1 ISZERO PUSH2 0xBF7 JUMPI DUP1 PUSH1 0x1F LT PUSH2 0xBCE JUMPI PUSH2 0x100 DUP1 DUP4 SLOAD DIV MUL DUP4 MSTORE SWAP2 PUSH1 0x20 ADD SWAP2 PUSH2 0xBF7 JUMP JUMPDEST DUP3 ADD SWAP2 SWAP1 PUSH0 MSTORE PUSH1 0x20 PUSH0 KECCAK256 SWAP1 JUMPDEST DUP2 SLOAD DUP2 MSTORE SWAP1 PUSH1 0x1 ADD SWAP1 PUSH1 0x20 ADD DUP1 DUP4 GT PUSH2 0xBDA JUMPI DUP3 SWAP1 SUB PUSH1 0x1F AND DUP3 ADD SWAP2 JUMPDEST POP POP POP POP POP DUP2 MSTORE PUSH1 0x20 ADD PUSH1 0x1 DUP3 ADD PUSH0 SWAP1 SLOAD SWAP1 PUSH2 0x100 EXP SWAP1 DIV PUSH20 0xFFFFFFFFFFFFFFFFFFFFFFFFFFFFFFFFFFFFFFFF AND PUSH20 0xFFFFFFFFFFFFFFFFFFFFFFFFFFFFFFFFFFFFFFFF AND PUSH20 0xFFFFFFFFFFFFFFFFFFFFFFFFFFFFFFFFFFFFFFFF AND DUP2 MSTORE POP POP SWAP3 POP CALLER PUSH20 0xFFFFFFFFFFFFFFFFFFFFFFFFFFFFFFFFFFFFFFFF AND DUP4 PUSH1 0x20 ADD MLOAD PUSH20 0xFFFFFFFFFFFFFFFFFFFFFFFFFFFFFFFFFFFFFFFF AND SUB PUSH2 0xC97 JUMPI PUSH1 0x1 SWAP1 POP PUSH2 0xCAA JUMP JUMPDEST DUP2 DUP1 PUSH2 0xCA2 SWAP1 PUSH2 0x1755 JUMP JUMPDEST SWAP3 POP POP PUSH2 0xB4B JUMP JUMPDEST PUSH0 ISZERO ISZERO DUP2 ISZERO ISZERO EQ PUSH2 0xCF0 JUMPI PUSH1 0x40 MLOAD PUSH32 0x8C379A000000000000000000000000000000000000000000000000000000000 DUP2 MSTORE PUSH1 0x4 ADD PUSH2 0xCE7 SWAP1 PUSH2 0x1902 JUMP JUMPDEST PUSH1 0x40 MLOAD DUP1 SWAP2 SUB SWAP1 REVERT JUMPDEST PUSH1 0x40 MLOAD DUP1 PUSH1 0x40 ADD PUSH1 0x40 MSTORE DUP1 DUP6 DUP2 MSTORE PUSH1 0x20 ADD CALLER PUSH20 0xFFFFFFFFFFFFFFFFFFFFFFFFFFFFFFFFFFFFFFFF AND DUP2 MSTORE POP PUSH1 0x9 PUSH0 PUSH1 0x8 SLOAD DUP2 MSTORE PUSH1 0x20 ADD SWAP1 DUP2 MSTORE PUSH1 0x20 ADD PUSH0 KECCAK256 PUSH0 DUP3 ADD MLOAD DUP2 PUSH0 ADD SWAP1 DUP2 PUSH2 0xD41 SWAP2 SWAP1 PUSH2 0x161E JUMP JUMPDEST POP PUSH1 0x20 DUP3 ADD MLOAD DUP2 PUSH1 0x1 ADD PUSH0 PUSH2 0x100 EXP DUP2 SLOAD DUP2 PUSH20 0xFFFFFFFFFFFFFFFFFFFFFFFFFFFFFFFFFFFFFFFF MUL NOT AND SWAP1 DUP4 PUSH20 0xFFFFFFFFFFFFFFFFFFFFFFFFFFFFFFFFFFFFFFFF AND MUL OR SWAP1 SSTORE POP SWAP1 POP POP PUSH2 0xD93 PUSH2 0xDB2 JUMP JUMPDEST POP POP POP POP JUMP JUMPDEST PUSH1 0xB PUSH0 DUP2 SLOAD DUP1 SWAP3 SWAP2 SWAP1 PUSH2 0xDAB SWAP1 PUSH2 0x1755 JUMP JUMPDEST SWAP2 SWAP1 POP SSTORE POP JUMP JUMPDEST PUSH1 0x8 PUSH0 DUP2 SLOAD DUP1 SWAP3 SWAP2 SWAP1 PUSH2 0xDC4 SWAP1 PUSH2 0x1755 JUMP JUMPDEST SWAP2 SWAP1 POP SSTORE POP JUMP JUMPDEST PUSH1 0x40 MLOAD DUP1 PUSH1 0x40 ADD PUSH1 0x40 MSTORE DUP1 PUSH1 0x60 DUP2 MSTORE PUSH1 0x20 ADD PUSH0 PUSH20 0xFFFFFFFFFFFFFFFFFFFFFFFFFFFFFFFFFFFFFFFF AND DUP2 MSTORE POP SWAP1 JUMP JUMPDEST PUSH0 PUSH1 0x40 MLOAD SWAP1 POP SWAP1 JUMP JUMPDEST PUSH0 DUP1 REVERT JUMPDEST PUSH0 DUP1 REVERT JUMPDEST PUSH0 DUP2 SWAP1 POP SWAP2 SWAP1 POP JUMP JUMPDEST PUSH2 0xE1D DUP2 PUSH2 0xE0B JUMP JUMPDEST DUP2 EQ PUSH2 0xE27 JUMPI PUSH0 DUP1 REVERT JUMPDEST POP JUMP JUMPDEST PUSH0 DUP2 CALLDATALOAD SWAP1 POP PUSH2 0xE38 DUP2 PUSH2 0xE14 JUMP JUMPDEST SWAP3 SWAP2 POP POP JUMP JUMPDEST PUSH0 PUSH1 0x20 DUP3 DUP5 SUB SLT ISZERO PUSH2 0xE53 JUMPI PUSH2 0xE52 PUSH2 0xE03 JUMP JUMPDEST JUMPDEST PUSH0 PUSH2 0xE60 DUP5 DUP3 DUP6 ADD PUSH2 0xE2A JUMP JUMPDEST SWAP2 POP POP SWAP3 SWAP2 POP POP JUMP JUMPDEST PUSH0 DUP2 MLOAD SWAP1 POP SWAP2 SWAP1 POP JUMP JUMPDEST PUSH0 DUP3 DUP3 MSTORE PUSH1 0x20 DUP3 ADD SWAP1 POP SWAP3 SWAP2 POP POP JUMP JUMPDEST DUP3 DUP2 DUP4 MCOPY PUSH0 DUP4 DUP4 ADD MSTORE POP POP POP JUMP JUMPDEST PUSH0 PUSH1 0x1F NOT PUSH1 0x1F DUP4 ADD AND SWAP1 POP SWAP2 SWAP1 POP JUMP JUMPDEST PUSH0 PUSH2 0xEAB DUP3 PUSH2 0xE69 JUMP JUMPDEST PUSH2 0xEB5 DUP2 DUP6 PUSH2 0xE73 JUMP JUMPDEST SWAP4 POP PUSH2 0xEC5 DUP2 DUP6 PUSH1 0x20 DUP7 ADD PUSH2 0xE83 JUMP JUMPDEST PUSH2 0xECE DUP2 PUSH2 0xE91 JUMP JUMPDEST DUP5 ADD SWAP2 POP POP SWAP3 SWAP2 POP POP JUMP JUMPDEST PUSH2 0xEE2 DUP2 PUSH2 0xE0B JUMP JUMPDEST DUP3 MSTORE POP POP JUMP JUMPDEST PUSH0 DUP2 ISZERO ISZERO SWAP1 POP SWAP2 SWAP1 POP JUMP JUMPDEST PUSH2 0xEFC DUP2 PUSH2 0xEE8 JUMP JUMPDEST DUP3 MSTORE POP POP JUMP JUMPDEST PUSH0 PUSH1 0x60 DUP3 ADD SWAP1 POP DUP2 DUP2 SUB PUSH0 DUP4 ADD MSTORE PUSH2 0xF1A DUP2 DUP7 PUSH2 0xEA1 JUMP JUMPDEST SWAP1 POP PUSH2 0xF29 PUSH1 0x20 DUP4 ADD DUP6 PUSH2 0xED9 JUMP JUMPDEST PUSH2 0xF36 PUSH1 0x40 DUP4 ADD DUP5 PUSH2 0xEF3 JUMP JUMPDEST SWAP5 SWAP4 POP POP POP POP JUMP JUMPDEST PUSH0 DUP1 REVERT JUMPDEST PUSH0 DUP1 REVERT JUMPDEST PUSH32 0x4E487B7100000000000000000000000000000000000000000000000000000000 PUSH0 MSTORE PUSH1 0x41 PUSH1 0x4 MSTORE PUSH1 0x24 PUSH0 REVERT JUMPDEST PUSH2 0xF7C DUP3 PUSH2 0xE91 JUMP JUMPDEST DUP2 ADD DUP2 DUP2 LT PUSH8 0xFFFFFFFFFFFFFFFF DUP3 GT OR ISZERO PUSH2 0xF9B JUMPI PUSH2 0xF9A PUSH2 0xF46 JUMP JUMPDEST JUMPDEST DUP1 PUSH1 0x40 MSTORE POP POP POP JUMP JUMPDEST PUSH0 PUSH2 0xFAD PUSH2 0xDFA JUMP JUMPDEST SWAP1 POP PUSH2 0xFB9 DUP3 DUP3 PUSH2 0xF73 JUMP JUMPDEST SWAP2 SWAP1 POP JUMP JUMPDEST PUSH0 PUSH8 0xFFFFFFFFFFFFFFFF DUP3 GT ISZERO PUSH2 0xFD8 JUMPI PUSH2 0xFD7 PUSH2 0xF46 JUMP JUMPDEST JUMPDEST PUSH2 0xFE1 DUP3 PUSH2 0xE91 JUMP JUMPDEST SWAP1 POP PUSH1 0x20 DUP2 ADD SWAP1 POP SWAP2 SWAP1 POP JUMP JUMPDEST DUP3 DUP2 DUP4 CALLDATACOPY PUSH0 DUP4 DUP4 ADD MSTORE POP POP POP JUMP JUMPDEST PUSH0 PUSH2 0x100E PUSH2 0x1009 DUP5 PUSH2 0xFBE JUMP JUMPDEST PUSH2 0xFA4 JUMP JUMPDEST SWAP1 POP DUP3 DUP2 MSTORE PUSH1 0x20 DUP2 ADD DUP5 DUP5 DUP5 ADD GT ISZERO PUSH2 0x102A JUMPI PUSH2 0x1029 PUSH2 0xF42 JUMP JUMPDEST JUMPDEST PUSH2 0x1035 DUP5 DUP3 DUP6 PUSH2 0xFEE JUMP JUMPDEST POP SWAP4 SWAP3 POP POP POP JUMP JUMPDEST PUSH0 DUP3 PUSH1 0x1F DUP4 ADD SLT PUSH2 0x1051 JUMPI PUSH2 0x1050 PUSH2 0xF3E JUMP JUMPDEST JUMPDEST DUP2 CALLDATALOAD PUSH2 0x1061 DUP5 DUP3 PUSH1 0x20 DUP7 ADD PUSH2 0xFFC JUMP JUMPDEST SWAP2 POP POP SWAP3 SWAP2 POP POP JUMP JUMPDEST PUSH0 DUP1 PUSH1 0x40 DUP4 DUP6 SUB SLT ISZERO PUSH2 0x1080 JUMPI PUSH2 0x107F PUSH2 0xE03 JUMP JUMPDEST JUMPDEST PUSH0 DUP4 ADD CALLDATALOAD PUSH8 0xFFFFFFFFFFFFFFFF DUP2 GT ISZERO PUSH2 0x109D JUMPI PUSH2 0x109C PUSH2 0xE07 JUMP JUMPDEST JUMPDEST PUSH2 0x10A9 DUP6 DUP3 DUP7 ADD PUSH2 0x103D JUMP JUMPDEST SWAP3 POP POP PUSH1 0x20 PUSH2 0x10BA DUP6 DUP3 DUP7 ADD PUSH2 0xE2A JUMP JUMPDEST SWAP2 POP POP SWAP3 POP SWAP3 SWAP1 POP JUMP JUMPDEST PUSH0 PUSH20 0xFFFFFFFFFFFFFFFFFFFFFFFFFFFFFFFFFFFFFFFF DUP3 AND SWAP1 POP SWAP2 SWAP1 POP JUMP JUMPDEST PUSH0 PUSH2 0x10ED DUP3 PUSH2 0x10C4 JUMP JUMPDEST SWAP1 POP SWAP2 SWAP1 POP JUMP JUMPDEST PUSH2 0x10FD DUP2 PUSH2 0x10E3 JUMP JUMPDEST DUP3 MSTORE POP POP JUMP JUMPDEST PUSH0 PUSH1 0x40 DUP3 ADD SWAP1 POP PUSH2 0x1116 PUSH0 DUP4 ADD DUP6 PUSH2 0x10F4 JUMP JUMPDEST PUSH2 0x1123 PUSH1 0x20 DUP4 ADD DUP5 PUSH2 0xED9 JUMP JUMPDEST SWAP4 SWAP3 POP POP POP JUMP JUMPDEST PUSH0 PUSH1 0x20 DUP3 DUP5 SUB SLT ISZERO PUSH2 0x113F JUMPI PUSH2 0x113E PUSH2 0xE03 JUMP JUMPDEST JUMPDEST PUSH0 DUP3 ADD CALLDATALOAD PUSH8 0xFFFFFFFFFFFFFFFF DUP2 GT ISZERO PUSH2 0x115C JUMPI PUSH2 0x115B PUSH2 0xE07 JUMP JUMPDEST JUMPDEST PUSH2 0x1168 DUP5 DUP3 DUP6 ADD PUSH2 0x103D JUMP JUMPDEST SWAP2 POP POP SWAP3 SWAP2 POP POP JUMP JUMPDEST PUSH32 0x4F6E6C79207061727469636970616E74732063616E2074616B65207061727420 PUSH0 DUP3 ADD MSTORE PUSH32 0x696E206120626964000000000000000000000000000000000000000000000000 PUSH1 0x20 DUP3 ADD MSTORE POP JUMP JUMPDEST PUSH0 PUSH2 0x11CB PUSH1 0x28 DUP4 PUSH2 0xE73 JUMP JUMPDEST SWAP2 POP PUSH2 0x11D6 DUP3 PUSH2 0x1171 JUMP JUMPDEST PUSH1 0x40 DUP3 ADD SWAP1 POP SWAP2 SWAP1 POP JUMP JUMPDEST PUSH0 PUSH1 0x20 DUP3 ADD SWAP1 POP DUP2 DUP2 SUB PUSH0 DUP4 ADD MSTORE PUSH2 0x11F8 DUP2 PUSH2 0x11BF JUMP JUMPDEST SWAP1 POP SWAP2 SWAP1 POP JUMP JUMPDEST PUSH32 0x52652D636865636B20746865204269642057696E6E657227732077616C6C6574 PUSH0 DUP3 ADD MSTORE PUSH32 0x2061646472657373000000000000000000000000000000000000000000000000 PUSH1 0x20 DUP3 ADD MSTORE POP JUMP JUMPDEST PUSH0 PUSH2 0x1259 PUSH1 0x28 DUP4 PUSH2 0xE73 JUMP JUMPDEST SWAP2 POP PUSH2 0x1264 DUP3 PUSH2 0x11FF JUMP JUMPDEST PUSH1 0x40 DUP3 ADD SWAP1 POP SWAP2 SWAP1 POP JUMP JUMPDEST PUSH0 PUSH1 0x20 DUP3 ADD SWAP1 POP DUP2 DUP2 SUB PUSH0 DUP4 ADD MSTORE PUSH2 0x1286 DUP2 PUSH2 0x124D JUMP JUMPDEST SWAP1 POP SWAP2 SWAP1 POP JUMP JUMPDEST PUSH32 0x4E487B7100000000000000000000000000000000000000000000000000000000 PUSH0 MSTORE PUSH1 0x11 PUSH1 0x4 MSTORE PUSH1 0x24 PUSH0 REVERT JUMPDEST PUSH0 PUSH2 0x12C4 DUP3 PUSH2 0xE0B JUMP JUMPDEST SWAP2 POP PUSH2 0x12CF DUP4 PUSH2 0xE0B JUMP JUMPDEST SWAP3 POP DUP3 DUP3 MUL PUSH2 0x12DD DUP2 PUSH2 0xE0B JUMP JUMPDEST SWAP2 POP DUP3 DUP3 DIV DUP5 EQ DUP4 ISZERO OR PUSH2 0x12F4 JUMPI PUSH2 0x12F3 PUSH2 0x128D JUMP JUMPDEST JUMPDEST POP SWAP3 SWAP2 POP POP JUMP JUMPDEST PUSH32 0x5472616E73616374696F6E20697320496E76616C69642E20496E636F72726563 PUSH0 DUP3 ADD MSTORE PUSH32 0x742045544820616D6F756E742073656E742E0000000000000000000000000000 PUSH1 0x20 DUP3 ADD MSTORE POP JUMP JUMPDEST PUSH0 PUSH2 0x1355 PUSH1 0x32 DUP4 PUSH2 0xE73 JUMP JUMPDEST SWAP2 POP PUSH2 0x1360 DUP3 PUSH2 0x12FB JUMP JUMPDEST PUSH1 0x40 DUP3 ADD SWAP1 POP SWAP2 SWAP1 POP JUMP JUMPDEST PUSH0 PUSH1 0x20 DUP3 ADD SWAP1 POP DUP2 DUP2 SUB PUSH0 DUP4 ADD MSTORE PUSH2 0x1382 DUP2 PUSH2 0x1349 JUMP JUMPDEST SWAP1 POP SWAP2 SWAP1 POP JUMP JUMPDEST PUSH32 0x496E76616C69642E000000000000000000000000000000000000000000000000 PUSH0 DUP3 ADD MSTORE POP JUMP JUMPDEST PUSH0 PUSH2 0x13BD PUSH1 0x8 DUP4 PUSH2 0xE73 JUMP JUMPDEST SWAP2 POP PUSH2 0x13C8 DUP3 PUSH2 0x1389 JUMP JUMPDEST PUSH1 0x20 DUP3 ADD SWAP1 POP SWAP2 SWAP1 POP JUMP JUMPDEST PUSH0 PUSH1 0x20 DUP3 ADD SWAP1 POP DUP2 DUP2 SUB PUSH0 DUP4 ADD MSTORE PUSH2 0x13EA DUP2 PUSH2 0x13B1 JUMP JUMPDEST SWAP1 POP SWAP2 SWAP1 POP JUMP JUMPDEST PUSH0 PUSH2 0x13FB DUP3 PUSH2 0xE0B JUMP JUMPDEST SWAP2 POP PUSH2 0x1406 DUP4 PUSH2 0xE0B JUMP JUMPDEST SWAP3 POP DUP3 DUP3 SUB SWAP1 POP DUP2 DUP2 GT ISZERO PUSH2 0x141E JUMPI PUSH2 0x141D PUSH2 0x128D JUMP JUMPDEST JUMPDEST SWAP3 SWAP2 POP POP JUMP JUMPDEST PUSH32 0x4E487B7100000000000000000000000000000000000000000000000000000000 PUSH0 MSTORE PUSH1 0x22 PUSH1 0x4 MSTORE PUSH1 0x24 PUSH0 REVERT JUMPDEST PUSH0 PUSH1 0x2 DUP3 DIV SWAP1 POP PUSH1 0x1 DUP3 AND DUP1 PUSH2 0x1468 JUMPI PUSH1 0x7F DUP3 AND SWAP2 POP JUMPDEST PUSH1 0x20 DUP3 LT DUP2 SUB PUSH2 0x147B JUMPI PUSH2 0x147A PUSH2 0x1424 JUMP JUMPDEST JUMPDEST POP SWAP2 SWAP1 POP JUMP JUMPDEST PUSH0 DUP2 SWAP1 POP DUP2 PUSH0 MSTORE PUSH1 0x20 PUSH0 KECCAK256 SWAP1 POP SWAP2 SWAP1 POP JUMP JUMPDEST PUSH0 PUSH1 0x20 PUSH1 0x1F DUP4 ADD DIV SWAP1 POP SWAP2 SWAP1 POP JUMP JUMPDEST PUSH0 DUP3 DUP3 SHL SWAP1 POP SWAP3 SWAP2 POP POP JUMP JUMPDEST PUSH0 PUSH1 0x8 DUP4 MUL PUSH2 0x14DD PUSH32 0xFFFFFFFFFFFFFFFFFFFFFFFFFFFFFFFFFFFFFFFFFFFFFFFFFFFFFFFFFFFFFFFF DUP3 PUSH2 0x14A2 JUMP JUMPDEST PUSH2 0x14E7 DUP7 DUP4 PUSH2 0x14A2 JUMP JUMPDEST SWAP6 POP DUP1 NOT DUP5 AND SWAP4 POP DUP1 DUP7 AND DUP5 OR SWAP3 POP POP POP SWAP4 SWAP3 POP POP POP JUMP JUMPDEST PUSH0 DUP2 SWAP1 POP SWAP2 SWAP1 POP JUMP JUMPDEST PUSH0 PUSH2 0x1522 PUSH2 0x151D PUSH2 0x1518 DUP5 PUSH2 0xE0B JUMP JUMPDEST PUSH2 0x14FF JUMP JUMPDEST PUSH2 0xE0B JUMP JUMPDEST SWAP1 POP SWAP2 SWAP1 POP JUMP JUMPDEST PUSH0 DUP2 SWAP1 POP SWAP2 SWAP1 POP JUMP JUMPDEST PUSH2 0x153B DUP4 PUSH2 0x1508 JUMP JUMPDEST PUSH2 0x154F PUSH2 0x1547 DUP3 PUSH2 0x1529 JUMP JUMPDEST DUP5 DUP5 SLOAD PUSH2 0x14AE JUMP JUMPDEST DUP3 SSTORE POP POP POP POP JUMP JUMPDEST PUSH0 SWAP1 JUMP JUMPDEST PUSH2 0x1563 PUSH2 0x1557 JUMP JUMPDEST PUSH2 0x156E DUP2 DUP5 DUP5 PUSH2 0x1532 JUMP JUMPDEST POP POP POP JUMP JUMPDEST JUMPDEST DUP2 DUP2 LT ISZERO PUSH2 0x1591 JUMPI PUSH2 0x1586 PUSH0 DUP3 PUSH2 0x155B JUMP JUMPDEST PUSH1 0x1 DUP2 ADD SWAP1 POP PUSH2 0x1574 JUMP JUMPDEST POP POP JUMP JUMPDEST PUSH1 0x1F DUP3 GT ISZERO PUSH2 0x15D6 JUMPI PUSH2 0x15A7 DUP2 PUSH2 0x1481 JUMP JUMPDEST PUSH2 0x15B0 DUP5 PUSH2 0x1493 JUMP JUMPDEST DUP2 ADD PUSH1 0x20 DUP6 LT ISZERO PUSH2 0x15BF JUMPI DUP2 SWAP1 POP JUMPDEST PUSH2 0x15D3 PUSH2 0x15CB DUP6 PUSH2 0x1493 JUMP JUMPDEST DUP4 ADD DUP3 PUSH2 0x1573 JUMP JUMPDEST POP POP JUMPDEST POP POP POP JUMP JUMPDEST PUSH0 DUP3 DUP3 SHR SWAP1 POP SWAP3 SWAP2 POP POP JUMP JUMPDEST PUSH0 PUSH2 0x15F6 PUSH0 NOT DUP5 PUSH1 0x8 MUL PUSH2 0x15DB JUMP JUMPDEST NOT DUP1 DUP4 AND SWAP2 POP POP SWAP3 SWAP2 POP POP JUMP JUMPDEST PUSH0 PUSH2 0x160E DUP4 DUP4 PUSH2 0x15E7 JUMP JUMPDEST SWAP2 POP DUP3 PUSH1 0x2 MUL DUP3 OR SWAP1 POP SWAP3 SWAP2 POP POP JUMP JUMPDEST PUSH2 0x1627 DUP3 PUSH2 0xE69 JUMP JUMPDEST PUSH8 0xFFFFFFFFFFFFFFFF DUP2 GT ISZERO PUSH2 0x1640 JUMPI PUSH2 0x163F PUSH2 0xF46 JUMP JUMPDEST JUMPDEST PUSH2 0x164A DUP3 SLOAD PUSH2 0x1451 JUMP JUMPDEST PUSH2 0x1655 DUP3 DUP3 DUP6 PUSH2 0x1595 JUMP JUMPDEST PUSH0 PUSH1 0x20 SWAP1 POP PUSH1 0x1F DUP4 GT PUSH1 0x1 DUP2 EQ PUSH2 0x1686 JUMPI PUSH0 DUP5 ISZERO PUSH2 0x1674 JUMPI DUP3 DUP8 ADD MLOAD SWAP1 POP JUMPDEST PUSH2 0x167E DUP6 DUP3 PUSH2 0x1603 JUMP JUMPDEST DUP7 SSTORE POP PUSH2 0x16E5 JUMP JUMPDEST PUSH1 0x1F NOT DUP5 AND PUSH2 0x1694 DUP7 PUSH2 0x1481 JUMP JUMPDEST PUSH0 JUMPDEST DUP3 DUP2 LT ISZERO PUSH2 0x16BB JUMPI DUP5 DUP10 ADD MLOAD DUP3 SSTORE PUSH1 0x1 DUP3 ADD SWAP2 POP PUSH1 0x20 DUP6 ADD SWAP5 POP PUSH1 0x20 DUP2 ADD SWAP1 POP PUSH2 0x1696 JUMP JUMPDEST DUP7 DUP4 LT ISZERO PUSH2 0x16D8 JUMPI DUP5 DUP10 ADD MLOAD PUSH2 0x16D4 PUSH1 0x1F DUP10 AND DUP3 PUSH2 0x15E7 JUMP JUMPDEST DUP4 SSTORE POP JUMPDEST PUSH1 0x1 PUSH1 0x2 DUP9 MUL ADD DUP9 SSTORE POP POP POP JUMPDEST POP POP POP POP POP POP JUMP JUMPDEST PUSH32 0x5468652061756374696F6E206973206F7665722C205468616E6B20796F752100 PUSH0 DUP3 ADD MSTORE POP JUMP JUMPDEST PUSH0 PUSH2 0x1721 PUSH1 0x1F DUP4 PUSH2 0xE73 JUMP JUMPDEST SWAP2 POP PUSH2 0x172C DUP3 PUSH2 0x16ED JUMP JUMPDEST PUSH1 0x20 DUP3 ADD SWAP1 POP SWAP2 SWAP1 POP JUMP JUMPDEST PUSH0 PUSH1 0x20 DUP3 ADD SWAP1 POP DUP2 DUP2 SUB PUSH0 DUP4 ADD MSTORE PUSH2 0x174E DUP2 PUSH2 0x1715 JUMP JUMPDEST SWAP1 POP SWAP2 SWAP1 POP JUMP JUMPDEST PUSH0 PUSH2 0x175F DUP3 PUSH2 0xE0B JUMP JUMPDEST SWAP2 POP PUSH32 0xFFFFFFFFFFFFFFFFFFFFFFFFFFFFFFFFFFFFFFFFFFFFFFFFFFFFFFFFFFFFFFFF DUP3 SUB PUSH2 0x1791 JUMPI PUSH2 0x1790 PUSH2 0x128D JUMP JUMPDEST JUMPDEST PUSH1 0x1 DUP3 ADD SWAP1 POP SWAP2 SWAP1 POP JUMP JUMPDEST PUSH32 0x496E76616C69643A20456E7375726520706172746963697069746174696F6E20 PUSH0 DUP3 ADD MSTORE PUSH32 0x6265666F72652062696464696E6720626567696E730000000000000000000000 PUSH1 0x20 DUP3 ADD MSTORE POP JUMP JUMPDEST PUSH0 PUSH2 0x17F6 PUSH1 0x35 DUP4 PUSH2 0xE73 JUMP JUMPDEST SWAP2 POP PUSH2 0x1801 DUP3 PUSH2 0x179C JUMP JUMPDEST PUSH1 0x40 DUP3 ADD SWAP1 POP SWAP2 SWAP1 POP JUMP JUMPDEST PUSH0 PUSH1 0x20 DUP3 ADD SWAP1 POP DUP2 DUP2 SUB PUSH0 DUP4 ADD MSTORE PUSH2 0x1823 DUP2 PUSH2 0x17EA JUMP JUMPDEST SWAP1 POP SWAP2 SWAP1 POP JUMP JUMPDEST PUSH32 0x42696420746F6F206C6F772C2068656E63652C2072656A656374656421000000 PUSH0 DUP3 ADD MSTORE POP JUMP JUMPDEST PUSH0 PUSH2 0x185E PUSH1 0x1D DUP4 PUSH2 0xE73 JUMP JUMPDEST SWAP2 POP PUSH2 0x1869 DUP3 PUSH2 0x182A JUMP JUMPDEST PUSH1 0x20 DUP3 ADD SWAP1 POP SWAP2 SWAP1 POP JUMP JUMPDEST PUSH0 PUSH1 0x20 DUP3 ADD SWAP1 POP DUP2 DUP2 SUB PUSH0 DUP4 ADD MSTORE PUSH2 0x188B DUP2 PUSH2 0x1852 JUMP JUMPDEST SWAP1 POP SWAP2 SWAP1 POP JUMP JUMPDEST PUSH32 0x5468616E6B20796F752C2062757420796F752061726520616C72656164792072 PUSH0 DUP3 ADD MSTORE PUSH32 0x656769737465726564202E000000000000000000000000000000000000000000 PUSH1 0x20 DUP3 ADD MSTORE POP JUMP JUMPDEST PUSH0 PUSH2 0x18EC PUSH1 0x2B DUP4 PUSH2 0xE73 JUMP JUMPDEST SWAP2 POP PUSH2 0x18F7 DUP3 PUSH2 0x1892 JUMP JUMPDEST PUSH1 0x40 DUP3 ADD SWAP1 POP SWAP2 SWAP1 POP JUMP JUMPDEST PUSH0 PUSH1 0x20 DUP3 ADD SWAP1 POP DUP2 DUP2 SUB PUSH0 DUP4 ADD MSTORE PUSH2 0x1919 DUP2 PUSH2 0x18E0 JUMP JUMPDEST SWAP1 POP SWAP2 SWAP1 POP JUMP INVALID LOG2 PUSH5 0x6970667358 0x22 SLT KECCAK256 0xDA SWAP10 PUSH21 0x8DBF582D082A6A7674E77B91B2C3B56F0D8EA68973 ADD 0xEB RETURNDATACOPY SWAP2 0x27 PUSH24 0x4EE864736F6C634300081A00330000000000000000000000 "
				},
				"gasEstimates": {
					"creation": {
						"codeDepositCost": "1297200",
						"executionCost": "30601",
						"totalCost": "1327801"
					},
					"external": {
						"BidderRegisterMaster(string)": "infinite",
						"MyBidding(uint256)": "infinite",
						"auctionItem()": "infinite",
						"declareAuctionResult()": "infinite",
						"setAuctionItem(string,uint256)": "infinite",
						"transferBidAmount()": "infinite",
						"winner()": "4776"
					},
					"internal": {
						"gotoNextBidder()": "24363",
						"gotoNextBlockchain()": "24363"
					}
				},
				"methodIdentifiers": {
					"BidderRegisterMaster(string)": "e42d4727",
					"MyBidding(uint256)": "9edd0010",
					"auctionItem()": "c2c042ca",
					"declareAuctionResult()": "7b42f401",
					"setAuctionItem(string,uint256)": "d990426e",
					"transferBidAmount()": "3bac5e75",
					"winner()": "dfbf53ae"
				}
			},
			"storageLayout": {
				"storage": [
					{
						"astId": 23,
						"contract": "contracts/Auction.sol:Auction",
						"label": "auctionManager",
						"offset": 0,
						"slot": "0",
						"type": "t_address_payable"
					},
					{
						"astId": 26,
						"contract": "contracts/Auction.sol:Auction",
						"label": "auctionBidder",
						"offset": 0,
						"slot": "1",
						"type": "t_struct(AdminUser)13_storage"
					},
					{
						"astId": 29,
						"contract": "contracts/Auction.sol:Auction",
						"label": "auctionItem",
						"offset": 0,
						"slot": "3",
						"type": "t_struct(AdminItem)8_storage"
					},
					{
						"astId": 32,
						"contract": "contracts/Auction.sol:Auction",
						"label": "winner",
						"offset": 0,
						"slot": "6",
						"type": "t_struct(AdminBid)18_storage"
					},
					{
						"astId": 34,
						"contract": "contracts/Auction.sol:Auction",
						"label": "regNo",
						"offset": 0,
						"slot": "8",
						"type": "t_uint256"
					},
					{
						"astId": 39,
						"contract": "contracts/Auction.sol:Auction",
						"label": "auctionBidderRegister",
						"offset": 0,
						"slot": "9",
						"type": "t_mapping(t_uint256,t_struct(AdminUser)13_storage)"
					},
					{
						"astId": 44,
						"contract": "contracts/Auction.sol:Auction",
						"label": "auctionChain",
						"offset": 0,
						"slot": "10",
						"type": "t_mapping(t_uint256,t_struct(AdminBid)18_storage)"
					},
					{
						"astId": 46,
						"contract": "contracts/Auction.sol:Auction",
						"label": "chainNo",
						"offset": 0,
						"slot": "11",
						"type": "t_uint256"
					},
					{
						"astId": 48,
						"contract": "contracts/Auction.sol:Auction",
						"label": "maxBidValue",
						"offset": 0,
						"slot": "12",
						"type": "t_uint256"
					}
				],
				"types": {
					"t_address": {
						"encoding": "inplace",
						"label": "address",
						"numberOfBytes": "20"
					},
					"t_address_payable": {
						"encoding": "inplace",
						"label": "address payable",
						"numberOfBytes": "20"
					},
					"t_bool": {
						"encoding": "inplace",
						"label": "bool",
						"numberOfBytes": "1"
					},
					"t_mapping(t_uint256,t_struct(AdminBid)18_storage)": {
						"encoding": "mapping",
						"key": "t_uint256",
						"label": "mapping(uint256 => struct AdminBid)",
						"numberOfBytes": "32",
						"value": "t_struct(AdminBid)18_storage"
					},
					"t_mapping(t_uint256,t_struct(AdminUser)13_storage)": {
						"encoding": "mapping",
						"key": "t_uint256",
						"label": "mapping(uint256 => struct AdminUser)",
						"numberOfBytes": "32",
						"value": "t_struct(AdminUser)13_storage"
					},
					"t_string_storage": {
						"encoding": "bytes",
						"label": "string",
						"numberOfBytes": "32"
					},
					"t_struct(AdminBid)18_storage": {
						"encoding": "inplace",
						"label": "struct AdminBid",
						"members": [
							{
								"astId": 15,
								"contract": "contracts/Auction.sol:Auction",
								"label": "bidderWallet",
								"offset": 0,
								"slot": "0",
								"type": "t_address"
							},
							{
								"astId": 17,
								"contract": "contracts/Auction.sol:Auction",
								"label": "bidPlaced",
								"offset": 0,
								"slot": "1",
								"type": "t_uint256"
							}
						],
						"numberOfBytes": "64"
					},
					"t_struct(AdminItem)8_storage": {
						"encoding": "inplace",
						"label": "struct AdminItem",
						"members": [
							{
								"astId": 3,
								"contract": "contracts/Auction.sol:Auction",
								"label": "itemTitle",
								"offset": 0,
								"slot": "0",
								"type": "t_string_storage"
							},
							{
								"astId": 5,
								"contract": "contracts/Auction.sol:Auction",
								"label": "startingPrice",
								"offset": 0,
								"slot": "1",
								"type": "t_uint256"
							},
							{
								"astId": 7,
								"contract": "contracts/Auction.sol:Auction",
								"label": "auctionClosed",
								"offset": 0,
								"slot": "2",
								"type": "t_bool"
							}
						],
						"numberOfBytes": "96"
					},
					"t_struct(AdminUser)13_storage": {
						"encoding": "inplace",
						"label": "struct AdminUser",
						"members": [
							{
								"astId": 10,
								"contract": "contracts/Auction.sol:Auction",
								"label": "userName",
								"offset": 0,
								"slot": "0",
								"type": "t_string_storage"
							},
							{
								"astId": 12,
								"contract": "contracts/Auction.sol:Auction",
								"label": "userWallet",
								"offset": 0,
								"slot": "1",
								"type": "t_address_payable"
							}
						],
						"numberOfBytes": "64"
					},
					"t_uint256": {
						"encoding": "inplace",
						"label": "uint256",
						"numberOfBytes": "32"
					}
				}
			},
			"userdoc": {
				"kind": "user",
				"methods": {},
				"version": 1
			}
		}
	}
}